:020000040800F2
:1000000050120024E5030008E9DB000841BD0008A8
:10001000E1DB000811180008590301080000000086
:10002000000000000000000000000000E9E40008FB
:10003000912300080000000069DC0008E1E60008E8
:10004000FF030008FF030008FF030008FF03000888
:10005000FF030008FF030008FF030008FF03000878
:10006000FF030008D9240008E9240008C918000883
:10007000D9180008E9180008FF030008FF0300086A
:10008000FF030008FF030008FF030008FF03000848
:10009000FF030008FF030008FF030008F92400081D
:1000A000FF030008FF030008FF030008FF03000828
:1000B00049E9000859E9000869E90008FF03000858
:1000C000FF030008FF030008FF030008FF03000808
:1000D000FF030008FF030008FF03000849030108AD
:1000E000C9240008FF03000800000000FF03000807
:1000F000FF030008FF030008FF030008FF030008D8
:10010000FF030008FF030008FF030008FF030008C7
:10011000FF030008FF030008FF030008FF030008B7
:10012000FF030008FF030008FF030008FF030008A7
:10013000FF030008FF030008FF030008FF03000897
:1001400000000000000000000000000000000000AF
:10015000FF030008FF030008FF030008FF03000877
:10016000FF030008FF030008FF030008FF03000867
:10017000FF030008FF030008FF0300080000000061
:10018000FF030008FF030008FF03000811F3000845
:10019000FF030008FF030008FF030008FF03000837
:1001A000FF030008FF030008FF030008FF03000827
:1001B000FF030008FF030008FF030008FF03000817
:1001C000FF030008FF030008FF030008FF03000807
:1001D000FF030008FF030008FF030008FF030008F7
:1001E000FF030008FF030008FF030008FF030008E7
:1001F000FF030008FF030008FF030008FF030008D7
:10020000FF030008FF030008FF030008FF030008C6
:10021000FF030008FF030008FF030008FF030008B6
:10022000FF030008FF030008FF03000800000000B0
:10023000FF030008FF03000800000000FF030008A0
:10024000FF030008FF030008FF030008FF03000886
:10025000FF030008FF030008FF030008FF03000876
:10026000FF030008FF030008FF030008FF03000866
:10027000FF030008FF030008FF0300080000000060
:10028000FF030008FF030008FF0300080000000050
:1002900000000000FF03000800F002F800F092F8F0
:1002A0000AA090E8000C82448344AAF10107DA45D1
:1002B00001D100F087F8AFF2090EBAE80F0013F091
:1002C000010F18BFFB1A43F001031847A460010097
:1002D000C4600100103A24BF78C878C1FAD8520728
:1002E00024BF30C830C144BF04680C6070470000B0
:1002F0000023002400250026103A28BF78C1FBD82F
:10030000520728BF30C148BF0B6070476E2900F00C
:100310004D82702900F08F83662915F06684652967
:1003200015F06384672915F06084612915F05F84F6
:1003300003681B0A28BF41F08001692900F0FA8197
:10034000642900F0F781752900F0F4816F2900F02D
:100350001D83782900F05B83E92900F0B782E42946
:1003600000F0B482F52900F0B182EF2900F01A8381
:10037000F82900F05A830368DB0928BF41F08001A7
:10038000632901F08D80732901F09280E32901F047
:100390009D80F32901F0A280002070471FB515F061
:1003A00017FC01F0F1F804000020002115F0FAFB21
:1003B000401C60600020002115F0DEFBE0601FBDE6
:1003C00010B510BD01F0B2F81146FFF7E7FF14F0C9
:1003D000F3FD01F08FF903B4FFF7F2FF03BC01F066
:1003E000D5F900000948804709480047FEE7FEE7C5
:1003F000FEE7FEE7FEE7FEE7FEE7FEE7FEE7FEE7D5
:1004000004480549054A064B70470000E1E700082B
:1004100099020008500C002450120024500E0024B1
:10042000500E002453EA020C00F069802DE9F04BD5
:100430004FF00006002B1FBFB3FA83F503FA05F453
:1004400024FA05F65E4012BF1643B2FA82F502FAAC
:1004500005F4C5F120051EBF22FA05FC44EA0C0490
:10046000203556EA044C4FEA144418BF641C4FF080
:1004700000084FF00009904271EB030C39D30029BA
:1004800019BFB1FA81F701FA07F6B0FA80F700FA5E
:1004900007F6C7F120071EBF20FA07FC46EA0C0644
:1004A0002037B6FBF4FCA7EB0507103F07F01F0B46
:1004B000CBF120062CFA06F60CFA0BFB44BFB34630
:1004C0000026202FA4BF5E464FF0000B5BEA060C0F
:1004D00008BF4FF0010B19EB0B0948EB0608ABFB0B
:1004E000027C06FB02CC0BFB03CCC01B71EB0C01A6
:1004F000C1E70B46024641464846BDE8F08B13B5BE
:10050000084318BF4FF0FF300146AFF30080BDE84D
:100510001C4070470FB41CB5084B06AA7B446946C3
:100520000090059800F05BF904460020694600F051
:1005300069F920461CBC5DF814FB0000E5020000D0
:10054000002800DA4042704740EA0103024630B515
:100550009B0710D14FF0013400E008C208C91D1BF1
:100560009D4315EAC41FF8D013F0FF0102F8011BE8
:100570000DD01B0AF8E711F8013B002B02F8013BF4
:1005800005D011F8013B002B02F8013BF3D130BD3F
:10059000032A40F2308010F0030C00F0158011F8AF
:1005A000013BBCF1020F624498BF11F801CB00F887
:1005B000013B38BF11F8013BA2F1040298BF00F8DB
:1005C00001CB38BF00F8013B11F0030300F00283B8
:1005D000083AC0F0088051F8043B083A51F804CBBF
:1005E000A0E80810F5E7121D5CBF51F8043B40F885
:1005F000043BAFF30080D20724BF11F8013B11F890
:1006000001CB48BF11F8012B24BF00F8013B00F8D3
:1006100001CB48BF00F8012B70474FF0000200B536
:10062000134694469646203922BFA0E80C50A0E815
:100630000C50B1F12001BFF4F7AF090728BFA0E8C3
:100640000C5048BF0CC05DF804EB890028BF40F88F
:10065000042B08BF704748BF20F8022B11F0804FD1
:1006600018BF00F8012B704770477047704770B58E
:10067000044685690068C10601D5302600E02026C1
:10068000C00707D070BDD4E9012130469047206AE9
:10069000401C20626D1EF6D570BD70B5044685699C
:1006A0000078C00707D170BDD4E901212020904710
:1006B000206A401C20626D1EF6D570BD09684A058F
:1006C00001D540B27047C905FCD500B27047096832
:1006D0004A0501D5C0B27047C905FCD580B2704744
:1006E00070B50C460546012A05D02878800600D54D
:1006F000EA69002302E0012305E05B1C934202D279
:10070000E05C0028F9D1A869E618C01AA861286A37
:10071000184428622846FFF7AAFF04E0D5E9012122
:1007200014F8010B9047B442F8D32846FFF7B5FF01
:1007300070BD00002DE9F0410646002410687529BF
:10074000314616A510D0FFF7B9FF002802DA404263
:1007500013A507E031688A0701D512A502E0490711
:1007600004D511A5012401E0FFF7B1FF00210A2201
:1007700006F1240709E0B0FBF2FCB0FBF2F302FB48
:100780001C00303078541846491C0028F3D1234609
:100790002A463046BDE8F04100F093BA0000000060
:1007A0002D0000002B0000002000000011680268EE
:1007B000006A530501D508700AE0D30501D5088009
:1007C00006E0130603D5C217C1E9000200E0086085
:1007D0000120704701694A1C02610878704700B522
:1007E0008FB0CDE901310021059105497944CDE96A
:1007F00003101146684600F029F90FB000BD000053
:10080000E5FFFFFF0A6802F8010B0A60704700006D
:100810002DE9FF5F15468A460446DFF8AC80F844B0
:100820000027D8E900103E46CDE9001010E03AF864
:1008300016106A4602A800F055FE411C07D0217828
:10084000890603D5E269391891420DD80744761C10
:100850002078800602D5E069B84205DDAE42E6DBCD
:100860003AF816000028E2D1A069C01BA06120461A
:10087000FFF7FDFED8E90010CDE90010002017E0D9
:100880003AF818106A4602A800F02CFEB0F1FF3FBB
:1008900081460BD000250DF1080B05E0D4E90121BC
:1008A0001BF8050090476D1C4D45F7D308F101007A
:1008B000B0428046E4DB206A384420622046FFF7DD
:1008C000ECFEBDE8FF9F0000D25301002DE9F0418E
:1008D0008046D21D22F007020025D2E90002F52948
:1008E00015A614D0011E72F1000106DA0023D0EB28
:1008F000030063EB020211A608E0D8F800108B0792
:1009000001D50FA602E0490701D50EA60125114623
:10091000002408F1240704E000F08EF930323A5543
:10092000641C50EA0102F7D12B463246214640466C
:10093000BDE8F04100F0C5B9000000002D00000046
:100940002B0000002000000030B4002100F124043E
:1009500008E002F00705D208303542EA4372DB08AE
:100960006554491C52EA0305F3D10468002310A220
:10097000250708D504F020040C4304D0C4690123E2
:100980000CA2641EC46130BC00F09BB910B50446D3
:1009900021461068FFF79BFE02462046BDE8104046
:1009A0000023D1E7D21D22F00701D1E90023CBE7D4
:1009B0000000000030000000F0B40D460188090579
:1009C00002D5214C7C4402E01F4C7C440E340021B3
:1009D00000F1240608E002F00F071209E75D42EA81
:1009E00003721B097754491C52EA0307F3D10278BA
:1009F0000023120704D5702D06D009B1022311344B
:100A00002246F0BC00F05DB901231034F8E770B560
:100A100004460D4621461068FFF759FE0246294656
:100A20002046BDE870400023C6E7D21D22F0070330
:100A3000D3E90023C0E70368126843F02003036092
:100A40000823C3610023B7E7345201002DE9F05FAA
:100A5000894604464FF0000ADFF874B1FB44C0F841
:100A600020A02046E1688847002874D0252806D0B9
:100A7000D4E901219047206A401C2062F1E700265A
:100A80005F462046E16888472028054607DB312D70
:100A900005D2781910F8200C08B10643F1E7B00729
:100AA00001D526F00406C4F81CA00027C4F818A03D
:100AB0002A2D09D0284615F057F838B304EB8708DB
:100AC000303DC8F8185019E059F8041B204604EBD3
:100AD00087029161E1688847012F054618D1E069D6
:100AE000002820DA26F020061DE0D8F8180000EBD8
:100AF000800005EB40003038C8F818002046E16857
:100B00008847054615F030F80028EED1012F0AD0AD
:100B10002E2D08D12046E16888477F1C0546022F0C
:100B200046F02006C4DBA069002803DA404246F004
:100B30000106A061F00701D026F010066C2D0BD045
:100B4000682D09D04C2D39D06A2D35D0742D35D073
:100B50007A2D33D016E038E0E1682F4620468847EA
:100B6000B842054609D16C2F26D04FF48060E16869
:100B7000064320468847054604E06C2F1AD04FF400
:100B8000807006430DB3A5F14100192802D8203525
:100B900046F400664A462946204626604E46FFF740
:100BA000B5FB80B101280BD0F61D26F0070000F13F
:100BB000080956E74020E4E78020D8E70020D6E780
:100BC00006F104094DE7284652E7206ABDE8F09F88
:100BD000C451010010B5203AC0F00B80B1E81850A4
:100BE000A0E81850B1E81850A0E81850203ABFF417
:100BF000F5AF5FEA027C24BFB1E81850A0E81850B6
:100C000044BF18C918C0BDE810405FEA827C24BF09
:100C100051F8043B40F8043B08BF7047D20728BF97
:100C200031F8023B48BF11F8012B28BF20F8023BE6
:100C300048BF00F8012B704730B5B0F10A0271F1DE
:100C400000034FEA900E4EEA817EB0EB0E0061EB9E
:100C500091014FEA101E4EEA017E10EB0E0041EBAF
:100C600011114FEA102E4EEA016E10EB0E0041EB0F
:100C700011214FEA104E4EEA014E10EB0E0041EBEF
:100C80001141401841F100014FEAD00040EA4170A3
:100C90004FEAD1014FEA810444EA907410EB8005D9
:100CA00044EB01046D1944EB0404521BA3414FF0C3
:100CB000000348BF0A3200D530BD401C41F100019D
:100CC00030BD2DE9F0470D4699469246044600F1A5
:100CD00024080168880604D5E06921F0100121602C
:100CE00000E00120A84201DD471B00E00027A169C8
:100CF0007A1902EB0900081AA0612078C00602D414
:100D00002046FFF7B4FC002608E0D4E901211AF8D8
:100D100006009047206A401C761C20624E45F4DB9A
:100D20002078C0060AD52046FFF7A1FC06E0D4E9EA
:100D3000012130209047206A401C2062381EA7F114
:100D40000107F4DC07E0D4E9012118F80500904719
:100D5000206A401C2062281EA5F10105F3DC204614
:100D6000FFF79BFC2078000602D50220BDE8F08743
:100D70000120FBE72DE9FF4F0C461E464FF0FF37E1
:100D80008BB0D2E90001DDF860800A908A46C1F399
:100D90000A5505B93D46002108464FF00000BAF15A
:100DA000000F00F4400005DA00EB80004FF4400132
:100DB00001EA50004FEA9059B9F1010F00DDB94640
:100DC0000A9850EA4A000ED044F61050A5F2FF35BA
:100DD00045432F14B8F1000F1ED07542291E1EDDA9
:100DE000C9F100021CE0B8F1010F4FF0000001D082
:100DF000302103E0F24305E02154401CB042FBDB0C
:100E000030460022002121540B99C1F80880C1E925
:100E100000200FB0BDE8F08FBD1B6D1CDEE74A4619
:100E200000DA694206A800F0F3FB06AB93E807007E
:100E300003AB83E8070050460A9914F0B5FA8DE831
:100E40000700A0F500501F3800900398002D0ADD20
:100E500042F21F014A460844002303A90390684652
:100E600014F01EFD09E0A0F500504A461F3800238B
:100E700003A90390684614F028FD8DE807000004DC
:100E8000000C03D04FF0FF30410800E01046B8F1ED
:100E9000000F03D00022009215461EE0751E05D4F7
:100EA000FFF7CAFE303262556D1EF9D5B3460122F6
:100EB000084302D000227F1C04E02078302801D1B2
:100EC00000227F1E002A099784D01DE0112D07DA29
:100ED000FFF7B2FE303262556D1C50EA0102F5D1C7
:100EE000084302D00098C8B10EE00021681E05E05A
:100EF000235C625C63542254401E491C8142F7DB30
:100F0000AB46A81B401E0990002004F80B000B986C
:100F1000099AC0F80880C0E9002B7AE711264FF043
:100F2000000857E72DE9F04F88460446D21D22F00D
:100F3000070191B0D1E90001CDE90A0114F0FCFDEF
:100F400002460B98C00F01D02D2007E020688107D2
:100F500001D52B2002E0202101EAC000032A0990DC
:100F600001D0072A05DB03464146204600F010FB6E
:100F70000BE12078800601D5E06900E00620B8F199
:100F8000650F814606D0B8F1660F18D0B8F1670F2B
:100F900070D131E00020B9F1110F009001DB112375
:100FA00001E009F101030AAA01A90CA8FFF7E2FE7A
:100FB000DDE90C70002609F10105834647E00120B8
:100FC0004B4600904FF000470AAA01A90CA8FFF772
:100FD000D1FEDDE90DB00C995D46002610B909F18E
:100FE00001000D18B9EB050003D4C0F1FF3609F17B
:100FF0000105A5EB09002BE0B9F1010F01DA4FF073
:1010000001090020B9F1110F0090484601DD1123BC
:1010100000E003460AAA01A90CA8FFF7ABFEDDE930
:101020000C704D4600268346207800070AD4AB4555
:1010300000DA5D4601A8012D04DD411911F8011CFB
:10104000302907D04F4502DA17F1040F04DA0120E6
:1010500082460FE06D1EEEE7002F02DCED1B3E44E2
:1010600003E0781CA84200DD7D1CB81B00F1010ADA
:101070004FF000472078000703D4AA4501DB4FF06A
:10108000FF3A0021B7F1004F0DF143088DF84310EE
:1010900024D002202B23002F01DA7F422D230A21A6
:1010A000021EA0F1010000DC5FB197FBF1FC97FB91
:1010B000F1F201FB1C7C17460CF1300C08F801CD55
:1010C000EEE7A8F1010003702188090501D545214B
:1010D00000E06521A0F1010800F8011C09980FA9A2
:1010E000A1EB0807FF1D00B10120411901EBEA70D7
:1010F000A1693844081A401EA0612078C00602D4B5
:101100002046FFF7B4FA099828B1D4E901219047A5
:10111000206A401C20622078C00622D52046FFF7B6
:10112000A6FA1EE0002E04DBB34502DD01A8805DB7
:1011300000E03020D4E901219047206A401C206261
:10114000761CAAF101005FEA000A0AD100F01CFA3D
:10115000C0680168405CD4E901219047206A401CC6
:101160002062281EA5F10105DCDC07E0D4E901219D
:1011700018F8010B9047206A401C2062381EA7F126
:101180000107F3DC2046FFF788FA032011B041E69F
:101190002DE9F04F04460D46D21D22F0070089B01C
:1011A000D0E900974846394614F0C6FC0246F80FCD
:1011B00001D02D2307E02068810701D52B2302E011
:1011C000202101EAC0038DF820300BB1012000E09E
:1011D0000020032A824601D0072A04DB2946204644
:1011E00000F0D6F93FE12078800601D40D2500E01B
:1011F000E569C7F30A560D2D49DA00214FEA175B5E
:1012000008464FF00000002F00F4400007DA00EB22
:1012100080004FF4400100EBD07001EA60008115BE
:10122000012901DD4FF0FF3100224FEA850CBCF1AE
:10123000180F06D31346ACF118004FF08052C2408D
:1012400003E04FF4801323FA0CF30CF10C0CBCF107
:10125000200F04D3ACF1200C09FA0CF001E007FADE
:101260000CF000294FF0004801DD18B90FE00ED155
:1012700040450CD319EB02095F4121B9404502D129
:101280009F4329EA0209BBEB175F00D0761C208838
:10129000000502D57B48784402E07A487844193842
:1012A00008AA302302F80A30037C0AF10101002E5B
:1012B0000AF1020A53546A4602DC4FF0300101E0A1
:1012C0004FF031014FF001088DF8001002D0A6F266
:1012D000FF3603E059EA470100D06B4E002D02DCD7
:1012E0002178090704D54FF002082E218DF801104E
:1012F000C44600210BE0C7F303433F01C35C491C14
:101300006D1E02F80830052908F1010801DA002DE8
:10131000F1DC00210CE000EB1973491C1B786D1EF9
:10132000082902F808304FEA091908F1010801DA22
:10133000002DF0DC21688B0602D516E0A8F101082B
:10134000E04505DD02EB080313F8013C302BF5D036
:10135000B8F1000F09DD02EB080313F8013C2E2B56
:1013600003D1090701D4A8F10108002D05DD3E21B4
:1013700002F808106D1E08F10108407C002E02F8EA
:10138000080008F1010804DA2D20764202F808006E
:1013900002E02B2002F808000A214FF47A708642FE
:1013A00008F101080BDB96FBF0F3303302F808304C
:1013B00096FBF0F308F1010800FB136601E0642ED0
:1013C0000CDB642096FBF0F3303302F8083096FB18
:1013D000F0F308F1010800FB136601E00A2E06DBBA
:1013E00096FBF1F0303002F8080008F1010896FB96
:1013F000F1F001FB1060303002F80800A16908F13B
:10140000010808EB050202EB0A00081AA061207827
:10141000C00602D42046FFF72AF9216A08AE01EB84
:101420000A00206204E0D4E9012116F8010B90477C
:10143000BAF1010AF7D22078C00602D52046FFF79C
:1014400016F96E4609E016F8010B3E280FD0D4E9D4
:1014500001219047206A401C2062B8F10108F2D2B5
:101460002046FFF71AF909B00320BDE8F08F206A83
:101470002844206203E0D4E90121302090476D1E0A
:10148000EBD3F8E7AE49010002FCFFFF10B543695A
:1014900013B1AFF3008001E0FFF722F9012010BD86
:1014A000127800F124010A7000224A700122EDE74F
:1014B00011684FF0FF32E9E710B5436913B1AFF39C
:1014C000008001E0FFF7A4F9012010BD128800F1AF
:1014D000240182840022C2840122EDE711684FF0CA
:1014E000FF32E9E72DE9F04116460C46054600F0CB
:1014F00043F8036893F80101012807D0FF2C12D8A4
:10150000185D80B101202C70BDE8F081D3F807018F
:101510003246214603F20713C7182846BC46BDE8E9
:10152000F041002360474FF0FF30EDE7754600F0D3
:10153000EBF8AE4605006946534620F007008546A5
:1015400018B020B5FEF75CFFBDE820404FF0000664
:101550004FF000074FF000084FF0000BAC46ACE82E
:10156000C009ACE8C009ACE8C009ACE8C00921F08A
:1015700007018D467047000010B500F005F8001D0A
:1015800010BD00BF21460100004870473003002411
:101590002DE9F0411F46044603260168072A01F49D
:1015A000006004DB08B116A505E016A503E008B14C
:1015B00015A500E015A521F010002060A069C01E4F
:1015C000A0610FB1401EA0612046FFF750F84FB157
:1015D000D4E9012138469047206A401C2062C01C93
:1015E000206206E0206AFAE7D4E9012115F8010B30
:1015F0009047761EF8D22046FFF74FF8BDE8F081FD
:101600004E414E006E616E00494E4600696E6600A6
:101610002DE9F047814616468AB0354878440DC812
:101620008DE80D0032487844801C03AC0DC884E876
:101630000D0041F69B300844372190FBF1F290FBFE
:10164000F1F5A5F1800501FB12041B3C02D56442B3
:10165000012000E00020DFF898A080460027FA442F
:10166000AAF1BE0A0EE0E0070AD03246684607EB50
:10167000470101230AEB810114F027F98DE80700E7
:1016800064107F1C002CEED1194F7F44AE3F19E04F
:10169000E80715D007EB04100DF1180A90E80E00CA
:1016A0008AE80E00C068F04201D1981908903246CD
:1016B000012306A903A814F008F903AB83E8070087
:1016C0006D10641C002DE3D14FF0010332466946D2
:1016D000B8F1000F03A802D014F0E2F801E014F012
:1016E000F4F8C9E90001C9F808200AB0BDE8F0879C
:1016F000B846010010B50446AFF300802046BDE8AF
:101700001040FEF768BE0000004870471003002438
:1017100030B44FF0013C50F8042BCCFA52F451F89D
:10172000043BD51A20D1FCB950F8042BCCFA52F462
:1017300051F8043BD51A17D1B4B950F8042BCCFAA0
:1017400052F451F8043BD51A0ED16CB950F8042B61
:10175000CCFA52F451F8043BD51A05D1002CDAD05A
:1017600030BC4FF00000704729BAB1FA81F111F096
:101770001801D1F120008440F2D1CA40CB4012F0D0
:10178000FF0213F0FF0330BCD01A70470149182044
:10179000ABBEFEE72600020070470000000000001C
:1017A00080B540F60000C5F602004FF4005100225B
:1017B00004F04AFE80BD000081B040F27030C2F2F9
:1017C0000040016801310160006864280ADBFFE71E
:1017D00040F27030C2F200400021016001208DF81B
:1017E000030003E000208DF80300FFE79DF80300ED
:1017F00001B070470000000080B540F60000C5F65B
:1018000002004FF40051012204F01EFE80BD0000D2
:10181000FFE7FEE70000000081B040F27430C2F242
:1018200000400168013101600068C8280ADBFFE759
:1018300040F27430C2F200400021016001208DF8B6
:10184000030003E000208DF80300FFE79DF803008C
:1018500001B070470000000080B540F60000C5F6FA
:1018600002004FF40051002204F0EEFD80BD0000A4
:1018700081B0009000980178407841EA002000B2E1
:1018800001B070470000000081B040F28430C2F225
:101890000040016801310160006864280ADBFFE74D
:1018A00040F28430C2F200400021016001208DF836
:1018B000030003E000208DF80300FFE79DF803001C
:1018C00001B070470000000080B540F26C50C2F2D9
:1018D000004002F0C9F980BD80B540F2F440C2F288
:1018E000004002F0C1F980BD80B540F27C40C2F2F8
:1018F000004002F0B9F980BD83B002900298006800
:1019000001211022C4F202029042009100F0A38053
:10191000FFE70298006801212822C4F202029042E7
:10192000009100F09880FFE70298006801214022B2
:10193000C4F202029042009100F08D80FFE702980D
:10194000006801215822C4F202029042009100F086
:101950008280FFE70298006801217022C4F202022F
:101960009042009177D0FFE7029800680121882219
:10197000C4F20202904200916DD0FFE70298006825
:101980000121A022C4F202029042009163D0FFE73D
:10199000029800680121B822C4F20202904200912C
:1019A00059D0FFE702980068012140F21042C4F2CA
:1019B0000202904200914ED0FFE702980068012198
:1019C00040F22842C4F202029042009143D0FFE765
:1019D00002980068012140F24042C4F202029042A3
:1019E000009138D0FFE702980068012140F2584288
:1019F000C4F20202904200912DD0FFE702980068E5
:101A0000012140F27042C4F202029042009122D0C1
:101A1000FFE702980068012140F28842C4F2020206
:101A20009042009117D0FFE702980068012140F230
:101A3000A042C4F20202904200910CD0FFE702984B
:101A400000684FF64831CBF6FD710844B0FA80F0DB
:101A500040090090FFE70098C007002828D0FFE762
:101A60000298007810384AF6AB21CAF6AA21A0FBEA
:101A7000010109090191019901F0070145F60052A0
:101A8000C0F60102515C029AD1650199042907D37D
:101A9000FFE702980168042262F30901816506E00C
:101AA0000298016840F2FF3291438165FFE705E04B
:101AB0000298016821F0FF018165FFE70298806DBF
:101AC00003B070470000000084B0039003980068E2
:101AD000019003980068012145F20842C5F6020210
:101AE000904200914ED0FFE703980068012145F233
:101AF0001C42C5F602029042009143D0FFE70398D2
:101B00000068012145F23042C5F602029042009180
:101B100038D0FFE703980068012145F24442C5F63A
:101B20000202904200912DD0FFE703980068012146
:101B300045F25842C5F602029042009122D0FFE7DA
:101B400003980068012145F26C42C5F602029042FA
:101B5000009117D0FFE703980068012145F2804209
:101B6000C5F60202904200910CD0FFE7039800688E
:101B70004AF66C31CAF2FD710844B0FA80F04009AF
:101B80000090FFE70098C007002823D0FFE70398E4
:101B9000007808384CF6CD41CCF6CC41A0FB0101D1
:101BA00009090291029945F60002C5F6020202EB0C
:101BB0008101039A1166039945F68002C5F6020277
:101BC0004A66029901F01F01012202FA01F1039A0B
:101BD000916636E00398007810384AF6AB21CAF6D1
:101BE000AA21A0FB010109090291019940F2B84222
:101BF000C4F2020291420CD8FFE7019840F2104172
:101C0000C4F20201884204D3FFE702980830029030
:101C1000FFE7029840F60001C4F2020101EB8000E8
:101C200003990866039840F68001C4F202014166F8
:101C3000029800F01F00012101FA00F00399886664
:101C4000FFE704B07047000083B00290029800796B
:101C500001900198002800F08C80FFE70198082887
:101C600000F28780FFE702980068012145F20842F0
:101C7000C5F60202904200914ED0FFE7029800683C
:101C8000012145F21C42C5F602029042009143D068
:101C9000FFE702980068012145F23042C5F60202D2
:101CA0009042009138D0FFE702980068012145F288
:101CB0004442C5F60202904200912DD0FFE70298FF
:101CC0000068012145F25842C5F602029042009197
:101CD00022D0FFE702980068012145F26C42C5F668
:101CE00002029042009117D0FFE70298006801219C
:101CF00045F28042C5F60202904200910CD0FFE707
:101D0000029800684AF66C31CAF2FD710844B0FAD4
:101D100080F040090090FFE70098C007002810D02D
:101D2000FFE7019845F6FC01C5F6020101EB8000D2
:101D30000299C866029845F64011C5F6020101678E
:101D40000FE0019840F6FC01C4F2020101EB8000B3
:101D50000299C866029840F64011C4F20201016778
:101D6000FFE701980138012101FA00F00299486764
:101D7000FFE703B07047000085B0049000208DF8A5
:101D80000F0004988069002824D1FFE70498806A36
:101D9000032802901CD80299DFE801F0020E021914
:101DA000049890F82F00C007002804D0FFE7012016
:101DB0008DF80F00FFE70CE00498C06AB0F1C07F17
:101DC00004D1FFE701208DF80F00FFE701E000E0FC
:101DD000FFE749E004988069B0F5005F27D1FFE78D
:101DE0000498806A032801901FD80199DFE801F068
:101DF0000206021201208DF80F0017E0049890F8F7
:101E00002F00C007002804D0FFE701208DF80F0045
:101E1000FFE70BE00498C06AB0F1C07F04D1FFE790
:101E200001208DF80F00FFE700E0FFE71BE00498BA
:101E3000806A0328009004D3FFE70098032804D0A9
:101E40000FE001208DF80F000CE0049890F82F00AF
:101E5000C007002804D0FFE701208DF80F00FFE73E
:101E600000E0FFE7FFE7FFE79DF80F0005B07047D0
:101E700089B008900791069205930898806D0490A8
:101E80000898806D03900898006801211022C4F220
:101E900002029042029100F00381FFE70898006877
:101EA00001212822C4F202029042029100F0F8803F
:101EB000FFE70898006801214022C4F20202904224
:101EC000029100F0ED80FFE7089800680121582298
:101ED000C4F202029042029100F0E280FFE708980B
:101EE000006801217022C4F202029042029100F0C7
:101EF000D780FFE70898006801218822C4F2020217
:101F00009042029100F0CC80FFE708980068012120
:101F1000A022C4F202029042029100F0C180FFE7C9
:101F2000089800680121B822C4F20202904202918E
:101F300000F0B680FFE708980068012140F21042E7
:101F4000C4F202029042029100F0AA80FFE70898D2
:101F50000068012140F22842C4F20202904202913C
:101F600000F09E80FFE708980068012140F240429F
:101F7000C4F202029042029100F09280FFE70898BA
:101F80000068012140F25842C4F2020290420291DC
:101F900000F08680FFE708980068012140F2704257
:101FA000C4F20202904202917AD0FFE708980068DA
:101FB000012140F28842C4F20202904202916FD0A5
:101FC000FFE708980068012140F2A042C4F2020233
:101FD0009042029164D0FFE708980068012140F226
:101FE000B842C4F202029042029159D0FFE7089829
:101FF0000068012145F20842C5F6020290420291B2
:102000004ED0FFE708980068012145F21C42C5F652
:1020100002029042029143D0FFE708980068012134
:1020200045F23042C5F602029042029138D0FFE7F5
:1020300008980068012145F24442C5F60202904228
:1020400002912DD0FFE708980068012145F258421F
:10205000C5F602029042029122D0FFE7089800687C
:10206000012145F26C42C5F602029042029117D05E
:10207000FFE708980068012145F28042C5F6020298
:10208000904202910CD0FFE7089800684AF66C3144
:10209000CAF2FD710844B0FA80F040090290FFE7EF
:1020A0000298C00700280FD0FFE70898416E806EA5
:1020B00048600898C06E002805D0FFE70898016FB7
:1020C000406F4860FFE7FFE7089800680121102291
:1020D000C4F202029042019100F0A380FFE7089849
:1020E000006801212822C4F202029042019100F00E
:1020F0009880FFE70898006801214022C4F202029C
:102100009042019100F08D80FFE70898006801215E
:102110005822C4F202029042019100F08280FFE74F
:102120000898006801217022C4F2020290420191D5
:1021300077D0FFE70898006801218822C4F20202E4
:10214000904201916DD0FFE7089800680121A0221C
:10215000C4F202029042019163D0FFE70898006840
:102160000121B822C4F202029042019159D0FFE746
:1021700008980068012140F21042C4F20202904225
:1021800001914ED0FFE708980068012140F22842F3
:10219000C4F202029042019143D0FFE70898006820
:1021A000012140F24042C4F202029042019138D033
:1021B000FFE708980068012140F25842C4F2020289
:1021C000904201912DD0FFE708980068012140F26C
:1021D0007042C4F202029042019122D0FFE70898B7
:1021E0000068012140F28842C4F20202904201914B
:1021F00017D0FFE708980068012140F2A042C4F21E
:102200000202904201910CD0FFE7089800684FF657
:102210004831CBF6FD710844B0FA80F040090190D6
:10222000FFE70198C00700282BD0FFE70898C06D92
:1022300000F01F003F2101FA00F00499886008981F
:102240000068016821F480210160059808990968F7
:10225000486008988068402809D1FFE706980899E7
:1022600009688860079808990968C86008E00798B5
:10227000089909688860069808990968C860FFE7A6
:1022800084E008980068012145F20842C5F6020280
:10229000904200914ED0FFE708980068012145F276
:1022A0001C42C5F602029042009143D0FFE7089815
:1022B0000068012145F23042C5F6020290420091C9
:1022C00038D0FFE708980068012145F24442C5F67E
:1022D0000202904200912DD0FFE70898006801218A
:1022E00045F25842C5F602029042009122D0FFE723
:1022F00008980068012145F26C42C5F6020290423E
:10230000009117D0FFE708980068012145F280424C
:10231000C5F60202904200910CD0FFE708980068D1
:102320004AF66C31CAF2FD710844B0FA80F04009F7
:102330000090FFE70098C007002825D0FFE7089825
:10234000C06D00F01F00012101FA00F00399486000
:10235000059808990968486008988068402809D15C
:10236000FFE706980899096888600798089909683E
:10237000C86008E007980899096888600698089975
:102380000968C860FFE700E0FFE7FFE709B07047B2
:10239000704700000000000080B584B00BF088FE9C
:1023A00040F25241C2F2004146F24332C0F601020D
:1023B0000390084602911146039AFEF7ABF869466E
:1023C000029A0A60052169234FF6FF724FF0000C54
:1023D000019008461946634600F0B6F904B080BD86
:1023E00080B582B00020C5F602004FF48051019004
:1023F00004F012F840F2ED31C2F2004108700821F9
:10240000019804F009F840F20F41C2F2004108704F
:102410000AF06AF90BF060FF02B080BD0000000016
:1024200080B582B00AF070F900280CD0FFE70AF0FE
:102430005BF940F2ED30C2F200400178B1FA81F16F
:10244000490901703CE00BF057FF00280CD0FFE772
:102450000BF042FF40F20F40C2F200400178B1FAA7
:1024600081F1490901702AE040F28830C2F200404F
:10247000018801310180B0F90000B0F5FA7F1DD16B
:10248000FFE740F28830C2F20040002101800020C6
:10249000C5F602004FF48051019003F0BDFF40F2F9
:1024A000ED31C2F2004108700821019803F0B4FF39
:1024B00040F20F41C2F200410870FFE7FFE7FFE77B
:1024C00002B080BD0000000080B54FF4805003F0E2
:1024D0009BFD80BD0000000080B5082003F094FD46
:1024E00080BD00000000000080B5102003F08CFDCE
:1024F00080BD00000000000080B5202003F084FDB6
:10250000402003F081FD802003F07EFD4FF48070B9
:1025100003F07AFD80BD000070470000000000005D
:1025200080B582B0EFF3108072B60190FFE740F6FD
:102530000000C5F602004FF40051012203F084FFB1
:10254000F5E700000000000083B00B4602908DF814
:10255000071000929DF807000299087000980299F0
:10256000486002980121017203B07047000000002A
:1025700080B586B00590059800788DF81300059811
:102580004068039003989DF8131000EB0110406819
:10259000029003989DF8131000EB011080680190E1
:1025A0000598007A8DF8030001988047002810D024
:1025B000FFE703989DF8131000EB0110007B0599CD
:1025C000087003980599097800EB011040680290A3
:1025D000FFE70298804706B080BD000000000000C1
:1025E00040F28A30C2F200400021017070470000C2
:1025F00080B540F29D30C2F200400078012818D129
:10260000FFE740F29D30C2F200400021017040F629
:102610007800C2F2004040F28B31C2F20041022247
:1026200009F04AFA002803D0FFE7FFF779FFFFE738
:10263000FFE740F29E30C2F200400078012818D136
:10264000FFE740F29E30C2F200400021017040F6E8
:102650007800C2F2004040F22A11C2F20041022288
:1026600009F0B6FA002803D0FFE7FFF759FFFFE7AC
:10267000FFE780BD0000000080B540F28A30C2F262
:1026800000400078012841D1FFE740F29D30C2F2BE
:1026900000400078012818D1FFE740F29D30C2F2D7
:1026A00000400021017040F67800C2F2004040F284
:1026B0008B31C2F20041122209F0FEF9002803D04A
:1026C000FFE7FFF72DFFFFE7FFE740F29E30C2F282
:1026D00000400078012818D1FFE740F29E30C2F296
:1026E00000400021017040F67800C2F2004040F244
:1026F0002811C2F20041022209F06AFA002803D030
:10270000FFE7FFF70DFFFFE7FFE7FFE780BD0000F2
:1027100040F28A30C2F2004001210170704700008F
:1027200080B540F29E30C2F200400121017040F2BB
:102730009D30C2F200400170FFF752FFFFF758FFD3
:10274000FFF7E6FF80BD000070B584B0DDF820C063
:102750009E4614460D460646ADF80E00ADF80C1028
:10276000ADF80A20ADF80830BDF80E00ADF8020053
:10277000FFE708980078002800F08281FFE70898BA
:1027800000787F2800F38A80FFE708980078ADF88A
:102790000400BDF804000D280AD1FFE7BDF80200CF
:1027A000ADF80E00BDF80C001030ADF80C0071E073
:1027B000BDF80400212806DBFFE7BDF8040020383F
:1027C000ADF8040003E00020ADF80400FFE70020AE
:1027D0008DF80700FFE79DF807000F2854DCFFE79E
:1027E00000208DF80600FFE79DF80600072844DC6E
:1027F000FFE7BDF804009DF8071001EB001045F657
:102800003051C0F60101085C9DF80610802222FAC2
:1028100001F1084211D0FFE7BDF80E009DF8061047
:102820000844BDF80C109DF807201144BDF80A209B
:1028300080B289B200F028F918E0BDF80A00BDF8AE
:102840000810884211D0FFE7BDF80E009DF8061071
:102850000844BDF80C109DF807201144BDF808206D
:1028600080B289B200F010F9FFE7FFE7FFE79DF8BB
:10287000060001308DF80600B6E7FFE79DF8070077
:1028800001308DF80700A6E7BDF80E000830ADF85E
:102890000E00FFE7089801300890F0E00020ADF846
:1028A0000400FFE7BDF80400312800F3DF80FFE7F4
:1028B000BDF8040000EB001046F22131C0F6010122
:1028C00011F8100008990978884240F0C880FFE7A5
:1028D000BDF8040000EB001046F22131C0F6010102
:1028E00001EB4000407808994978884240F0B78071
:1028F000FFE700208DF80700FFE79DF807000F288D
:1029000000F3AC80FFE700208DF80600FFE79DF89C
:102910000600072848DCFFE7BDF8040000EB0010C4
:1029200046F22131C0F6010101EB40009DF807108D
:1029300000EB410080789DF80610802222FA01F118
:10294000084211D0FFE7BDF80E009DF806100844BC
:10295000BDF80C109DF807201144BDF80A2080B284
:1029600089B200F091F818E0BDF80A00BDF808102F
:10297000884211D0FFE7BDF80E009DF8061008440C
:10298000BDF80C109DF807201144BDF8082080B256
:1029900089B200F079F8FFE7FFE7FFE79DF806004E
:1029A00001308DF80600B2E700208DF80600FFE741
:1029B0009DF8060007284ADCFFE7BDF8040000EB9D
:1029C000001046F22131C0F6010101EB40009DF8F4
:1029D000071000EB4100C0789DF80610802222FA13
:1029E00001F1084212D0FFE7BDF80E009DF8061075
:1029F00008440830BDF80C109DF807201144BDF8BC
:102A00000A2089B280B200F03FF819E0BDF80A0050
:102A1000BDF80810884212D0FFE7BDF80E009DF8FF
:102A2000061008440830BDF80C109DF8072011442A
:102A3000BDF8082089B280B200F026F8FFE7FFE772
:102A4000FFE79DF8060001308DF80600B0E7FFE7CC
:102A50009DF8070001308DF807004EE7FFE7FFE71C
:102A6000BDF804000130ADF804001BE708980230FF
:102A70000890BDF80E001030ADF80E00FFE778E6C4
:102A800004B070BD0000000080B586B013468C46CF
:102A90008646ADF81600ADF81410ADF81220BDF85A
:102AA0001600BDF814100393CDF808C0CDF804E06B
:102AB00009F09AFDBDF8120009F0DEFD06B080BDF8
:102AC00082B000208DF806000090FFE700980928EA
:102AD00010DCFFE7009840F22C11C2F20041085CC4
:102AE0009DF8061008448DF80600FFE700980130B5
:102AF0000090EBE740F22C10C2F20040807A9DF883
:102B00000610884204D0FFE700208DF8070003E09C
:102B100001208DF80700FFE79DF8070002B070471D
:102B200080B582B001900198FEF7A2FE00EE100A77
:102B3000B8EEC00B9FED041B80EE010B9FED041B54
:102B400020EE010B02B080BD000000000000E0405C
:102B5000000000000080664080B582B040F22C107A
:102B6000C2F20040811C01900846FFF7D9FF40F2F5
:102B7000A430C2F20040016881ED020B01990A1DE8
:102B800000901046FFF7CCFF0098016881ED000B24
:102B90000199881DFFF7C4FF0098016881ED040BBF
:102BA00002B080BD0000000080B540F2A430C2F247
:102BB0000040016800224A600A600168CA608A60B9
:102BC00000684261026100F003F880BD000000006F
:102BD00080B540F29F30C2F200400121017040F206
:102BE000A030C2F2004000210170007840F22C11A8
:102BF000C2F20041014440F62820C2F200400B22FC
:102C000008F05AFF002803D0FFE7FFF789FCFFE731
:102C100080BD00000000000080B58AB0089003F07D
:102C200037FC04900898002805D1FFE701208DF8B3
:102C3000270000F0B4BC089890F8350002280ED0A8
:102C4000FFE7089880214165FFE70898002180F898
:102C50003410FFE701208DF8270000F0A0BC089891
:102C6000006801211022C4F202029042039100F098
:102C7000A380FFE70898006801212822C4F202021D
:102C80009042039100F09880FFE7089800680121C6
:102C90004022C4F202029042039100F08D80FFE7CF
:102CA0000898006801215822C4F202029042039160
:102CB00000F08280FFE70898006801217022C4F2CA
:102CC00002029042039177D0FFE708980068012143
:102CD0008822C4F20202904203916DD0FFE7089867
:102CE00000680121A022C4F202029042039163D045
:102CF000FFE7089800680121B822C4F2020290425E
:102D0000039159D0FFE708980068012140F2104272
:102D1000C4F20202904203914ED0FFE70898006887
:102D2000012140F22842C4F202029042039143D0B2
:102D3000FFE708980068012140F24042C4F2020215
:102D40009042039138D0FFE708980068012140F2D3
:102D50005842C4F20202904203912DD0FFE7089836
:102D60000068012140F27042C4F2020290420391D5
:102D700022D0FFE708980068012140F28842C4F29F
:102D800002029042039117D0FFE7089800680121E2
:102D900040F2A042C4F20202904203910CD0FFE73D
:102DA000089800684FF64831CBF6FD710844B0FA38
:102DB00080F040090390FFE70398C007002810D077
:102DC000FFE708980068016821F01E01016008987B
:102DD0000068416921F08001416108980068059010
:102DE00009E008980068016821F00E010160089868
:102DF00000680590FFE70898006801211022C4F2DE
:102E000002029042029100F00381FFE708980068F7
:102E100001212822C4F202029042029100F0F880BF
:102E2000FFE70898006801214022C4F202029042A4
:102E3000029100F0ED80FFE7089800680121582218
:102E4000C4F202029042029100F0E280FFE708988B
:102E5000006801217022C4F202029042029100F047
:102E6000D780FFE70898006801218822C4F2020297
:102E70009042029100F0CC80FFE7089800680121A1
:102E8000A022C4F202029042029100F0C180FFE74A
:102E9000089800680121B822C4F20202904202910F
:102EA00000F0B680FFE708980068012140F2104268
:102EB000C4F202029042029100F0AA80FFE7089853
:102EC0000068012140F22842C4F2020290420291BD
:102ED00000F09E80FFE708980068012140F2404220
:102EE000C4F202029042029100F09280FFE708983B
:102EF0000068012140F25842C4F20202904202915D
:102F000000F08680FFE708980068012140F27042D7
:102F1000C4F20202904202917AD0FFE7089800685A
:102F2000012140F28842C4F20202904202916FD025
:102F3000FFE708980068012140F2A042C4F20202B3
:102F40009042029164D0FFE708980068012140F2A6
:102F5000B842C4F202029042029159D0FFE70898A9
:102F60000068012145F20842C5F602029042029132
:102F70004ED0FFE708980068012145F21C42C5F6D3
:102F800002029042029143D0FFE7089800680121B5
:102F900045F23042C5F602029042029138D0FFE776
:102FA00008980068012145F24442C5F602029042A9
:102FB00002912DD0FFE708980068012145F25842A0
:102FC000C5F602029042029122D0FFE708980068FD
:102FD000012145F26C42C5F602029042029117D0DF
:102FE000FFE708980068012145F28042C5F6020219
:102FF000904202910CD0FFE7089800684AF66C31C5
:10300000CAF2FD710844B0FA80F040090290FFE76F
:103010000298C007002807D0FFE70898006E0168F3
:1030200021F480710160FFE7089800681021C4F264
:103030000201884200F08180FFE70898006828219B
:10304000C4F20201884278D0FFE708980068402166
:10305000C4F20201884270D0FFE708980068582146
:10306000C4F20201884268D0FFE708980068702126
:10307000C4F20201884260D0FFE708980068882106
:10308000C4F20201884258D0FFE708980068A021E6
:10309000C4F20201884250D0FFE708980068B821C6
:1030A000C4F20201884248D0FFE70898006840F265
:1030B0001041C4F2020188423FD0FFE7089800683F
:1030C00040F22841C4F20201884236D0FFE7089856
:1030D000006840F24041C4F2020188422DD0FFE76F
:1030E0000898006840F25841C4F20201884224D096
:1030F000FFE70898006840F27041C4F2020188427C
:103100001BD0FFE70898006840F28841C4F2020132
:10311000884212D0FFE70898006840F2A041C4F24C
:103120000201884209D0FFE70898006840F2B841E0
:10313000C4F20201884208D1FFE7089800680168DC
:1031400021F001010A46016007E008980068016863
:1031500021F001010A460160FFE7FFE705980068DA
:10316000C007002819D0FFE703F092F90499401A2C
:10317000062811D3FFE7089820214165FFE708984A
:10318000002180F83410FFE70898032180F83510FB
:1031900001208DF8270002E2E0E70898006801218D
:1031A0001022C4F202029042019100F0A380FFE7D6
:1031B0000898006801212822C4F20202904201917D
:1031C00000F09880FFE70898006801214022C4F2CF
:1031D00002029042019100F08D80FFE7089800689C
:1031E00001215822C4F202029042019100F0828033
:1031F000FFE70898006801217022C4F202029042A1
:10320000019177D0FFE70898006801218822C4F275
:103210000202904201916DD0FFE7089800680121F9
:10322000A022C4F202029042019163D0FFE7089805
:1032300000680121B822C4F202029042019159D0E3
:10324000FFE708980068012140F21042C4F2020230
:10325000904201914ED0FFE708980068012140F2AA
:103260002842C4F202029042019143D0FFE708983D
:103270000068012140F24042C4F2020290420191F2
:1032800038D0FFE708980068012140F25842C4F2A4
:103290000202904201912DD0FFE7089800680121B9
:1032A00040F27042C4F202029042019122D0FFE744
:1032B00008980068012140F28842C4F2020290425C
:1032C000019117D0FFE708980068012140F2A04261
:1032D000C4F20202904201910CD0FFE70898006806
:1032E0004FF64831CBF6FD710844B0FA80F0400942
:1032F0000190FFE70198C00700280DD0FFE708986C
:10330000806D07900898C06D00F01F003F2101FA02
:1033100000F0079988600CE00898806D0690089886
:10332000C06D00F01F00012101FA00F0069948600D
:10333000FFE70898006801211022C4F202029042BF
:10334000009100F00381FFE708980068012128221E
:10335000C4F202029042009100F0F880FFE7089862
:10336000006801214022C4F202029042009100F064
:10337000ED80FFE70898006801215822C4F202029C
:103380009042009100F0E280FFE708980068012178
:103390007022C4F202029042009100F0D780FFE751
:1033A0000898006801218822C4F20202904200912C
:1033B00000F0CC80FFE7089800680121A022C4F249
:1033C00002029042009100F0C180FFE70898006877
:1033D0000121B822C4F202029042009100F0B680AE
:1033E000FFE708980068012140F21042C4F202028F
:1033F0009042009100F0AA80FFE708980068012140
:1034000040F22842C4F202029042009100F09E80F5
:10341000FFE708980068012140F24042C4F202022E
:103420009042009100F09280FFE708980068012127
:1034300040F25842C4F202029042009100F08680AD
:10344000FFE708980068012140F27042C4F20202CE
:10345000904200917AD0FFE708980068012140F27D
:103460008842C4F20202904200916FD0FFE70898B0
:103470000068012140F2A042C4F202029042009191
:1034800064D0FFE708980068012140F2B842C4F216
:1034900002029042009159D0FFE70898006801218C
:1034A00045F20842C5F60202904200914ED0FFE775
:1034B00008980068012145F21C42C5F602029042BC
:1034C000009143D0FFE708980068012145F230429F
:1034D000C5F602029042009138D0FFE708980068D4
:1034E000012145F24442C5F60202904200912DD0DE
:1034F000FFE708980068012145F25842C5F602022C
:103500009042009122D0FFE708980068012145F21F
:103510006C42C5F602029042009117D0FFE708986E
:103520000068012145F28042C5F6020290420091F6
:103530000CD0FFE7089800684AF66C31CAF2FD71BA
:103540000844B0FA80F040090090FFE70098C007F7
:10355000002815D0FFE70898416E806E48600898F3
:10356000C06E00280BD0FFE70898C06E016821F4F8
:10357000807101600898016F406F4860FFE7FFE7C6
:10358000FFE70898002180F83410FFE70898012130
:1035900080F83510FFE700208DF82700FFE79DF841
:1035A00027000AB080BD000080B586B00490049862
:1035B000002804D1FFE701208DF817004EE304989E
:1035C00090F83500022807D0FFE704988021416574
:1035D00001208DF8170041E30498006801211022B2
:1035E000C4F202029042029100F0A380FFE7049827
:1035F000006801212822C4F202029042029100F0E8
:103600009880FFE70498006801214022C4F202027A
:103610009042029100F08D80FFE70498006801213C
:103620005822C4F202029042029100F08280FFE729
:103630000498006801217022C4F2020290420291B3
:1036400077D0FFE70498006801218822C4F20202C3
:10365000904202916DD0FFE7049800680121A022FA
:10366000C4F202029042029163D0FFE7049800681E
:103670000121B822C4F202029042029159D0FFE720
:1036800004980068012140F21042C4F20202904204
:1036900002914ED0FFE704980068012140F22842D1
:1036A000C4F202029042029143D0FFE704980068FE
:1036B000012140F24042C4F202029042029138D00D
:1036C000FFE704980068012140F25842C4F2020268
:1036D000904202912DD0FFE704980068012140F24A
:1036E0007042C4F202029042029122D0FFE7049895
:1036F0000068012140F28842C4F202029042029125
:1037000017D0FFE704980068012140F2A042C4F2FC
:103710000202904202910CD0FFE7049800684FF635
:103720004831CBF6FD710844B0FA80F040090290B0
:10373000FFE70298C007002800F09F80FFE7049889
:10374000042180F83510049800681021C4F20201A9
:10375000884200F08180FFE7049800682821C4F2C5
:103760000201884278D0FFE7049800684021C4F243
:103770000201884270D0FFE7049800685821C4F223
:103780000201884268D0FFE7049800687021C4F203
:103790000201884260D0FFE7049800688821C4F2E3
:1037A0000201884258D0FFE704980068A021C4F2C3
:1037B0000201884250D0FFE704980068B821C4F2A3
:1037C0000201884248D0FFE70498006840F21041A7
:1037D000C4F2020188423FD0FFE70498006840F23B
:1037E0002841C4F20201884236D0FFE704980068FD
:1037F00040F24041C4F2020188422DD0FFE7049814
:10380000006840F25841C4F20201884224D0FFE728
:103810000498006840F27041C4F2020188421BD053
:10382000FFE70498006840F28841C4F20201884230
:1038300012D0FFE70498006840F2A041C4F20201F0
:10384000884209D0FFE70498006840F2B841C4F20A
:103850000201884208D1FFE704980068016821F05E
:1038600001010A46016007E004980068016821F040
:1038700001010A460160FFE7EBE104980068016876
:1038800021F00E010160049800681021C4F20201C9
:10389000884200F08180FFE7049800682821C4F284
:1038A0000201884278D0FFE7049800684021C4F202
:1038B0000201884270D0FFE7049800685821C4F2E2
:1038C0000201884268D0FFE7049800687021C4F2C2
:1038D0000201884260D0FFE7049800688821C4F2A2
:1038E0000201884258D0FFE704980068A021C4F282
:1038F0000201884250D0FFE704980068B821C4F262
:103900000201884248D0FFE70498006840F2104165
:10391000C4F2020188423FD0FFE70498006840F2F9
:103920002841C4F20201884236D0FFE704980068BB
:1039300040F24041C4F2020188422DD0FFE70498D2
:10394000006840F25841C4F20201884224D0FFE7E7
:103950000498006840F27041C4F2020188421BD012
:10396000FFE70498006840F28841C4F202018842EF
:1039700012D0FFE70498006840F2A041C4F20201AF
:10398000884209D0FFE70498006840F2B841C4F2C9
:103990000201884208D1FFE704980068016821F01D
:1039A00001010A46016007E004980068016821F0FF
:1039B00001010A460160FFE7049800680121102216
:1039C000C4F202029042019100F00381FFE70498E3
:1039D000006801212822C4F202029042019100F005
:1039E000F880FFE70498006801214022C4F2020237
:1039F0009042019100F0ED80FFE7049800680121FA
:103A00005822C4F202029042019100F0E280FFE7E6
:103A10000498006801217022C4F2020290420191D0
:103A200000F0D780FFE70498006801218822C4F2E3
:103A300002029042019100F0CC80FFE704980068F8
:103A40000121A022C4F202029042019100F0C18043
:103A5000FFE7049800680121B822C4F202029042F4
:103A6000019100F0B680FFE704980068012140F260
:103A70001042C4F202029042019100F0AA80FFE7D6
:103A800004980068012140F22842C4F202029042E8
:103A9000019100F09E80FFE704980068012140F248
:103AA0004042C4F202029042019100F09280FFE78E
:103AB00004980068012140F25842C4F20202904288
:103AC000019100F08680FFE704980068012140F230
:103AD0007042C4F20202904201917AD0FFE704984A
:103AE0000068012140F28842C4F202029042019132
:103AF0006FD0FFE704980068012140F2A042C4F2B1
:103B000002029042019164D0FFE70498006801210D
:103B100040F2B842C4F202029042019159D0FFE74C
:103B200004980068012145F20842C5F6020290425D
:103B300001914ED0FFE704980068012145F21C4234
:103B4000C5F602029042019143D0FFE70498006855
:103B5000012145F23042C5F602029042019138D06F
:103B6000FFE704980068012145F24442C5F60202CD
:103B7000904201912DD0FFE704980068012145F2A1
:103B80005842C5F602029042019122D0FFE7049804
:103B90000068012145F26C42C5F602029042019193
:103BA00017D0FFE704980068012145F28042C5F66E
:103BB0000202904201910CD0FFE7049800684AF697
:103BC0006C31CAF2FD710844B0FA80F040090190EE
:103BD000FFE70198C007002827D0FFE70498006E90
:103BE000016821F4807101600498806D039004984D
:103BF000C06D00F01F00012101FA00F00399486038
:103C00000498416E806E48600498C06E00280BD006
:103C1000FFE70498C06E016821F480710160049888
:103C2000016F406F4860FFE7FFE7FFE7049800215E
:103C300080F83410FFE70498012180F835100498CB
:103C4000006D002804D0FFE70498016D8847FFE766
:103C5000FFE7FFE700208DF81700FFE79DF817004A
:103C600006B080BD0000000080B590B00F9000202D
:103C70000B9040F2F020C2F20040006848F2B5110B
:103C8000C1F64E31A0FB0101890A0A910F99896D95
:103C900009910F99896D0891099909680E91089900
:103CA00009680D910F99096801221023C4F20203DB
:103CB0009942079200F0A380FFE70F980068012166
:103CC0002822C4F202029042079100F09880FFE798
:103CD0000F98006801214022C4F20202904207912D
:103CE00000F08D80FFE70F98006801215822C4F290
:103CF00002029042079100F08280FFE70F9800686F
:103D000001217022C4F202029042079177D0FFE7AE
:103D10000F98006801218822C4F2020290420791A4
:103D20006DD0FFE70F9800680121A022C4F20202C3
:103D30009042079163D0FFE70F9800680121B822F5
:103D4000C4F202029042079159D0FFE70F98006831
:103D5000012140F21042C4F20202904207914ED07B
:103D6000FFE70F980068012140F22842C4F20202E6
:103D70009042079143D0FFE70F980068012140F27D
:103D80004042C4F202029042079138D0FFE70F98F8
:103D90000068012140F25842C4F2020290420791A9
:103DA0002DD0FFE70F980068012140F27042C4F265
:103DB00002029042079122D0FFE70F98006801218C
:103DC00040F28842C4F202029042079117D0FFE706
:103DD0000F980068012140F2A042C4F20202904212
:103DE00007910CD0FFE70F9800684FF64831CBF6EB
:103DF000FD710844B0FA80F040090790FFE707988A
:103E0000C007002800F02985FFE70E980F99C96DBB
:103E100001F01F01C8400007002840F1B280FFE711
:103E20000F9800681021C4F20201884200F08180DE
:103E3000FFE70F9800682821C4F20201884278D079
:103E4000FFE70F9800684021C4F20201884270D059
:103E5000FFE70F9800685821C4F20201884268D039
:103E6000FFE70F9800687021C4F20201884260D019
:103E7000FFE70F9800688821C4F20201884258D0F9
:103E8000FFE70F980068A021C4F20201884250D0D9
:103E9000FFE70F980068B821C4F20201884248D0B9
:103EA000FFE70F98006840F21041C4F20201884217
:103EB0003FD0FFE70F98006840F22841C4F20201AA
:103EC000884236D0FFE70F98006840F24041C4F2C4
:103ED000020188422DD0FFE70F98006840F2584158
:103EE000C4F20201884224D0FFE70F98006840F234
:103EF0007041C4F2020188421BD0FFE70F980068AE
:103F000040F28841C4F20201884212D0FFE70F98C4
:103F1000006840F2A041C4F20201884209D0FFE7E4
:103F20000F98006840F2B841C4F20201884207D1FC
:103F3000FFE70F980068006800F00400069006E0B4
:103F40000F980068006800F008000690FFE70698E8
:103F5000002815D0FFE70F980068016821F00401E0
:103F600001600F98C06D00F01F00082101FA00F0F9
:103F7000099988600F98416D41F001014165FFE7A3
:103F8000FFE70E980F99C96D01F01F01C840C007E7
:103F9000002800F0AB80FFE70F9800681021C4F202
:103FA0000201884200F08180FFE70F980068282115
:103FB000C4F20201884278D0FFE70F9800684021E0
:103FC000C4F20201884270D0FFE70F9800685821C0
:103FD000C4F20201884268D0FFE70F9800687021A0
:103FE000C4F20201884260D0FFE70F980068882180
:103FF000C4F20201884258D0FFE70F980068A02160
:10400000C4F20201884250D0FFE70F980068B8213F
:10401000C4F20201884248D0FFE70F98006840F2DE
:104020001041C4F2020188423FD0FFE70F980068B8
:1040300040F22841C4F20201884236D0FFE70F98CF
:10404000006840F24041C4F2020188422DD0FFE7EF
:104050000F98006840F25841C4F20201884224D00F
:10406000FFE70F98006840F27041C4F202018842F5
:104070001BD0FFE70F98006840F28841C4F20201AC
:10408000884212D0FFE70F98006840F2A041C4F2C6
:104090000201884209D0FFE70F98006840F2B8415A
:1040A000C4F20201884207D1FFE70F980068406917
:1040B00000F08000059005E00F980068006800217E
:1040C0000591FFE7059800280FD0FFE70F98C06D16
:1040D00000F01F00012101FA00F0099988600F9893
:1040E000416D41F002014165FFE7FFE70E980F992E
:1040F000C96D01F01F01C8404007002840F1AB80A6
:10410000FFE70F9800681021C4F20201884200F016
:104110008180FFE70F9800682821C4F202018842DD
:1041200078D0FFE70F9800684021C4F2020188426E
:1041300070D0FFE70F9800685821C4F2020188424E
:1041400068D0FFE70F9800687021C4F2020188422E
:1041500060D0FFE70F9800688821C4F2020188420E
:1041600058D0FFE70F980068A021C4F202018842EE
:1041700050D0FFE70F980068B821C4F202018842CE
:1041800048D0FFE70F98006840F21041C4F20201E6
:1041900088423FD0FFE70F98006840F22841C4F200
:1041A0000201884236D0FFE70F98006840F2404194
:1041B000C4F2020188422DD0FFE70F98006840F258
:1041C0005841C4F20201884224D0FFE70F980068EA
:1041D00040F27041C4F2020188421BD0FFE70F9801
:1041E000006840F28841C4F20201884212D0FFE721
:1041F0000F98006840F2A041C4F20201884209D041
:10420000FFE70F98006840F2B841C4F2020188420B
:1042100007D1FFE70F980068006800F002000490E3
:1042200005E00F980068006800210491FFE70498FA
:1042300000280FD0FFE70F98C06D00F01F00042189
:1042400001FA00F0099988600F98416D41F004016E
:104250004165FFE7FFE70E980F99C96D01F01F0157
:10426000C840C006002840F1E280FFE70F980068D0
:104270001021C4F20201884200F08180FFE70F980C
:1042800000682821C4F20201884278D0FFE70F9825
:1042900000684021C4F20201884270D0FFE70F9805
:1042A00000685821C4F20201884268D0FFE70F98E5
:1042B00000687021C4F20201884260D0FFE70F98C5
:1042C00000688821C4F20201884258D0FFE70F98A5
:1042D0000068A021C4F20201884250D0FFE70F9885
:1042E0000068B821C4F20201884248D0FFE70F9865
:1042F000006840F21041C4F2020188423FD0FFE75B
:104300000F98006840F22841C4F20201884236D07A
:10431000FFE70F98006840F24041C4F20201884272
:104320002DD0FFE70F98006840F25841C4F2020117
:10433000884224D0FFE70F98006840F27041C4F231
:10434000020188421BD0FFE70F98006840F28841C5
:10435000C4F20201884212D0FFE70F98006840F2D1
:10436000A041C4F20201884209D0FFE70F9800681B
:1043700040F2B841C4F20201884207D1FFE70F982A
:104380000068006800F00800039006E00F980068DD
:10439000006800F004000390FFE70398002845D070
:1043A000FFE70F98C06D00F01F00102101FA00F028
:1043B000099988600F9800680068400300281CD5A0
:1043C000FFE70F9800680068000300280AD4FFE7A1
:1043D0000F98006C002804D0FFE70F98016C884705
:1043E000FFE709E00F98806C002804D0FFE70F98E2
:1043F000816C8847FFE7FFE717E00F9800680068C7
:10440000C005002807D4FFE70F980068016821F075
:1044100008010160FFE70F98006C002804D0FFE757
:104420000F98016C8847FFE7FFE7FFE7FFE70E986B
:104430000F99C96D01F01F01C8408006002840F1A6
:104440002E81FFE70F9800681021C4F20201884214
:1044500000F08180FFE70F9800682821C4F2020174
:10446000884278D0FFE70F9800684021C4F202012B
:10447000884270D0FFE70F9800685821C4F202010B
:10448000884268D0FFE70F9800687021C4F20201EB
:10449000884260D0FFE70F9800688821C4F20201CB
:1044A000884258D0FFE70F980068A021C4F20201AB
:1044B000884250D0FFE70F980068B821C4F202018B
:1044C000884248D0FFE70F98006840F21041C4F2DC
:1044D000020188423FD0FFE70F98006840F2284170
:1044E000C4F20201884236D0FFE70F98006840F21C
:1044F0004041C4F2020188422DD0FFE70F980068C6
:1045000040F25841C4F20201884224D0FFE70F98DC
:10451000006840F27041C4F2020188421BD0FFE7FC
:104520000F98006840F28841C4F20201884212D01C
:10453000FFE70F98006840F2A041C4F202018842F0
:1045400009D0FFE70F98006840F2B841C4F20201B9
:10455000884207D1FFE70F980068006800F010005C
:10456000029006E00F980068006800F002000290D8
:10457000FFE70298002800F09180FFE70F98C06DD8
:1045800000F01F00202101FA00F0099988600F98BF
:1045900090F8350004283BD1FFE70F9800680168C8
:1045A00021F0160101600F980068416921F0800137
:1045B00041610F98006C002805D1FFE70F98806CCF
:1045C000002807D0FFE70F980068016821F0080174
:1045D0000160FFE70F98C06D00F01F003F2101FA56
:1045E00000F009998860FFE70F98002180F83410E7
:1045F000FFE70F98012180F835100F98006D002813
:1046000004D0FFE70F98016D8847FFE700F032BC48
:104610000F9800680068400300281CD5FFE70F983A
:1046200000680068000300280AD4FFE70F98406C78
:10463000002804D0FFE70F98416C8847FFE709E0A6
:104640000F98C06B002804D0FFE70F98C16B884714
:10465000FFE7FFE721E00F9800680068C005002829
:1046600011D4FFE70F980068016821F01001016084
:10467000FFE70F98002180F83410FFE70F98012121
:1046800080F83510FFE70F98C06B002804D0FFE7D3
:104690000F98C16B8847FFE7FFE7FFE7FFE70F9839
:1046A000406D002800F0D880FFE70F98406DC007EC
:1046B000002800F0C780FFE70F98042180F835102C
:1046C0000F9800681021C4F20201884200F0818036
:1046D000FFE70F9800682821C4F20201884278D0D1
:1046E000FFE70F9800684021C4F20201884270D0B1
:1046F000FFE70F9800685821C4F20201884268D091
:10470000FFE70F9800687021C4F20201884260D070
:10471000FFE70F9800688821C4F20201884258D050
:10472000FFE70F980068A021C4F20201884250D030
:10473000FFE70F980068B821C4F20201884248D010
:10474000FFE70F98006840F21041C4F2020188426E
:104750003FD0FFE70F98006840F22841C4F2020101
:10476000884236D0FFE70F98006840F24041C4F21B
:10477000020188422DD0FFE70F98006840F25841AF
:10478000C4F20201884224D0FFE70F98006840F28B
:104790007041C4F2020188421BD0FFE70F98006805
:1047A00040F28841C4F20201884212D0FFE70F981C
:1047B000006840F2A041C4F20201884209D0FFE73C
:1047C0000F98006840F2B841C4F20201884208D153
:1047D000FFE70F980068016821F001010A460160B7
:1047E00007E00F980068016821F001010A460160A6
:1047F000FFE7FFE70B9801300B900A99884201D937
:10480000FFE707E0FFE70F9800680068C00700288F
:10481000F0D1FFE7FFE70F98002180F83410FFE7A1
:104820000F9800680068C007002805D0FFE70F98C0
:10483000032180F8351004E00F98012180F835102D
:10484000FFE7FFE70F98C06C002804D0FFE70F9840
:10485000C16C8847FFE7FFE70CE30F980068012170
:1048600045F20842C5F60202904201914ED0FFE7A0
:104870000F980068012145F21C42C5F602029042E1
:10488000019143D0FFE70F980068012145F23042C3
:10489000C5F602029042019138D0FFE70F980068F8
:1048A000012145F24442C5F60202904201912DD009
:1048B000FFE70F980068012145F25842C5F6020251
:1048C0009042019122D0FFE70F980068012145F244
:1048D0006C42C5F602029042019117D0FFE70F9893
:1048E0000068012145F28042C5F602029042019122
:1048F0000CD0FFE70F9800684AF66C31CAF2FD71E0
:104900000844B0FA80F040090190FFE70198C00721
:10491000002800F0AD82FFE70F98006800680C9057
:104920000D980F99C96D01F01F01C840400700287C
:1049300040F1DE80FFE79DF830004007002840F19D
:10494000D780FFE70F98C06D00F01F00042101FA27
:1049500000F0089948609DF83100000600281BD53A
:10496000FFE79DF83200C00700280AD1FFE70F9843
:10497000806C002804D0FFE70F98816C8847FFE720
:1049800009E00F98006C002804D0FFE70F98016C35
:104990008847FFE7FFE7AAE09DF83000800600287F
:1049A00000F19B80FFE70F9800681021C4F202011C
:1049B000884200F08180FFE70F9800682821C4F248
:1049C0000201884278D0FFE70F9800684021C4F2C6
:1049D0000201884270D0FFE70F9800685821C4F2A6
:1049E0000201884268D0FFE70F9800687021C4F286
:1049F0000201884260D0FFE70F9800688821C4F266
:104A00000201884258D0FFE70F980068A021C4F245
:104A10000201884250D0FFE70F980068B821C4F225
:104A20000201884248D0FFE70F98006840F2104129
:104A3000C4F2020188423FD0FFE70F98006840F2BD
:104A40002841C4F20201884236D0FFE70F9800687F
:104A500040F24041C4F2020188422DD0FFE70F9896
:104A6000006840F25841C4F20201884224D0FFE7B6
:104A70000F98006840F27041C4F2020188421BD0D6
:104A8000FFE70F98006840F28841C4F202018842B3
:104A900012D0FFE70F98006840F2A041C4F2020173
:104AA000884209D0FFE70F98006840F2B841C4F28D
:104AB0000201884208D1FFE70F980068016821F0E1
:104AC00008010A46016007E00F980068016821F0BC
:104AD00004010A460160FFE7FFE70F98006C002819
:104AE00004D0FFE70F98016C8847FFE7FFE7BEE1BE
:104AF0000D980F99C96D01F01F01C840800700286B
:104B000040F1E880FFE79DF830008007002840F181
:104B1000E180FFE70F98C06D00F01F00022101FA4D
:104B200000F0089948609DF83100000600281BD568
:104B3000FFE79DF83200C00700280AD1FFE70F9871
:104B4000406C002804D0FFE70F98416C8847FFE7CE
:104B500009E00F98C06B002804D0FFE70F98C16BE5
:104B60008847FFE7FFE7B4E09DF8300080060028A3
:104B700000F1A580FFE70F9800681021C4F2020140
:104B8000884200F08180FFE70F9800682821C4F276
:104B90000201884278D0FFE70F9800684021C4F2F4
:104BA0000201884270D0FFE70F9800685821C4F2D4
:104BB0000201884268D0FFE70F9800687021C4F2B4
:104BC0000201884260D0FFE70F9800688821C4F294
:104BD0000201884258D0FFE70F980068A021C4F274
:104BE0000201884250D0FFE70F980068B821C4F254
:104BF0000201884248D0FFE70F98006840F2104158
:104C0000C4F2020188423FD0FFE70F98006840F2EB
:104C10002841C4F20201884236D0FFE70F980068AD
:104C200040F24041C4F2020188422DD0FFE70F98C4
:104C3000006840F25841C4F20201884224D0FFE7E4
:104C40000F98006840F27041C4F2020188421BD004
:104C5000FFE70F98006840F28841C4F202018842E1
:104C600012D0FFE70F98006840F2A041C4F20201A1
:104C7000884209D0FFE70F98006840F2B841C4F2BB
:104C80000201884208D1FFE70F980068016821F00F
:104C900014010A46016007E00F980068016821F0DE
:104CA0000A010A460160FFE7FFE70F98002180F83C
:104CB0003410FFE70F98012180F83510FFE70F98B7
:104CC000C06B002804D0FFE70F98C16B8847FFE74F
:104CD000FFE7CBE00D980F99C96D01F01F01C840A7
:104CE0000007002840F1C080FFE79DF83000000772
:104CF000002840F1B980FFE70F9800681021C4F246
:104D00000201884200F08180FFE70F9800682821A7
:104D1000C4F20201884278D0FFE70F980068402172
:104D2000C4F20201884270D0FFE70F980068582152
:104D3000C4F20201884268D0FFE70F980068702132
:104D4000C4F20201884260D0FFE70F980068882112
:104D5000C4F20201884258D0FFE70F980068A021F2
:104D6000C4F20201884250D0FFE70F980068B821D2
:104D7000C4F20201884248D0FFE70F98006840F271
:104D80001041C4F2020188423FD0FFE70F9800684B
:104D900040F22841C4F20201884236D0FFE70F9862
:104DA000006840F24041C4F2020188422DD0FFE782
:104DB0000F98006840F25841C4F20201884224D0A2
:104DC000FFE70F98006840F27041C4F20201884288
:104DD0001BD0FFE70F98006840F28841C4F202013F
:104DE000884212D0FFE70F98006840F2A041C4F259
:104DF0000201884209D0FFE70F98006840F2B841ED
:104E0000C4F20201884208D1FFE70F9800680168E8
:104E100021F01C010A46016007E00F980068016854
:104E200021F00E010A460160FFE70F98C06D00F007
:104E30001F00012101FA00F0089A50600F984165A7
:104E4000FFE70F98002180F83410FFE70F98012149
:104E500080F835100F98C06C002804D0FFE70F9839
:104E6000C16C8847FFE700E0FFE7FFE7FFE700E0EE
:104E7000FFE7FFE710B080BD80B58EB00C9001F069
:104E800007FB0A900C98002805D1FFE701208DF858
:104E9000370000F0ADBC0C98006801211022C4F26C
:104EA00002029042079100F0A380FFE70C9800688F
:104EB00001212822C4F202029042079100F098805A
:104EC000FFE70C98006801214022C4F202029042E0
:104ED000079100F08D80FFE70C98006801215822AF
:104EE000C4F202029042079100F08280FFE70C9822
:104EF000006801217022C4F202029042079177D02B
:104F0000FFE70C98006801218822C4F20202904257
:104F100007916DD0FFE70C9800680121A022C4F230
:104F200002029042079163D0FFE70C9800680121CC
:104F3000B822C4F202029042079159D0FFE70C98C0
:104F40000068012140F21042C4F20202904207912F
:104F50004ED0FFE70C980068012140F22842C4F2CD
:104F600002029042079143D0FFE70C9800680121AC
:104F700040F24042C4F202029042079138D0FFE76B
:104F80000C980068012140F25842C4F2020290429B
:104F900007912DD0FFE70C980068012140F2704284
:104FA000C4F202029042079122D0FFE70C980068F9
:104FB000012140F28842C4F202029042079117D0C8
:104FC000FFE70C980068012140F2A042C4F20202FF
:104FD000904207910CD0FFE70C9800684FF64831DB
:104FE000CBF6FD710844B0FA80F040090790FFE766
:104FF0000798C007002800F08181FFE70C98406AFD
:10500000002801D0FFE7FFE7FFE70C98002180F8B8
:105010003410FFE70C98022180F835100C980068D6
:105020001021C4F20201884200F08180FFE70C9851
:1050300000682821C4F20201884278D0FFE70C986A
:1050400000684021C4F20201884270D0FFE70C984A
:1050500000685821C4F20201884268D0FFE70C982A
:1050600000687021C4F20201884260D0FFE70C980A
:1050700000688821C4F20201884258D0FFE70C98EA
:105080000068A021C4F20201884250D0FFE70C98CA
:105090000068B821C4F20201884248D0FFE70C98AA
:1050A000006840F21041C4F2020188423FD0FFE79D
:1050B0000C98006840F22841C4F20201884236D0C0
:1050C000FFE70C98006840F24041C4F202018842B8
:1050D0002DD0FFE70C98006840F25841C4F202015D
:1050E000884224D0FFE70C98006840F27041C4F277
:1050F000020188421BD0FFE70C98006840F288410B
:10510000C4F20201884212D0FFE70C98006840F216
:10511000A041C4F20201884209D0FFE70C98006860
:1051200040F2B841C4F20201884208D1FFE70C986E
:105130000068016821F001010A46016007E00C984F
:105140000068016821F001010A460160FFE7FFE7FE
:105150000C9800680068C007002813D0FFE701F032
:1051600097F90A99401A06280BD3FFE70C982021DB
:1051700041650C98032180F8351001208DF8370027
:1051800036E3E5E70C98006800680B900B9848F24E
:105190003F01CFF6106108400B900C988168C268FF
:1051A0000369D0F814C01143194341EA0C01826924
:1051B0001143C2691143006A08430B9908430B90DD
:1051C0000C98406A042808D1FFE70C98C16A006B6C
:1051D00008430B9908430B90FFE741F20000C5F626
:1051E000004000684FF6FF718843B0F1005F41D383
:1051F000FFE70C984068292807D3FFE70C98406820
:1052000001212F2806912AD3FFE70C9840683F28F8
:1052100007D3FFE70C9840680121432806911ED36D
:10522000FFE70C984068472807D3FFE70C984068D1
:1052300001214928069112D3FFE70C98406800210C
:105240004F28059108D3FFE70C98406800215328A8
:1052500038BF01210591FFE705980690FFE7069802
:10526000C007002805D0FFE70B9840F480100B9092
:10527000FFE7FFE70B980C99096808600C98006835
:1052800040690B900B9820F007000B900C98406A37
:105290000B9908430B900C98406A04281CD1FFE737
:1052A0000C98806A0B9908430B900C98C06A0028F0
:1052B00011D0FFE70C98FCF75FFD00280AD0FFE74C
:1052C0000C98402141650C98012180F835108DF82B
:1052D00037108DE2FFE7FFE70B980C9909684861EA
:1052E0000C98FCF709FB09900C98C06D00F01F00AA
:1052F0003F2101FA00F0099988602AE10C980068C2
:10530000012145F20842C5F60202904204914ED0B6
:10531000FFE70C980068012145F21C42C5F6020225
:105320009042049143D0FFE70C980068012145F2B8
:105330003042C5F602029042049138D0FFE70C9843
:105340000068012145F24442C5F6020290420491F0
:105350002DD0FFE70C980068012145F25842C5F6B0
:1053600002029042049122D0FFE70C9800680121CC
:1053700045F26C42C5F602029042049117D0FFE755
:105380000C980068012145F28042C5F60202904265
:1053900004910CD0FFE70C9800684AF66C31CAF211
:1053A000FD710844B0FA80F040090490FFE70498CA
:1053B000C007002800F0C180FFE70C9800680121B9
:1053C00045F20842C5F60202904203914ED0FFE733
:1053D0000C980068012145F21C42C5F60202904279
:1053E000039143D0FFE70C980068012145F2304259
:1053F000C5F602029042039138D0FFE70C9800688E
:10540000012145F24442C5F60202904203912DD09B
:10541000FFE70C980068012145F25842C5F60202E8
:105420009042039122D0FFE70C980068012145F2D9
:105430006C42C5F602029042039117D0FFE70C9828
:105440000068012145F28042C5F6020290420391B4
:105450000CD0FFE70C9800684AF66C31CAF2FD7177
:105460000844B0FA80F040090390FFE70398C007B2
:10547000002801D0FFE7FFE7FFE70C98002180F844
:105480003410FFE70C98022180F835100C98006862
:1054900000680B900B986FF310100B900C988068BD
:1054A000402803D1FFE71020029008E00C988068A4
:1054B0008038B0FA80F0400980030290FFE702983C
:1054C0000C99CA680B69D1F814C0D1F818E040EA09
:1054D000D20040EAD30040EADC0040EADE00CA69BC
:1054E00040EAD200096A40EA11100B9908430B9078
:1054F0000B980C99096808600C9801684AF6F83214
:10550000CAF2FD7211444CF6CD42CCF6CC42A1FB5E
:1055100002126FF0030303EA9202C2650C98019134
:10552000FCF7EAF908900C98C06D00F01F0001210B
:1055300001FA00F0089948600AE00C9840214165A2
:105540000C98032180F8351001208DF837004FE1C9
:10555000FFE70C98006801211022C4F20202904279
:10556000009100F00381FFE70C98006801212822D8
:10557000C4F202029042009100F0F880FFE70C981C
:10558000006801214022C4F202029042009100F022
:10559000ED80FFE70C98006801215822C4F2020256
:1055A0009042009100F0E280FFE70C980068012132
:1055B0007022C4F202029042009100F0D780FFE70F
:1055C0000C98006801218822C4F2020290420091E6
:1055D00000F0CC80FFE70C9800680121A022C4F203
:1055E00002029042009100F0C180FFE70C98006831
:1055F0000121B822C4F202029042009100F0B6806C
:10560000FFE70C980068012140F21042C4F2020248
:105610009042009100F0AA80FFE70C9800680121F9
:1056200040F22842C4F202029042009100F09E80B3
:10563000FFE70C980068012140F24042C4F20202E8
:105640009042009100F09280FFE70C9800680121E1
:1056500040F25842C4F202029042009100F086806B
:10566000FFE70C980068012140F27042C4F2020288
:10567000904200917AD0FFE70C980068012140F237
:105680008842C4F20202904200916FD0FFE70C986A
:105690000068012140F2A042C4F20202904200914F
:1056A00064D0FFE70C980068012140F2B842C4F2D0
:1056B00002029042009159D0FFE70C980068012146
:1056C00045F20842C5F60202904200914ED0FFE733
:1056D0000C980068012145F21C42C5F60202904276
:1056E000009143D0FFE70C980068012145F2304259
:1056F000C5F602029042009138D0FFE70C9800688E
:10570000012145F24442C5F60202904200912DD09B
:10571000FFE70C980068012145F25842C5F60202E5
:105720009042009122D0FFE70C980068012145F2D9
:105730006C42C5F602029042009117D0FFE70C9828
:105740000068012145F28042C5F6020290420091B4
:105750000CD0FFE70C9800684AF66C31CAF2FD7174
:105760000844B0FA80F040090090FFE70098C007B5
:10577000002833D0FFE70C98FCF7A6F90C98806856
:10578000802804D1FFE70C9800214160FFE70C98C6
:105790000179006E01600C98416E806E48600C9833
:1057A0004068002811D0FFE70C98406808280CD802
:1057B000FFE70C98FCF748FA0C98C06E00210160D6
:1057C0000C98016F406F486007E00C980021C1669B
:1057D0000C9801670C984167FFE7FFE70C980021E0
:1057E00041650C98012280F835208DF83710FFE7CD
:1057F0009DF837000EB080BD80B588B00690059149
:105800000492039300208DF80B000698002804D121
:10581000FFE701208DF81F0075E3FFE7069890F879
:105820003400012804D1FFE702208DF81F006AE34D
:105830000698012180F83410FFE7FFE7069890F8FA
:105840003500012840F04C83FFE70698022180F8DC
:105850003510069800214165069800681021C4F2B1
:105860000201884200F08180FFE706980068282145
:10587000C4F20201884278D0FFE706980068402110
:10588000C4F20201884270D0FFE7069800685821F0
:10589000C4F20201884268D0FFE7069800687021D0
:1058A000C4F20201884260D0FFE7069800688821B0
:1058B000C4F20201884258D0FFE706980068A02190
:1058C000C4F20201884250D0FFE706980068B82170
:1058D000C4F20201884248D0FFE70698006840F20F
:1058E0001041C4F2020188423FD0FFE706980068E9
:1058F00040F22841C4F20201884236D0FFE7069800
:10590000006840F24041C4F2020188422DD0FFE716
:105910000698006840F25841C4F20201884224D03F
:10592000FFE70698006840F27041C4F20201884225
:105930001BD0FFE70698006840F28841C4F20201DC
:10594000884212D0FFE70698006840F2A041C4F2F6
:105950000201884209D0FFE70698006840F2B8418A
:10596000C4F20201884208D1FFE706980068016886
:1059700021F001010A46016007E00698006801680D
:1059800021F001010A460160FFE706980599049A93
:10599000039BFCF76DFA0698006801211022C4F2FF
:1059A00002029042019100F0A380FFE70698006890
:1059B00001212822C4F202029042019100F0988055
:1059C000FFE70698006801214022C4F202029042DB
:1059D000019100F08D80FFE70698006801215822B0
:1059E000C4F202029042019100F08280FFE7069823
:1059F000006801217022C4F202029042019177D026
:105A0000FFE70698006801218822C4F20202904252
:105A100001916DD0FFE7069800680121A022C4F231
:105A200002029042019163D0FFE7069800680121CD
:105A3000B822C4F202029042019159D0FFE70698C1
:105A40000068012140F21042C4F20202904201912A
:105A50004ED0FFE706980068012140F22842C4F2C8
:105A600002029042019143D0FFE7069800680121AD
:105A700040F24042C4F202029042019138D0FFE766
:105A800006980068012140F25842C4F20202904296
:105A900001912DD0FFE706980068012140F2704285
:105AA000C4F202029042019122D0FFE706980068FA
:105AB000012140F28842C4F202029042019117D0C3
:105AC000FFE706980068012140F2A042C4F20202FA
:105AD000904201910CD0FFE7069800684FF64831DC
