:020000040800F2
:100000000807002439030008493800086137000850
:100010004138000831050008F94B000800000000D5
:10002000000000000000000000000000613C00082B
:100030003905000800000000C9380008C13C00086C
:100040005303000853030008530300085303000838
:100050005303000853030008530300085303000828
:100060005303000853030008530300085303000818
:100070005303000853030008530300085303000808
:1000800053030008530300085303000853030008F8
:1000900053030008530300085303000853030008E8
:1000A00053030008530300085303000853030008D8
:1000B00053030008530300085303000853030008C8
:1000C00053030008530300085303000853030008B8
:1000D00053030008530300085303000853030008A8
:1000E00053030008530300080000000053030008F6
:1000F0005303000853030008530300085303000888
:100100005303000853030008530300085303000877
:100110005303000853030008530300085303000867
:100120005303000853030008530300085303000857
:100130005303000853030008530300085303000847
:1001400000000000000000000000000000000000AF
:100150005303000853030008530300085303000827
:100160005303000853030008530300085303000817
:100170005303000853030008530300080000000065
:1001800053030008530300085303000853030008F7
:1001900053030008530300085303000853030008E7
:1001A00053030008530300085303000853030008D7
:1001B00053030008530300085303000853030008C7
:1001C00053030008530300085303000853030008B7
:1001D00053030008530300085303000853030008A7
:1001E0005303000853030008530300085303000897
:1001F0005303000853030008530300085303000887
:100200005303000853030008530300085303000876
:100210005303000853030008530300085303000866
:1002200053030008530300085303000800000000B4
:1002300053030008530300080000000053030008A4
:100240005303000853030008530300085303000836
:100250005303000853030008530300085303000826
:100260005303000853030008530300085303000816
:100270005303000853030008530300080000000064
:100280005303000853030008530300080000000054
:10029000000000005303000800F002F800F03CF8F2
:1002A0000AA090E8000C82448344AAF10107DA45D1
:1002B00001D100F031F8AFF2090EBAE80F0013F0E7
:1002C000010F18BFFB1A43F0010318473C4A000016
:1002D0005C4A0000103A24BF78C878C1FAD85207A7
:1002E00024BF30C830C144BF04680C6070470000B0
:1002F0000023002400250026103A28BF78C1FBD82F
:10030000520728BF30C148BF0B6070471FB504F0CB
:10031000D2FC1FBD10B510BD00F0D0F81146FFF79C
:10032000F5FF04F0B9FC00F0EEF803B4FFF7F2FFBC
:1003300003BC00F0F5F80000094880470948004771
:10034000FEE7FEE7FEE7FEE7FEE7FEE7FEE7FEE785
:10035000FEE7FEE704480549054A064B70470000E2
:10036000B93D00089902000808010024080700248C
:10037000080300240803002453EA020C00F06980FB
:100380002DE9F04B4FF00006002B1FBFB3FA83F5A9
:1003900003FA05F424FA05F65E4012BF1643B2FADA
:1003A00082F502FA05F4C5F120051EBF22FA05FC0C
:1003B00044EA0C04203556EA044C4FEA144418BFB2
:1003C000641C4FF000084FF00009904271EB030CE1
:1003D00039D3002919BFB1FA81F701FA07F6B0FA4B
:1003E00080F700FA07F6C7F120071EBF20FA07FCC6
:1003F00046EA0C062037B6FBF4FCA7EB0507103FD6
:1004000007F01F0BCBF120062CFA06F60CFA0BFBBB
:1004100044BFB3460026202FA4BF5E464FF0000B1A
:100420005BEA060C08BF4FF0010B19EB0B0948EB18
:100430000608ABFB027C06FB02CC0BFB03CCC01B0B
:1004400071EB0C01C1E70B46024641464846BDE848
:10045000F08B13B5084318BF4FF0FF300146AFF3E0
:100460000080BDE81C4070474FF0000200B5134605
:1004700094469646203922BFA0E80C50A0E80C50C4
:10048000B1F12001BFF4F7AF090728BFA0E80C5075
:1004900048BF0CC05DF804EB890028BF40F8042B6E
:1004A00008BF704748BF20F8022B11F0804F18BFDB
:1004B00000F8012B7047704770477047754600F091
:1004C0002BF8AE4605006946534620F007008546E6
:1004D00018B020B5FFF73EFFBDE820404FF0000602
:1004E0004FF000074FF000084FF0000BAC46ACE8AF
:1004F000C009ACE8C009ACE8C009ACE8C00921F00B
:1005000007018D46704710B50446AFF300802046C2
:10051000BDE81040FFF709BF0048704710000024F5
:1005200001491820ABBEFEE726000200704700001C
:10053000FFE7FEE700000000704700000000000039
:1005400081B0EFF3108072B60090FFE7FEE7000085
:1005500090B00F900E9100200D908020C5F6000005
:100560000A90FFE70E9800680D99C840002800F037
:10057000D681FFE70E9800680D99012202FA01F179
:1005800008400C900C98002800F0C581FFE70E98F9
:10059000406801280FD0FFE70E98406802280AD073
:1005A000FFE70E984068112805D0FFE70E984068D5
:1005B00012282FD1FFE70F9880680B900D9840000C
:1005C000032101FA00F00B9921EA00000B900E982C
:1005D000C0680D99490088400B9908430B900B980F
:1005E0000F9988600F9840680B900D98012101FACF
:1005F00000F00B9921EA00000B900E984068C0F3C0
:1006000000100D9988400B9908430B900B980F9997
:100610004860FFE70F98C0680B900D9840000321D9
:1006200001FA00F00B9921EA00000B900E98806807
:100630000D99490088400B9908430B900B980F992E
:10064000C8600E984068022805D0FFE70E98406801
:10065000122826D1FFE70F980D996FF0030202EAE6
:1006600051010844006A0B900D9800F007008000CB
:100670000F2101FA00F00B9921EA00000B900E986F
:1006800000690D9901F00701890088400B99084322
:100690000B900B980F990D9B02EA530211440862CC
:1006A000FFE70F9800680B900D984000032101FAB6
:1006B00000F00B9921EA00000B900E98406800F0C2
:1006C00003000D99490088400B9908430B900B9843
:1006D0000F9908600E98C079C006002840F11A8171
:1006E000FFE7FFE744F2F440C5F60200016841F07D
:1006F00002010160006800F0020009900998FFE71C
:100700000D9820F0030040F20841C5F60001405862
:100710000B900D9800F0030080000F2101FA00F00B
:100720000B9921EA00000B900F980021C5F60201F9
:10073000884203D1FFE7002008907AE00F9840F24A
:100740000041C5F60201884203D1FFE7012007906E
:100750006CE00F9840F60001C5F60201884203D113
:10076000FFE7022006905EE00F9840F60041C5F6D4
:100770000201884203D1FFE70320059050E00F9863
:1007800041F20001C5F60201884203D1FFE70420CF
:10079000049042E00F9841F20041C5F60201884200
:1007A00003D1FFE70520039034E00F9841F60001E4
:1007B000C5F60201884203D1FFE70620029026E039
:1007C0000F9841F60041C5F60201884203D1FFE7C8
:1007D0000720019018E00F9842F20001C5F60201CF
:1007E000884203D1FFE7082000900AE00F9842F208
:1007F0000041C5F602010A22884208BF0922009280
:10080000FFE700980190FFE701980290FFE7029848
:100810000390FFE703980490FFE704980590FFE733
:1008200005980690FFE706980790FFE7079808905D
:10083000FFE708980D9901F00301890088400B99A2
:1008400008430B900B980D9921F0030140F20842E8
:10085000C5F6000288500A9800680B900C980B9916
:1008600021EA00000B900E988079C007002805D07F
:10087000FFE70C980B9908430B90FFE70B980A9938
:1008800008600A9840680B900C980B9921EA0000C8
:100890000B900E9880798007002805D5FFE70C980B
:1008A0000B9908430B90FFE70B980A9948604FF0AB
:1008B000B04000680B900C980B9921EA00000B9057
:1008C0000E988079C006002805D5FFE70C980B9993
:1008D00008430B90FFE70B984FF0B04108600420ED
:1008E000C5F6000000680B900C980B9921EA0000F7
:1008F0000B900E9880798006002805D5FFE70C98AC
:100900000B9908430B90FFE70B980421C5F60001F3
:100910000860FFE7FFE70D9801300D9022E610B068
:10092000704700000000000041F20000C5F60040E2
:100930000068000C7047000040F20010C2F2004056
:10094000006870470000000040F20800C2F200405A
:10095000007840F20011C2F200410A6810440860B9
:10096000704700000000000080B582B0032000F056
:10097000B7F801F075FE44F21841C5F602010A68A5
:10098000C2F3032244F6D043C0F600039A5C02F09F
:100990001F02D04000900098096801F00F01595CD7
:1009A00001F01F01C84040F20401C2F2004108609A
:1009B000009840F20001C2F200410860002000F0FF
:1009C00013F8002804D0FFE701208DF8070005E0A8
:1009D00000F052F800208DF80700FFE79DF80700AF
:1009E00002B080BD0000000080B582B0009040F2EF
:1009F0000800C2F200400078002804D1FFE701207F
:100A00008DF8070031E040F20000C2F200400068BB
:100A100040F20801C2F2004109784FF47A72B2FB49
:100A2000F1F1B0FBF1F002F013FD002804D0FFE774
:100A300001208DF8070018E000980F280DD8FFE777
:100A400000994FF0FF30002200F02AF8009840F2A1
:100A50000C01C2F20041086003E001208DF807009C
:100A600003E000208DF80700FFE79DF8070002B0C3
:100A700080BD00000000000081B0FFE744F2F440B8
:100A8000C5F60200016841F002010160006800F053
:100A9000020000900098FFE701B0704700000000DE
:100AA00080B588B00346ADF81E0006910592039309
:100AB00004F0A6F80490BDF91E000499069A059B5F
:100AC0000290084611461A4602F0C6FE02990190AD
:100AD0000846019904F09CF808B080BD00000000B1
:100AE00080B582B00190019804F0B6F802B080BDE4
:100AF00080B584B0029044F60C00C5F60200006890
:100B000000F004000021B1EB900F13D1FFE744F691
:100B10000C00C5F60200006800F007000299884248
:100B200004D0FFE701208DF80F002EE000208DF8A3
:100B30000F002AE044F60C00C5F60200016821F01F
:100B40000701029A11430160FFF7F6FE0190FFE7EB
:100B500044F60400C5F60200006800F400500021CD
:100B6000B1EB503F0DD1FFE7FFF7E6FE0199401AC8
:100B7000B0F57A7F04D9FFE701208DF80F0004E07B
:100B8000E6E700208DF80F00FFE79DF80F0004B0A6
:100B900080BD00000000000080B501F00DFD44F2B2
:100BA0002041C5F602010968C1F3021144F6D042A2
:100BB000C0F60002515C01F01F01C84080BD00007A
:100BC00088B0079044F22840C5F60200016801F0A1
:100BD000030106910068C0F30530059044F22C40F3
:100BE000C5F602000068C0F300100490049844F2B7
:100BF0003C41C5F60201096889B2C908484300EEC4
:100C0000100AB8EE400A8DED020A0598002800F09F
:100C10001D81FFE706980028009009D0FFE70098A3
:100C200001286AD0FFE70098022800F08A80ACE033
:100C300044F20040C5F60200006800F020000021E8
:100C4000B1EB501F34D0FFE744F20040C5F602007C
:100C50000068C0F3C10049F20001C0F2D03121FAAE
:100C600000F003909DED030AB8EE400A9DED051AD1
:100C7000B8EE411A80EE010A44F23840C5F602008F
:100C800000686FF35F2001EE100AB8EE411A9DED87
:100C9000022A9FED743A82EE032A31EE021AB7EE71
:100CA000002A31EE021A20EE010A8DED010A23E03E
:100CB0009DED050AB8EE400A9FED6C1A81EE000A20
:100CC00044F23840C5F6020000686FF35F2001EE81
:100CD000100AB8EE411A9DED022A9FED623A82EEAB
:100CE000032A31EE021AB7EE002A31EE021A20EE84
:100CF000010A8DED010AFFE76BE09DED050AB8EEF4
:100D0000400A9FED591A81EE000A44F23840C5F6B8
:100D1000020000686FF35F2001EE100AB8EE411A7E
:100D20009DED022A9FED4F3A82EE032A31EE021A20
:100D3000B7EE002A31EE021A20EE010A8DED010A0B
:100D400047E09DED050AB8EE400A9FED451A81EE99
:100D5000000A44F23840C5F6020000686FF35F20D5
:100D600001EE100AB8EE411A9DED022A9FED3D3AC0
:100D700082EE032A31EE021AB7EE002A31EE021A91
:100D800020EE010A8DED010A23E09DED050AB8EE83
:100D9000400A9FED351A81EE000A44F23840C5F64C
:100DA000020000686FF35F2001EE100AB8EE411AEE
:100DB0009DED022A9FED2B3A82EE032A31EE021AB4
:100DC000B7EE002A31EE021A20EE010A8DED010A7B
:100DD000FFE79DED010A44F23840C5F602000168C4
:100DE00089B2490A01EE101AB8EE411AB7EE002A8C
:100DF00031EE021A80EE010A0799BCEEC00A81EDBD
:100E0000000A9DED010A0168C1F3064101EE101AC6
:100E1000B8EE411A31EE021A80EE010A0799BCEED3
:100E2000C00A81ED010A9DED010A0068C0F3066069
:100E300001EE100AB8EE411A31EE021A80EE010AF4
:100E40000798BCEEC00A80ED020A07E0079800216F
:100E500001600798416007988160FFE708B070471C
:100E600020BCBE4B000000460024744A0024744C91
:100E700088B0079044F22840C5F60200016801F0EE
:100E8000030106910068C0F30550059044F22C4020
:100E9000C5F602000068C0F300200490049844F2F4
:100EA0004441C5F60201096889B2C908484300EE09
:100EB000100AB8EE400A8DED020A0598002800F0ED
:100EC0001D81FFE706980028009009D0FFE70098F1
:100ED00001286AD0FFE70098022800F08A80ACE081
:100EE00044F20040C5F60200006800F02000002136
:100EF000B1EB501F34D0FFE744F20040C5F60200CA
:100F00000068C0F3C10049F20001C0F2D03121FAFB
:100F100000F003909DED030AB8EE400A9DED051A1E
:100F2000B8EE411A80EE010A44F24040C5F60200D4
:100F300000686FF35F2001EE100AB8EE411A9DEDD4
:100F4000022A9FED743A82EE032A31EE021AB7EEBE
:100F5000002A31EE021A20EE010A8DED010A23E08B
:100F60009DED050AB8EE400A9FED6C1A81EE000A6D
:100F700044F24040C5F6020000686FF35F2001EEC6
:100F8000100AB8EE411A9DED022A9FED623A82EEF8
:100F9000032A31EE021AB7EE002A31EE021A20EED1
:100FA000010A8DED010AFFE76BE09DED050AB8EE41
:100FB000400A9FED591A81EE000A44F24040C5F6FE
:100FC000020000686FF35F2001EE100AB8EE411ACC
:100FD0009DED022A9FED4F3A82EE032A31EE021A6E
:100FE000B7EE002A31EE021A20EE010A8DED010A59
:100FF00047E09DED050AB8EE400A9FED451A81EEE7
:10100000000A44F24040C5F6020000686FF35F201A
:1010100001EE100AB8EE411A9DED022A9FED3D3A0D
:1010200082EE032A31EE021AB7EE002A31EE021ADE
:1010300020EE010A8DED010A23E09DED050AB8EED0
:10104000400A9FED351A81EE000A44F24040C5F691
:10105000020000686FF35F2001EE100AB8EE411A3B
:101060009DED022A9FED2B3A82EE032A31EE021A01
:10107000B7EE002A31EE021A20EE010A8DED010AC8
:10108000FFE79DED010A44F24040C5F60200016809
:1010900089B2490A01EE101AB8EE411AB7EE002AD9
:1010A00031EE021A80EE010A0799BCEEC00A81ED0A
:1010B000000A9DED010A0168C1F3064101EE101A14
:1010C000B8EE411A31EE021A80EE010A0799BCEE21
:1010D000C00A81ED010A9DED010A0068C0F30660B7
:1010E00001EE100AB8EE411A31EE021A80EE010A42
:1010F0000798BCEEC00A80ED020A07E007980021BD
:1011000001600798416007988160FFE708B0704769
:1011100020BCBE4B000000460024744A0024744CDE
:1011200080B59AB0189000208DF857008DF85600C1
:101130001898C078000700284AD5FFE71898406E35
:10114000002814900FD0FFE71498B0F5801F13D03B
:10115000FFE71498B0F5001F16D0FFE71498B0F51C
:10116000401F19D019E044F22C40C5F60200016876
:1011700041F40031016014E018980430022102F0BB
:10118000A7FB8DF857000CE018982430022102F0DC
:1011900083FC8DF8570004E003E001208DF8570030
:1011A000FFE79DF8570000280CD1FFE744F25040BC
:1011B000C5F60200016821F44011189A526E1143DD
:1011C000016004E09DF857008DF85600FFE7FFE747
:1011D00018984078C007002841D0FFE71898406D64
:1011E0000428139020D81399DFE801F0030C141C95
:1011F0001D0044F22C40C5F60200016841F40031A4
:10120000016015E018980430002102F061FB8DF8B0
:1012100057000DE018982430002102F03DFC8DF8B5
:10122000570005E004E003E001208DF85700FFE7D8
:101230009DF8570000280CD1FFE744F25040C5F656
:101240000200016821F00701189A526D11430160F4
:1012500004E09DF857008DF85600FFE7FFE7189867
:101260004078800700284DD5FFE71898806D00284A
:10127000129011D0FFE71298402816D0FFE712987D
:1012800080281AD0FFE71298C0281ED0FFE71298D6
:10129000B0F5807F1AD01AE044F22C40C5F6020067
:1012A000016841F40031016015E018980430002114
:1012B00002F00EFB8DF857000DE018982430002145
:1012C00002F0EAFB8DF8570005E004E003E001209E
:1012D0008DF85700FFE79DF8570000280CD1FFE775
:1012E00044F25040C5F60200016821F4E071189AFA
:1012F000926D1143016004E09DF857008DF856008F
:10130000FFE7FFE7189840784007002852D5FFE72D
:101310001898D0F8A4000028119014D0FFE7119875
:10132000B0F5001F18D0FFE71198B0F5800F1BD063
:10133000FFE71198B0F5C00F1ED0FFE71198B0F588
:10134000000F1AD01AE044F22C40C5F602000168E2
:1013500041F40031016015E018980430002102F0DA
:10136000B7FA8DF857000DE018982430002102F0EC
:1013700093FB8DF8570005E004E003E001208DF8B1
:101380005700FFE79DF8570000280DD1FFE744F212
:101390005840C5F60200016821F46001189AD2F89D
:1013A000A4201143016004E09DF857008DF8560019
:1013B000FFE7FFE7189840780007002852D5FFE7BD
:1013C0001898D0F8A8000028109014D0FFE71098C3
:1013D000B0F1807F18D0FFE71098B0F1007F1BD0EC
:1013E000FFE71098B0F1407F1ED0FFE71098B0F1F2
:1013F000806F1AD01AE044F22C40C5F60200016852
:1014000041F40031016015E018980430002102F029
:101410005FFA8DF857000DE018982430002102F093
:101420003BFB8DF8570005E004E003E001208DF858
:101430005700FFE79DF8570000280DD1FFE744F261
:101440005840C5F60200016821F0E061189AD2F810
:10145000A8201143016004E09DF857008DF8560064
:10146000FFE7FFE71898C0788007002840D5FFE71E
:101470001898806C00280F901ED0FFE70F98102856
:1014800008D0FFE70F9820280DD0FFE70F983028ED
:1014900011D012E044F22C40C5F60200016841F47C
:1014A000003101600DE018980430022102F010FABA
:1014B0008DF8570005E004E003E001208DF85700A7
:1014C000FFE79DF8570000280CD1FFE744F24C409D
:1014D000C5F60200016821F03001189A926C1143A0
:1014E000016004E09DF857008DF85600FFE7FFE724
:1014F00018984078C006002850D5FFE71898C06DAE
:1015000000280E9014D0FFE70E98B0F5805F18D039
:10151000FFE70E98B0F5005F1BD0FFE70E98B0F51F
:10152000405F1ED0FFE70E98B0F5804F1AD01AE04A
:1015300044F22C40C5F60200016841F4003101601C
:1015400015E018980430002102F0C2F98DF8570018
:101550000DE018982430002102F09EFA8DF8570013
:1015600005E004E003E001208DF85700FFE79DF857
:10157000570000280CD1FFE744F25040C5F60200A6
:10158000016821F4E041189AD26D1143016004E032
:101590009DF857008DF85600FFE7FFE71898407850
:1015A000800600284ED5FFE71898006E00280D90A1
:1015B00019D0FFE70D98B0F5803F15D0FFE70D98E3
:1015C000B0F5003F18D0FFE70D98B0F5403F1BD0B5
:1015D000FFE70D98B0F5802F17D0FFE70D98B0F515
:1015E000A02F13D013E016E018980430012102F068
:1015F0006FF98DF857000EE018982430012102F0A1
:101600004BFA8DF8570006E005E004E003E0012006
:101610008DF85700FFE79DF8570000280CD1FFE731
:1016200044F25040C5F60200016821F4E021189A06
:10163000126E1143016004E09DF857008DF85600CA
:10164000FFE7FFE7189840784006002850D5FFE7ED
:101650001898D0F8AC0000280C9019D0FFE70C982F
:10166000B0F1805F15D0FFE70C98B0F1005F18D0A3
:10167000FFE70C98B0F1405F1BD0FFE70C98B0F18A
:10168000804F17D0FFE70C98B0F1A04F13D013E0B4
:1016900016E018980430012102F01AF98DF857006D
:1016A0000EE018982430012102F0F6F98DF8570069
:1016B00006E005E004E003E001208DF85700FFE7B5
:1016C0009DF8570000280DD1FFE744F25840C5F6B9
:1016D0000200016821F0E041189AD2F8AC201143D1
:1016E000016004E09DF857008DF85600FFE7FFE722
:1016F00018984078000600283DD5FFE71898C06E7E
:1017000000280B901BD0FFE70B98B0F1805F05D04D
:10171000FFE70B98B0F1005F09D011E044F22C40D4
:10172000C5F60200016841F4003101600CE0189830
:101730000430012102F0CCF88DF8570004E003E0FA
:1017400001208DF85700FFE79DF8570000280CD1C5
:10175000FFE744F25040C5F60200016821F0405115
:10176000189AD26E1143016004E09DF857008DF87D
:101770005600FFE7FFE71898C078C007002838D068
:10178000FFE71898406C03280A9017D80A99DFE8F9
:1017900001F014020B1344F22C40C5F6020001685C
:1017A00041F4003101600DE018980430022102F08C
:1017B0008FF88DF8570005E004E003E001208DF874
:1017C0005700FFE79DF8570000280CD1FFE744F2CF
:1017D0004C40C5F60200016821F00301189A526CD2
:1017E0001143016004E09DF857008DF85600FFE7B3
:1017F000FFE7189880784006002840F1B780FFE79F
:1018000044F60000C5F60200016841F480710160F1
:10181000FFF792F81690FFE744F60000C5F60200C5
:101820000068C00500280CD4FFE7FFF785F816997B
:10183000401A652804D3FFE703208DF8570000E025
:10184000EAE79DF85700002840F08A80FFE744F25D
:101850007040C5F60200006800F440701899D1F895
:10186000B01001F44071884213D0FFE744F2704099
:10187000C5F60200016821F440711791016841F436
:1018800080310160016821F48031016017990160A5
:10189000FFE71898D0F8B000B0F5807F1FD1FFE7C0
:1018A000FFF74AF81690FFE744F27040C5F60200D1
:1018B000006800F002000021B1EB500F0ED1FFE7ED
:1018C000FFF73AF81699401A41F28931884204D359
:1018D000FFE703208DF8570000E0E5E7FFE79DF8FC
:1018E0005700002836D1FFE7FFE71898D0F8B0007E
:1018F00000F44070B0F5407F14D1FFE744F210408F
:10190000C5F60200016821F47C51189AD2F8B02083
:101910004FF6F043C0F6FF731A4041EA12110A462F
:10192000016009E044F21040C5F60200016821F4AC
:101930007C510A460160FFE71898D0F8B0006FF3B9
:101940001F3044F27041C5F602010A681043086076
:10195000FFE704E09DF857008DF85600FFE704E02C
:101960009DF857008DF85600FFE7FFE718980078BC
:10197000C007002800F04D80FFE71898806F2828E6
:1019800009902BD80999DFE801F01529292929297F
:10199000292916292929292929291E2929292929D5
:1019A00029292629292929292929272929292929AC
:1019B0002929280016E018980430012101F088FF39
:1019C0008DF857000EE018982430012102F064F8D9
:1019D0008DF8570006E005E004E003E001208DF8F3
:1019E0005700FFE79DF8570000280CD1FFE744F2AD
:1019F0005440C5F60200016821F03801189A926F30
:101A00001143016004E09DF857008DF85600FFE790
:101A1000FFE718980078800700283AD5FFE7189864
:101A2000406F0528089019D80899DFE801F00304F1
:101A30000C14151616E018980430012101F048FF27
:101A40008DF857000EE018982430012102F024F898
:101A50008DF8570006E005E004E003E001208DF872
:101A60005700FFE79DF8570000280CD1FFE744F22C
:101A70005440C5F60200016821F00701189A526F20
:101A80001143016004E09DF857008DF85600FFE710
:101A9000FFE718980078400700283CD5FFE7189822
:101AA000D0F890000528079019D80799DFE801F0D1
:101AB00003040C14151616E018980430012101F0E7
:101AC00007FF8DF857000EE018982430012101F02F
:101AD000E3FF8DF8570006E005E004E003E0012095
:101AE0008DF85700FFE79DF8570000280DD1FFE75C
:101AF00044F25840C5F60200016821F00701189A27
:101B0000D2F890201143016004E09DF857008DF851
:101B10005600FFE7FFE7189800788006002850D5A8
:101B2000FFE71898D0F88C000028069019D0FFE73E
:101B30000698B0F1805F15D0FFE70698B0F1005F1E
:101B400018D0FFE70698B0F1405F1BD0FFE706987A
:101B5000B0F1804F17D0FFE70698B0F1A04F13D037
:101B600013E016E018980430002101F0B1FE8DF862
:101B700057000EE018982430022101F08DFF8DF8F7
:101B8000570006E005E004E003E001208DF857006F
:101B9000FFE79DF8570000280DD1FFE744F25440BD
:101BA000C5F60200016821F0E041189AD2F88C20B5
:101BB0001143016004E09DF857008DF85600FFE7DF
:101BC000FFE7189800784006002850D5FFE71898DE
:101BD000D0F898000028059019D0FFE70598B0F5D7
:101BE000806F15D0FFE70598B0F5006F18D0FFE7BC
:101BF0000598B0F5406F1BD0FFE70598B0F5805F02
:101C000017D0FFE70598B0F5A05F13D013E016E0FA
:101C100018980430002101F05BFE8DF857000EE0AB
:101C200018982430022101F037FF8DF8570006E0A4
:101C300005E004E003E001208DF85700FFE79DF880
:101C4000570000280DD1FFE744F25840C5F60200C6
:101C5000016821F4E051189AD2F8982011430160EC
:101C600004E09DF857008DF85600FFE7FFE718984D
:101C700000780006002850D5FFE71898D0F89C009F
:101C80000028049019D0FFE70498B0F5005F15D044
:101C9000FFE70498B0F5804F18D0FFE70498B0F53F
:101CA000C04F1BD0FFE70498B0F5004F17D0FFE7F7
:101CB0000498B0F5204F13D013E016E018980430C4
:101CC000002101F005FE8DF857000EE01898243031
:101CD000022101F0E1FE8DF8570006E005E004E086
:101CE00003E001208DF85700FFE79DF8570000281A
:101CF0000DD1FFE744F25840C5F60200016821F417
:101D00006041189AD2F89C201143016004E09DF8CC
:101D100057008DF85600FFE7FFE718980078000796
:101D2000002821D5FFE71898D0F88000B0F5805F33
:101D30000DD1FFE718982430022101F0ADFE0028F4
:101D400004D0FFE701208DF85600FFE7FFE744F2DB
:101D50005440C5F60200016821F44051189AD2F8A7
:101D6000802011430160FFE718980078C006002822
:101D700021D5FFE71898D0F89400B0F5807F0DD1F9
:101D8000FFE718982430022101F086FE002804D0D5
:101D9000FFE701208DF85600FFE7FFE744F25840C7
:101DA000C5F60200016821F44071189AD2F8942017
:101DB00011430160FFE718988078000700283ED59E
:101DC000FFE71898D0F8A000002803900AD0FFE79A
:101DD0000398B0F5803F0DD0FFE70398B0F5003FC2
:101DE00010D010E018980430002101F071FD8DF83A
:101DF00057000CE018982430022101F04DFE8DF8B8
:101E0000570004E003E001208DF85700FFE79DF83C
:101E1000570000280DD1FFE744F25840C5F60200F4
:101E2000016821F44031189AD2F8A02011430160D2
:101E300004E09DF857008DF85600FFE7FFE718987B
:101E400080784007002840D5FFE71898D0F8840034
:101E5000B0F5801F02900AD0FFE70298B0F5001F8E
:101E60000ED0FFE70298B0F5401F11D011E044F208
:101E70002C40C5F60200016841F4003101600CE01D
:101E800018982430012101F007FE8DF8570004E076
:101E900003E001208DF85700FFE79DF85700002868
:101EA0000DD1FFE744F25440C5F60200016821F469
:101EB0004011189AD2F884201143016004E09DF883
:101EC00057008DF85600FFE7FFE718988078C007A5
:101ED000002837D0FFE71898C06C0028019005D083
:101EE000FFE70198B0F5803F09D010E044F22C40A4
:101EF000C5F60200016841F4003101600BE018985A
:101F00000430022101F0E4FC8DF8570003E00120C9
:101F10008DF85700FFE79DF8570000280CD1FFE728
:101F200044F24C40C5F60200016821F48031189A51
:101F3000D26C1143016004E09DF857008DF8560003
:101F4000FFE7FFE71898C078800600280DD5FFE767
:101F500018982430022101F09FFD002804D0FFE7EB
:101F600001208DF85600FFE7FFE71898807880077A
:101F700000283CD5FFE71898C06F002800901AD0C1
:101F8000FFE70098B0F5807F0AD0FFE70098B0F532
:101F9000007F0ED0FFE70098B0F5407F0AD00BE03D
:101FA00044F22C40C5F60200016841F400310160A2
:101FB00006E005E004E003E001208DF85700FFE7AC
:101FC0009DF8570000280CD1FFE744F25440C5F6B5
:101FD0000200016821F44071189AD26F1143016028
:101FE00004E09DF857008DF85600FFE7FFE71898CA
:101FF0008078C00600280CD5FFE744F25040C5F6B3
:102000000200016821F00041189A126F114301602B
:10201000FFE71898C078C00600280DD5FFE744F206
:102020001040C5F60200016821F48041189AD2F8E8
:10203000B42011430160FFE71898807880060028DB
:102040000CD5FFE744F25040C5F60200016821F0CC
:102050008071189A926E11430160FFE71898C0785A
:102060004006002811D5FFE7FFE744F21040C5F60F
:102070000200016821F4004101601899D1F8B810FC
:10208000026811430160FFE7FFE71898C078000677
:1020900000280CD5FFE744F24C40C5F60200016869
:1020A00021F04051189A126D11430160FFE7189812
:1020B0008078000600280DD5FFE744F25440C5F6AD
:1020C0000200016821F44001189AD2F888201143D7
:1020D0000160FFE79DF85600002804D1FFE70020CB
:1020E0008DF8670003E001208DF86700FFE79DF899
:1020F00067001AB080BD00007047000000000000BB
:1021000080B586B0049003910498002804D1FFE7BD
:1021100001208DF817003CE2039842F20001C5F25D
:102120000021096801F00F01884216D9FFE742F249
:102130000000C5F20020016821F00F01039A11434D
:102140000160006800F00F000399884204D0FFE7A7
:1021500001208DF817001CE2FFE704980078400783
:10216000002819D5FFE70498006944F21841C5F624
:102170000201096801F0700188420CD9FFE744F2BE
:102180001840C5F60200016821F07001049A126936
:1021900011430160FFE7FFE704980078000700287B
:1021A00019D5FFE70498406944F21C41C5F60201C5
:1021B000096801F0700188420CD9FFE744F21C4025
:1021C000C5F60200016821F07001049A52691143BA
:1021D0000160FFE7FFE704980078C006002819D5E2
:1021E000FFE70498806944F21C41C5F602010968C2
:1021F00001F4E06188420CD9FFE744F21C40C5F6C7
:102200000200016821F4E061049A926911430160BF
:10221000FFE7FFE7049800788006002819D5FFE75C
:102220000498C06944F22041C5F60201096801F032
:10223000700188420CD9FFE744F22040C5F6020045
:10224000016821F07001049AD26911430160FFE72F
:10225000FFE7049800788007002819D5FFE7049865
:10226000C06844F21841C5F60201096801F00F0187
:1022700088420CD9FFE744F21840C5F60200016815
:1022800021F00F01049AD26811430160FFE7FFE7D4
:1022900004980078C007002800F08C80FFE744F223
:1022A0001840C5F60200016821F47061049A926832
:1022B0001143016004984068022811D1FFE744F2FD
:1022C0000040C5F60200006800F400300021B1EBC8
:1022D000504F04D1FFE701208DF8170059E13EE08F
:1022E00004984068032811D1FFE744F20040C5F686
:1022F0000200006800F000700021B1EB506F04D1C3
:10230000FFE701208DF8170043E127E004984068BB
:10231000012811D1FFE744F20040C5F60200006831
:1023200000F480700021B1EB102F04D1FFE70120F1
:102330008DF817002DE110E044F20040C5F60200D0
:10234000006800F004000021B1EB900F04D1FFE71A
:1023500001208DF817001CE1FFE7FFE7FFE744F2DB
:102360001040C5F60200016821F00701049A526886
:1023700011430160FEF7E0FA0190FFE744F21040DC
:10238000C5F60200006800F0380004994968B0EB17
:10239000C10F0ED0FFE7FEF7CFFA0199401A41F2C4
:1023A0008931884204D3FFE703208DF81700F0E05D
:1023B000E4E7FFE7049800788007002819D5FFE7D5
:1023C0000498C06844F21841C5F60201096801F09A
:1023D0000F0188420CD2FFE744F21840C5F6020014
:1023E000016821F00F01049AD26811430160FFE7F0
:1023F000FFE7039842F20001C5F20021096801F0ED
:102400000F01884216D2FFE742F20000C5F2002019
:10241000016821F00F01039A11430160006800F088
:102420000F000399884204D0FFE701208DF81700C0
:10243000AFE0FFE7049800784007002819D5FFE7D0
:102440000498006944F21841C5F60201096801F0D8
:10245000700188420CD2FFE744F21840C5F6020032
:10246000016821F07001049A126911430160FFE7CD
:10247000FFE7049800780007002819D5FFE70498C3
:10248000406944F21C41C5F60201096801F070017F
:1024900088420CD2FFE744F21C40C5F602000168F6
:1024A00021F07001049A526911430160FFE7FFE7D0
:1024B00004980078C006002819D5FFE704988069C1
:1024C00044F21C41C5F60201096801F4E06188424A
:1024D0000CD2FFE744F21C40C5F60200016821F46B
:1024E000E061049A926911430160FFE7FFE70498F5
:1024F00000788006002819D5FFE70498C06944F2E7
:102500002041C5F60201096801F0700188420CD231
:10251000FFE744F22040C5F60200016821F0700197
:10252000049AD26911430160FFE7FFE700F098F8D1
:1025300044F21841C5F602010A68C2F3032244F6C8
:10254000D043C0F600039A5C02F01F02D040009016
:102550000098096801F00F01595C01F01F01C840A3
:1025600040F20401C2F200410860009840F200010C
:10257000C2F20041086040F20C00C2F20040006864
:10258000FEF732FA8DF80B009DF80B008DF817005E
:10259000FFE79DF8170006B080BD000000000000B6
:1025A00044F20040C5F60200016841F400210160D8
:1025B000704700000000000080B582B000F050F8C5
:1025C00044F21841C5F602010A68C2F3032244F638
:1025D000D043C0F600039A5C02F01F02D040019085
:1025E0000198096801F00F01595C01F01F01C84012
:1025F00040F20401C2F200410860019840F200027A
:10260000C2F200421060086802B080BD0000000005
:1026100080B5FFF7D1FF44F21C41C5F602010968FD
:10262000C1F3021144F6D042C0F60002515C01F041
:102630001F01C84080BD000080B5FFF7BDFF44F218
:102640001C41C5F602010968C1F3022144F6D042DB
:10265000C0F60002515C01F01F01C84080BD0000BF
:102660008AB044F21040C5F60200006800F038005D
:1026700001461828019100F26C810199DFE811F000
:10268000190069016901690169016901690169014B
:102690003B00690169016901690169016901690119
:1026A0004100690169016901690169016901690103
:1026B000470044F20040C5F60200006800F0200028
:1026C0000021B1EB501F0FD0FFE744F20040C5F6E8
:1026D00002000068C0F3C10049F20001C0F2D0312D
:1026E00021FA00F0029005E049F20000C0F2D0307B
:1026F0000290FFE733E140F60010C0F23D00029087
:102700002DE147F64000C0F27D10029027E144F22F
:102710002840C5F60200016801F003010891006835
:10272000C0F30510079044F22C40C5F60200006883
:1027300000F001000690069844F23441C5F602010B
:10274000096889B2C908484300EE100AB8EE400A89
:102750008DED040A0798002800F0F780FFE708983D
:102760000028009009D0FFE7009801286AD0FFE711
:102770000098022800F08A80ACE044F20040C5F6E0
:102780000200006800F020000021B1EB501F34D09F
:10279000FFE744F20040C5F602000068C0F3C10044
:1027A00049F20001C0F2D03121FA00F005909DED10
:1027B000050AB8EE400A9DED071AB8EE411A80EE00
:1027C000010A44F23040C5F6020000686FF35F2052
:1027D00001EE100AB8EE411A9DED042A9FED623A0F
:1027E00082EE032A31EE021AB7EE002A31EE021A07
:1027F00020EE010A8DED030A23E09DED070AB8EEF5
:10280000400A9FED5B1A81EE000A44F23040C5F6A3
:10281000020000686FF35F2001EE100AB8EE411A63
:102820009DED042A9FED503A82EE032A31EE021A02
:10283000B7EE002A31EE021A20EE010A8DED030AEE
:10284000FFE76BE09DED070AB8EE400A9FED471ADF
:1028500081EE000A44F23040C5F6020000686FF3D2
:102860005F2001EE100AB8EE411A9DED042A9FED9B
:102870003E3A82EE032A31EE021AB7EE002A31EE1A
:10288000021A20EE010A8DED030A47E09DED070ACA
:10289000B8EE400A9FED331A81EE000A44F2304050
:1028A000C5F6020000686FF35F2001EE100AB8EE73
:1028B000411A9DED042A9FED2C3A82EE032A31EE57
:1028C000021AB7EE002A31EE021A20EE010A8DED4F
:1028D000030A23E09DED070AB8EE400A9FED231A94
:1028E00081EE000A44F23040C5F6020000686FF342
:1028F0005F2001EE100AB8EE411A9DED042A9FED0B
:102900001A3A82EE032A31EE021AB7EE002A31EEAD
:10291000021A20EE010A8DED030AFFE744F230406F
:10292000C5F60200006880B2012101EB5020099039
:102930009DED030A9DED091AB8EE411A80EE010AD9
:10294000BCEEC00A8DED020A02E000200290FFE713
:1029500005E040F60010C0F23D000290FFE702984B
:102960000AB0704720BCBE4B000000460024744AE9
:102970000024744C0000000080B544F26440C5F6A9
:1029800002000068400500280AD5FFE7FFF7B4FB06
:1029900044F26840C5F602004FF480610160FFE731
:1029A00080BD00000000000080B58CB00A900A983D
:1029B000002805D1FFE701208DF82F0000F043BD6E
:1029C0000A980078C007002800F0BC80FFE744F2B6
:1029D0001040C5F60200006800F03800069044F28E
:1029E0002840C5F6020000680590069810280AD015
:1029F000FFE7069818281DD1FFE7059800F00300AF
:102A0000022817D1FFE744F20040C5F60200006833
:102A100000F400300021B1EB504F0AD0FFE70A98D4
:102A20004068002805D1FFE701208DF82F0000F055
:102A30000ABD86E0FFE70A984068B0F5803F09D1FB
:102A4000FFE744F20040C5F60200016841F480311E
:102A5000016033E00A98406800280DD1FFE744F296
:102A60000040C5F60200016821F480310160016870
:102A700021F48021016020E00A984068B0F5A02F81
:102A80000DD1FFE744F20040C5F60200016841F4B1
:102A900080210160016841F4803101600CE044F262
:102AA0000040C5F60200016821F480310160016830
:102AB00021F480210160FFE7FFE7FFE7FFE70A98C5
:102AC000406800281ED0FFE7FDF736FF0990FFE7BA
:102AD00044F20040C5F60200006800F40030002116
:102AE000B1EB504F0DD1FFE7FDF726FF0999401AD2
:102AF000652805D3FFE703208DF82F0000F0A3BC65
:102B0000E6E71DE0FDF718FF0990FFE744F20040FB
:102B1000C5F60200006800F400300021B1EB504F10
:102B20000DD0FFE7FDF708FF0999401A652805D386
:102B3000FFE703208DF82F0000F085BCE6E7FFE7F4
:102B4000FFE7FFE70A9800788007002840F1EF8050
:102B5000FFE744F21040C5F60200006800F03800BC
:102B6000049044F22840C5F60200006803900498DF
:102B700000280AD0FFE70498182851D1FFE79DF8F4
:102B80000C00800700284BD1FFE744F20040C5F657
:102B90000200006800F004000021B1EB900F0AD0A1
:102BA000FFE70A98C068002805D1FFE701208DF8EB
:102BB0002F0000F048BCFFE7FDF7B6FE41F203012D
:102BC00088421DD8FFE70A98006940280AD1FFE72C
:102BD00044F20440C5F602000168202262F311317C
:102BE00001600CE044F20440C5F60200016821F4E3
:102BF0007C310A9A126941EA02310160FFE70CE078
:102C000044F20440C5F60200016821F0FE410A9A30
:102C1000126941EA02610160FFE7FFE7FFE785E033
:102C20000A98C06800285BD0FFE744F20040C5F670
:102C30000200016821F019010A9AD268114301606B
:102C4000FDF77AFE0990FFE744F20040C5F6020066
:102C5000006800F004000021B1EB900F0CD1FFE7F9
:102C6000FDF76AFE0999401A032804D3FFE7032001
:102C70008DF82F00E7E3E7E7FFE7FDF755FE41F2A8
:102C8000030188421DD8FFE70A98006940280AD14D
:102C9000FFE744F20440C5F602000168202262F317
:102CA000113101600CE044F20440C5F602000168F5
:102CB00021F47C310A9A126941EA02310160FFE78E
:102CC0000CE044F20440C5F60200016821F0FE4128
:102CD0000A9A126941EA02610160FFE7FFE724E016
:102CE00044F20040C5F60200016821F001010160D4
:102CF000FDF722FE0990FFE744F20040C5F602000E
:102D0000006800F004000021B1EB900F0CD0FFE749
:102D1000FDF712FE0999401A032804D3FFE70320A8
:102D20008DF82F008FE3E7E7FFE7FFE7FFE70A985B
:102D30000078C006002840F1EB80FFE744F2104025
:102D4000C5F60200006800F03800029044F2284006
:102D5000C5F6020000680190029808280AD0FFE733
:102D60000298182850D1FFE7019800F003000128CD
:102D70004AD1FFE744F20040C5F60200006800F4C3
:102D800080700021B1EB102F09D0FFE70A98C069CD
:102D9000802804D0FFE701208DF82F0053E3FFE7E0
:102DA000FDF7C2FD41F2030188421DD8FFE70A98F2
:102DB000006A20280AD1FFE744F20440C5F6020069
:102DC0000168102262F39E6101600CE044F204404D
:102DD000C5F60200016821F0F8410A9A126A41EA38
:102DE00082610160FFE70CE044F20C40C5F602008E
:102DF000016821F07C510A9A126A41EA026101607D
:102E0000FFE7FFE7FFE782E00A98C069002858D093
:102E1000FFE744F20040C5F60200016841F080017E
:102E20000160FDF789FD0990FFE744F20040C5F617
:102E30000200006800F480700021B1EB102F0CD16B
:102E4000FFE7FDF779FD0999401A032804D3FFE74E
:102E500003208DF82F00F6E2E7E7FFE7FDF764FDBA
:102E600041F2030188421DD8FFE70A98006A202832
:102E70000AD1FFE744F20440C5F6020001681022BF
:102E800062F39E6101600CE044F20440C5F602006A
:102E9000016821F0F8410A9A126A41EA82610160F0
:102EA000FFE70CE044F20C40C5F60200016821F097
:102EB0007C510A9A126A41EA02610160FFE7FFE76A
:102EC00024E044F20040C5F60200016821F08001D0
:102ED0000160FDF731FD0990FFE744F20040C5F6BF
:102EE0000200006800F480700021B1EB102F0CD0BC
:102EF000FFE7FDF721FD0999401A032804D3FFE7F6
:102F000003208DF82F009EE2E7E7FFE7FFE7FFE7EA
:102F10000A9800780007002850D5FFE70A98406912
:102F2000002825D0FFE744F27440C5F6020001688E
:102F300041F001010160FDF7FFFC0990FFE744F259
:102F40007440C5F60200006800F002000021B1EBF9
:102F5000500F0CD1FFE7FDF7EFFC0999401A032849
:102F600004D3FFE703208DF82F006CE2E7E724E0AD
:102F700044F27440C5F60200016821F001010160CD
:102F8000FDF7DAFC0990FFE744F27440C5F6020051
:102F9000006800F002000021B1EB500F0CD0FFE7F9
:102FA000FDF7CAFC0999401A032804D3FFE7032060
:102FB0008DF82F0047E2E7E7FFE7FFE70A98007880
:102FC0008006002850D5FFE70A988069002825D0A0
:102FD000FFE744F20040C5F60200016841F4805169
:102FE0000160FDF7A9FC0990FFE744F20040C5F637
:102FF0000200006800F400500021B1EB503F0CD1FA
:10300000FFE7FDF799FC0999401A032804D3FFE76D
:1030100003208DF82F0016E2E7E724E044F2004099
:10302000C5F60200016821F480510160FDF784FCBF
:103030000990FFE744F20040C5F60200006800F482
:1030400000500021B1EB503F0CD0FFE7FDF774FCBE
:103050000999401A032804D3FFE703208DF82F00B5
:10306000F1E1E7E7FFE7FFE70A980078400700286B
:1030700040F1A980FFE744F60000C5F602000168B0
:1030800041F480710160FDF757FC0990FFE744F6B9
:103090000000C5F602000068C00500280CD4FFE758
:1030A000FDF74AFC0999401A652804D3FFE703207D
:1030B0008DF82F00C7E1EAE7FFE70A98806801284A
:1030C00009D1FFE744F27040C5F60200016841F003
:1030D0000101016032E00A98806800280DD1FFE705
:1030E00044F27040C5F60200016821F00101016060
:1030F000016821F0040101601FE00A98806805283A
:103100000DD1FFE744F27040C5F60200016841F0BE
:1031100004010160016841F0010101600CE044F22A
:103120007040C5F60200016821F0010101600168EC
:1031300021F004010160FFE7FFE7FFE7FFE70A98DE
:10314000806800281FD0FFE7FDF7F6FB0990FFE736
:1031500044F27040C5F60200006800F00200002151
:10316000B1EB500F0ED1FFE7FDF7E6FB0999401ACE
:1031700041F28931884204D3FFE703208DF82F0004
:1031800061E1E5E71EE0FDF7D7FB0990FFE744F2B8
:103190007040C5F60200006800F002000021B1EBAB
:1031A000500F0ED0FFE7FDF7C7FB0999401A41F217
:1031B0008931884204D3FFE703208DF82F0042E1D4
:1031C000E5E7FFE7FFE70A98406A002800F037814B
:1031D000FFE744F21040C5F60200006800F0380036
:1031E000182800F0DE80FFE70A98406A022840F0C5
:1031F000B280FFE744F20040C5F60200016821F00A
:1032000080710160FDF798FB0990FFE744F20040F0
:10321000C5F60200006800F000700021B1EB506FAD
:103220000CD0FFE7FDF788FB0999401A032804D367
:10323000FFE703208DF82F0005E1E7E7FFE744F201
:103240002840C5F60200016840F2F33291430A9A21
:10325000936AD26A43EA0212114301600A98016B31
:10326000426B836BC06B01396FF35F214FF6006CCB
:10327000CFF6FF7C0CEB422292B211440022CFF633
:10328000FF7202EB034202F4FE0211444FF07F4250
:1032900002EB006000F0FE40084444F23041C5F605
:1032A00002010860FFE744F22C40C5F60200016805
:1032B00021F00101016044F23441C5F602010A68BF
:1032C0004FF6F8739A430A9B9B6C42EAC3020A606A
:1032D000016821F00C010A9A126C11430160016827
:1032E00021F002010A9A526C11430160016841F415
:1032F00080310160016841F400310160016841F4EE
:1033000080210160016841F00101016044F2004048
:10331000C5F60200016841F080710160FDF70CFB09
:103320000990FFE744F20040C5F60200006800F093
:1033300000700021B1EB506F0CD1FFE7FDF7FCFAF4
:103340000999401A032804D3FFE703208DF82F00C2
:1033500079E0E7E724E044F20040C5F602000168A6
:1033600021F080710160FDF7E7FA0990FFE744F270
:103370000040C5F60200006800F000700021B1EBCB
:10338000506F0CD0FFE7FDF7D7FA0999401A0328D0
:1033900004D3FFE703208DF82F0054E0E7E7FFE7B1
:1033A0004CE044F22840C5F602000068089044F260
:1033B0003040C5F60200006807900A98406A01286C
:1033C00037D0FFE7089800F003000A99896A88421D
:1033D0002FD1FFE7089800F47C700A99C96AB1EB15
:1033E000101F26D1FFE707986FF35F200A99096B3A
:1033F000013988421DD1FFE7BDF81C000A99496BCD
:103400000139B1EB502F14D1FFE7079800F4FE000B
:103410000A99896B0139B1EB104F0AD1FFE7079880
:1034200000F0FE400A99C96B0139B1EB106F04D06E
:10343000FFE701208DF82F0005E0FFE7FFE7002000
:103440008DF82F00FFE79DF82F000CB080BD000025
:1034500080B582B00190019800F006FC02B080BDFA
:1034600083B00190FFE7019890F88000012804D113
:10347000FFE702208DF80B002CE00198012180F875
:103480008010FFE7FFE701982421C0F8841001981D
:1034900000680068009001980068016821F001014F
:1034A0000160009820F000500090019800214166D2
:1034B000009801990968086001982021C0F88410DB
:1034C000FFE70198002180F88010FFE700208DF8C9
:1034D0000B00FFE79DF80B0003B0704700000000F1
:1034E00080B584B002900191FFE7029890F88000C7
:1034F000012804D1FFE702208DF80F0032E0029886
:10350000012180F88010FFE7FFE702982421C0F82E
:1035100084100298006800680090029800680168B2
:1035200021F00101016002980068806820F060606D
:1035300001990843029909688860029800F0F0FC3C
:10354000009802990968086002982021C0F8841048
:10355000FFE70298002180F88010FFE700208DF837
:103560000F00FFE79DF80F0004B080BD00000000D1
:1035700080B584B002900191FFE7029890F8800036
:10358000012804D1FFE702208DF80F0032E00298F5
:10359000012180F88010FFE7FFE702982421C0F89E
:1035A0008410029800680068009002980068016822
:1035B00021F00101016002980068806820F06040FD
:1035C00001990843029909688860029800F0A8FCF4
:1035D000009802990968086002982021C0F88410B8
:1035E000FFE70298002180F88010FFE700208DF8A7
:1035F0000F00FFE79DF80F0004B080BD0000000041
:1036000080B582B000900098002804D1FFE7012027
:103610008DF8070049E000988069002801D0FFE795
:1036200000E0FFE70098D0F88400002808D1FFE709
:103630000098002180F88010009800F03DF8FFE726
:1036400000982421C0F8841000980068016821F0D7
:1036500001010160009800F0A7FD012804D1FFE7F7
:1036600001208DF8070020E00098806A002804D02F
:10367000FFE7009800F098FCFFE7009800684168B9
:1036800021F49041416000980068816821F02A018E
:10369000816000980068016841F0010101600098B4
:1036A00000F02AFD8DF80700FFE79DF8070002B043
:1036B00080BD00000000000080B5B8B03790002049
:1036C0003690359034903390329003A8BC21FCF7AB
:1036D000CBFE3798006844F60041C4F200018842EE
:1036E0003BD1FFE7022003900020209003A8FDF7C4
:1036F00017FD002803D0FFE7FCF722FFFFE7FFE7F5
:1037000044F2E840C5F60200016841F4002101607E
:10371000006800F4002002900298FFE7FFE744F2FF
:10372000E040C5F60200016841F001010160006857
:1037300000F0010001900198FFE703203290022180
:103740003391002134913590082036900020C5F641
:10375000020032A9FCF7FCFEFFE738B080BD000094
:10376000FFE7FEE70000000082B0FFE744F2E04020
:10377000C5F60200016841F080010160006800F0B8
:10378000800001900198FFE7FFE744F2E040C5F6B2
:103790000200016841F001010160006800F00100D1
:1037A00000900098FFE702B07047000000000000A2
:1037B00080B540F27000C2F2004044F60041C4F20D
:1037C000000101604FF4E131416000218160C1607E
:1037D00001610C2242618161C161016241628162C9
:1037E000FFF70EFF002803D0FFE7FCF7A9FEFFE775
:1037F00040F27000C2F200400021FFF7B9FE00283D
:1038000003D0FFE7FCF79CFEFFE740F27000C2F236
:1038100000400021FFF764FE002803D0FFE7FCF71B
:103820008FFEFFE740F27000C2F20040FFF718FE83
:10383000002803D0FFE7FCF783FEFFE780BD000010
:10384000FFE7FEE70000000080B5FFF795F8FFE70F
:10385000FEE700000000000088B007900691059286
:10386000079800F0070004900498C0F107000528AD
:1038700003D3FFE70420019004E00498C0F107009F
:103880000190FFE70198039004980430062803D8BC
:10389000FFE70020009003E0049803380090FFE762
:1038A0000098029006980399012202FA01F1013969
:1038B000084002998840059B02FA01F1013919403C
:1038C000084308B070470000704700000000000087
:1038D00080B586B00490039100208DF8070044F273
:1038E0002840C5F60200006800F00300032804D158
:1038F000FFE701208DF81700CAE044F20040C5F64A
:103900000200016821F080610160FDF715F8029066
:10391000FFE744F20040C5F60200006800F00060D6
:103920000021B1EBD06F0CD0FFE7FDF705F802994D
:10393000401A032804D3FFE703208DF81700A7E0FF
:10394000E7E7FFE744F22840C5F60200016821F4EA
:103950007C31049A126841EA02310160049841689E
:103960008268C368006901396FF35F214FF6006C0C
:10397000CFF6FF7C0CEB422292B211440022CFF62C
:10398000FF7202EB034202F4FE0211444FF07F4249
:1039900002EB006000F0FE40084444F23841C5F6F6
:1039A00002010860FFE744F22C40C5F602000168FE
:1039B00021F0C001049A526911430160016821F0AD
:1039C0002001049A926911430160016821F01001FD
:1039D000016044F23C41C5F602010A684FF6F873F3
:1039E0009A43049BDB6942EAC3020A60016841F022
:1039F000100101600398002809D1FFE744F22C4030
:103A0000C5F60200016841F40021016016E0039848
:103A1000012809D1FFE744F22C40C5F602000168F5
:103A200041F48011016008E044F22C40C5F6020028
:103A3000016841F400110160FFE7FFE744F2004034
:103A4000C5F60200016841F080610160FCF774FF77
:103A50000290FFE744F20040C5F60200006800F063
:103A600000600021B1EBD06F0CD1FFE7FCF764FFE1
:103A70000299401A032804D3FFE703208DF81700AA
:103A800006E0E7E7FFE79DF807008DF81700FFE77E
:103A90009DF8170006B080BD80B586B004900391F4
:103AA00000208DF8070044F22840C5F602000068A7
:103AB00000F00300032804D1FFE701208DF8170070
:103AC000CAE044F20040C5F60200016821F08051CE
:103AD0000160FCF731FF0290FFE744F20040C5F6B9
:103AE0000200006800F000500021B1EB507F0CD0C4
:103AF000FFE7FCF721FF0299401A032804D3FFE7F0
:103B000003208DF81700A7E0E7E7FFE744F228401D
:103B1000C5F60200016821F07C71049A126841EA3E
:103B200002510160049841688268C36800690139E4
:103B30006FF35F214FF6006CCFF6FF7C0CEB422257
:103B400092B211440022CFF6FF7202EB034202F45C
:103B5000FE0211444FF07F4202EB006000F0FE4095
:103B6000084444F24041C5F602010860FFE744F210
:103B70002C40C5F60200016821F44061049A5269A4
:103B800011430160016821F40071049A92691143A4
:103B90000160016821F48071016044F24441C5F67E
:103BA00002010A684FF6F8739A43049BDB6942EA04
:103BB000C3020A60016841F4807101600398002823
:103BC00009D1FFE744F22C40C5F60200016841F438
:103BD0008001016016E00398012809D1FFE744F253
:103BE0002C40C5F60200016841F40001016008E0C4
:103BF00044F22C40C5F60200016841F0807101607A
:103C0000FFE7FFE744F20040C5F60200016841F01B
:103C100080510160FCF790FE0290FFE744F2004003
:103C2000C5F60200006800F000500021B1EB507FA3
:103C30000CD1FFE7FCF780FE0299401A032804D359
:103C4000FFE703208DF8170006E0E7E7FFE79DF8A0
:103C500007008DF81700FFE79DF8170006B080BD3C
:103C6000704700000000000080B582B0009000980E
:103C70000138B0F1807F03D3FFE70120019019E004
:103C8000009801384EF21401CEF2000108604FF0A6
:103C9000FF300F2100F0BCFF4EF21800CEF2000002
:103CA000002101604EF21000CEF2000007220260F7
:103CB0000191FFE7019802B080BD00000000000004
:103CC00080B5FCF741FE80BD80B59CB009A84C21B1
:103CD000FCF7CAFB0020089007900690059004901E
:103CE0000390029001900220FCF702FFFFE7002002
:103CF000009044F61800C5F60200016841F4404106
:103D00000160006800F44040009040F22C40C5F68D
:103D10000000016841F001010160006800F001004D
:103D200000900098FFE7FFE744F61800C5F6020090
:103D3000006800F40050B0F5005F01D0FFE7F3E742
:103D4000012009904FF480300A90022012901390C5
:103D500005211491C02115911690179018900820F4
:103D6000199000201A901B9009A8FEF71DFE00284C
:103D700003D0FFE7FCF7E4FBFFE73F2001900320BF
:103D800002900020039008200490402005900690A7
:103D90004FF480610791089001A80421FEF7B0F963
:103DA000002803D0FFE7FCF7CBFBFFE7FEF7F8FBAB
:103DB0001CB080BD000000004EF68850CEF200001E
:103DC000016841F47001016042F20000C5F2002078
:103DD000006800F00F0006280AD8FFE742F2000052
:103DE000C5F200200168072262F303010160FFE7CA
:103DF00044F20040C5F60200016841F00101016093
:103E000044F21041C5F6020100220A6001684EF634
:103E10007F52CEF6F6221140016042F20000C5F258
:103E20000020006800F00F0008280AD3FFE742F2E4
:103E30000000C5F200200168072262F3030101605F
:103E4000FFE744F21840C5F602000021016044F289
:103E50001C40C5F60200016044F22040C5F6020095
:103E6000016044F22840C5F6020040F20022C0F290
:103E70000222026044F22C40C5F602000022C0F289
:103E8000FF12026044F23040C5F6020040F2802288
:103E9000C0F20112026044F23440C5F60200016033
:103EA00044F23840C5F60200026044F23C40C5F6D8
:103EB0000200016044F24040C5F60200026044F294
:103EC0004440C5F60200016044F20040C5F602001D
:103ED000026822F48022026044F26040C5F60200CB
:103EE000016041F20000C5F600400068B1EB507F70
:103EF00007D1FFE748F20810C5F200100121016068
:103F0000FFE744F20000C5F2002043F2D201016055
:103F10004EF60850CEF200004FF00061016070478D
:103F200082B001900198406E002808D1FFE7019807
:103F30000121A0F86A100198A0F8681032E0102062
:103F40008DF803008DF80200019800688068C0F3C6
:103F500042608DF80100019800688068400F8DF87C
:103F600000009DF802009DF8001044F6E842C0F6FB
:103F70000002535C584344F6E043C0F60003595C2A
:103F8000B0FBF1F00199A1F86A009DF803009DF8DB
:103F90000110525C5043595CB0FBF1F00199A1F85B
:103FA0006800FFE702B0704781B00090009890F879
:103FB0002800C00700280BD0FFE700980068406881
:103FC00020F4003000990A68C96A08435060FFE78E
:103FD000009890F82800800700280BD5FFE700988C
:103FE0000068406820F4803000990A68096B084333
:103FF0005060FFE7009890F82800400700280BD594
:10400000FFE700980068406820F4802000990A6863
:10401000496B08435060FFE7009890F828000007BC
:1040200000280BD5FFE700980068406820F40040A6
:1040300000990A68896B08435060FFE7009890F880
:104040002800C00600280BD5FFE7009800688068AC
:1040500020F4805000990A68C96B08439060FFE71C
:10406000009890F82800800600280BD5FFE70098FC
:104070000068806820F4005000990A68096C0843C1
:104080009060FFE7009890F82800400600281CD5B3
:10409000FFE700980068406820F4801000990A68E3
:1040A000496C084350600098406CB0F5801F0BD1FC
:1040B000FFE700980068406820F4C00000990A6893
:1040C000896C08435060FFE7FFE7009890F82800EC
:1040D000000600280BD5FFE700980068406820F430
:1040E000002000990A68C96C08435060FFE701B0DE
:1040F000704700000000000080B584B00290029874
:104100000021C0F88C10FCF717FC019002980068A1
:1041100000680007002813D5FFE70298019B694655
:104120006FF07E420A604FF40011002200F0DCFCC8
:10413000002804D0FFE703208DF80F002EE0FFE7F2
:104140000298006800684007002813D5FFE702982E
:10415000019B69466FF07E420A604FF480010022A5
:1041600000F0C2FC002804D0FFE703208DF80F0008
:1041700014E0FFE702982021C0F884100298C0F8EC
:10418000881002980021C166FFE70298002180F89C
:104190008010FFE700208DF80F00FFE79DF80F006B
:1041A00004B080BD0000000080B59CB01B900020D2
:1041B0008DF85F001B98006840F60041C5F60001CD
:1041C000884201D1FFE700E0FFE71B9881680269A0
:1041D0004369C0691143194308431A901B9800684A
:1041E000006846F6F311CCF6FF7108401A990843AF
:1041F0001B99096808601B980068406820F44050CB
:104200001B990A68C968084350601B9880691A9016
:104210001B98006840F60041C5F60001884206D0B0
:10422000FFE71B98006A1A9908431A90FFE71B984A
:10423000006880684FF2FF41C1F2FF1108401A99EF
:1042400008431B99096888601B980068C06A20F0C1
:104250000F001B990A68496A0843D062FFE71B9860
:10426000006841F20001C4F20101884240F041803F
:10427000FFE744F25440C5F60200006800F0380041
:10428000014628280E912FD80E99DFE801F0152D50
:104290002D2D2D2D2D2D192D2D2D2D2D2D2D1D2D72
:1042A0002D2D2D2D2D2D212D2D2D2D2D2D2D252D52
:1042B0002D2D2D2D2D2D290001208DF8650017E0C5
:1042C00004208DF8650013E008208DF865000FE0EC
:1042D00010208DF865000BE020208DF8650007E0C8
:1042E00040208DF8650003E080208DF86500FFE731
:1042F000D6E11B98006844F20041C4F200018842F4
:104300002ED1FFE744F25440C5F60200006800F0E9
:104310000700014605280D911DD80D99DFE801F031
:1043200003070B0F131700208DF8650017E004201A
:104330008DF8650013E008208DF865000FE010206F
:104340008DF865000BE020208DF8650007E0402027
:104350008DF8650003E080208DF86500FFE79EE1A1
:104360001B98006844F60001C4F2000188422ED177
:10437000FFE744F25440C5F60200006800F0070071
:10438000014605280C911DD80C99DFE801F00307C0
:104390000B0F131700208DF8650017E004208DF82F
:1043A000650013E008208DF865000FE010208DF8FF
:1043B00065000BE020208DF8650007E040208DF8B7
:1043C000650003E080208DF86500FFE766E11B983B
:1043D000006844F60041C4F2000188422ED1FFE794
:1043E00044F25440C5F60200006800F007000146A0
:1043F00005280B911DD80B99DFE801F003070B0F7F
:10440000131700208DF8650017E004208DF8650073
:1044100013E008208DF865000FE010208DF865008E
:104420000BE020208DF8650007E040208DF8650046
:1044300003E080208DF86500FFE72EE11B980068FF
:1044400045F20001C4F2000188422ED1FFE744F298
:104450005440C5F60200006800F007000146052838
:104460000A911DD80A99DFE801F003070B0F131713
:1044700000208DF8650017E004208DF8650013E03A
:1044800008208DF865000FE010208DF865000BE026
:1044900020208DF8650007E040208DF8650003E0DE
:1044A00080208DF86500FFE7F6E01B98006841F278
:1044B0000041C4F20101884240F04180FFE744F22C
:1044C0005440C5F60200006800F038000146282874
:1044D00009912FD80999DFE801F0152D2D2D2D2DEB
:1044E0002D2D192D2D2D2D2D2D2D1D2D2D2D2D2D20
:1044F0002D2D212D2D2D2D2D2D2D252D2D2D2D2D00
:104500002D2D290001208DF8650017E004208DF87D
:10451000650013E008208DF865000FE010208DF88D
:1045200065000BE020208DF8650007E040208DF845
:10453000650003E080208DF86500FFE7ABE01B9885
:10454000006847F60001C4F2000188422ED1FFE75F
:1045500044F25440C5F60200006800F0070001462E
:10456000052808911DD80899DFE801F003070B0F13
:10457000131700208DF8650017E004208DF8650002
:1045800013E008208DF865000FE010208DF865001D
:104590000BE020208DF8650007E040208DF86500D5
:1045A00003E080208DF86500FFE773E01B9800684A
:1045B00047F60041C4F2000188422ED1FFE744F2E1
:1045C0005440C5F60200006800F0070001460528C7
:1045D00007911DD80799DFE801F003070B0F1317A8
:1045E00000208DF8650017E004208DF8650013E0C9
:1045F00008208DF865000FE010208DF865000BE0B5
:1046000020208DF8650007E040208DF8650003E06C
:1046100080208DF86500FFE73BE01B98006840F6BE
:104620000041C5F6000188422ED1FFE744F2584010
:10463000C5F60200006800F0070001460528069153
:104640001DD80699DFE801F003070B0F13170220AE
:104650008DF8650017E004208DF8650013E0082050
:104660008DF865000FE010208DF865000BE020202C
:104670008DF8650007E040208DF8650003E080209C
:104680008DF86500FFE703E080208DF86500FFE707
:10469000FFE7FFE7FFE7FFE7FFE7FFE7FFE7FFE7EA
:1046A000FFE71B98006840F60041C5F6000188420C
:1046B00040F0B980FFE79DF86500014602280591AA
:1046C00014D0FFE70598042814D0FFE705980828C0
:1046D00016D0FFE70598102818D0FFE70598202886
:1046E00036D0FFE70598402838D03BE0FCF754FA75
:1046F0000F903DE013A8FCF763FA14980F9037E091
:1047000010A8FCF7B5FB11980F9031E044F200407F
:10471000C5F60200006800F020000021B1EB501F38
:104720000FD0FFE744F20040C5F602000068C0F376
:10473000C10049F20001C0F2D03121FA00F00F901F
:1047400005E049F20000C0F2D0300F90FFE70FE023
:1047500040F60010C0F23D000F9009E04FF4004019
:104760000F9005E000200F9001208DF85F00FFE71B
:104770000F98002856D0FFE70F981B99496A44F616
:10478000F042C0F6000232F81110B0FBF1F01690C2
:1047900016981B99496801EB4101884207D3FFE74E
:1047A00016981B994968B0EB013F04D9FFE7012037
:1047B0008DF85F0035E00F981B994A68496A44F606
:1047C000F043C0F6000333F811100023049119469A
:1047D000DDF810C0039262460293FBF7CDFD09029B
:1047E00041EA10610002039A10EB520041F100010E
:1047F000029BFBF7C1FD18901898B0F5407F0BD3D2
:10480000FFE718980021B1EB105F05D1FFE718987A
:104810001B990968C86003E001208DF85F00FFE77D
:10482000FFE7FFE74DE11B98C069B0F5004F40F08E
:10483000AC80FFE79DF8650001464028019100F239
:1048400064800199DFE801F02125616129616161DE
:104850002F616161616161613561616161616161A6
:104860006161616161616161576161616161616142
:104870006161616161616161616161616161616128
:1048800061616161616161615D00FDF7C1FE0F9071
:1048900041E0FDF7D1FE0F903DE013A8FCF790F941
:1048A00014980F9037E010A8FCF7E2FA11980F90D7
:1048B00031E044F20040C5F60200006800F020003C
:1048C0000021B1EB501F0FD0FFE744F20040C5F6C6
:1048D00002000068C0F3C10049F20001C0F2D0310B
:1048E00021FA00F00F9005E049F20000C0F2D0304C
:1048F0000F90FFE70FE040F60010C0F23D000F9070
:1049000009E04FF400400F9005E000200F900120D7
:104910008DF85F00FFE70F98002835D0FFE70F986C
:104920001B994A68496A44F6F043C0F6000333F81D
:104930001110B0FBF1F0400000EB5200B0FBF2F0C0
:1049400080B218901898102819D3FFE7BDF86200BC
:10495000002814D1FFE7189820F00F00ADF866008A
:10496000189800F00E00BDF8661041EA5000ADF84E
:104970006600BDF866001B990968C86003E0012065
:104980008DF85F00FFE7FFE79AE09DF865000146BC
:104990004028009100F264800099DFE801F02125B1
:1049A0006161296161612F6161616161616135618D
:1049B00061616161616161616161616161615761F1
:1049C00061616161616161616161616161616161D7
:1049D00061616161616161616161616161615D002C
:1049E000FDF716FE0F9041E0FDF726FE0F903DE02B
:1049F00013A8FCF7E5F814980F9037E010A8FCF71F
:104A000037FA11980F9031E044F20040C5F60200E9
:104A1000006800F020000021B1EB501F0FD0FFE72D
:104A200044F20040C5F602000068C0F3C10049F23C
:104A30000001C0F2D03121FA00F00F9005E049F2F8
:104A40000000C0F2D0300F90FFE70FE040F60010FA
:104A5000C0F23D000F9009E04FF400400F9005E0D8
:104A600000200F9001208DF85F00FFE70F980028CD
:104A700025D0FFE70F981B994A68496A44F6F0432E
:104A8000C0F6000333F81110B0FBF1F000EB520058
:104A9000B0FBF2F080B21890189810280AD3FFE704
:104AA000BDF86200002805D1FFE718981B99096836
:104AB000C86003E001208DF85F00FFE7FFE7FFE734
:104AC000FFE71B980121A0F86A101B98A0F8681056
:104AD0001B98002101671B9841679DF85F001CB07F
:104AE00080BD00000000000080B586B0DDF820C069
:104AF0009646049003918DF80B200193FFE70498EC
:104B00000068C06903990840401AB0FA80F0400973
:104B10009DF80B10884267D1FFE708980130002804
:104B200061D0FFE7FBF708FF0199401A0899884216
:104B300004D8FFE7089800281DD1FFE70498006813
:104B4000016821F4D071016004980068816821F047
:104B50000101816004982021C0F884100498C0F8F5
:104B60008810FFE70498002180F88010FFE70320F9
:104B70008DF817003CE004980068006840070028A2
:104B800030D5FFE704980068C06900F40060012197
:104B9000B1EBD02F25D1FFE7049800684FF40061F6
:104BA000016204980068016821F4D07101600498E2
:104BB0000068816821F00101816004982021C0F81B
:104BC00084100498C0F888100498C0F88C10FFE78F
:104BD0000498002180F88010FFE703208DF817006B
:104BE00006E0FFE7FFE78AE700208DF81700FFE700
:104BF0009DF8170006B080BDFFE7FEE7000000004B
:104C00004EF60C50CEF200000068C0F30220704750
:104C100082B00246ADF806000091BDF906000028FA
:104C20000AD4FFE700980001BDF906104EF20042D9
:104C3000CEF2000288540BE000980001BDF8061087
:104C400001F00F014EF61452CEF200028854FFE735
:104C500002B070470000000083B00290029800F09C
:104C6000070000904EF60C50CEF200000168019152
:104C700001994FF6FF02114001910199009A41EA12
:104C800002210022C0F2FA52114301910199016000
:104C900003B070470000000080B582B00020019092
:104CA000FBF762FE0090FFF70FF8FEF75DFDFEF7E1
:104CB0007FFDFFE7FEE7F1EE100A4FF6FF71C0F24D
:104CC000C03120EA010040F04070E1EE100A704768
:104CD00000000000010203040102030406070809A2
:104CE0000804020408010101010101030701000099
:104CF000010002000400060008000A000C00100079
:104D00002000400080000001284D00080000002421
:104D100010000000D4020008384D000810000024E4
:104D2000F8060000F00200080090D0030090D003C5
:084D300001000000100000006A
:040000050800029954
:00000001FF
