:020000040800F2
:10000000F8120024F503000879DA000859C1000845
:1000100071DA0008412000085900010800000000C2
:10002000000000000000000000000000E9E10008FE
:10003000C92B000800000000F9DA0008E1E300081D
:100040000F0400080F0400080F0400080F04000844
:100050000F0400080F0400080F0400080F04000834
:100060000F040008F12C0008012D000801210008F0
:1000700011210008212100080F0400080F040008C6
:100080000F0400080F0400080F0400080F04000804
:100090000F0400080F0400080F040008112D0008C9
:1000A0000F0400080F0400080F0400080F040008E4
:1000B00049E6000859E6000869E600080F04000850
:1000C0000F0400080F0400080F0400080F040008C4
:1000D0000F0400080F0400080F040008490001087D
:1000E000E12C00080F040008000000000F040008C5
:1000F0000F0400080F0400080F0400080F04000894
:100100000F0400080F0400080F0400080F04000883
:100110000F0400080F0400080F0400080F04000873
:100120000F0400080F0400080F0400080F04000863
:100130000F0400080F0400080F0400080F04000853
:1001400000000000000000000000000000000000AF
:100150000F0400080F0400080F0400080F04000833
:100160000F0400080F0400080F0400080F04000823
:100170000F0400080F0400080F040008000000002E
:100180000F0400080F0400080F04000811F0000815
:100190000F0400080F0400080F0400080F040008F3
:1001A0000F0400080F0400080F0400080F040008E3
:1001B0000F0400080F0400080F0400080F040008D3
:1001C0000F0400080F0400080F0400080F040008C3
:1001D0000F0400080F0400080F0400080F040008B3
:1001E0000F0400080F0400080F0400080F040008A3
:1001F0000F0400080F0400080F0400080F04000893
:100200000F0400080F0400080F0400080F04000882
:100210000F0400080F0400080F0400080F04000872
:100220000F0400080F0400080F040008000000007D
:100230000F0400080F040008000000000F0400086D
:100240000F0400080F0400080F0400080F04000842
:100250000F0400080F0400080F0400080F04000832
:100260000F0400080F0400080F0400080F04000822
:100270000F0400080F0400080F040008000000002D
:100280000F0400080F0400080F040008000000001D
:10029000000000000F04000800F002F800F09AF8D7
:1002A0000AA090E8000C82448344AAF10107DA45D1
:1002B00001D100F08FF8AFF2090EBAE80F0013F089
:1002C000010F18BFFB1A43F0010318477C570100C8
:1002D0009C570100103A24BF78C878C1FAD8520759
:1002E00024BF30C830C144BF04680C6070470000B0
:1002F0000023002400250026103A28BF78C1FBD82F
:10030000520728BF30C148BF0B6070476E2900F00C
:100310004B82702900F08183662915F0EA826529F5
:1003200015F0E782672915F0E482612915F0E38270
:1003300003681B0A28BF41F08001692900F0F88199
:10034000642900F0F581752900F0F2816F2900F031
:100350000F83782900F04D83E92900F0A982E42970
:1003600000F0A682F52900F0A382EF2900F00C83AB
:10037000F82900F04C830368DB0928BF41F08001B5
:10038000632901F09780732901F09C80E32901F033
:10039000A780F32901F0AC80002070471FB515F04D
:1003A0009BFA9DE8030001F09DFB01F097F9040022
:1003B0000020002115F07AFA401C60600020002126
:1003C00015F05EFAE06001F09BF81FBD10B501F07A
:1003D00000F910BD01F054F91146FFF7DFFF14F0EA
:1003E0006FFC01F01BFB03B4FFF7F0FF03BC01F04F
:1003F00029FD00000948804709480047FEE7FEE75D
:10040000FEE7FEE7FEE7FEE7FEE7FEE7FEE7FEE7C4
:1004100004480549054A064B70470000E1E400081E
:1004200099020008F80C0024F8120024F80E0024A9
:10043000F80E002453EA020C00F069802DE9F04B1D
:100440004FF00006002B1FBFB3FA83F503FA05F443
:1004500024FA05F65E4012BF1643B2FA82F502FA9C
:1004600005F4C5F120051EBF22FA05FC44EA0C0480
:10047000203556EA044C4FEA144418BF641C4FF070
:1004800000084FF00009904271EB030C39D30029AA
:1004900019BFB1FA81F701FA07F6B0FA80F700FA4E
:1004A00007F6C7F120071EBF20FA07FC46EA0C0634
:1004B0002037B6FBF4FCA7EB0507103F07F01F0B36
:1004C000CBF120062CFA06F60CFA0BFB44BFB34620
:1004D0000026202FA4BF5E464FF0000B5BEA060CFF
:1004E00008BF4FF0010B19EB0B0948EB0608ABFBFB
:1004F000027C06FB02CC0BFB03CCC01B71EB0C0196
:10050000C1E70B46024641464846BDE8F08B13B5AD
:10051000084318BF4FF0FF300146AFF30080BDE83D
:100520001C4070470FB4044910B503AA029800F0AC
:100530004FF910BC5DF814FB7C030024002800DA9E
:100540004042704740EA0103024630B59B0710D194
:100550004FF0013400E008C208C91D1B9D4315EA95
:10056000C41FF8D013F0FF0102F8011B0DD01B0AC5
:10057000F8E711F8013B002B02F8013B05D011F818
:10058000013B002B02F8013BF3D130BD032A40F2BE
:10059000308010F0030C00F0158011F8013BBCF125
:1005A000020F624498BF11F801CB00F8013B38BF3D
:1005B00011F8013BA2F1040298BF00F801CB38BF4B
:1005C00000F8013B11F0030300F0F682083AC0F096
:1005D000088051F8043B083A51F804CBA0E8081011
:1005E000F5E7121D5CBF51F8043B40F8043BAFF344
:1005F0000080D20724BF11F8013B11F801CB48BF9E
:1006000011F8012B24BF00F8013B00F801CB48BFD3
:1006100000F8012B70474FF0000200B513469446D6
:100620009646203922BFA0E80C50A0E80C50B1F14A
:100630002001BFF4F7AF090728BFA0E80C5048BF5E
:100640000CC05DF804EB890028BF40F8042B08BFFC
:10065000704748BF20F8022B11F0804F18BF00F8F8
:10066000012B704770477047704770B50446856925
:100670000068C10601D5302600E02026C00707D05B
:1006800070BDD4E9012130469047206A401C2062A9
:100690006D1EF6D570BD70B5044685690078C0073B
:1006A00007D170BDD4E9012120209047206A401C69
:1006B00020626D1EF6D570BD09684A0501D540B2AD
:1006C0007047C905FCD500B2704709684A0501D5D5
:1006D000C0B27047C905FCD580B2704770B50C46F2
:1006E0000546012A05D02878800600D5EA6900234E
:1006F00002E0012305E05B1C934202D2E05C00288B
:10070000F9D1A869E618C01AA861286A18442862B5
:100710002846FFF7AAFF04E0D5E9012114F8010BF0
:100720009047B442F8D32846FFF7B5FF70BD0000EC
:100730002DE9F0410646002410687529314616A5BA
:1007400010D0FFF7B9FF002802DA404213A507E0F6
:1007500031688A0701D512A502E0490704D511A521
:10076000012401E0FFF7B1FF00210A2206F124076E
:1007700009E0B0FBF2FCB0FBF2F302FB1C003030EE
:1007800078541846491C0028F3D123462A4630469F
:10079000BDE8F04100F087BA000000002D00000025
:1007A0002B0000002000000011680268006A530559
:1007B00001D508700AE0D30501D5088006E01306CC
:1007C00003D5C217C1E9000200E0086001207047AC
:1007D000074B70B50D467B4400F04FFE044628469B
:1007E00000F08AFE10B14FF0FF3070BD204670BDA2
:1007F000B74101002DE9FF5F15468A460446DFF840
:10080000AC80F8440027D8E900103E46CDE900103E
:1008100010E03AF816106A4602A800F00DFF411CDD
:1008200007D02178890603D5E269391891420DD89D
:100830000744761C2078800602D5E069B84205DDC1
:10084000AE42E6DB3AF816000028E2D1A069C01BF0
:10085000A0612046FFF709FFD8E90010CDE900109C
:10086000002017E03AF818106A4602A800F0E4FEEB
:10087000B0F1FF3F81460BD000250DF1080B05E0DC
:10088000D4E901211BF8050090476D1C4D45F7D3B5
:1008900008F10100B0428046E4DB206A384420625F
:1008A0002046FFF7F8FEBDE8FF9F0000F65001006C
:1008B0002DE9F0418046D21D22F007020025D2E941
:1008C0000002F52915A614D0011E72F1000106DA06
:1008D0000023D0EB030063EB020211A608E0D8F876
:1008E00000108B0701D50FA602E0490701D50EA61F
:1008F00001251146002408F1240704E000F08EF9D8
:1009000030323A55641C50EA0102F7D12B46324688
:1009100021464046BDE8F04100F0C5B900000000A6
:100920002D0000002B0000002000000030B400214A
:1009300000F1240408E002F00705D208303542EA4D
:100940004372DB086554491C52EA0305F3D104687D
:10095000002310A2250708D504F020040C4304D07E
:10096000C46901230CA2641EC46130BC00F09BB9B1
:1009700010B5044621461068FFF7A7FE0246204640
:10098000BDE810400023D1E7D21D22F00701D1E9D4
:100990000023CBE70000000030000000F0B40D465B
:1009A0000188090502D5214C7C4402E01F4C7C449F
:1009B0000E34002100F1240608E002F00F071209AE
:1009C000E75D42EA03721B097754491C52EA0307A8
:1009D000F3D102780023120704D5702D06D009B197
:1009E000022311342246F0BC00F05DB9012310341B
:1009F000F8E770B504460D4621461068FFF765FE1E
:100A0000024629462046BDE870400023C6E7D21DB5
:100A100022F00703D3E90023C0E70368126843F01C
:100A2000200303600823C3610023B7E7584F010088
:100A30002DE9F05F894604464FF0000ADFF874B1F3
:100A4000FB44C0F820A02046E1688847002874D005
:100A5000252806D0D4E901219047206A401C206255
:100A6000F1E700265F462046E168884720280546D2
:100A700007DB312D05D2781910F8200C08B1064398
:100A8000F1E7B00701D526F00406C4F81CA0002742
:100A9000C4F818A02A2D09D0284614F0E9FE38B36E
:100AA00004EB8708303DC8F8185019E059F8041BCA
:100AB000204604EB87029161E1688847012F0546D3
:100AC00018D1E069002820DA26F020061DE0D8F8C9
:100AD000180000EB800005EB40003038C8F8180023
:100AE0002046E1688847054614F0C2FE0028EED192
:100AF000012F0AD02E2D08D12046E16888477F1C9F
:100B00000546022F46F02006C4DBA069002803DA60
:100B1000404246F00106A061F00701D026F0100621
:100B20006C2D0BD0682D09D04C2D39D06A2D35D0C5
:100B3000742D35D07A2D33D016E038E0E1682F4699
:100B400020468847B842054609D16C2F26D04FF47D
:100B50008060E168064320468847054604E06C2F24
:100B60001AD04FF4807006430DB3A5F14100192847
:100B700002D8203546F400664A46294620462660BB
:100B80004E46FFF7C3FB80B101280BD0F61D26F0BF
:100B9000070000F1080956E74020E4E78020D8E785
:100BA0000020D6E706F104094DE7284652E7206AFF
:100BB000BDE8F09FE84E010010B5203AC0F00B8070
:100BC000B1E81850A0E81850B1E81850A0E8185043
:100BD000203ABFF4F5AF5FEA027C24BFB1E81850B9
:100BE000A0E8185044BF18C918C0BDE810405FEA1B
:100BF000827C24BF51F8043B40F8043B08BF704797
:100C0000D20728BF31F8023B48BF11F8012B28BF9B
:100C100020F8023B48BF00F8012B704730B5B0F117
:100C20000A0271F100034FEA900E4EEA817EB0EBAA
:100C30000E0061EB91014FEA101E4EEA017E10EBAF
:100C40000E0041EB11114FEA102E4EEA016E10EB2F
:100C50000E0041EB11214FEA104E4EEA014E10EB0F
:100C60000E0041EB1141401841F100014FEAD00064
:100C700040EA41704FEAD1014FEA810444EA90749E
:100C800010EB800544EB01046D1944EB0404521B86
:100C9000A3414FF0000348BF0A3200D530BD401CCD
:100CA00041F1000130BD2DE9F0470D4699469246CD
:100CB000044600F124080168880604D5E06921F0A3
:100CC0001001216000E00120A84201DD471B00E087
:100CD0000027A1697A1902EB0900081AA06120789F
:100CE000C00602D42046FFF7C0FC002608E0D4E985
:100CF00001211AF806009047206A401C761C2062E9
:100D00004E45F4DB2078C0060AD52046FFF7ADFC3F
:100D100006E0D4E9012130209047206A401C20627F
:100D2000381EA7F10107F4DC07E0D4E9012118F827
:100D300005009047206A401C2062281EA5F101058D
:100D4000F3DC2046FFF7A7FC2078000602D502203E
:100D5000BDE8F0870120FBE72DE9FF4F0C461E465A
:100D60004FF0FF378BB0D2E90001DDF860800A90C8
:100D70008A46C1F30A5505B93D46002108464FF0A1
:100D80000000BAF1000F00F4400005DA00EB80002B
:100D90004FF4400101EA50004FEA9059B9F1010FB8
:100DA00000DDB9460A9850EA4A000ED044F61050C9
:100DB000A5F2FF3545432F14B8F1000F1ED0754240
:100DC000291E1EDDC9F100021CE0B8F1010F4FF031
:100DD000000001D0302103E0F24305E02154401C23
:100DE000B042FBDB30460022002121540B99C1F8B0
:100DF0000880C1E900200FB0BDE8F08FBD1B6D1C5D
:100E0000DEE74A4600DA694206A800F0D3FC06ABEA
:100E100093E8070003AB83E8070050460A9914F0F3
:100E200047F98DE80700A0F500501F38009003989F
:100E3000002D0ADD42F21F014A460844002303A99F
:100E40000390684614F0B0FB09E0A0F500504A4654
:100E50001F38002303A90390684614F0BAFB8DE8FD
:100E600007000004000C03D04FF0FF30410800E001
:100E70001046B8F1000F03D00022009215461EE084
:100E8000751E05D4FFF7CAFE303262556D1EF9D5C6
:100E9000B3460122084302D000227F1C04E02078E0
:100EA000302801D100227F1E002A099784D01DE03E
:100EB000112D07DAFFF7B2FE303262556D1C50EA91
:100EC0000102F5D1084302D00098C8B10EE000211C
:100ED000681E05E0235C625C63542254401E491C7A
:100EE0008142F7DBAB46A81B401E0990002004F8A6
:100EF0000B000B98099AC0F80880C0E9002B7AE72C
:100F000011264FF0000857E72DE9F04F88460446B8
:100F1000D21D22F0070191B0D1E90001CDE90A010B
:100F200014F08EFC02460B98C00F01D02D2007E074
:100F30002068810701D52B2002E0202101EAC000B2
:100F4000032A099001D0072A05DB034641462046C3
:100F500000F0F0FB0BE12078800601D5E06900E0AD
:100F60000620B8F1650F814606D0B8F1660F18D09B
:100F7000B8F1670F70D131E00020B9F1110F009086
:100F800001DB112301E009F101030AAA01A90CA860
:100F9000FFF7E2FEDDE90C70002609F1010583464A
:100FA00047E001204B4600904FF000470AAA01A9F4
:100FB0000CA8FFF7D1FEDDE90DB00C995D460026C7
:100FC00010B909F101000D18B9EB050003D4C0F107
:100FD000FF3609F10105A5EB09002BE0B9F1010F7E
:100FE00001DA4FF001090020B9F1110F00904846D5
:100FF00001DD112300E003460AAA01A90CA8FFF7AE
:10100000ABFEDDE90C704D460026834620780007D4
:101010000AD4AB4500DA5D4601A8012D04DD411973
:1010200011F8011C302907D04F4502DA17F1040FDF
:1010300004DA012082460FE06D1EEEE7002F02DC8D
:10104000ED1B3E4403E0781CA84200DD7D1CB81B6C
:1010500000F1010A4FF000472078000703D4AA45A9
:1010600001DB4FF0FF3A0021B7F1004F0DF14308CB
:101070008DF8431024D002202B23002F01DA7F4269
:101080002D230A21021EA0F1010000DC5FB197FBB5
:10109000F1FC97FBF1F201FB1C7C17460CF1300CC4
:1010A00008F801CDEEE7A8F10100037021880905D9
:1010B00001D5452100E06521A0F1010800F8011CDF
:1010C00009980FA9A1EB0807FF1D00B101204119E4
:1010D00001EBEA70A1693844081A401EA06120782B
:1010E000C00602D42046FFF7C0FA099828B1D4E917
:1010F00001219047206A401C20622078C00622D53A
:101100002046FFF7B2FA1EE0002E04DBB34502DDF5
:1011100001A8805D00E03020D4E901219047206AD9
:10112000401C2062761CAAF101005FEA000A0AD185
:1011300000F0D4FAC0680168405CD4E9012190470E
:10114000206A401C2062281EA5F10105DCDC07E0B6
:10115000D4E9012118F8010B9047206A401C206255
:10116000381EA7F10107F3DC2046FFF794FA0320AD
:1011700011B041E62DE9F04F04460D46D21D22F094
:10118000070089B0D0E900974846394614F058FB6B
:101190000246F80F01D02D2307E02068810701D512
:1011A0002B2302E0202101EAC0038DF820300BB18F
:1011B000012000E00020032A824601D0072A04DB38
:1011C0002946204600F0B6FA3FE12078800601D497
:1011D0000D2500E0E569C7F30A560D2D49DA002117
:1011E0004FEA175B08464FF00000002F00F4400064
:1011F00007DA00EB80004FF4400100EBD07001EA09
:1012000060008115012901DD4FF0FF3100224FEA16
:10121000850CBCF1180F06D31346ACF118004FF043
:101220008052C24003E04FF4801323FA0CF30CF118
:101230000C0CBCF1200F04D3ACF1200C09FA0CF01B
:1012400001E007FA0CF000294FF0004801DD18B961
:101250000FE00ED140450CD319EB02095F4121B9D3
:10126000404502D19F4329EA0209BBEB175F00D03A
:10127000761C2088000502D57B48784402E07A4835
:101280007844193808AA302302F80A30037C0AF19E
:101290000101002E0AF1020A53546A4602DC4FF0A3
:1012A000300101E04FF031014FF001088DF80010DE
:1012B00002D0A6F2FF3603E059EA470100D06B4E98
:1012C000002D02DC2178090704D54FF002082E21F9
:1012D0008DF80110C44600210BE0C7F303433F0122
:1012E000C35C491C6D1E02F80830052908F101088D
:1012F00001DA002DF1DC00210CE000EB1973491C30
:101300001B786D1E082902F808304FEA091908F108
:10131000010801DA002DF0DC21688B0602D516E009
:10132000A8F10108E04505DD02EB080313F8013CD4
:10133000302BF5D0B8F1000F09DD02EB080313F8EC
:10134000013C2E2B03D1090701D4A8F10108002D7F
:1013500005DD3E2102F808106D1E08F10108407CF1
:10136000002E02F8080008F1010804DA2D20764268
:1013700002F8080002E02B2002F808000A214FF4CE
:101380007A70864208F101080BDB96FBF0F33033EC
:1013900002F8083096FBF0F308F1010800FB136631
:1013A00001E0642E0CDB642096FBF0F3303302F88E
:1013B000083096FBF0F308F1010800FB136601E02A
:1013C0000A2E06DB96FBF1F0303002F8080008F137
:1013D000010896FBF1F001FB1060303002F80800C4
:1013E000A16908F1010808EB050202EB0A00081ADE
:1013F000A0612078C00602D42046FFF736F9216AA2
:1014000008AE01EB0A00206204E0D4E9012116F8DD
:10141000010B9047BAF1010AF7D22078C00602D535
:101420002046FFF722F96E4609E016F8010B3E2828
:101430000FD0D4E901219047206A401C2062B8F106
:101440000108F2D22046FFF726F909B00320BDE8D3
:10145000F08F206A2844206203E0D4E90121302083
:1014600090476D1EEBD3F8E7D246010002FCFFFF68
:1014700001694A1C02610878704700B58FB0CDE958
:1014800001310021059105497944CDE90310114648
:101490006846FFF7CDFA0FB000BD0000E5FFFFFF83
:1014A00010B5436913B1AFF3008001E0FFF716F9FF
:1014B000012010BD127800F124010A7000224A7048
:1014C0000122EDE711684FF0FF32E9E710B54369FB
:1014D00013B1AFF3008001E0FFF78CF9012010BDDC
:1014E000128800F1240182840022C2840122EDE7E7
:1014F00011684FF0FF32E9E7007B00F08000704791
:1015000010B542485421FFF786F841485421FFF7AF
:1015100082F840485421FFF77EF83F493B483C4A57
:101520003F4B08603D490A603A491960531C036506
:10153000481C1065012008653B48344A39A17844AD
:1015400000F0CEF920B9384878440A3800F06FFA34
:1015500037482F4A35A1784400F0C2F920B9344801
:1015600078440A3800F063FA32482A4A2FA17844B6
:1015700000F0B6F920B92F4878440A3800F057FA3D
:1015800040232248DC000021224600F085F920B1EA
:1015900025487844543800F04AFA1D482246402332
:1015A000002100F079F920B121487844543800F046
:1015B0003EFA184822461023002100F06DF9002859
:1015C00006D01C487844BDE81040563800F02FBAC9
:1015D00010BD104870B5006D20F001040B4800F0FC
:1015E000F7F90B4800F0F4F90A4800F0F1F909E0C6
:1015F000206D20F00105204600F0EAF9204600F0B9
:1016000071F82C46002CF3D170BD00002803002493
:101610007C030024D00300240000002404000024E4
:10162000080000247200000021440100770000003F
:101630000D440100F94301002DE9F04116460C4626
:10164000054600F043F8036893F80101012807D02C
:10165000FF2C12D8185D80B101202C70BDE8F081FC
:10166000D3F807013246214603F20713C71828466C
:10167000BC46BDE8F041002360474FF0FF30EDE786
:10168000754600F00FFAAE4605006946534620F055
:101690000700854618B020B5FEF7BAFEBDE8204029
:1016A0004FF000064FF000074FF000084FF0000B1E
:1016B000AC46ACE8C009ACE8C009ACE8C009ACE88D
:1016C000C00921F007018D467047000010B500F0F9
:1016D00005F8001D10BD00BFD5410100004870474E
:1016E0004404002470B50446051F00F0DFF90068CB
:1016F000002C14BF446870BD002C18BFAC423CBF26
:1017000020466468F8D301680A18AA4218BF4560E9
:1017100003D12A6805461144016028684119A14295
:101720001CBF6C6070BD61686960216808442860F6
:1017300070BD00002DE9F0411F46044603260168F4
:10174000072A01F4006004DB08B116A505E016A520
:1017500003E008B115A500E015A521F010002060F8
:10176000A069C01EA0610FB1401EA0612046FEF717
:101770007CFF4FB1D4E9012138469047206A401CD4
:101780002062C01C206206E0206AFAE7D4E9012149
:1017900015F8010B9047761EF8D22046FEF77BFF26
:1017A000BDE8F0814E414E006E616E00494E46002C
:1017B000696E66002DE9F047814616468AB03548C5
:1017C00078440DC88DE80D0032487844801C03AC85
:1017D0000DC884E80D0041F69B300844372190FB8A
:1017E000F1F290FBF1F5A5F1800501FB12041B3C21
:1017F00002D56442012000E00020DFF898A0804676
:101800000027FA44AAF1BE0A0EE0E0070AD03246E9
:10181000684607EB470101230AEB810113F0D9FE6B
:101820008DE8070064107F1C002CEED1194F7F4417
:10183000AE3F19E0E80715D007EB04100DF1180AC8
:1018400090E80E008AE80E00C068F04201D19819B5
:1018500008903246012306A903A813F0BAFE03AB91
:1018600083E807006D10641C002DE3D14FF00103E5
:1018700032466946B8F1000F03A802D013F094FE77
:1018800001E013F0A6FEC9E90001C9F808200AB07A
:10189000BDE8F0872842010070B5C468A50713D0E1
:1018A000650211D4B2F5807F09D0B2F5007F06D071
:1018B000B2F5806F08D1012300F1240106E05D1E1E
:1018C0006FF07F46B54201D3012070BD0161C36155
:1018D000416024F470611143C160002070BD0000BC
:1018E0002DE9F0410C461646070047D0104600F09F
:1018F0006FF82078611C61280AD0722802D07728FE
:101900003CD102E00125002405E00225042402E088
:10191000082448F2020511F8010B2B2806D0622892
:1019200009D011F8010C74280AD00BE045F003052A
:1019300044F00204EFE745F0040544F00104EAE74F
:1019400044F010043846214600F078F8411C15D0C8
:101950000021316171604FF40071F560F1617061D7
:10196000200704D530460222002100F019F9306D1D
:1019700040F0010030653046BDE8F0810020FBE713
:101980002DE9F0410D460646104C206DC10704D0EC
:10199000410804D020F00104F7E722460EE054206D
:1019A00000F0CFF807000ED0206D47F0010108438A
:1019B000542120653846FEF72EFE3A462946304629
:1019C000BDE8F0418CE70020D6E7000028030024A2
:1019D0002DE9F04704464FF000094FF0FF37C56886
:1019E000D4E90486A80707D0204600F089F93046DC
:1019F00000F02EF8002802DA3846BDE8F087280506
:101A000002D54046FFF76EFE4C212046FEF703FE4E
:101A1000206D20F0010020654846EEE710B5044631
:101A2000AFF300802046BDE81040FEF7DCBC10B5E7
:101A300000F0B0F9BDE8104000F0A6B90EB5CDE950
:101A4000000100F068FA029069460120ABBE0EBDAD
:101A500008B5694600900220ABBE08BD1FB58DE8F1
:101A6000070069460520ABBE04B010BD1FB58DE868
:101A70000F0069460620ABBEF6E708B56946009040
:101A80000920ABBE08BD1CB5CDE9000169460A209E
:101A9000ABBE1CBD704708B5694600900C20ABBEBC
:101AA00008BD000000487047240400240048704727
:101AB0002C040024704770477047704738B50446BF
:101AC0000A4600206946AFF30080002808BF38BDF1
:101AD00002460099204600F0C3F9012038BD0120DC
:101AE00000F012BAF8B5AFF30080054600200C46AE
:101AF000102000BF0646A819A0420DD932466946FB
:101B00000020AFF30080070008BF00F0FDF9009847
:101B1000A04218BF0546C419FFF7C8FF0560074675
:101B2000F01D20F007004619284600F092F9B44253
:101B300008BFF8BDA21B31463868BDE8F84000F088
:101B40008FB970B50646FFF7B1FF056806F10B00C7
:101B500020F00704B4429CBF002070BD2B466A6889
:101B6000BAB11068A04210D304F1080188423CBF0A
:101B70005068586007D35168101941601168091BFB
:101B8000016058601460101D70BD13465268002A31
:101B9000E7D121462846FFF791FF0028DED170BD2E
:101BA0002DE9F041044616460D464769007B800743
:101BB0002ED03846FFF761FF50BB3EB3012E02D056
:101BC000022E25D104E0204600F064F905441DE012
:101BD0003846FFF760FFE168002841F01001E1603E
:101BE00005DA204600F058F80120BDE8F081C9036D
:101BF0000BD56268E16A914200D81146A26911448E
:101C00002269891A814200DD08460544002D01DA67
:101C10000220EAE7E16A6068E268814206D2910345
:101C2000E06203D522F4003141F01002A6690027DA
:101C3000AE4213DCE16A814201D90B4600E0034663
:101C400003EB060C2369ACEB030CAC4506DD8142CB
:101C500001D98C4600E084469C4505D1A7602760E9
:101C600042F02000A5620DE0AD1BE669AE1B81428B
:101C7000A66000D90846C01A281A2060581960606A
:101C800022F0200003490840E060002084F84870FA
:101C9000ABE70000BFCFD7FFC16821F4001141F0CE
:101CA0008001C16000218160016070472DE9F0472B
:101CB000814614460E464FF0FF383248D5685769C2
:101CC000054209D03846A169FFF7DDFE002811DB87
:101CD0002C48C0430540E5602B463246494638460D
:101CE000FFF7BCFEA16920F00042B21A114400289F
:101CF000A16103D02046FFF7CFFF4046BDE8F08743
:101D000070B504460569C06A6168884200D8084613
:101D1000E16821F42011E160C90312D5A84208D07E
:101D20002246411B2846FFF7C1FF10B14FF0FF309C
:101D300070BD0020E562C4E90150E06820F4803005
:101D4000E060002070BD10B50446C06820F020009F
:101D5000E060A16AA06988420DD02046FFF7D0FF5D
:101D6000E06820F4405040F01000E060A06AA061FC
:101D70002069E062606044F24001E0688843E0600E
:101D800010BD000010000200002801D000F05AB879
:101D90007047000010B5014602A000F09CF8012039
:101DA00010BD000053494752545245443A205265F1
:101DB0006469726563743A2063616E2774206F7082
:101DC000656E3A200000000030B44FF0013C50F83E
:101DD000042BCCFA52F451F8043BD51A20D1FCB9AB
:101DE00050F8042BCCFA52F451F8043BD51A17D111
:101DF000B4B950F8042BCCFA52F451F8043BD51A7C
:101E00000ED16CB950F8042BCCFA52F451F8043BC3
:101E1000D51A05D1002CDAD030BC4FF00000704745
:101E200029BAB1FA81F111F01801D1F120008440F2
:101E3000F2D1CA40CB4012F0FF0213F0FF0330BCD6
:101E4000D01A704701491820ABBEFEE726000200F9
:101E5000704700210160C0E90110704710207047F1
:101E6000034640688C46002818BF88423CBF0346A2
:101E70004068F8D318681844884207D00CF1030072
:101E800020F00700001D411A521A0146081D0A6081
:101E9000FFF728BC10B50146C268900703D0900632
:101EA00007D5886A0AE000F05DF801210160881E0C
:101EB00010BD8B69486818440B69C01A91F8483006
:101EC0001BB191F84910401A10BD1103FCD5002830
:101ED000FADD401E10BD70B505460C460A2000E034
:101EE0006D1C00F037F835B128780028F8D102E0F1
:101EF000641C00F02FF814B120780028F8D1BDE858
:101F000070400A2000F026B810B500F02FF8BDE8A8
:101F10001040FFF739BF10B5431C02E010F8011B59
:101F200071B18107FAD14FF0013202C88C1A8C438B
:101F300014EAC211F9D0C01A0A0603D0C01E10BD9F
:101F4000C01A10BD0A0401D0801E10BD0902FCD0C9
:101F5000401E10BD08B569468DF800000320ABBED9
:101F600008BD0000004870472404002410B5012873
:101F700005D0002103A0FFF7AEFF012010BD09A18D
:101F8000F8E7000053494752544D454D3A204F75EC
:101F900074206F662068656170206D656D6F727961
:101FA000000000003A2048656170206D656D6F7219
:101FB0007920636F727275707465640000000000B0
:101FC00080B582B0019040F60000C5F602004FF4E3
:101FD0000051002204F09CFD02B080BD0000000012
:101FE00081B040F28440C2F20040016801310160DA
:101FF000006864280ADBFFE740F28440C2F2004038
:102000000021016001208DF8030003E000208DF81D
:102010000300FFE79DF8030001B0704700000000D7
:1020200080B582B0019040F60000C5F602004FF482
:102030000051012204F06CFD02B080BD00000000E0
:10204000FFE7FEE70000000081B040F28840C2F2E6
:1020500000400168013101600068C8280ADBFFE721
:1020600040F28840C2F200400021016001208DF85A
:10207000030003E000208DF80300FFE79DF8030054
:1020800001B070470000000080B582B0019040F6BA
:102090000000C5F602004FF40051002204F038FDA4
:1020A00002B080BD0000000081B00090009801786F
:1020B000407841EA002000B201B070470000000003
:1020C00081B040F29840C2F20040016801310160E5
:1020D000006864280ADBFFE740F29840C2F2004043
:1020E0000021016001208DF8030003E000208DF83D
:1020F0000300FFE79DF8030001B0704700000000F7
:1021000080B540F21460C2F2004002F011F980BDC7
:1021100080B540F29C50C2F2004002F009F980BD47
:1021200080B540F22450C2F2004002F001F980BDB7
:1021300083B002900298006801211022C4F20202CA
:102140009042009100F0A380FFE70298006801210F
:102150002822C4F202029042009100F09880FFE72A
:102160000298006801214022C4F2020290420091CC
:1021700000F08D80FFE70298006801215822C4F228
:1021800002029042009100F08280FFE7029800680E
:1021900001217022C4F202029042009177D0FFE741
:1021A0000298006801218822C4F202029042009144
:1021B0006DD0FFE7029800680121A022C4F202025C
:1021C0009042009163D0FFE7029800680121B82295
:1021D000C4F202029042009159D0FFE702980068D1
:1021E000012140F21042C4F20202904200914ED00E
:1021F000FFE702980068012140F22842C4F202027F
:102200009042009143D0FFE702980068012140F21C
:102210004042C4F202029042009138D0FFE7029897
:102220000068012140F25842C4F20202904200913B
:102230002DD0FFE702980068012140F27042C4F2FD
:1022400002029042009122D0FFE70298006801212B
:1022500040F28842C4F202029042009117D0FFE798
:1022600002980068012140F2A042C4F202029042AA
:1022700000910CD0FFE7029800684FF64831CBF68A
:10228000FD710844B0FA80F040090090FFE7009823
:10229000C007002828D0FFE70298007810384AF6D7
:1022A000AB21CAF6AA21A0FB0101090901910199FC
:1022B00001F0070145F61422C0F60102515C029AB2
:1022C000D1650199042907D3FFE702980168042228
:1022D00062F30901816506E00298016840F2FF326D
:1022E00091438165FFE705E00298016821F0FF0155
:1022F0008165FFE70298806D03B070470000000021
:1023000084B003900398006801900398006801214D
:1023100045F20842C5F60202904200914ED0FFE716
:1023200003980068012145F21C42C5F60202904262
:10233000009143D0FFE703980068012145F2304245
:10234000C5F602029042009138D0FFE7039800687A
:10235000012145F24442C5F60202904200912DD07F
:10236000FFE703980068012145F25842C5F60202D2
:102370009042009122D0FFE703980068012145F2C6
:102380006C42C5F602029042009117D0FFE7039815
:102390000068012145F28042C5F602029042009198
:1023A0000CD0FFE7039800684AF66C31CAF2FD7161
:1023B0000844B0FA80F040090090FFE70098C00799
:1023C000002823D0FFE70398007808384CF6CD4169
:1023D000CCF6CC41A0FB010109090291029945F616
:1023E0000002C5F6020202EB8101039A116603990D
:1023F00045F68002C5F602024A66029901F01F0105
:10240000012202FA01F1039A916636E003980078FE
:1024100010384AF6AB21CAF6AA21A0FB010109092E
:102420000291019940F2B842C4F2020291420CD8E2
:10243000FFE7019840F21041C4F20201884204D340
:10244000FFE7029808300290FFE7029840F600018B
:10245000C4F2020101EB800003990866039840F67C
:102460008001C4F202014166029800F01F000121C0
:1024700001FA00F003998866FFE704B07047000096
:1024800083B002900298007901900198002800F032
:102490008C80FFE70198082800F28780FFE7029808
:1024A0000068012145F20842C5F6020290420091FF
:1024B0004ED0FFE702980068012145F21C42C5F6A4
:1024C00002029042009143D0FFE702980068012188
:1024D00045F23042C5F602029042009138D0FFE743
:1024E00002980068012145F24442C5F6020290427A
:1024F00000912DD0FFE702980068012145F2584273
:10250000C5F602029042009122D0FFE702980068CF
:10251000012145F26C42C5F602029042009117D0AB
:10252000FFE702980068012145F28042C5F60202E9
:10253000904200910CD0FFE7029800684AF66C3197
:10254000CAF2FD710844B0FA80F040090090FFE73C
:102550000098C007002810D0FFE7019845F6FC015D
:10256000C5F6020101EB80000299C866029845F6A3
:102570004011C5F6020101670FE0019840F6FC0129
:10258000C4F2020101EB80000299C866029840F68D
:102590004011C4F202010167FFE7019801380121EF
:1025A00001FA00F002994867FFE703B070470000A6
:1025B00085B0049000208DF80F00049880690028F1
:1025C00024D1FFE70498806A032802901CD802995E
:1025D000DFE801F0020E0219049890F82F00C007FE
:1025E000002804D0FFE701208DF80F00FFE70CE082
:1025F0000498C06AB0F1C07F04D1FFE701208DF8D4
:102600000F00FFE701E000E0FFE749E00498806980
:10261000B0F5005F27D1FFE70498806A0328019096
:102620001FD80199DFE801F00206021201208DF89F
:102630000F0017E0049890F82F00C007002804D07E
:10264000FFE701208DF80F00FFE70BE00498C06A58
:10265000B0F1C07F04D1FFE701208DF80F00FFE744
:1026600000E0FFE71BE00498806A0328009004D391
:10267000FFE70098032804D00FE001208DF80F0039
:102680000CE0049890F82F00C007002804D0FFE762
:1026900001208DF80F00FFE700E0FFE7FFE7FFE70D
:1026A0009DF80F0005B0704789B008900791069219
:1026B00005930898806D04900898806D03900898A1
:1026C000006801211022C4F202029042029100F03F
:1026D0000381FFE70898006801212822C4F2020262
:1026E0009042029100F0F880FFE70898006801210D
:1026F0004022C4F202029042029100F0ED80FFE716
:102700000898006801215822C4F202029042029106
:1027100000F0E280FFE70898006801217022C4F20F
:1027200002029042029100F0D780FFE7089800680B
:1027300001218822C4F202029042029100F0CC8072
:10274000FFE7089800680121A022C4F2020290422B
:10275000029100F0C180FFE7089800680121B822CB
:10276000C4F202029042029100F0B680FFE708989E
:102770000068012140F21042C4F20202904202912C
:1027800000F0AA80FFE708980068012140F2284283
:10279000C4F202029042029100F09E80FFE7089886
:1027A0000068012140F24042C4F2020290420291CC
:1027B00000F09280FFE708980068012140F258423B
:1027C000C4F202029042029100F08680FFE708986E
:1027D0000068012140F27042C4F20202904202916C
:1027E0007AD0FFE708980068012140F28842C4F2DD
:1027F0000202904202916FD0FFE708980068012121
:1028000040F2A042C4F202029042029164D0FFE77B
:1028100008980068012140F2B842C4F202029042D6
:10282000029159D0FFE708980068012145F208425B
:10283000C5F60202904202914ED0FFE70898006868
:10284000012145F21C42C5F602029042029143D09A
:10285000FFE708980068012145F23042C5F6020200
:102860009042029138D0FFE708980068012145F2B4
:102870004442C5F60202904202912DD0FFE708982B
:102880000068012145F25842C5F6020290420291C9
:1028900022D0FFE708980068012145F26C42C5F696
:1028A00002029042029117D0FFE7089800680121C8
:1028B00045F28042C5F60202904202910CD0FFE739
:1028C000089800684AF66C31CAF2FD710844B0FA03
:1028D00080F040090290FFE70298C00700280FD05F
:1028E000FFE70898416E806E48600898C06E002827
:1028F00005D0FFE70898016F406F4860FFE7FFE7EA
:102900000898006801211022C4F20202904201914D
:1029100000F0A380FFE70898006801212822C4F294
:1029200002029042019100F09880FFE70898006849
:1029300001214022C4F202029042019100F08D80F8
:10294000FFE70898006801215822C4F20202904271
:10295000019100F08280FFE7089800680121702251
:10296000C4F202029042019177D0FFE70898006814
:1029700001218822C4F20202904201916DD0FFE74A
:10298000089800680121A022C4F20202904201913D
:1029900063D0FFE7089800680121B822C4F2020260
:1029A0009042019159D0FFE708980068012140F258
:1029B0001042C4F20202904201914ED0FFE7089803
:1029C0000068012140F22842C4F2020290420191C3
:1029D00043D0FFE708980068012140F24042C4F26A
:1029E00002029042019138D0FFE708980068012167
:1029F00040F25842C4F20202904201912DD0FFE70A
:102A000008980068012140F27042C4F2020290422C
:102A1000019122D0FFE708980068012140F2884226
:102A2000C4F202029042019117D0FFE708980068B3
:102A3000012140F2A042C4F20202904201910CD066
:102A4000FFE7089800684FF64831CBF6FD7108445F
:102A5000B0FA80F040090190FFE70198C007002814
:102A60002BD0FFE70898C06D00F01F003F2101FA4E
:102A700000F00499886008980068016821F48021BA
:102A8000016005980899096848600898806840289E
:102A900009D1FFE70698089909688860079808999E
:102AA0000968C86008E0079808990968886006986E
:102AB00008990968C860FFE784E008980068012168
:102AC00045F20842C5F60202904200914ED0FFE75F
:102AD00008980068012145F21C42C5F602029042A6
:102AE000009143D0FFE708980068012145F2304289
:102AF000C5F602029042009138D0FFE708980068BE
:102B0000012145F24442C5F60202904200912DD0C7
:102B1000FFE708980068012145F25842C5F6020215
:102B20009042009122D0FFE708980068012145F209
:102B30006C42C5F602029042009117D0FFE7089858
:102B40000068012145F28042C5F6020290420091E0
:102B50000CD0FFE7089800684AF66C31CAF2FD71A4
:102B60000844B0FA80F040090090FFE70098C007E1
:102B7000002825D0FFE70898C06D00F01F00012154
:102B800001FA00F0039948600598089909684860BF
:102B900008988068402809D1FFE7069808990968D5
:102BA0008860079808990968C86008E0079808993C
:102BB00009688860069808990968C860FFE700E01E
:102BC000FFE7FFE709B07047704700000000000012
:102BD00080B582B00BF0C4F945F64421C0F601017E
:102BE000019008460199FDF79DFC322100900846AE
:102BF00003F0F2FC02B080BD80B582B00020C5F6C3
:102C000002004FF48051019003F06AFF40F2BE4190
:102C1000C2F2004108700821019803F061FF40F200
:102C2000DF41C2F20041087009F0C6FC0BF0ACFABB
:102C300002B080BD0000000080B582B009F0CCFC7D
:102C400000280CD0FFE709F0B7FC40F2BE40C2F20A
:102C500000400178B1FA81F1490901703CE00BF0C4
:102C6000A3FA00280CD0FFE70BF08EFA40F2DF4009
:102C7000C2F200400178B1FA81F1490901702AE0FD
:102C800040F29C40C2F20040018801310180B0F95D
:102C90000000B0F5FA7F1DD1FFE740F29C40C2F280
:102CA0000040002101800020C5F602004FF4805151
:102CB000019003F015FF40F2BE41C2F200410870DE
:102CC0000821019803F00CFF40F2DF41C2F20041FD
:102CD0000870FFE7FFE7FFE702B080BD00000000DB
:102CE00080B54FF4805003F0F3FC80BD000000007D
:102CF00080B5082003F0ECFC80BD0000000000005F
:102D000080B5102003F0E4FC80BD0000000000004E
:102D100080B5202003F0DCFC402003F0D9FC8020AB
:102D200003F0D6FC4FF4807003F0D2FC80BD0000AD
:102D3000704700000000000080B582B0EFF3108003
:102D400072B60190FFE740F60000C5F602004FF4AE
:102D50000051012203F0DCFEF5E700000000000056
:102D600083B00B4602908DF8071000929DF8070083
:102D70000299087000980299486002980121017236
:102D800003B070470000000080B588B00790079836
:102D900000788DF81B0007984068059005989DF80D
:102DA0001B1000EB01104068049005989DF81B1063
:102DB00000EB0110806803900798007A8DF80B00F3
:102DC00003988047002810D0FFE705989DF81B1056
:102DD00000EB0110007B07990870059807990978A6
:102DE00000EB011040680490FFE7049807990190F8
:102DF00008460199884708B080BD00000000000027
:102E000080B540F2B140C2F200400078012818D1EC
:102E1000FFE740F2B140C2F200400021017040F6ED
:102E20002010C2F2004040F29F41C2F20041022253
:102E300008F09AFF002803D0FFE7FFF77DFFFFE7C8
:102E4000FFE740F2B240C2F200400078012818D1FA
:102E5000FFE740F2B240C2F200400021017040F6AC
:102E60002010C2F2004040F23611C2F200410222AC
:102E700009F0BAF8002803D0FFE7FFF75DFFFFE78E
:102E8000FFE780BD0000000080B540F2B140C2F213
:102E900000400078012818D1FFE740F2B140C2F2AB
:102EA00000400021017040F62010C2F2004040F2C4
:102EB0009F41C2F20041022208F056FF002803D0D1
:102EC000FFE7FFF739FFFFE7FFE740F2B240C2F24A
:102ED00000400078012818D1FFE740F2B240C2F26A
:102EE00000400021017040F62010C2F2004040F284
:102EF0003811C2F20041022209F076F8002803D00E
:102F0000FFE7FFF719FFFFE7FFE780BD00000000C4
:102F100080B540F2B140C2F200400078012818D1DB
:102F2000FFE740F2B140C2F200400021017040F6DC
:102F30002010C2F2004040F29F41C2F20041022242
:102F400008F012FF002803D0FFE7FFF7F5FEFFE7C8
:102F5000FFE740F2B240C2F200400078012818D1E9
:102F6000FFE740F2B240C2F200400021017040F69B
:102F70002010C2F2004040F23A11C2F20041022297
:102F800009F032F8002803D0FFE7FFF7D5FEFFE78E
:102F9000FFE780BD0000000080B540F2B140C2F202
:102FA00000400078012818D1FFE740F2B140C2F29A
:102FB00000400021017040F62010C2F2004040F2B3
:102FC0009F41C2F20041022208F0CEFE002803D049
:102FD000FFE7FFF7B1FEFFE7FFE740F2B240C2F2C2
:102FE00000400078012818D1FFE740F2B240C2F259
:102FF00000400021017040F62010C2F2004040F273
:103000003C11C2F20041022208F0EEFF002803D07A
:10301000FFE7FFF791FEFFE7FFE780BD000000003C
:1030200040F29E40C2F20040002101707047000053
:1030300080B540F2B140C2F200400078012818D1BA
:10304000FFE740F2B140C2F200400021017040F6BB
:103050002010C2F2004040F29F41C2F20041022221
:1030600008F082FE002803D0FFE7FFF765FEFFE7C8
:10307000FFE740F2B240C2F200400078012818D1C8
:10308000FFE740F2B240C2F200400021017040F67A
:103090002010C2F2004040F23E11C2F20041022272
:1030A00008F0A2FF002803D0FFE7FFF745FEFFE787
:1030B000FFE780BD0000000080B540F29E40C2F2F4
:1030C00000400078012841D1FFE740F2B140C2F250
:1030D00000400078012818D1FFE740F2B140C2F269
:1030E00000400021017040F62010C2F2004040F282
:1030F0009F41C2F20041122208F036FE002803D0A0
:10310000FFE7FFF719FEFFE7FFE740F2B240C2F228
:1031100000400078012818D1FFE740F2B240C2F227
:1031200000400021017040F62010C2F2004040F241
:103130003411C2F20041022208F056FF002803D0E9
:10314000FFE7FFF7F9FDFFE7FFE7FFE780BD0000BE
:1031500040F29E40C2F20040012101707047000021
:1031600080B540F2B240C2F200400121017040F24D
:10317000B140C2F200400170FFF752FFFFF758FF65
:10318000FFF7E6FF80BD000082B000208DF806004A
:103190000090FFE70098092810DCFFE7009840F254
:1031A0004011C2F20041085C9DF8061008448DF8F9
:1031B0000600FFE7009801300090EBE740F2401076
:1031C000C2F20040807A9DF80610884204D0FFE7E2
:1031D00000208DF8070003E001208DF80700FFE7CD
:1031E0009DF8070002B0704780B582B00190019849
:1031F000FEF75AFF00EE100AB8EEC00B9FED041B5D
:1032000080EE010B9FED041B20EE010B02B080BD90
:10321000000000000000E040000000000080664068
:1032200080B582B040F24010C2F20040811C019093
:103230000846FFF7D9FF40F2B840C2F200400168EB
:1032400081ED020B01990A1D00901046FFF7CCFF9B
:103250000098016881ED000B0199881DFFF7C4FFFC
:103260000098016881ED040B02B080BD00000000F1
:1032700080B540F2B840C2F20040016800224A60C6
:103280000A600168CA608A6000684261026100F0F9
:1032900003F880BD0000000080B540F2B340C2F2E8
:1032A00000400121017040F2B440C2F20040002110
:1032B0000170007840F24011C2F20041014440F632
:1032C000D020C2F200400B2208F04EFD002803D0AF
:1032D000FFE7FFF731FDFFE780BD000000000000C1
:1032E00080B58AB0089003F037FC04900898002855
:1032F00005D1FFE701208DF8270000F0B4BC089845
:1033000090F8350002280ED0FFE70898802141652B
:10331000FFE70898002180F83410FFE701208DF8BE
:10332000270000F0A0BC0898006801211022C4F218
:1033300002029042039100F0A380FFE70898006822
:1033400001212822C4F202029042039100F09880E9
:10335000FFE70898006801214022C4F2020290426F
:10336000039100F08D80FFE7089800680121582242
:10337000C4F202029042039100F08280FFE70898B5
:10338000006801217022C4F202029042039177D0BA
:10339000FFE70898006801218822C4F202029042E7
:1033A00003916DD0FFE7089800680121A022C4F2C4
:1033B00002029042039163D0FFE708980068012160
:1033C000B822C4F202029042039159D0FFE7089854
:1033D0000068012140F21042C4F2020290420391BF
:1033E0004ED0FFE708980068012140F22842C4F25D
:1033F00002029042039143D0FFE708980068012140
:1034000040F24042C4F202029042039138D0FFE7FA
:1034100008980068012140F25842C4F2020290422A
:1034200003912DD0FFE708980068012140F2704217
:10343000C4F202029042039122D0FFE7089800688C
:10344000012140F28842C4F202029042039117D057
:10345000FFE708980068012140F2A042C4F202028E
:10346000904203910CD0FFE7089800684FF648316E
:10347000CBF6FD710844B0FA80F040090390FFE7F5
:103480000398C007002810D0FFE70898006801687B
:1034900021F01E01016008980068416921F0800157
:1034A000416108980068059009E008980068016883
:1034B00021F00E010160089800680590FFE7089868
:1034C000006801211022C4F202029042029100F031
:1034D0000381FFE70898006801212822C4F2020254
:1034E0009042029100F0F880FFE7089800680121FF
:1034F0004022C4F202029042029100F0ED80FFE708
:103500000898006801215822C4F2020290420291F8
:1035100000F0E280FFE70898006801217022C4F201
:1035200002029042029100F0D780FFE708980068FD
:1035300001218822C4F202029042029100F0CC8064
:10354000FFE7089800680121A022C4F2020290421D
:10355000029100F0C180FFE7089800680121B822BD
:10356000C4F202029042029100F0B680FFE7089890
:103570000068012140F21042C4F20202904202911E
:1035800000F0AA80FFE708980068012140F2284275
:10359000C4F202029042029100F09E80FFE7089878
:1035A0000068012140F24042C4F2020290420291BE
:1035B00000F09280FFE708980068012140F258422D
:1035C000C4F202029042029100F08680FFE7089860
:1035D0000068012140F27042C4F20202904202915E
:1035E0007AD0FFE708980068012140F28842C4F2CF
:1035F0000202904202916FD0FFE708980068012113
:1036000040F2A042C4F202029042029164D0FFE76D
:1036100008980068012140F2B842C4F202029042C8
:10362000029159D0FFE708980068012145F208424D
:10363000C5F60202904202914ED0FFE7089800685A
:10364000012145F21C42C5F602029042029143D08C
:10365000FFE708980068012145F23042C5F60202F2
:103660009042029138D0FFE708980068012145F2A6
:103670004442C5F60202904202912DD0FFE708981D
:103680000068012145F25842C5F6020290420291BB
:1036900022D0FFE708980068012145F26C42C5F688
:1036A00002029042029117D0FFE7089800680121BA
:1036B00045F28042C5F60202904202910CD0FFE72B
:1036C000089800684AF66C31CAF2FD710844B0FAF5
:1036D00080F040090290FFE70298C007002807D059
:1036E000FFE70898006E016821F480710160FFE730
:1036F000089800681021C4F20201884200F081801D
:10370000FFE7089800682821C4F20201884278D0B7
:10371000FFE7089800684021C4F20201884270D097
:10372000FFE7089800685821C4F20201884268D077
:10373000FFE7089800687021C4F20201884260D057
:10374000FFE7089800688821C4F20201884258D037
:10375000FFE708980068A021C4F20201884250D017
:10376000FFE708980068B821C4F20201884248D0F7
:10377000FFE70898006840F21041C4F20201884255
:103780003FD0FFE70898006840F22841C4F20201E8
:10379000884236D0FFE70898006840F24041C4F202
:1037A000020188422DD0FFE70898006840F2584196
:1037B000C4F20201884224D0FFE70898006840F272
:1037C0007041C4F2020188421BD0FFE708980068EC
:1037D00040F28841C4F20201884212D0FFE7089803
:1037E000006840F2A041C4F20201884209D0FFE71C
:1037F0000898006840F2B841C4F20201884208D13A
:10380000FFE708980068016821F001010A4601609D
:1038100007E008980068016821F001010A4601608C
:10382000FFE7FFE705980068C007002819D0FFE709
:1038300003F092F90499401A062811D3FFE708987B
:1038400020214165FFE70898002180F83410FFE748
:103850000898032180F8351001208DF8270002E236
:10386000E0E70898006801211022C4F202029042A9
:10387000019100F0A380FFE7089800680121282249
:10388000C4F202029042019100F09880FFE708988C
:10389000006801214022C4F202029042019100F02E
:1038A0008D80FFE70898006801215822C4F20202C7
:1038B0009042019100F08280FFE7089800680121A2
:1038C0007022C4F202029042019177D0FFE708987B
:1038D000006801218822C4F20202904201916DD059
:1038E000FFE7089800680121A022C4F2020290427A
:1038F000019163D0FFE7089800680121B822C4F263
:1039000002029042019159D0FFE708980068012116
:1039100040F21042C4F20202904201914ED0FFE701
:1039200008980068012140F22842C4F20202904245
:10393000019143D0FFE708980068012140F240421E
:10394000C4F202029042019138D0FFE70898006863
:10395000012140F25842C4F20202904201912DD05E
:10396000FFE708980068012140F27042C4F20202A9
:103970009042019122D0FFE708980068012140F2AF
:103980008842C4F202029042019117D0FFE70898E2
:103990000068012140F2A042C4F20202904201916B
:1039A0000CD0FFE7089800684FF64831CBF6FD7160
:1039B0000844B0FA80F040090190FFE70198C00781
:1039C00000280DD0FFE70898806D07900898C06D1B
:1039D00000F01F003F2101FA00F0079988600CE019
:1039E0000898806D06900898C06D00F01F000121B6
:1039F00001FA00F006994860FFE708980068012185
:103A00001022C4F202029042009100F00381FFE70D
:103A10000898006801212822C4F202029042009115
:103A200000F0F880FFE70898006801214022C4F206
:103A300002029042009100F0ED80FFE708980068D4
:103A400001215822C4F202029042009100F0E2806B
:103A5000FFE70898006801217022C4F20202904238
:103A6000009100F0D780FFE70898006801218822C4
:103A7000C4F202029042009100F0CC80FFE7089867
:103A800000680121A022C4F202029042009100F0DD
:103A9000C180FFE7089800680121B822C4F2020241
:103AA0009042009100F0B680FFE70898006801217D
:103AB00040F21042C4F202029042009100F0AA804B
:103AC000FFE708980068012140F22842C4F2020290
:103AD0009042009100F09E80FFE708980068012165
:103AE00040F24042C4F202029042009100F0928003
:103AF000FFE708980068012140F25842C4F2020230
:103B00009042009100F08680FFE70898006801214C
:103B100040F27042C4F20202904200917AD0FFE774
:103B200008980068012140F28842C4F202029042E3
:103B300000916FD0FFE708980068012140F2A04291
:103B4000C4F202029042009164D0FFE70898006836
:103B5000012140F2B842C4F202029042009159D0D1
:103B6000FFE708980068012145F20842C5F6020205
:103B7000904200914ED0FFE708980068012145F27D
:103B80001C42C5F602029042009143D0FFE708981C
:103B90000068012145F23042C5F6020290420091D0
:103BA00038D0FFE708980068012145F24442C5F685
:103BB0000202904200912DD0FFE708980068012191
:103BC00045F25842C5F602029042009122D0FFE72A
:103BD00008980068012145F26C42C5F60202904245
:103BE000009117D0FFE708980068012145F2804254
:103BF000C5F60202904200910CD0FFE708980068D9
:103C00004AF66C31CAF2FD710844B0FA80F04009FE
:103C10000090FFE70098C007002815D0FFE708983C
:103C2000416E806E48600898C06E00280BD0FFE798
:103C30000898C06E016821F4807101600898016FD6
:103C4000406F4860FFE7FFE7FFE70898002180F832
:103C50003410FFE70898012180F83510FFE70020B5
:103C60008DF82700FFE79DF827000AB080BD00000F
:103C700080B586B004900498002804D1FFE70120A5
:103C80008DF817004EE3049890F83500022807D00D
:103C9000FFE704988021416501208DF8170041E37A
:103CA0000498006801211022C4F20202904202919D
:103CB00000F0A380FFE70498006801212822C4F2E5
:103CC00002029042029100F09880FFE70498006899
:103CD00001214022C4F202029042029100F08D8044
:103CE000FFE70498006801215822C4F202029042C2
:103CF000029100F08280FFE70498006801217022A1
:103D0000C4F202029042029177D0FFE70498006863
:103D100001218822C4F20202904202916DD0FFE795
:103D2000049800680121A022C4F20202904202918C
:103D300063D0FFE7049800680121B822C4F20202B0
:103D40009042029159D0FFE704980068012140F2A7
:103D50001042C4F20202904202914ED0FFE7049852
:103D60000068012140F22842C4F20202904202910E
:103D700043D0FFE704980068012140F24042C4F2BA
:103D800002029042029138D0FFE7049800680121B6
:103D900040F25842C4F20202904202912DD0FFE755
:103DA00004980068012140F27042C4F2020290427D
:103DB000029122D0FFE704980068012140F2884276
:103DC000C4F202029042029117D0FFE70498006803
:103DD000012140F2A042C4F20202904202910CD0B2
:103DE000FFE7049800684FF64831CBF6FD710844B0
:103DF000B0FA80F040090290FFE70298C00700285F
:103E000000F09F80FFE70498042180F835100498A3
:103E100000681021C4F20201884200F08180FFE7AF
:103E2000049800682821C4F20201884278D0FFE794
:103E3000049800684021C4F20201884270D0FFE774
:103E4000049800685821C4F20201884268D0FFE754
:103E5000049800687021C4F20201884260D0FFE734
:103E6000049800688821C4F20201884258D0FFE714
:103E700004980068A021C4F20201884250D0FFE7F4
:103E800004980068B821C4F20201884248D0FFE7D4
:103E90000498006840F21041C4F2020188423FD009
:103EA000FFE70498006840F22841C4F2020188420A
:103EB00036D0FFE70498006840F24041C4F20201A6
:103EC00088422DD0FFE70498006840F25841C4F2C0
:103ED0000201884224D0FFE70498006840F2704154
:103EE000C4F2020188421BD0FFE70498006840F248
:103EF0008841C4F20201884212D0FFE704980068AA
:103F000040F2A041C4F20201884209D0FFE70498C0
:103F1000006840F2B841C4F20201884208D1FFE7CC
:103F200004980068016821F001010A46016007E079
:103F300004980068016821F001010A460160FFE76A
:103F4000EBE104980068016821F00E01016004981B
:103F500000681021C4F20201884200F08180FFE76E
:103F6000049800682821C4F20201884278D0FFE753
:103F7000049800684021C4F20201884270D0FFE733
:103F8000049800685821C4F20201884268D0FFE713
:103F9000049800687021C4F20201884260D0FFE7F3
:103FA000049800688821C4F20201884258D0FFE7D3
:103FB00004980068A021C4F20201884250D0FFE7B3
:103FC00004980068B821C4F20201884248D0FFE793
:103FD0000498006840F21041C4F2020188423FD0C8
:103FE000FFE70498006840F22841C4F202018842C9
:103FF00036D0FFE70498006840F24041C4F2020165
:1040000088422DD0FFE70498006840F25841C4F27E
:104010000201884224D0FFE70498006840F2704112
:10402000C4F2020188421BD0FFE70498006840F206
:104030008841C4F20201884212D0FFE70498006868
:1040400040F2A041C4F20201884209D0FFE704987F
:10405000006840F2B841C4F20201884208D1FFE78B
:1040600004980068016821F001010A46016007E038
:1040700004980068016821F001010A460160FFE729
:104080000498006801211022C4F2020290420191BA
:1040900000F00381FFE70498006801212822C4F2A0
:1040A00002029042019100F0F880FFE70498006856
:1040B00001214022C4F202029042019100F0ED8001
:1040C000FFE70498006801215822C4F202029042DE
:1040D000019100F0E280FFE704980068012170225E
:1040E000C4F202029042019100F0D780FFE70498E9
:1040F000006801218822C4F202029042019100F07E
:10410000CC80FFE7049800680121A022C4F20202DB
:104110009042019100F0C180FFE7049800680121FE
:10412000B822C4F202029042019100F0B680FFE78B
:1041300004980068012140F21042C4F20202904249
:10414000019100F0AA80FFE704980068012140F285
:104150002842C4F202029042019100F09E80FFE7E3
:1041600004980068012140F24042C4F202029042E9
:10417000019100F09280FFE704980068012140F26D
:104180005842C4F202029042019100F08680FFE79B
:1041900004980068012140F27042C4F20202904289
:1041A00001917AD0FFE704980068012140F288422B
:1041B000C4F20202904201916FD0FFE704980068B8
:1041C000012140F2A042C4F202029042019164D067
:1041D000FFE704980068012140F2B842C4F20202ED
:1041E0009042019159D0FFE704980068012145F2FF
:1041F0000842C5F60202904201914ED0FFE70498B2
:104200000068012145F21C42C5F60202904201916C
:1042100043D0FFE704980068012145F23042C5F61B
:1042200002029042019138D0FFE704980068012112
:1042300045F24442C5F60202904201912DD0FFE7BB
:1042400004980068012145F25842C5F602029042E6
:10425000019122D0FFE704980068012145F26C42E9
:10426000C5F602029042019117D0FFE7049800685A
:10427000012145F28042C5F60202904201910CD024
:10428000FFE7049800684AF66C31CAF2FD710844F1
:10429000B0FA80F040090190FFE70198C0070028BC
:1042A00027D0FFE70498006E016821F48071016057
:1042B0000498806D03900498C06D00F01F000121E8
:1042C00001FA00F0039948600498416E806E4860DE
:1042D0000498C06E00280BD0FFE70498C06E0168F8
:1042E00021F4807101600498016F406F4860FFE71E
:1042F000FFE7FFE70498002180F83410FFE70498F7
:10430000012180F835100498006D002804D0FFE7E3
:104310000498016D8847FFE7FFE7FFE700208DF86D
:104320001700FFE79DF8170006B080BD00000000F1
:1043300080B590B00F9000200B9040F20430C2F294
:104340000040006848F2B511C1F64E31A0FB0101F2
:10435000890A0A910F99896D09910F99896D0891C0
:10436000099909680E91089909680D910F990968D2
:1043700001221023C4F202039942079200F0A380A5
:10438000FFE70F98006801212822C4F20202904240
:10439000079100F09880FFE70F9800680121402204
:1043A000C4F202029042079100F08D80FFE70F985F
:1043B000006801215822C4F202029042079100F0E5
:1043C0008280FFE70F98006801217022C4F2020288
:1043D0009042079177D0FFE70F980068012188226B
:1043E000C4F20202904207916DD0FFE70F98006877
:1043F0000121A022C4F202029042079163D0FFE79C
:104400000F9800680121B822C4F20202904207917D
:1044100059D0FFE70F980068012140F21042C4F222
:104420000202904207914ED0FFE70F9800680121E9
:1044300040F22842C4F202029042079143D0FFE7C3
:104440000F980068012140F24042C4F202029042FB
:10445000079138D0FFE70F980068012140F25842D9
:10446000C4F20202904207912DD0FFE70F98006836
:10447000012140F27042C4F202029042079122D020
:10448000FFE70F980068012140F28842C4F202025F
:104490009042079117D0FFE70F980068012140F282
:1044A000A042C4F20202904207910CD0FFE70F989D
:1044B00000684FF64831CBF6FD710844B0FA80F041
:1044C00040090790FFE70798C007002800F02985FA
:1044D000FFE70E980F99C96D01F01F01C840000752
:1044E000002840F1B280FFE70F9800681021C4F265
:1044F0000201884200F08180FFE70F9800682821C0
:10450000C4F20201884278D0FFE70F98006840218A
:10451000C4F20201884270D0FFE70F98006858216A
:10452000C4F20201884268D0FFE70F98006870214A
:10453000C4F20201884260D0FFE70F98006888212A
:10454000C4F20201884258D0FFE70F980068A0210A
:10455000C4F20201884250D0FFE70F980068B821EA
:10456000C4F20201884248D0FFE70F98006840F289
:104570001041C4F2020188423FD0FFE70F98006863
:1045800040F22841C4F20201884236D0FFE70F987A
:10459000006840F24041C4F2020188422DD0FFE79A
:1045A0000F98006840F25841C4F20201884224D0BA
:1045B000FFE70F98006840F27041C4F202018842A0
:1045C0001BD0FFE70F98006840F28841C4F2020157
:1045D000884212D0FFE70F98006840F2A041C4F271
:1045E0000201884209D0FFE70F98006840F2B84105
:1045F000C4F20201884207D1FFE70F980068006803
:1046000000F00400069006E00F980068006800F0D3
:1046100008000690FFE70698002815D0FFE70F98DE
:104620000068016821F0040101600F98C06D00F07E
:104630001F00082101FA00F0099988600F98416D68
:1046400041F001014165FFE7FFE70E980F99C96D41
:1046500001F01F01C840C007002800F0AB80FFE751
:104660000F9800681021C4F20201884200F0818096
:10467000FFE70F9800682821C4F20201884278D031
:10468000FFE70F9800684021C4F20201884270D011
:10469000FFE70F9800685821C4F20201884268D0F1
:1046A000FFE70F9800687021C4F20201884260D0D1
:1046B000FFE70F9800688821C4F20201884258D0B1
:1046C000FFE70F980068A021C4F20201884250D091
:1046D000FFE70F980068B821C4F20201884248D071
:1046E000FFE70F98006840F21041C4F202018842CF
:1046F0003FD0FFE70F98006840F22841C4F2020162
:10470000884236D0FFE70F98006840F24041C4F27B
:10471000020188422DD0FFE70F98006840F258410F
:10472000C4F20201884224D0FFE70F98006840F2EB
:104730007041C4F2020188421BD0FFE70F98006865
:1047400040F28841C4F20201884212D0FFE70F987C
:10475000006840F2A041C4F20201884209D0FFE79C
:104760000F98006840F2B841C4F20201884207D1B4
:10477000FFE70F980068406900F08000059005E0B1
:104780000F980068006800210591FFE70598002850
:104790000FD0FFE70F98C06D00F01F00012101FA54
:1047A00000F0099988600F98416D41F00201416560
:1047B000FFE7FFE70E980F99C96D01F01F01C84090
:1047C0004007002840F1AB80FFE70F9800681021F8
:1047D000C4F20201884200F08180FFE70F98006870
:1047E0002821C4F20201884278D0FFE70F980068C0
:1047F0004021C4F20201884270D0FFE70F980068A0
:104800005821C4F20201884268D0FFE70F9800687F
:104810007021C4F20201884260D0FFE70F9800685F
:104820008821C4F20201884258D0FFE70F9800683F
:10483000A021C4F20201884250D0FFE70F9800681F
:10484000B821C4F20201884248D0FFE70F980068FF
:1048500040F21041C4F2020188423FD0FFE70F98B6
:10486000006840F22841C4F20201884236D0FFE7D6
:104870000F98006840F24041C4F2020188422DD0F6
:10488000FFE70F98006840F25841C4F202018842E5
:1048900024D0FFE70F98006840F27041C4F2020193
:1048A00088421BD0FFE70F98006840F28841C4F2AD
:1048B0000201884212D0FFE70F98006840F2A04141
:1048C000C4F20201884209D0FFE70F98006840F265
:1048D000B841C4F20201884207D1FFE70F9800688F
:1048E000006800F00200049005E00F98006800687E
:1048F00000210491FFE7049800280FD0FFE70F98EC
:10490000C06D00F01F00042101FA00F009998860D1
:104910000F98416D41F004014165FFE7FFE70E98F4
:104920000F99C96D01F01F01C840C006002840F171
:10493000E280FFE70F9800681021C4F2020188426C
:1049400000F08180FFE70F9800682821C4F202017F
:10495000884278D0FFE70F9800684021C4F2020136
:10496000884270D0FFE70F9800685821C4F2020116
:10497000884268D0FFE70F9800687021C4F20201F6
:10498000884260D0FFE70F9800688821C4F20201D6
:10499000884258D0FFE70F980068A021C4F20201B6
:1049A000884250D0FFE70F980068B821C4F2020196
:1049B000884248D0FFE70F98006840F21041C4F2E7
:1049C000020188423FD0FFE70F98006840F228417B
:1049D000C4F20201884236D0FFE70F98006840F227
:1049E0004041C4F2020188422DD0FFE70F980068D1
:1049F00040F25841C4F20201884224D0FFE70F98E8
:104A0000006840F27041C4F2020188421BD0FFE707
:104A10000F98006840F28841C4F20201884212D027
:104A2000FFE70F98006840F2A041C4F202018842FB
:104A300009D0FFE70F98006840F2B841C4F20201C4
:104A4000884207D1FFE70F980068006800F008006F
:104A5000039006E00F980068006800F004000390DF
:104A6000FFE70398002845D0FFE70F98C06D00F0DE
:104A70001F00102101FA00F0099988600F98006862
:104A80000068400300281CD5FFE70F980068006805
:104A9000000300280AD4FFE70F98006C002804D018
:104AA000FFE70F98016C8847FFE709E00F98806CDB
:104AB000002804D0FFE70F98816C8847FFE7FFE7E5
:104AC00017E00F9800680068C005002807D4FFE7CA
:104AD0000F980068016821F008010160FFE70F9856
:104AE000006C002804D0FFE70F98016C8847FFE7AF
:104AF000FFE7FFE7FFE70E980F99C96D01F01F016F
:104B0000C8408006002840F12E81FFE70F9800681A
:104B10001021C4F20201884200F08180FFE70F9863
:104B200000682821C4F20201884278D0FFE70F987C
:104B300000684021C4F20201884270D0FFE70F985C
:104B400000685821C4F20201884268D0FFE70F983C
:104B500000687021C4F20201884260D0FFE70F981C
:104B600000688821C4F20201884258D0FFE70F98FC
:104B70000068A021C4F20201884250D0FFE70F98DC
:104B80000068B821C4F20201884248D0FFE70F98BC
:104B9000006840F21041C4F2020188423FD0FFE7B2
:104BA0000F98006840F22841C4F20201884236D0D2
:104BB000FFE70F98006840F24041C4F202018842CA
:104BC0002DD0FFE70F98006840F25841C4F202016F
:104BD000884224D0FFE70F98006840F27041C4F289
:104BE000020188421BD0FFE70F98006840F288411D
:104BF000C4F20201884212D0FFE70F98006840F229
:104C0000A041C4F20201884209D0FFE70F98006872
:104C100040F2B841C4F20201884207D1FFE70F9881
:104C20000068006800F01000029006E00F9800682D
:104C3000006800F002000290FFE70298002800F0F0
:104C40009180FFE70F98C06D00F01F00202101FA4E
:104C500000F0099988600F9890F8350004283BD13E
:104C6000FFE70F980068016821F0160101600F98B6
:104C70000068416921F0800141610F98006C0028B3
:104C800005D1FFE70F98806C002807D0FFE70F9849
:104C90000068016821F008010160FFE70F98C06D0E
:104CA00000F01F003F2101FA00F009998860FFE73A
:104CB0000F98002180F83410FFE70F98012180F849
:104CC00035100F98006D002804D0FFE70F98016D94
:104CD0008847FFE700F032BC0F9800680068400387
:104CE00000281CD5FFE70F98006800680003002823
:104CF0000AD4FFE70F98406C002804D0FFE70F9814
:104D0000416C8847FFE709E00F98C06B002804D08A
:104D1000FFE70F98C16B8847FFE7FFE721E00F9897
:104D200000680068C005002811D4FFE70F980068EC
:104D3000016821F010010160FFE70F98002180F861
:104D40003410FFE70F98012180F83510FFE70F9826
:104D5000C06B002804D0FFE70F98C16B8847FFE7BE
:104D6000FFE7FFE7FFE70F98406D002800F0D880CD
:104D7000FFE70F98406DC007002800F0C780FFE7ED
:104D80000F98042180F835100F9800681021C4F2A4
:104D90000201884200F08180FFE70F980068282117
:104DA000C4F20201884278D0FFE70F9800684021E2
:104DB000C4F20201884270D0FFE70F9800685821C2
:104DC000C4F20201884268D0FFE70F9800687021A2
:104DD000C4F20201884260D0FFE70F980068882182
:104DE000C4F20201884258D0FFE70F980068A02162
:104DF000C4F20201884250D0FFE70F980068B82142
:104E0000C4F20201884248D0FFE70F98006840F2E0
:104E10001041C4F2020188423FD0FFE70F980068BA
:104E200040F22841C4F20201884236D0FFE70F98D1
:104E3000006840F24041C4F2020188422DD0FFE7F1
:104E40000F98006840F25841C4F20201884224D011
:104E5000FFE70F98006840F27041C4F202018842F7
:104E60001BD0FFE70F98006840F28841C4F20201AE
:104E7000884212D0FFE70F98006840F2A041C4F2C8
:104E80000201884209D0FFE70F98006840F2B8415C
:104E9000C4F20201884208D1FFE70F980068016858
:104EA00021F001010A46016007E00F9800680168DF
:104EB00021F001010A460160FFE7FFE70B9801308E
:104EC0000B900A99884201D9FFE707E0FFE70F98A6
:104ED00000680068C0070028F0D1FFE7FFE70F98DF
:104EE000002180F83410FFE70F9800680068C007C1
:104EF000002805D0FFE70F98032180F8351004E063
:104F00000F98012180F83510FFE7FFE70F98C06C7C
:104F1000002804D0FFE70F98C16C8847FFE7FFE740
:104F20000CE30F980068012145F20842C5F6020221
:104F3000904201914ED0FFE70F980068012145F2A1
:104F40001C42C5F602029042019143D0FFE70F9840
:104F50000068012145F23042C5F6020290420191FB
:104F600038D0FFE70F980068012145F24442C5F6AA
:104F70000202904201912DD0FFE70F9800680121B5
:104F800045F25842C5F602029042019122D0FFE755
:104F90000F980068012145F26C42C5F6020290426A
:104FA000019117D0FFE70F980068012145F2804278
:104FB000C5F60202904201910CD0FFE70F980068FD
:104FC0004AF66C31CAF2FD710844B0FA80F040092B
:104FD0000190FFE70198C007002800F0AD82FFE7CD
:104FE0000F98006800680C900D980F99C96D01F03A
:104FF0001F01C8404007002840F1DE80FFE79DF810
:1050000030004007002840F1D780FFE70F98C06DBF
:1050100000F01F00042101FA00F0089948609DF893
:105020003100000600281BD5FFE79DF83200C007BD
:1050300000280AD1FFE70F98806C002804D0FFE712
:105040000F98816C8847FFE709E00F98006C0028F3
:1050500004D0FFE70F98016C8847FFE7FFE7AAE05D
:105060009DF830008006002800F19B80FFE70F9834
:1050700000681021C4F20201884200F08180FFE73D
:105080000F9800682821C4F20201884278D0FFE717
:105090000F9800684021C4F20201884270D0FFE7F7
:1050A0000F9800685821C4F20201884268D0FFE7D7
:1050B0000F9800687021C4F20201884260D0FFE7B7
:1050C0000F9800688821C4F20201884258D0FFE797
:1050D0000F980068A021C4F20201884250D0FFE777
:1050E0000F980068B821C4F20201884248D0FFE757
:1050F0000F98006840F21041C4F2020188423FD08C
:10510000FFE70F98006840F22841C4F2020188428C
:1051100036D0FFE70F98006840F24041C4F2020128
:1051200088422DD0FFE70F98006840F25841C4F242
:105130000201884224D0FFE70F98006840F27041D6
:10514000C4F2020188421BD0FFE70F98006840F2CA
:105150008841C4F20201884212D0FFE70F9800682C
:1051600040F2A041C4F20201884209D0FFE70F9843
:10517000006840F2B841C4F20201884208D1FFE75A
:105180000F980068016821F008010A46016007E0F5
:105190000F980068016821F004010A460160FFE7EA
:1051A000FFE70F98006C002804D0FFE70F98016C10
:1051B0008847FFE7FFE7BEE10D980F99C96D01F041
:1051C0001F01C8408007002840F1E880FFE79DF8F4
:1051D00030008007002840F1E180FFE70F98C06DA4
:1051E00000F01F00022101FA00F0089948609DF8C4
:1051F0003100000600281BD5FFE79DF83200C007EC
:1052000000280AD1FFE70F98406C002804D0FFE780
:105210000F98416C8847FFE709E00F98C06B0028A2
:1052200004D0FFE70F98C16B8847FFE7FFE7B4E0C2
:105230009DF830008006002800F1A580FFE70F9858
:1052400000681021C4F20201884200F08180FFE76B
:105250000F9800682821C4F20201884278D0FFE745
:105260000F9800684021C4F20201884270D0FFE725
:105270000F9800685821C4F20201884268D0FFE705
:105280000F9800687021C4F20201884260D0FFE7E5
:105290000F9800688821C4F20201884258D0FFE7C5
:1052A0000F980068A021C4F20201884250D0FFE7A5
:1052B0000F980068B821C4F20201884248D0FFE785
:1052C0000F98006840F21041C4F2020188423FD0BA
:1052D000FFE70F98006840F22841C4F202018842BB
:1052E00036D0FFE70F98006840F24041C4F2020157
:1052F00088422DD0FFE70F98006840F25841C4F271
:105300000201884224D0FFE70F98006840F2704104
:10531000C4F2020188421BD0FFE70F98006840F2F8
:105320008841C4F20201884212D0FFE70F9800685A
:1053300040F2A041C4F20201884209D0FFE70F9871
:10534000006840F2B841C4F20201884208D1FFE788
:105350000F980068016821F014010A46016007E017
:105360000F980068016821F00A010A460160FFE712
:10537000FFE70F98002180F83410FFE70F98012114
:1053800080F83510FFE70F98C06B002804D0FFE7C6
:105390000F98C16B8847FFE7FFE7CBE00D980F99A7
:1053A000C96D01F01F01C8400007002840F1C0800E
:1053B000FFE79DF830000007002840F1B980FFE7C3
:1053C0000F9800681021C4F20201884200F0818029
:1053D000FFE70F9800682821C4F20201884278D0C4
:1053E000FFE70F9800684021C4F20201884270D0A4
:1053F000FFE70F9800685821C4F20201884268D084
:10540000FFE70F9800687021C4F20201884260D063
:10541000FFE70F9800688821C4F20201884258D043
:10542000FFE70F980068A021C4F20201884250D023
:10543000FFE70F980068B821C4F20201884248D003
:10544000FFE70F98006840F21041C4F20201884261
:105450003FD0FFE70F98006840F22841C4F20201F4
:10546000884236D0FFE70F98006840F24041C4F20E
:10547000020188422DD0FFE70F98006840F25841A2
:10548000C4F20201884224D0FFE70F98006840F27E
:105490007041C4F2020188421BD0FFE70F980068F8
:1054A00040F28841C4F20201884212D0FFE70F980F
:1054B000006840F2A041C4F20201884209D0FFE72F
:1054C0000F98006840F2B841C4F20201884208D146
:1054D000FFE70F980068016821F01C010A4601608F
:1054E00007E00F980068016821F00E010A4601608C
:1054F000FFE70F98C06D00F01F00012101FA00F0D6
:10550000089A50600F984165FFE70F98002180F8D6
:105510003410FFE70F98012180F835100F98C06C08
:10552000002804D0FFE70F98C16C8847FFE700E030
:10553000FFE7FFE7FFE700E0FFE7FFE710B080BD10
:1055400080B58EB00C9001F007FB0A900C980028F3
:1055500005D1FFE701208DF8370000F0ADBC0C98B5
:10556000006801211022C4F202029042079100F06B
:10557000A380FFE70C98006801212822C4F20202F0
:105580009042079100F09880FFE70C980068012195
:105590004022C4F202029042079100F08D80FFE7A2
:1055A0000C98006801215822C4F20202904207912F
:1055B00000F08280FFE70C98006801217022C4F29D
:1055C00002029042079177D0FFE70C980068012112
:1055D0008822C4F20202904207916DD0FFE70C9836
:1055E00000680121A022C4F202029042079163D018
:1055F000FFE70C9800680121B822C4F20202904231
:10560000079159D0FFE70C980068012140F2104241
:10561000C4F20202904207914ED0FFE70C98006856
:10562000012140F22842C4F202029042079143D085
:10563000FFE70C980068012140F24042C4F20202E8
:105640009042079138D0FFE70C980068012140F2A2
:105650005842C4F20202904207912DD0FFE70C9805
:105660000068012140F27042C4F2020290420791A8
:1056700022D0FFE70C980068012140F28842C4F272
:1056800002029042079117D0FFE70C9800680121B1
:1056900040F2A042C4F20202904207910CD0FFE710
:1056A0000C9800684FF64831CBF6FD710844B0FA0B
:1056B00080F040090790FFE70798C007002800F036
:1056C0008181FFE70C98406A002801D0FFE7FFE7DF
:1056D000FFE70C98002180F83410FFE70C980221B6
:1056E00080F835100C9800681021C4F2020188423D
:1056F00000F08180FFE70C9800682821C4F20201C5
:10570000884278D0FFE70C9800684021C4F202017B
:10571000884270D0FFE70C9800685821C4F202015B
:10572000884268D0FFE70C9800687021C4F202013B
:10573000884260D0FFE70C9800688821C4F202011B
:10574000884258D0FFE70C980068A021C4F20201FB
:10575000884250D0FFE70C980068B821C4F20201DB
:10576000884248D0FFE70C98006840F21041C4F22C
:10577000020188423FD0FFE70C98006840F22841C0
:10578000C4F20201884236D0FFE70C98006840F26C
:105790004041C4F2020188422DD0FFE70C98006816
:1057A00040F25841C4F20201884224D0FFE70C982D
:1057B000006840F27041C4F2020188421BD0FFE74A
:1057C0000C98006840F28841C4F20201884212D06D
:1057D000FFE70C98006840F2A041C4F20201884241
:1057E00009D0FFE70C98006840F2B841C4F202010A
:1057F000884208D1FFE70C980068016821F0010198
:105800000A46016007E00C980068016821F0010178
:105810000A460160FFE7FFE70C9800680068C007D0
:10582000002813D0FFE701F097F90A99401A0628DB
:105830000BD3FFE70C98202141650C98032180F8D9
:10584000351001208DF8370036E3E5E70C98006845
:1058500000680B900B9848F23F01CFF610610840AA
:105860000B900C988168C2680369D0F814C011438A
:10587000194341EA0C0182691143C2691143006A6C
:1058800008430B9908430B900C98406A042808D1F0
:10589000FFE70C98C16A006B08430B9908430B9013
:1058A000FFE741F20000C5F6004000684FF6FF71C7
:1058B0008843B0F1005F41D3FFE70C984068292886
:1058C00007D3FFE70C98406801212F2806912AD3BF
:1058D000FFE70C9840683F2807D3FFE70C98406823
:1058E0000121432806911ED3FFE70C984068472802
:1058F00007D3FFE70C98406801214928069112D38D
:10590000FFE70C98406800214F28059108D3FFE776
:105910000C9840680021532838BF01210591FFE70A
:1059200005980690FFE70698C007002805D0FFE716
:105930000B9840F480100B90FFE7FFE70B980C9951
:10594000096808600C98006840690B900B9820F07B
:1059500007000B900C98406A0B9908430B900C9829
:10596000406A04281CD1FFE70C98806A0B99084311
:105970000B900C98C06A002811D0FFE70C98FCF738
:1059800017FE00280AD0FFE70C98402141650C98CB
:10599000012180F835108DF837108DE2FFE7FFE721
:1059A0000B980C99096848610C98FCF7C1FB0990A9
:1059B0000C98C06D00F01F003F2101FA00F009991A
:1059C00088602AE10C980068012145F20842C5F67A
:1059D0000202904204914ED0FFE70C98006801212A
:1059E00045F21C42C5F602029042049143D0FFE703
:1059F0000C980068012145F23042C5F6020290423F
:105A0000049138D0FFE70C980068012145F2444228
:105A1000C5F60202904204912DD0FFE70C98006871
:105A2000012145F25842C5F602029042049122D06B
:105A3000FFE70C980068012145F26C42C5F60202AE
:105A40009042049117D0FFE70C980068012145F2BD
:105A50008042C5F60202904204910CD0FFE70C98F8
:105A600000684AF66C31CAF2FD710844B0FA80F061
:105A700040090490FFE70498C007002800F0C180A7
:105A8000FFE70C980068012145F20842C5F60202C2
:105A9000904203914ED0FFE70C980068012145F237
:105AA0001C42C5F602029042039143D0FFE70C98D6
:105AB0000068012145F23042C5F60202904203918E
:105AC00038D0FFE70C980068012145F24442C5F642
:105AD0000202904203912DD0FFE70C98006801214B
