:020000040800F2
:10000000980D0024AD020008F1AE0008E9A2000836
:10001000E9AE00087908000811D4000800000000CB
:10002000000000000000000000000000A9B500086A
:10003000611300080000000071AF0008A1B70008BC
:10004000C7020008C7020008C7020008C70200086C
:10005000C7020008C7020008C7020008C70200085C
:10006000C702000889140008C702000899080008A0
:10007000A9080008B9080008C7020008C70200085C
:10008000C7020008C7020008C7020008C70200082C
:10009000C7020008C7020008C70200089914000838
:1000A000C7020008C7020008C7020008C70200080C
:1000B00001BA000811BA000821BA0008C7020008F6
:1000C000C7020008C7020008C7020008C7020008EC
:1000D000C7020008C7020008C702000801D40008D0
:1000E00079140008C702000800000000C7020008D9
:1000F000C7020008C7020008C7020008C7020008BC
:10010000C7020008C7020008C7020008C7020008AB
:10011000C7020008C7020008C7020008C70200089B
:10012000C7020008C7020008C7020008C70200088B
:10013000C7020008C7020008C7020008C70200087B
:1001400000000000000000000000000000000000AF
:10015000C7020008C7020008C7020008C70200085B
:10016000C7020008C7020008C7020008C70200084B
:10017000C7020008C7020008C7020008000000000C
:10018000C7020008C7020008C7020008C9C3000868
:10019000C7020008C7020008C7020008C70200081B
:1001A000C7020008C7020008C7020008C70200080B
:1001B000C7020008C7020008C7020008C7020008FB
:1001C000C7020008C7020008C7020008C7020008EB
:1001D000C7020008C7020008C7020008C7020008DB
:1001E000C7020008C7020008C7020008C7020008CB
:1001F000C7020008C7020008C7020008C7020008BB
:10020000C7020008C7020008C7020008C7020008AA
:10021000C7020008C7020008C7020008C70200089A
:10022000C7020008C7020008C7020008000000005B
:10023000C7020008C702000800000000C70200084B
:10024000C7020008C7020008C7020008C70200086A
:10025000C7020008C7020008C7020008C70200085A
:10026000C7020008C7020008C7020008C70200084A
:10027000C7020008C7020008C7020008000000000B
:10028000C7020008C7020008C702000800000000FB
:1002900000000000C7020008DFF80CD000F068FA88
:1002A0000048004761200108980D00240648804757
:1002B00006480047FEE7FEE7FEE7FEE7FEE7FEE74B
:1002C000FEE7FEE7FEE7FEE799B80008990200089E
:1002D0002DE9F05F0546002092469B46884606467B
:1002E000814640241BE0284641464746224600F00E
:1002F00076F853465A46C01A914110D31146184613
:10030000224600F05DF82D1A67EB01084F462246A1
:100310000120002100F054F817EB00094E41201E87
:10032000A4F10104DFDC484631462A464346BDE8D5
:10033000F09F002800DA4042704740EA01039B0723
:1003400003D009E008C9121F08C0042AFAD203E04A
:1003500011F8013B00F8013B521EF9D27047D2B2AE
:1003600001E000F8012B491EFBD270470022F6E79E
:1003700010B513460A4604461946FFF7F0FF20461B
:1003800010BD034611F8012B00F8012B002AF9D10A
:100390001846704730B50B46014600202022012444
:1003A00009E021FA02F59D4205D303FA02F5491B43
:1003B00004FA02F52844151EA2F10102F1DC30BD59
:1003C000202A04DB203A00FA02F100207047914015
:1003D000C2F1200320FA03F3194390407047202A0A
:1003E00004DB203A21FA02F00021704721FA02F3DF
:1003F000D040C2F1200291400843194670472DE9D0
:10040000FE4F804681EA0300C00F0C46009021F0A9
:10041000004123F00045B8EB0200A94105D2404657
:10042000214690461C460B46024623F000401043EE
:1004300047D0270DC7F30A00C3F30A510290401AB0
:10044000019040286BDAC3F3130040F4801B00983E
:10045000924620B10023D2EB030A63EB0B0B019809
:100460005946C0F140025046FFF7AAFF06460D4626
:1004700050465946019A00F08DF910EB0800614191
:10048000002487EA115284EAE7731A4340D0009AA5
:1004900062B3019A012A4FEA075215DC001B61EB97
:1004A00002014FF0004202EA0752CDE90042001C6F
:1004B00041F5801132462B4600F08DF903B0BDE8BE
:1004C000F08F40462146F9E7001B61EB0201001C5A
:1004D00041F5801300185B412018A2F5001747EB87
:1004E000030140EAD570B6196D4111E06D084FEA7D
:1004F000360645EAC0754FEA0752001B61EB020160
:10050000001C41F5801149084FEA300000195141A3
:1005100032462B4603B0BDE8F04F00F04DB90098CD
:10052000012240000023D0EB020263EBE07300984D
:1005300021464FEAE074B8EB000061EB0401E9E703
:1005400083F000435BE781F0004158E72DE9FE4F5F
:1005500081EA030404F0004421F0004100944FF0CC
:10056000000B23F0004350EA01045ED052EA03047A
:100570005BD0C3F30A54C1F30A552C44A4F2F334FC
:100580000194A0FB0254C1F3130141F48011C3F3A1
:10059000130343F4801301FB024400FB034E840A5F
:1005A000970A44EA815447EA8357A4FB07680295F7
:1005B0008D0A05FB07854FEA932C04FB0C54270595
:1005C000029D4FEA065847EA1637B5EB08056EEB71
:1005D000070C870E920E47EA811742EA8312A7FBA7
:1005E0000201B6EB0B0164EB00042B0D43EA0C3364
:1005F0005E1844EB1C50DA465146E7FB0201C5F396
:1006000013044FEA0B3343EA14534FEA0432019CBC
:1006100043EA0603A4F10C040294009CCDE900B463
:1006200000F0D9F803B0BDE8F08F00200146F9E7EB
:100630002DE9F04D81EA030404F0004B21F0004560
:1006400014464FF0000A23F0004150EA050220D082
:1006500054EA01021DD0C5F30A570246C5F313033D
:10066000C1F31300C1F30A5640F4801543F480131C
:10067000A7EB0608101BD64608F2FD3873EB050001
:1006800002D308F1010801E092185B41B8F1000FB4
:1006900003DA00200146BDE8F08D00204FF4801100
:1006A000064684460EE0171B73EB050705D3121BA5
:1006B00063EB050306434CEA010C49084FEA30009E
:1006C00092185B4150EA0107EDD152EA030012D0C3
:1006D00082EA040083EA0501084305D0101BAB4100
:1006E00006D20122002306E000224FF0004302E080
:1006F0006FF0010253101AEB06004CEB085110EB9F
:100700000A0041EB0B01BDE8F04D00F055B8C1F314
:100710000A52C1F3130140F2FF3341F480119A42AF
:1007200002DA00200146704740F233439A42A2F2B7
:10073000334202DC5242FFF752BEFFF741BE0000D7
:1007400030B5041E71F1000404DB4FF00044404258
:1007500064EB0101141E73F1000405DB1C464FF02D
:100760000043524263EB0403994208BF904230BDFC
:10077000064C074D06E0E06840F0010394E80700EE
:1007800098471034AC42F6D3FFF78AFD782D010864
:10079000982D0108202A06DBCB17203A41FA02F0F7
:1007A00043EAE07306E041FA02F3D040C2F12002CE
:1007B000914008431946704710B5141E73F10004A8
:1007C00008DA401C41F1000192185B411A4301D143
:1007D00020F0010010BD2DE9F04D92469B4611B16D
:1007E000B1FA81F202E0B0FA80F220329046FFF7CF
:1007F000E7FD04460F4640EA0A0041EA0B01534672
:100800005A46084313D0114653EA010019D0C8F1E3
:1008100040025046FFF7E3FD05460E465046594656
:100820004246FFF7CDFD084305D0012004E02046F5
:100830003946BDE8F08D0020054346EAE0762C43BA
:1008400037430A986305E40AA0EB08000022FD0A7A
:1008500044EA47540A3002D500200146E9E7010581
:1008600010196941DDE9084500196941BDE8F04DFD
:10087000A2E7000000000000FFE7FEE70000000024
:1008800081B0009000980178407841EA002000B2E1
:1008900001B070470000000080B540F25840C2F23D
:1008A000004001F085FF80BD80B540F2E030C2F22B
:1008B000004001F07DFF80BD80B540F26830C2F29B
:1008C000004001F075FF80BD83B00290029800687F
:1008D00001211022C4F202029042009100F0A38094
:1008E000FFE70298006801212822C4F20202904228
:1008F000009100F09880FFE70298006801214022F3
:10090000C4F202029042009100F08D80FFE702984D
:10091000006801215822C4F202029042009100F0C6
:100920008280FFE70298006801217022C4F202026F
:100930009042009177D0FFE7029800680121882259
:10094000C4F20202904200916DD0FFE70298006865
:100950000121A022C4F202029042009163D0FFE77D
:10096000029800680121B822C4F20202904200916C
:1009700059D0FFE702980068012140F21042C4F20A
:100980000202904200914ED0FFE7029800680121D8
:1009900040F22842C4F202029042009143D0FFE7A5
:1009A00002980068012140F24042C4F202029042E3
:1009B000009138D0FFE702980068012140F25842C8
:1009C000C4F20202904200912DD0FFE70298006825
:1009D000012140F27042C4F202029042009122D002
:1009E000FFE702980068012140F28842C4F2020247
:1009F0009042009117D0FFE702980068012140F271
:100A0000A042C4F20202904200910CD0FFE702988B
:100A100000684FF64831CBF6FD710844B0FA80F01B
:100A200040090090FFE70098C007002828D0FFE7A2
:100A30000298007810384AF6AB21CAF6AA21A0FB2A
:100A4000010109090191019901F0070142F64252A1
:100A5000C0F60102515C029AD1650199042907D3BD
:100A6000FFE702980168042262F30901816506E04C
:100A70000298016840F2FF3291438165FFE705E08B
:100A80000298016821F0FF018165FFE70298806DFF
:100A900003B070470000000084B003900398006822
:100AA000019003980068012145F20842C5F6020250
:100AB000904200914ED0FFE703980068012145F273
:100AC0001C42C5F602029042009143D0FFE7039812
:100AD0000068012145F23042C5F6020290420091C1
:100AE00038D0FFE703980068012145F24442C5F67B
:100AF0000202904200912DD0FFE703980068012187
:100B000045F25842C5F602029042009122D0FFE71A
:100B100003980068012145F26C42C5F6020290423A
:100B2000009117D0FFE703980068012145F2804249
:100B3000C5F60202904200910CD0FFE703980068CE
:100B40004AF66C31CAF2FD710844B0FA80F04009EF
:100B50000090FFE70098C007002823D0FFE7039824
:100B6000007808384CF6CD41CCF6CC41A0FB010111
:100B700009090291029945F60002C5F6020202EB4C
:100B80008101039A1166039945F68002C5F60202B7
:100B90004A66029901F01F01012202FA01F1039A4B
:100BA000916636E00398007810384AF6AB21CAF611
:100BB000AA21A0FB010109090291019940F2B84262
:100BC000C4F2020291420CD8FFE7019840F21041B2
:100BD000C4F20201884204D3FFE702980830029071
:100BE000FFE7029840F60001C4F2020101EB800029
:100BF00003990866039840F68001C4F20201416639
:100C0000029800F01F00012101FA00F003998866A4
:100C1000FFE704B07047000083B0029002980079AB
:100C200001900198002800F08C80FFE701980828C7
:100C300000F28780FFE702980068012145F2084230
:100C4000C5F60202904200914ED0FFE7029800687C
:100C5000012145F21C42C5F602029042009143D0A8
:100C6000FFE702980068012145F23042C5F6020212
:100C70009042009138D0FFE702980068012145F2C8
:100C80004442C5F60202904200912DD0FFE702983F
:100C90000068012145F25842C5F6020290420091D7
:100CA00022D0FFE702980068012145F26C42C5F6A8
:100CB00002029042009117D0FFE7029800680121DC
:100CC00045F28042C5F60202904200910CD0FFE747
:100CD000029800684AF66C31CAF2FD710844B0FA15
:100CE00080F040090090FFE70098C007002810D06E
:100CF000FFE7019845F6FC01C5F6020101EB800013
:100D00000299C866029845F64011C5F602010167CE
:100D10000FE0019840F6FC01C4F2020101EB8000F3
:100D20000299C866029840F64011C4F202010167B8
:100D3000FFE701980138012101FA00F002994867A4
:100D4000FFE703B07047000085B0049000208DF8E5
:100D50000F0004988069002824D1FFE70498806A76
:100D6000032802901CD80299DFE801F0020E021954
:100D7000049890F82F00C007002804D0FFE7012056
:100D80008DF80F00FFE70CE00498C06AB0F1C07F57
:100D900004D1FFE701208DF80F00FFE701E000E03C
:100DA000FFE749E004988069B0F5005F27D1FFE7CD
:100DB0000498806A032801901FD80199DFE801F0A8
:100DC0000206021201208DF80F0017E0049890F837
:100DD0002F00C007002804D0FFE701208DF80F0086
:100DE000FFE70BE00498C06AB0F1C07F04D1FFE7D1
:100DF00001208DF80F00FFE700E0FFE71BE00498FB
:100E0000806A0328009004D3FFE70098032804D0E9
:100E10000FE001208DF80F000CE0049890F82F00EF
:100E2000C007002804D0FFE701208DF80F00FFE77E
:100E300000E0FFE7FFE7FFE79DF80F0005B0704710
:100E400089B008900791069205930898806D0490E8
:100E50000898806D03900898006801211022C4F260
:100E600002029042029100F00381FFE708980068B7
:100E700001212822C4F202029042029100F0F8807F
:100E8000FFE70898006801214022C4F20202904264
:100E9000029100F0ED80FFE70898006801215822D8
:100EA000C4F202029042029100F0E280FFE708984B
:100EB000006801217022C4F202029042029100F007
:100EC000D780FFE70898006801218822C4F2020257
:100ED0009042029100F0CC80FFE708980068012161
:100EE000A022C4F202029042029100F0C180FFE70A
:100EF000089800680121B822C4F2020290420291CF
:100F000000F0B680FFE708980068012140F2104227
:100F1000C4F202029042029100F0AA80FFE7089812
:100F20000068012140F22842C4F20202904202917C
:100F300000F09E80FFE708980068012140F24042DF
:100F4000C4F202029042029100F09280FFE70898FA
:100F50000068012140F25842C4F20202904202911C
:100F600000F08680FFE708980068012140F2704297
:100F7000C4F20202904202917AD0FFE7089800681A
:100F8000012140F28842C4F20202904202916FD0E5
:100F9000FFE708980068012140F2A042C4F2020273
:100FA0009042029164D0FFE708980068012140F266
:100FB000B842C4F202029042029159D0FFE7089869
:100FC0000068012145F20842C5F6020290420291F2
:100FD0004ED0FFE708980068012145F21C42C5F693
:100FE00002029042029143D0FFE708980068012175
:100FF00045F23042C5F602029042029138D0FFE736
:1010000008980068012145F24442C5F60202904268
:1010100002912DD0FFE708980068012145F258425F
:10102000C5F602029042029122D0FFE708980068BC
:10103000012145F26C42C5F602029042029117D09E
:10104000FFE708980068012145F28042C5F60202D8
:10105000904202910CD0FFE7089800684AF66C3184
:10106000CAF2FD710844B0FA80F040090290FFE72F
:101070000298C00700280FD0FFE70898416E806EE5
:1010800048600898C06E002805D0FFE70898016FF7
:10109000406F4860FFE7FFE70898006801211022D1
:1010A000C4F202029042019100F0A380FFE7089889
:1010B000006801212822C4F202029042019100F04E
:1010C0009880FFE70898006801214022C4F20202DC
:1010D0009042019100F08D80FFE70898006801219F
:1010E0005822C4F202029042019100F08280FFE790
:1010F0000898006801217022C4F202029042019116
:1011000077D0FFE70898006801218822C4F2020224
:10111000904201916DD0FFE7089800680121A0225C
:10112000C4F202029042019163D0FFE70898006880
:101130000121B822C4F202029042019159D0FFE786
:1011400008980068012140F21042C4F20202904265
:1011500001914ED0FFE708980068012140F2284233
:10116000C4F202029042019143D0FFE70898006860
:10117000012140F24042C4F202029042019138D073
:10118000FFE708980068012140F25842C4F20202C9
:10119000904201912DD0FFE708980068012140F2AC
:1011A0007042C4F202029042019122D0FFE70898F7
:1011B0000068012140F28842C4F20202904201918B
:1011C00017D0FFE708980068012140F2A042C4F25E
:1011D0000202904201910CD0FFE7089800684FF698
:1011E0004831CBF6FD710844B0FA80F04009019017
:1011F000FFE70198C00700282BD0FFE70898C06DD3
:1012000000F01F003F2101FA00F00499886008985F
:101210000068016821F48021016005980899096837
:10122000486008988068402809D1FFE70698089927
:1012300009688860079808990968C86008E00798F5
:10124000089909688860069808990968C860FFE7E6
:1012500084E008980068012145F20842C5F60202C0
:10126000904200914ED0FFE708980068012145F2B6
:101270001C42C5F602029042009143D0FFE7089855
:101280000068012145F23042C5F602029042009109
:1012900038D0FFE708980068012145F24442C5F6BE
:1012A0000202904200912DD0FFE7089800680121CA
:1012B00045F25842C5F602029042009122D0FFE763
:1012C00008980068012145F26C42C5F6020290427E
:1012D000009117D0FFE708980068012145F280428D
:1012E000C5F60202904200910CD0FFE70898006812
:1012F0004AF66C31CAF2FD710844B0FA80F0400938
:101300000090FFE70098C007002825D0FFE7089865
:10131000C06D00F01F00012101FA00F00399486040
:10132000059808990968486008988068402809D19C
:10133000FFE706980899096888600798089909687E
:10134000C86008E0079808990968886006980899B5
:101350000968C860FFE700E0FFE7FFE709B07047F2
:10136000704700000000000080B582B009F0CCFF9B
:1013700042F67251C0F6010101900846019911F040
:101380005FF80A210090084603F066FB02B080BDBA
:1013900080B582B00020C5F602004FF48051019064
:1013A00003F0AAFD40F20131C2F2004108700821A9
:1013B000019803F0A1FD40F22331C2F20041087010
:1013C00009F0C2F90AF0D8F802B080BD00000000B0
:1013D00080B582B009F0C8F900280CD0FFE709F009
:1013E000B3F940F20130C2F200400178B1FA81F164
:1013F000490901703CE00AF0CFF800280CD0FFE763
:101400000AF0BAF840F22330C2F200400178B1FA93
:1014100081F1490901702AE040F2D820C2F200406F
:10142000018801310180B0F90000B0F5FA7F1DD1CB
:10143000FFE740F2D820C2F20040002101800020E6
:10144000C5F602004FF48051019003F055FD40F2C3
:101450000131C2F2004108700821019803F04CFDEF
:1014600040F22331C2F200410870FFE7FFE7FFE7D7
:1014700002B080BD0000000080B54FF4805003F042
:1014800033FB80BD0000000080B5082003F02CFB7A
:1014900080BD00000000000080B54FF4807003F0B4
:1014A00023FB80BD0000000080B582B0EFF3108008
:1014B00072B60190FFE740F60000C5F602004FF457
:1014C0000051012203F048FDF5E700000000000094
:1014D00080B540F2EC20C2F200400078012818D11B
:1014E000FFE740F2EC20C2F200400021017040F220
:1014F000DC60C2F2004040F2DA21C2F20041022276
:1015000008F042FC002803D0FFE7FFF7CDFFFFE71C
:10151000FFE740F2ED20C2F200400078012818D128
:10152000FFE740F2ED20C2F200400021017040F2DE
:10153000DC60C2F2004040F2FE01C2F20041022231
:1015400008F01AFE002803D0FFE7FFF7ADFFFFE722
:10155000FFE780BD0000000080B540F2EC20C2F241
:1015600000400078012818D1FFE740F2EC20C2F2D9
:1015700000400021017040F2DC60C2F2004040F205
:10158000DA21C2F20041122208F0FEFB002803D04B
:10159000FFE7FFF789FFFFE7FFE740F2ED20C2F228
:1015A00000400078012818D1FFE740F2ED20C2F298
:1015B00000400021017040F2DC60C2F2004040F2C5
:1015C000FC01C2F20041022208F0D6FD002803D03F
:1015D000FFE7FFF769FFFFE7FFE780BD00000000BE
:1015E00080B540F2ED20C2F200400121017040F2CE
:1015F000EC20C2F200400170FFF76AFF80BD0000DE
:1016000082B000208DF806000090FFE700980928BE
:1016100010DCFFE7009840F2EF21C2F20041085CC5
:101620009DF8061008448DF80600FFE70098013089
:101630000090EBE740F2EF20C2F20040807A9DF884
:101640000610884204D0FFE700208DF8070003E071
:1016500001208DF80700FFE79DF8070002B07047F2
:1016600080B582B001900198FFF70AF900EE100AE8
:10167000B8EEC00B9FED041B80EE010B9FED041B29
:1016800020EE010B02B080BD000000000000E04031
:10169000000000000080664080B582B040F2EF207C
:1016A000C2F20040811C01900846FFF7D9FF40F2CA
:1016B000FC20C2F20040016881ED020B01990A1D75
:1016C00000901046FFF7CCFF0098016881ED000BF9
:1016D0000199881DFFF7C4FF0098016881ED040B94
:1016E00002B080BD0000000080B540F2FC20C2F2D4
:1016F0000040016800224A600A600168CA608A608E
:1017000000684261026100F003F880BD0000000043
:1017100080B582B040F2EE20C2F20040012101709B
:1017200040F2FA20C2F2004000220270007840F23B
:10173000EF22C2F20042104440F26C72C2F2004248
:1017400001901046019A00911146009A08F01CFB86
:10175000002803D0FFE7FFF7A7FEFFE702B080BD38
:1017600080B58AB0089003F01BFC0490089800280C
:1017700005D1FFE701208DF8270000F0B4BC0898E0
:1017800090F8350002280ED0FFE7089880214165C7
:10179000FFE70898002180F83410FFE701208DF85A
:1017A000270000F0A0BC0898006801211022C4F2B4
:1017B00002029042039100F0A380FFE708980068BE
:1017C00001212822C4F202029042039100F0988085
:1017D000FFE70898006801214022C4F2020290420B
:1017E000039100F08D80FFE70898006801215822DE
:1017F000C4F202029042039100F08280FFE7089851
:10180000006801217022C4F202029042039177D055
:10181000FFE70898006801218822C4F20202904282
:1018200003916DD0FFE7089800680121A022C4F25F
:1018300002029042039163D0FFE7089800680121FB
:10184000B822C4F202029042039159D0FFE70898EF
:101850000068012140F21042C4F20202904203915A
:101860004ED0FFE708980068012140F22842C4F2F8
:1018700002029042039143D0FFE7089800680121DB
:1018800040F24042C4F202029042039138D0FFE796
:1018900008980068012140F25842C4F202029042C6
:1018A00003912DD0FFE708980068012140F27042B3
:1018B000C4F202029042039122D0FFE70898006828
:1018C000012140F28842C4F202029042039117D0F3
:1018D000FFE708980068012140F2A042C4F202022A
:1018E000904203910CD0FFE7089800684FF648310A
:1018F000CBF6FD710844B0FA80F040090390FFE791
:101900000398C007002810D0FFE708980068016816
:1019100021F01E01016008980068416921F08001F2
:10192000416108980068059009E00898006801681E
:1019300021F00E010160089800680590FFE7089803
:10194000006801211022C4F202029042029100F0CC
:101950000381FFE70898006801212822C4F20202EF
:101960009042029100F0F880FFE70898006801219A
:101970004022C4F202029042029100F0ED80FFE7A3
:101980000898006801215822C4F202029042029194
:1019900000F0E280FFE70898006801217022C4F29D
:1019A00002029042029100F0D780FFE70898006899
:1019B00001218822C4F202029042029100F0CC8000
:1019C000FFE7089800680121A022C4F202029042B9
:1019D000029100F0C180FFE7089800680121B82259
:1019E000C4F202029042029100F0B680FFE708982C
:1019F0000068012140F21042C4F2020290420291BA
:101A000000F0AA80FFE708980068012140F2284210
:101A1000C4F202029042029100F09E80FFE7089813
:101A20000068012140F24042C4F202029042029159
:101A300000F09280FFE708980068012140F25842C8
:101A4000C4F202029042029100F08680FFE70898FB
:101A50000068012140F27042C4F2020290420291F9
:101A60007AD0FFE708980068012140F28842C4F26A
:101A70000202904202916FD0FFE7089800680121AE
:101A800040F2A042C4F202029042029164D0FFE709
:101A900008980068012140F2B842C4F20202904264
:101AA000029159D0FFE708980068012145F20842E9
:101AB000C5F60202904202914ED0FFE708980068F6
:101AC000012145F21C42C5F602029042029143D028
:101AD000FFE708980068012145F23042C5F602028E
:101AE0009042029138D0FFE708980068012145F242
:101AF0004442C5F60202904202912DD0FFE70898B9
:101B00000068012145F25842C5F602029042029156
:101B100022D0FFE708980068012145F26C42C5F623
:101B200002029042029117D0FFE708980068012155
:101B300045F28042C5F60202904202910CD0FFE7C6
:101B4000089800684AF66C31CAF2FD710844B0FA90
:101B500080F040090290FFE70298C007002807D0F4
:101B6000FFE70898006E016821F480710160FFE7CB
:101B7000089800681021C4F20201884200F08180B8
:101B8000FFE7089800682821C4F20201884278D053
:101B9000FFE7089800684021C4F20201884270D033
:101BA000FFE7089800685821C4F20201884268D013
:101BB000FFE7089800687021C4F20201884260D0F3
:101BC000FFE7089800688821C4F20201884258D0D3
:101BD000FFE708980068A021C4F20201884250D0B3
:101BE000FFE708980068B821C4F20201884248D093
:101BF000FFE70898006840F21041C4F202018842F1
:101C00003FD0FFE70898006840F22841C4F2020183
:101C1000884236D0FFE70898006840F24041C4F29D
:101C2000020188422DD0FFE70898006840F2584131
:101C3000C4F20201884224D0FFE70898006840F20D
:101C40007041C4F2020188421BD0FFE70898006887
:101C500040F28841C4F20201884212D0FFE708989E
:101C6000006840F2A041C4F20201884209D0FFE7B7
:101C70000898006840F2B841C4F20201884208D1D5
:101C8000FFE708980068016821F001010A46016039
:101C900007E008980068016821F001010A46016028
:101CA000FFE7FFE705980068C007002819D0FFE7A5
:101CB00003F076F90499401A062811D3FFE7089833
:101CC00020214165FFE70898002180F83410FFE7E4
:101CD0000898032180F8351001208DF8270002E2D2
:101CE000E0E70898006801211022C4F20202904245
:101CF000019100F0A380FFE70898006801212822E5
:101D0000C4F202029042019100F09880FFE7089827
:101D1000006801214022C4F202029042019100F0C9
:101D20008D80FFE70898006801215822C4F2020262
:101D30009042019100F08280FFE70898006801213D
:101D40007022C4F202029042019177D0FFE7089816
:101D5000006801218822C4F20202904201916DD0F4
:101D6000FFE7089800680121A022C4F20202904215
:101D7000019163D0FFE7089800680121B822C4F2FE
:101D800002029042019159D0FFE7089800680121B2
:101D900040F21042C4F20202904201914ED0FFE79D
:101DA00008980068012140F22842C4F202029042E1
:101DB000019143D0FFE708980068012140F24042BA
:101DC000C4F202029042019138D0FFE708980068FF
:101DD000012140F25842C4F20202904201912DD0FA
:101DE000FFE708980068012140F27042C4F2020245
:101DF0009042019122D0FFE708980068012140F24B
:101E00008842C4F202029042019117D0FFE708987D
:101E10000068012140F2A042C4F202029042019106
:101E20000CD0FFE7089800684FF64831CBF6FD71FB
:101E30000844B0FA80F040090190FFE70198C0071C
:101E400000280DD0FFE70898806D07900898C06DB6
:101E500000F01F003F2101FA00F0079988600CE0B4
:101E60000898806D06900898C06D00F01F00012151
:101E700001FA00F006994860FFE708980068012120
:101E80001022C4F202029042009100F00381FFE7A9
:101E90000898006801212822C4F2020290420091B1
:101EA00000F0F880FFE70898006801214022C4F2A2
:101EB00002029042009100F0ED80FFE70898006870
:101EC00001215822C4F202029042009100F0E28007
:101ED000FFE70898006801217022C4F202029042D4
:101EE000009100F0D780FFE7089800680121882260
:101EF000C4F202029042009100F0CC80FFE7089803
:101F000000680121A022C4F202029042009100F078
:101F1000C180FFE7089800680121B822C4F20202DC
:101F20009042009100F0B680FFE708980068012118
:101F300040F21042C4F202029042009100F0AA80E6
:101F4000FFE708980068012140F22842C4F202022B
:101F50009042009100F09E80FFE708980068012100
:101F600040F24042C4F202029042009100F092809E
:101F7000FFE708980068012140F25842C4F20202CB
:101F80009042009100F08680FFE7089800680121E8
:101F900040F27042C4F20202904200917AD0FFE710
:101FA00008980068012140F28842C4F2020290427F
:101FB00000916FD0FFE708980068012140F2A0422D
:101FC000C4F202029042009164D0FFE708980068D2
:101FD000012140F2B842C4F202029042009159D06D
:101FE000FFE708980068012145F20842C5F60202A1
:101FF000904200914ED0FFE708980068012145F219
:102000001C42C5F602029042009143D0FFE70898B7
:102010000068012145F23042C5F60202904200916B
:1020200038D0FFE708980068012145F24442C5F620
:102030000202904200912DD0FFE70898006801212C
:1020400045F25842C5F602029042009122D0FFE7C5
:1020500008980068012145F26C42C5F602029042E0
:10206000009117D0FFE708980068012145F28042EF
:10207000C5F60202904200910CD0FFE70898006874
:102080004AF66C31CAF2FD710844B0FA80F040099A
:102090000090FFE70098C007002815D0FFE70898D8
:1020A000416E806E48600898C06E00280BD0FFE734
:1020B0000898C06E016821F4807101600898016F72
:1020C000406F4860FFE7FFE7FFE70898002180F8CE
:1020D0003410FFE70898012180F83510FFE7002051
:1020E0008DF82700FFE79DF827000AB080BD0000AB
:1020F00080B586B004900498002804D1FFE7012041
:102100008DF817004EE3049890F83500022807D0A8
:10211000FFE704988021416501208DF8170041E315
:102120000498006801211022C4F202029042029138
:1021300000F0A380FFE70498006801212822C4F280
:1021400002029042029100F09880FFE70498006834
:1021500001214022C4F202029042029100F08D80DF
:10216000FFE70498006801215822C4F2020290425D
:10217000029100F08280FFE704980068012170223C
:10218000C4F202029042029177D0FFE704980068FF
:1021900001218822C4F20202904202916DD0FFE731
:1021A000049800680121A022C4F202029042029128
:1021B00063D0FFE7049800680121B822C4F202024C
:1021C0009042029159D0FFE704980068012140F243
:1021D0001042C4F20202904202914ED0FFE70498EE
:1021E0000068012140F22842C4F2020290420291AA
:1021F00043D0FFE704980068012140F24042C4F256
:1022000002029042029138D0FFE704980068012151
:1022100040F25842C4F20202904202912DD0FFE7F0
:1022200004980068012140F27042C4F20202904218
:10223000029122D0FFE704980068012140F2884211
:10224000C4F202029042029117D0FFE7049800689E
:10225000012140F2A042C4F20202904202910CD04D
:10226000FFE7049800684FF64831CBF6FD7108444B
:10227000B0FA80F040090290FFE70298C0070028FA
:1022800000F09F80FFE70498042180F8351004983F
:1022900000681021C4F20201884200F08180FFE74B
:1022A000049800682821C4F20201884278D0FFE730
:1022B000049800684021C4F20201884270D0FFE710
:1022C000049800685821C4F20201884268D0FFE7F0
:1022D000049800687021C4F20201884260D0FFE7D0
:1022E000049800688821C4F20201884258D0FFE7B0
:1022F00004980068A021C4F20201884250D0FFE790
:1023000004980068B821C4F20201884248D0FFE76F
:102310000498006840F21041C4F2020188423FD0A4
:10232000FFE70498006840F22841C4F202018842A5
:1023300036D0FFE70498006840F24041C4F2020141
:1023400088422DD0FFE70498006840F25841C4F25B
:102350000201884224D0FFE70498006840F27041EF
:10236000C4F2020188421BD0FFE70498006840F2E3
:102370008841C4F20201884212D0FFE70498006845
:1023800040F2A041C4F20201884209D0FFE704985C
:10239000006840F2B841C4F20201884208D1FFE768
:1023A00004980068016821F001010A46016007E015
:1023B00004980068016821F001010A460160FFE706
:1023C000EBE104980068016821F00E0101600498B7
:1023D00000681021C4F20201884200F08180FFE70A
:1023E000049800682821C4F20201884278D0FFE7EF
:1023F000049800684021C4F20201884270D0FFE7CF
:10240000049800685821C4F20201884268D0FFE7AE
:10241000049800687021C4F20201884260D0FFE78E
:10242000049800688821C4F20201884258D0FFE76E
:1024300004980068A021C4F20201884250D0FFE74E
:1024400004980068B821C4F20201884248D0FFE72E
:102450000498006840F21041C4F2020188423FD063
:10246000FFE70498006840F22841C4F20201884264
:1024700036D0FFE70498006840F24041C4F2020100
:1024800088422DD0FFE70498006840F25841C4F21A
:102490000201884224D0FFE70498006840F27041AE
:1024A000C4F2020188421BD0FFE70498006840F2A2
:1024B0008841C4F20201884212D0FFE70498006804
:1024C00040F2A041C4F20201884209D0FFE704981B
:1024D000006840F2B841C4F20201884208D1FFE727
:1024E00004980068016821F001010A46016007E0D4
:1024F00004980068016821F001010A460160FFE7C5
:102500000498006801211022C4F202029042019155
:1025100000F00381FFE70498006801212822C4F23B
:1025200002029042019100F0F880FFE704980068F1
:1025300001214022C4F202029042019100F0ED809C
:10254000FFE70498006801215822C4F20202904279
:10255000019100F0E280FFE70498006801217022F9
:10256000C4F202029042019100F0D780FFE7049884
:10257000006801218822C4F202029042019100F019
:10258000CC80FFE7049800680121A022C4F2020277
:102590009042019100F0C180FFE70498006801219A
:1025A000B822C4F202029042019100F0B680FFE727
:1025B00004980068012140F21042C4F202029042E5
:1025C000019100F0AA80FFE704980068012140F221
:1025D0002842C4F202029042019100F09E80FFE77F
:1025E00004980068012140F24042C4F20202904285
:1025F000019100F09280FFE704980068012140F209
:102600005842C4F202029042019100F08680FFE736
:1026100004980068012140F27042C4F20202904224
:1026200001917AD0FFE704980068012140F28842C6
:10263000C4F20202904201916FD0FFE70498006853
:10264000012140F2A042C4F202029042019164D002
:10265000FFE704980068012140F2B842C4F2020288
:102660009042019159D0FFE704980068012145F29A
:102670000842C5F60202904201914ED0FFE704984D
:102680000068012145F21C42C5F602029042019108
:1026900043D0FFE704980068012145F23042C5F6B7
:1026A00002029042019138D0FFE7049800680121AE
:1026B00045F24442C5F60202904201912DD0FFE757
:1026C00004980068012145F25842C5F60202904282
:1026D000019122D0FFE704980068012145F26C4285
:1026E000C5F602029042019117D0FFE704980068F6
:1026F000012145F28042C5F60202904201910CD0C0
:10270000FFE7049800684AF66C31CAF2FD7108448C
:10271000B0FA80F040090190FFE70198C007002857
:1027200027D0FFE70498006E016821F480710160F2
:102730000498806D03900498C06D00F01F00012183
:1027400001FA00F0039948600498416E806E486079
:102750000498C06E00280BD0FFE70498C06E016893
:1027600021F4807101600498016F406F4860FFE7B9
:10277000FFE7FFE70498002180F83410FFE7049892
:10278000012180F835100498006D002804D0FFE77F
:102790000498016D8847FFE7FFE7FFE700208DF809
:1027A0001700FFE79DF8170006B080BD000000008D
:1027B00080B590B00F9000200B9040F2B820C2F28C
:1027C0000040006848F2B511C1F64E31A0FB01018E
:1027D000890A0A910F99896D09910F99896D08915C
:1027E000099909680E91089909680D910F9909686E
:1027F00001221023C4F202039942079200F0A38041
:10280000FFE70F98006801212822C4F202029042DB
:10281000079100F09880FFE70F980068012140229F
:10282000C4F202029042079100F08D80FFE70F98FA
:10283000006801215822C4F202029042079100F080
:102840008280FFE70F98006801217022C4F2020223
:102850009042079177D0FFE70F9800680121882206
:10286000C4F20202904207916DD0FFE70F98006812
:102870000121A022C4F202029042079163D0FFE737
:102880000F9800680121B822C4F202029042079119
:1028900059D0FFE70F980068012140F21042C4F2BE
:1028A0000202904207914ED0FFE70F980068012185
:1028B00040F22842C4F202029042079143D0FFE75F
:1028C0000F980068012140F24042C4F20202904297
:1028D000079138D0FFE70F980068012140F2584275
:1028E000C4F20202904207912DD0FFE70F980068D2
:1028F000012140F27042C4F202029042079122D0BC
:10290000FFE70F980068012140F28842C4F20202FA
:102910009042079117D0FFE70F980068012140F21D
:10292000A042C4F20202904207910CD0FFE70F9838
:1029300000684FF64831CBF6FD710844B0FA80F0DC
:1029400040090790FFE70798C007002800F0298595
:10295000FFE70E980F99C96D01F01F01C8400007ED
:10296000002840F1B280FFE70F9800681021C4F200
:102970000201884200F08180FFE70F98006828215B
:10298000C4F20201884278D0FFE70F980068402126
:10299000C4F20201884270D0FFE70F980068582106
:1029A000C4F20201884268D0FFE70F9800687021E6
:1029B000C4F20201884260D0FFE70F9800688821C6
:1029C000C4F20201884258D0FFE70F980068A021A6
:1029D000C4F20201884250D0FFE70F980068B82186
:1029E000C4F20201884248D0FFE70F98006840F225
:1029F0001041C4F2020188423FD0FFE70F980068FF
:102A000040F22841C4F20201884236D0FFE70F9815
:102A1000006840F24041C4F2020188422DD0FFE735
:102A20000F98006840F25841C4F20201884224D055
:102A3000FFE70F98006840F27041C4F2020188423B
:102A40001BD0FFE70F98006840F28841C4F20201F2
:102A5000884212D0FFE70F98006840F2A041C4F20C
:102A60000201884209D0FFE70F98006840F2B841A0
:102A7000C4F20201884207D1FFE70F98006800689E
:102A800000F00400069006E00F980068006800F06F
:102A900008000690FFE70698002815D0FFE70F987A
:102AA0000068016821F0040101600F98C06D00F01A
:102AB0001F00082101FA00F0099988600F98416D04
:102AC00041F001014165FFE7FFE70E980F99C96DDD
:102AD00001F01F01C840C007002800F0AB80FFE7ED
:102AE0000F9800681021C4F20201884200F0818032
:102AF000FFE70F9800682821C4F20201884278D0CD
:102B0000FFE70F9800684021C4F20201884270D0AC
:102B1000FFE70F9800685821C4F20201884268D08C
:102B2000FFE70F9800687021C4F20201884260D06C
:102B3000FFE70F9800688821C4F20201884258D04C
:102B4000FFE70F980068A021C4F20201884250D02C
:102B5000FFE70F980068B821C4F20201884248D00C
:102B6000FFE70F98006840F21041C4F2020188426A
:102B70003FD0FFE70F98006840F22841C4F20201FD
:102B8000884236D0FFE70F98006840F24041C4F217
:102B9000020188422DD0FFE70F98006840F25841AB
:102BA000C4F20201884224D0FFE70F98006840F287
:102BB0007041C4F2020188421BD0FFE70F98006801
:102BC00040F28841C4F20201884212D0FFE70F9818
:102BD000006840F2A041C4F20201884209D0FFE738
:102BE0000F98006840F2B841C4F20201884207D150
:102BF000FFE70F980068406900F08000059005E04D
:102C00000F980068006800210591FFE705980028EB
:102C10000FD0FFE70F98C06D00F01F00012101FAEF
:102C200000F0099988600F98416D41F002014165FB
:102C3000FFE7FFE70E980F99C96D01F01F01C8402B
:102C40004007002840F1AB80FFE70F980068102193
:102C5000C4F20201884200F08180FFE70F9800680B
:102C60002821C4F20201884278D0FFE70F9800685B
:102C70004021C4F20201884270D0FFE70F9800683B
:102C80005821C4F20201884268D0FFE70F9800681B
:102C90007021C4F20201884260D0FFE70F980068FB
:102CA0008821C4F20201884258D0FFE70F980068DB
:102CB000A021C4F20201884250D0FFE70F980068BB
:102CC000B821C4F20201884248D0FFE70F9800689B
:102CD00040F21041C4F2020188423FD0FFE70F9852
:102CE000006840F22841C4F20201884236D0FFE772
:102CF0000F98006840F24041C4F2020188422DD092
:102D0000FFE70F98006840F25841C4F20201884280
:102D100024D0FFE70F98006840F27041C4F202012E
:102D200088421BD0FFE70F98006840F28841C4F248
:102D30000201884212D0FFE70F98006840F2A041DC
:102D4000C4F20201884209D0FFE70F98006840F200
:102D5000B841C4F20201884207D1FFE70F9800682A
:102D6000006800F00200049005E00F980068006819
:102D700000210491FFE7049800280FD0FFE70F9887
:102D8000C06D00F01F00042101FA00F0099988606D
:102D90000F98416D41F004014165FFE7FFE70E9890
:102DA0000F99C96D01F01F01C840C006002840F10D
:102DB000E280FFE70F9800681021C4F20201884208
:102DC00000F08180FFE70F9800682821C4F202011B
:102DD000884278D0FFE70F9800684021C4F20201D2
:102DE000884270D0FFE70F9800685821C4F20201B2
:102DF000884268D0FFE70F9800687021C4F2020192
:102E0000884260D0FFE70F9800688821C4F2020171
:102E1000884258D0FFE70F980068A021C4F2020151
:102E2000884250D0FFE70F980068B821C4F2020131
:102E3000884248D0FFE70F98006840F21041C4F282
:102E4000020188423FD0FFE70F98006840F2284116
:102E5000C4F20201884236D0FFE70F98006840F2C2
:102E60004041C4F2020188422DD0FFE70F9800686C
:102E700040F25841C4F20201884224D0FFE70F9883
:102E8000006840F27041C4F2020188421BD0FFE7A3
:102E90000F98006840F28841C4F20201884212D0C3
:102EA000FFE70F98006840F2A041C4F20201884297
:102EB00009D0FFE70F98006840F2B841C4F2020160
:102EC000884207D1FFE70F980068006800F008000B
:102ED000039006E00F980068006800F0040003907B
:102EE000FFE70398002845D0FFE70F98C06D00F07A
:102EF0001F00102101FA00F0099988600F980068FE
:102F00000068400300281CD5FFE70F9800680068A0
:102F1000000300280AD4FFE70F98006C002804D0B3
:102F2000FFE70F98016C8847FFE709E00F98806C76
:102F3000002804D0FFE70F98816C8847FFE7FFE780
:102F400017E00F9800680068C005002807D4FFE765
:102F50000F980068016821F008010160FFE70F98F1
:102F6000006C002804D0FFE70F98016C8847FFE74A
:102F7000FFE7FFE7FFE70E980F99C96D01F01F010A
:102F8000C8408006002840F12E81FFE70F980068B6
:102F90001021C4F20201884200F08180FFE70F98FF
:102FA00000682821C4F20201884278D0FFE70F9818
:102FB00000684021C4F20201884270D0FFE70F98F8
:102FC00000685821C4F20201884268D0FFE70F98D8
:102FD00000687021C4F20201884260D0FFE70F98B8
:102FE00000688821C4F20201884258D0FFE70F9898
:102FF0000068A021C4F20201884250D0FFE70F9878
:103000000068B821C4F20201884248D0FFE70F9857
:10301000006840F21041C4F2020188423FD0FFE74D
:103020000F98006840F22841C4F20201884236D06D
:10303000FFE70F98006840F24041C4F20201884265
:103040002DD0FFE70F98006840F25841C4F202010A
:10305000884224D0FFE70F98006840F27041C4F224
:10306000020188421BD0FFE70F98006840F28841B8
:10307000C4F20201884212D0FFE70F98006840F2C4
:10308000A041C4F20201884209D0FFE70F9800680E
:1030900040F2B841C4F20201884207D1FFE70F981D
:1030A0000068006800F01000029006E00F980068C9
:1030B000006800F002000290FFE70298002800F08C
:1030C0009180FFE70F98C06D00F01F00202101FAEA
:1030D00000F0099988600F9890F8350004283BD1DA
:1030E000FFE70F980068016821F0160101600F9852
:1030F0000068416921F0800141610F98006C00284F
:1031000005D1FFE70F98806C002807D0FFE70F98E4
:103110000068016821F008010160FFE70F98C06DA9
:1031200000F01F003F2101FA00F009998860FFE7D5
:103130000F98002180F83410FFE70F98012180F8E4
:1031400035100F98006D002804D0FFE70F98016D2F
:103150008847FFE700F032BC0F9800680068400322
:1031600000281CD5FFE70F980068006800030028BE
:103170000AD4FFE70F98406C002804D0FFE70F98AF
:10318000416C8847FFE709E00F98C06B002804D026
:10319000FFE70F98C16B8847FFE7FFE721E00F9833
:1031A00000680068C005002811D4FFE70F98006888
:1031B000016821F010010160FFE70F98002180F8FD
:1031C0003410FFE70F98012180F83510FFE70F98C2
:1031D000C06B002804D0FFE70F98C16B8847FFE75A
:1031E000FFE7FFE7FFE70F98406D002800F0D88069
:1031F000FFE70F98406DC007002800F0C780FFE789
:103200000F98042180F835100F9800681021C4F23F
:103210000201884200F08180FFE70F9800682821B2
:10322000C4F20201884278D0FFE70F98006840217D
:10323000C4F20201884270D0FFE70F98006858215D
:10324000C4F20201884268D0FFE70F98006870213D
:10325000C4F20201884260D0FFE70F98006888211D
:10326000C4F20201884258D0FFE70F980068A021FD
:10327000C4F20201884250D0FFE70F980068B821DD
:10328000C4F20201884248D0FFE70F98006840F27C
:103290001041C4F2020188423FD0FFE70F98006856
:1032A00040F22841C4F20201884236D0FFE70F986D
:1032B000006840F24041C4F2020188422DD0FFE78D
:1032C0000F98006840F25841C4F20201884224D0AD
:1032D000FFE70F98006840F27041C4F20201884293
:1032E0001BD0FFE70F98006840F28841C4F202014A
:1032F000884212D0FFE70F98006840F2A041C4F264
:103300000201884209D0FFE70F98006840F2B841F7
:10331000C4F20201884208D1FFE70F9800680168F3
:1033200021F001010A46016007E00F98006801687A
:1033300021F001010A460160FFE7FFE70B98013029
:103340000B900A99884201D9FFE707E0FFE70F9841
:1033500000680068C0070028F0D1FFE7FFE70F987A
:10336000002180F83410FFE70F9800680068C0075C
:10337000002805D0FFE70F98032180F8351004E0FE
:103380000F98012180F83510FFE7FFE70F98C06C18
:10339000002804D0FFE70F98C16C8847FFE7FFE7DC
:1033A0000CE30F980068012145F20842C5F60202BD
:1033B000904201914ED0FFE70F980068012145F23D
:1033C0001C42C5F602029042019143D0FFE70F98DC
:1033D0000068012145F23042C5F602029042019197
:1033E00038D0FFE70F980068012145F24442C5F646
:1033F0000202904201912DD0FFE70F980068012151
:1034000045F25842C5F602029042019122D0FFE7F0
:103410000F980068012145F26C42C5F60202904205
:10342000019117D0FFE70F980068012145F2804213
:10343000C5F60202904201910CD0FFE70F98006898
:103440004AF66C31CAF2FD710844B0FA80F04009C6
:103450000190FFE70198C007002800F0AD82FFE768
:103460000F98006800680C900D980F99C96D01F0D5
:103470001F01C8404007002840F1DE80FFE79DF8AB
:1034800030004007002840F1D780FFE70F98C06D5B
:1034900000F01F00042101FA00F0089948609DF82F
:1034A0003100000600281BD5FFE79DF83200C00759
:1034B00000280AD1FFE70F98806C002804D0FFE7AE
:1034C0000F98816C8847FFE709E00F98006C00288F
:1034D00004D0FFE70F98016C8847FFE7FFE7AAE0F9
:1034E0009DF830008006002800F19B80FFE70F98D0
:1034F00000681021C4F20201884200F08180FFE7D9
:103500000F9800682821C4F20201884278D0FFE7B2
:103510000F9800684021C4F20201884270D0FFE792
:103520000F9800685821C4F20201884268D0FFE772
:103530000F9800687021C4F20201884260D0FFE752
:103540000F9800688821C4F20201884258D0FFE732
:103550000F980068A021C4F20201884250D0FFE712
:103560000F980068B821C4F20201884248D0FFE7F2
:103570000F98006840F21041C4F2020188423FD027
:10358000FFE70F98006840F22841C4F20201884228
:1035900036D0FFE70F98006840F24041C4F20201C4
:1035A00088422DD0FFE70F98006840F25841C4F2DE
:1035B0000201884224D0FFE70F98006840F2704172
:1035C000C4F2020188421BD0FFE70F98006840F266
:1035D0008841C4F20201884212D0FFE70F980068C8
:1035E00040F2A041C4F20201884209D0FFE70F98DF
:1035F000006840F2B841C4F20201884208D1FFE7F6
:103600000F980068016821F008010A46016007E090
:103610000F980068016821F004010A460160FFE785
:10362000FFE70F98006C002804D0FFE70F98016CAB
:103630008847FFE7FFE7BEE10D980F99C96D01F0DC
:103640001F01C8408007002840F1E880FFE79DF88F
:1036500030008007002840F1E180FFE70F98C06D3F
:1036600000F01F00022101FA00F0089948609DF85F
:103670003100000600281BD5FFE79DF83200C00787
:1036800000280AD1FFE70F98406C002804D0FFE71C
:103690000F98416C8847FFE709E00F98C06B00283E
:1036A00004D0FFE70F98C16B8847FFE7FFE7B4E05E
:1036B0009DF830008006002800F1A580FFE70F98F4
:1036C00000681021C4F20201884200F08180FFE707
:1036D0000F9800682821C4F20201884278D0FFE7E1
:1036E0000F9800684021C4F20201884270D0FFE7C1
:1036F0000F9800685821C4F20201884268D0FFE7A1
:103700000F9800687021C4F20201884260D0FFE780
:103710000F9800688821C4F20201884258D0FFE760
:103720000F980068A021C4F20201884250D0FFE740
:103730000F980068B821C4F20201884248D0FFE720
:103740000F98006840F21041C4F2020188423FD055
:10375000FFE70F98006840F22841C4F20201884256
:1037600036D0FFE70F98006840F24041C4F20201F2
:1037700088422DD0FFE70F98006840F25841C4F20C
:103780000201884224D0FFE70F98006840F27041A0
:10379000C4F2020188421BD0FFE70F98006840F294
:1037A0008841C4F20201884212D0FFE70F980068F6
:1037B00040F2A041C4F20201884209D0FFE70F980D
:1037C000006840F2B841C4F20201884208D1FFE724
:1037D0000F980068016821F014010A46016007E0B3
:1037E0000F980068016821F00A010A460160FFE7AE
:1037F000FFE70F98002180F83410FFE70F980121B0
:1038000080F83510FFE70F98C06B002804D0FFE761
:103810000F98C16B8847FFE7FFE7CBE00D980F9942
:10382000C96D01F01F01C8400007002840F1C080A9
:10383000FFE79DF830000007002840F1B980FFE75E
:103840000F9800681021C4F20201884200F08180C4
:10385000FFE70F9800682821C4F20201884278D05F
:10386000FFE70F9800684021C4F20201884270D03F
:10387000FFE70F9800685821C4F20201884268D01F
:10388000FFE70F9800687021C4F20201884260D0FF
:10389000FFE70F9800688821C4F20201884258D0DF
:1038A000FFE70F980068A021C4F20201884250D0BF
:1038B000FFE70F980068B821C4F20201884248D09F
:1038C000FFE70F98006840F21041C4F202018842FD
:1038D0003FD0FFE70F98006840F22841C4F2020190
:1038E000884236D0FFE70F98006840F24041C4F2AA
:1038F000020188422DD0FFE70F98006840F258413E
:10390000C4F20201884224D0FFE70F98006840F219
:103910007041C4F2020188421BD0FFE70F98006893
:1039200040F28841C4F20201884212D0FFE70F98AA
:10393000006840F2A041C4F20201884209D0FFE7CA
:103940000F98006840F2B841C4F20201884208D1E1
:10395000FFE70F980068016821F01C010A4601602A
:1039600007E00F980068016821F00E010A46016027
:10397000FFE70F98C06D00F01F00012101FA00F071
:10398000089A50600F984165FFE70F98002180F872
:103990003410FFE70F98012180F835100F98C06CA4
:1039A000002804D0FFE70F98C16C8847FFE700E0CC
:1039B000FFE7FFE7FFE700E0FFE7FFE710B080BDAC
:1039C00080B58EB00C9001F0EBFA0A900C980028AC
:1039D00005D1FFE701208DF8370000F0ADBC0C9851
:1039E000006801211022C4F202029042079100F007
:1039F000A380FFE70C98006801212822C4F202028C
:103A00009042079100F09880FFE70C980068012130
:103A10004022C4F202029042079100F08D80FFE73D
:103A20000C98006801215822C4F2020290420791CA
:103A300000F08280FFE70C98006801217022C4F238
:103A400002029042079177D0FFE70C9800680121AD
:103A50008822C4F20202904207916DD0FFE70C98D1
:103A600000680121A022C4F202029042079163D0B3
:103A7000FFE70C9800680121B822C4F202029042CC
:103A8000079159D0FFE70C980068012140F21042DD
:103A9000C4F20202904207914ED0FFE70C980068F2
:103AA000012140F22842C4F202029042079143D021
:103AB000FFE70C980068012140F24042C4F2020284
:103AC0009042079138D0FFE70C980068012140F23E
:103AD0005842C4F20202904207912DD0FFE70C98A1
:103AE0000068012140F27042C4F202029042079144
:103AF00022D0FFE70C980068012140F28842C4F20E
:103B000002029042079117D0FFE70C98006801214C
:103B100040F2A042C4F20202904207910CD0FFE7AB
:103B20000C9800684FF64831CBF6FD710844B0FAA6
:103B300080F040090790FFE70798C007002800F0D1
:103B40008181FFE70C98406A002801D0FFE7FFE77A
:103B5000FFE70C98002180F83410FFE70C98022151
:103B600080F835100C9800681021C4F202018842D8
:103B700000F08180FFE70C9800682821C4F2020160
:103B8000884278D0FFE70C9800684021C4F2020117
:103B9000884270D0FFE70C9800685821C4F20201F7
:103BA000884268D0FFE70C9800687021C4F20201D7
:103BB000884260D0FFE70C9800688821C4F20201B7
:103BC000884258D0FFE70C980068A021C4F2020197
:103BD000884250D0FFE70C980068B821C4F2020177
:103BE000884248D0FFE70C98006840F21041C4F2C8
:103BF000020188423FD0FFE70C98006840F228415C
:103C0000C4F20201884236D0FFE70C98006840F207
:103C10004041C4F2020188422DD0FFE70C980068B1
:103C200040F25841C4F20201884224D0FFE70C98C8
:103C3000006840F27041C4F2020188421BD0FFE7E5
:103C40000C98006840F28841C4F20201884212D008
:103C5000FFE70C98006840F2A041C4F202018842DC
:103C600009D0FFE70C98006840F2B841C4F20201A5
:103C7000884208D1FFE70C980068016821F0010133
:103C80000A46016007E00C980068016821F0010114
:103C90000A460160FFE7FFE70C9800680068C0076C
:103CA000002813D0FFE701F07BF90A99401A062893
:103CB0000BD3FFE70C98202141650C98032180F875
:103CC000351001208DF8370036E3E5E70C980068E1
:103CD00000680B900B9848F23F01CFF61061084046
:103CE0000B900C988168C2680369D0F814C0114326
:103CF000194341EA0C0182691143C2691143006A08
:103D000008430B9908430B900C98406A042808D18B
:103D1000FFE70C98C16A006B08430B9908430B90AE
:103D2000FFE741F20000C5F6004000684FF6FF7162
:103D30008843B0F1005F41D3FFE70C984068292821
:103D400007D3FFE70C98406801212F2806912AD35A
:103D5000FFE70C9840683F2807D3FFE70C984068BE
:103D60000121432806911ED3FFE70C98406847289D
:103D700007D3FFE70C98406801214928069112D328
:103D8000FFE70C98406800214F28059108D3FFE712
:103D90000C9840680021532838BF01210591FFE7A6
:103DA00005980690FFE70698C007002805D0FFE7B2
:103DB0000B9840F480100B90FFE7FFE70B980C99ED
:103DC000096808600C98006840690B900B9820F017
:103DD00007000B900C98406A0B9908430B900C98C5
:103DE000406A04281CD1FFE70C98806A0B990843AD
:103DF0000B900C98C06A002811D0FFE70C98FCF7D4
:103E0000A3FF00280AD0FFE70C98402141650C98D9
:103E1000012180F835108DF837108DE2FFE7FFE7BC
:103E20000B980C99096848610C98FCF74DFD0990B6
:103E30000C98C06D00F01F003F2101FA00F00999B5
:103E400088602AE10C980068012145F20842C5F615
:103E50000202904204914ED0FFE70C9800680121C5
:103E600045F21C42C5F602029042049143D0FFE79E
:103E70000C980068012145F23042C5F602029042DA
:103E8000049138D0FFE70C980068012145F24442C4
:103E9000C5F60202904204912DD0FFE70C9800680D
:103EA000012145F25842C5F602029042049122D007
:103EB000FFE70C980068012145F26C42C5F602024A
:103EC0009042049117D0FFE70C980068012145F259
:103ED0008042C5F60202904204910CD0FFE70C9894
:103EE00000684AF66C31CAF2FD710844B0FA80F0FD
:103EF00040090490FFE70498C007002800F0C18043
:103F0000FFE70C980068012145F20842C5F602025D
:103F1000904203914ED0FFE70C980068012145F2D2
:103F20001C42C5F602029042039143D0FFE70C9871
:103F30000068012145F23042C5F602029042039129
:103F400038D0FFE70C980068012145F24442C5F6DD
:103F50000202904203912DD0FFE70C9800680121E6
:103F600045F25842C5F602029042039122D0FFE783
:103F70000C980068012145F26C42C5F6020290429D
:103F8000039117D0FFE70C980068012145F28042A9
:103F9000C5F60202904203910CD0FFE70C9800682E
:103FA0004AF66C31CAF2FD710844B0FA80F040095B
:103FB0000390FFE70398C007002801D0FFE7FFE761
:103FC000FFE70C98002180F83410FFE70C980221DD
:103FD00080F835100C98006800680B900B986FF310
:103FE00010100B900C988068402803D1FFE7102038
:103FF000029008E00C9880688038B0FA80F04009A0
:1040000080030290FFE702980C99CA680B69D1F807
:1040100014C0D1F818E040EAD20040EAD30040EAE8
:10402000DC0040EADE00CA6940EAD200096A40EAE0
:1040300011100B9908430B900B980C9909680860B4
:104040000C9801684AF6F832CAF2FD7211444CF637
:10405000CD42CCF6CC42A1FB02126FF0030303EA7F
:104060009202C2650C980191FCF72EFC08900C9806
:10407000C06D00F01F00012101FA00F008994860AE
:104080000AE00C98402141650C98032180F8351016
:1040900001208DF837004FE1FFE70C9800680121FF
:1040A0001022C4F202029042009100F00381FFE767
:1040B0000C98006801212822C4F20202904200916B
:1040C00000F0F880FFE70C98006801214022C4F25C
:1040D00002029042009100F0ED80FFE70C9800682A
:1040E00001215822C4F202029042009100F0E280C5
:1040F000FFE70C98006801217022C4F2020290428E
:10410000009100F0D780FFE70C9800680121882219
:10411000C4F202029042009100F0CC80FFE70C98BC
:1041200000680121A022C4F202029042009100F036
:10413000C180FFE70C9800680121B822C4F2020296
:104140009042009100F0B680FFE70C9800680121D2
:1041500040F21042C4F202029042009100F0AA80A4
:10416000FFE70C980068012140F22842C4F20202E5
:104170009042009100F09E80FFE70C9800680121BA
:1041800040F24042C4F202029042009100F092805C
:10419000FFE70C980068012140F25842C4F2020285
:1041A0009042009100F08680FFE70C9800680121A2
:1041B00040F27042C4F20202904200917AD0FFE7CE
:1041C0000C980068012140F28842C4F20202904239
:1041D00000916FD0FFE70C980068012140F2A042E7
:1041E000C4F202029042009164D0FFE70C9800688C
:1041F000012140F2B842C4F202029042009159D02B
:10420000FFE70C980068012145F20842C5F602025A
:10421000904200914ED0FFE70C980068012145F2D2
:104220001C42C5F602029042009143D0FFE70C9871
:104230000068012145F23042C5F602029042009129
:1042400038D0FFE70C980068012145F24442C5F6DA
:104250000202904200912DD0FFE70C9800680121E6
:1042600045F25842C5F602029042009122D0FFE783
:104270000C980068012145F26C42C5F6020290429A
:10428000009117D0FFE70C980068012145F28042A9
:10429000C5F60202904200910CD0FFE70C9800682E
:1042A0004AF66C31CAF2FD710844B0FA80F0400958
:1042B0000090FFE70098C007002833D0FFE70C9874
:1042C000FCF7EAFB0C988068802804D1FFE70C9883
:1042D00000214160FFE70C980179006E01600C98A5
:1042E000416E806E48600C984068002811D0FFE74E
:1042F0000C98406808280CD8FFE70C98FCF78CFC59
:104300000C98C06E002101600C98016F406F4860EE
:1043100007E00C980021C1660C9801670C98416772
:10432000FFE7FFE70C98002141650C98012280F817
:1043300035208DF83710FFE79DF837000EB080BDAF
:1043400080B588B0069005910492039300208DF803
:104350000B000698002804D1FFE701208DF81F000C
:1043600075E3FFE7069890F83400012804D1FFE7D1
:1043700002208DF81F006AE30698012180F83410AE
:10438000FFE7FFE7069890F83500012840F04C83DE
:10439000FFE70698022180F8351006980021416554
:1043A000069800681021C4F20201884200F0818062
:1043B000FFE7069800682821C4F20201884278D0FD
:1043C000FFE7069800684021C4F20201884270D0DD
:1043D000FFE7069800685821C4F20201884268D0BD
:1043E000FFE7069800687021C4F20201884260D09D
:1043F000FFE7069800688821C4F20201884258D07D
:10440000FFE706980068A021C4F20201884250D05C
:10441000FFE706980068B821C4F20201884248D03C
:10442000FFE70698006840F21041C4F2020188429A
:104430003FD0FFE70698006840F22841C4F202012D
:10444000884236D0FFE70698006840F24041C4F247
:10445000020188422DD0FFE70698006840F25841DB
:10446000C4F20201884224D0FFE70698006840F2B7
:104470007041C4F2020188421BD0FFE70698006831
:1044800040F28841C4F20201884212D0FFE7069848
:10449000006840F2A041C4F20201884209D0FFE75F
:1044A0000698006840F2B841C4F20201884208D17F
:1044B000FFE706980068016821F001010A460160E3
:1044C00007E006980068016821F001010A460160D2
:1044D000FFE706980599049A039BFCF7B1FC069840
:1044E000006801211022C4F202029042019100F002
:1044F000A380FFE70698006801212822C4F2020287
:104500009042019100F09880FFE706980068012131
:104510004022C4F202029042019100F08D80FFE738
:104520000698006801215822C4F2020290420191CB
:1045300000F08280FFE70698006801217022C4F233
:1045400002029042019177D0FFE7069800680121AE
:104550008822C4F20202904201916DD0FFE70698D2
:1045600000680121A022C4F202029042019163D0AE
:10457000FFE7069800680121B822C4F202029042C7
:10458000019159D0FFE706980068012140F21042DE
:10459000C4F20202904201914ED0FFE706980068F3
:1045A000012140F22842C4F202029042019143D01C
:1045B000FFE706980068012140F24042C4F202027F
:1045C0009042019138D0FFE706980068012140F23F
:1045D0005842C4F20202904201912DD0FFE70698A2
:1045E0000068012140F27042C4F20202904201913F
:1045F00022D0FFE706980068012140F28842C4F209
:1046000002029042019117D0FFE70698006801214D
:1046100040F2A042C4F20202904201910CD0FFE7A6
:10462000069800684FF64831CBF6FD710844B0FAA1
:1046300080F040090190FFE70198C007002816D0DC
:10464000FFE70698006800680B2161F344000699B3
:10465000096808600698006C002807D0FFE70698F4
:104660000068016841F008010160FFE715E0069865
:1046700000680068052161F3430006990968086035
:104680000698006C002807D0FFE7069800680168CC
:1046900041F004010160FFE7FFE70698006801218F
:1046A0001022C4F202029042009100F00381FFE761
:1046B0000698006801212822C4F20202904200916B
:1046C00000F0F880FFE70698006801214022C4F25C
:1046D00002029042009100F0ED80FFE7069800682A
:1046E00001215822C4F202029042009100F0E280BF
:1046F000FFE70698006801217022C4F2020290428E
:10470000009100F0D780FFE7069800680121882219
:10471000C4F202029042009100F0CC80FFE70698BC
:1047200000680121A022C4F202029042009100F030
:10473000C180FFE7069800680121B822C4F2020296
:104740009042009100F0B680FFE7069800680121D2
:1047500040F21042C4F202029042009100F0AA809E
:10476000FFE706980068012140F22842C4F20202E5
:104770009042009100F09E80FFE7069800680121BA
:1047800040F24042C4F202029042009100F0928056
:10479000FFE706980068012140F25842C4F2020285
:1047A0009042009100F08680FFE7069800680121A2
:1047B00040F27042C4F20202904200917AD0FFE7C8
:1047C00006980068012140F28842C4F20202904239
:1047D00000916FD0FFE706980068012140F2A042E7
:1047E000C4F202029042009164D0FFE7069800688C
:1047F000012140F2B842C4F202029042009159D025
:10480000FFE706980068012145F20842C5F602025A
:10481000904200914ED0FFE706980068012145F2D2
:104820001C42C5F602029042009143D0FFE7069871
:104830000068012145F23042C5F602029042009123
:1048400038D0FFE706980068012145F24442C5F6DA
:104850000202904200912DD0FFE7069800680121E6
:1048600045F25842C5F602029042009122D0FFE77D
:1048700006980068012145F26C42C5F6020290429A
:10488000009117D0FFE706980068012145F28042A9
:10489000C5F60202904200910CD0FFE7069800682E
:1048A0004AF66C31CAF2FD710844B0FA80F0400952
:1048B0000090FFE70098C00700281BD0FFE706988C
:1048C000006E0068C003002807D5FFE70698006E59
:1048D000016841F480710160FFE70698C06E00280E
:1048E00007D0FFE70698C06E016841F4807101604F
:1048F000FFE7FFE7069800681021C4F20201884232
:1049000000F08180FFE7069800682821C4F20201C8
:10491000884278D0FFE7069800684021C4F202017F
:10492000884270D0FFE7069800685821C4F202015F
:10493000884268D0FFE7069800687021C4F202013F
:10494000884260D0FFE7069800688821C4F202011F
:10495000884258D0FFE706980068A021C4F20201FF
:10496000884250D0FFE706980068B821C4F20201DF
:10497000884248D0FFE70698006840F21041C4F230
:10498000020188423FD0FFE70698006840F22841C4
:10499000C4F20201884236D0FFE70698006840F270
:1049A0004041C4F2020188422DD0FFE7069800681A
:1049B00040F25841C4F20201884224D0FFE7069831
:1049C000006840F27041C4F2020188421BD0FFE748
:1049D0000698006840F28841C4F20201884212D071
:1049E000FFE70698006840F2A041C4F20201884245
:1049F00009D0FFE70698006840F2B841C4F202010E
:104A0000884208D1FFE706980068016841F001017B
:104A10000A46016007E006980068016841F001015C
:104A20000A460160FFE70DE0FFE70698002180F8E5
:104A30003410FFE706984FF40061416501208DF8BE
:104A40000B00FFE79DF80B008DF81F00FFE79DF8B6
:104A50001F0008B080BD000080B584B0039000F056
:104A60009FFA02900398019001980130002809D024
:104A7000FFE740F2D020C2F20040007801990844DC
:104A80000190FFE7FFE700F08BFA0299401A0199C5
:104A9000884201D2FFE7F6E704B080BD00000000C5
:104AA00080B582B00146ADF80600BDF806000246AA
:104AB000082800920DD0FFE70098B0F5807F0BD05A
:104AC000FFE70098B0F5805F09D1FFE705F044FEED
:104AD00005E006F059FD02E006F032FCFFE702B007
:104AE00080BD00000000000080B582B00146ADF836
:104AF00006008820C5F600000068BDF806201042B8
:104B00000BD0FFE7BDF806008821C5F6000108605C
:104B1000BDF80600FFF7C4FFFFE702B080BD00004C
:104B200090B00F900E9100200D908020C5F60000EF
:104B30000A90FFE70E9800680D99C840002800F021
:104B4000D681FFE70E9800680D99012202FA01F163
:104B500008400C900C98002800F0C581FFE70E98E3
:104B6000406801280FD0FFE70E98406802280AD05D
:104B7000FFE70E984068112805D0FFE70E984068BF
:104B800012282FD1FFE70F9880680B900D984000F6
:104B9000032101FA00F00B9921EA00000B900E9816
:104BA000C0680D99490088400B9908430B900B98F9
:104BB0000F9988600F9840680B900D98012101FAB9
:104BC00000F00B9921EA00000B900E984068C0F3AA
:104BD00000100D9988400B9908430B900B980F9982
:104BE0004860FFE70F98C0680B900D9840000321C4
:104BF00001FA00F00B9921EA00000B900E988068F2
:104C00000D99490088400B9908430B900B980F9918
:104C1000C8600E984068022805D0FFE70E984068EB
:104C2000122826D1FFE70F980D996FF0030202EAD0
:104C300051010844006A0B900D9800F007008000B5
:104C40000F2101FA00F00B9921EA00000B900E9859
:104C500000690D9901F00701890088400B9908430C
:104C60000B900B980F990D9B02EA530211440862B6
:104C7000FFE70F9800680B900D984000032101FAA0
:104C800000F00B9921EA00000B900E98406800F0AC
:104C900003000D99490088400B9908430B900B982D
:104CA0000F9908600E98C079C006002840F11A815B
:104CB000FFE7FFE744F2F440C5F60200016841F067
:104CC00002010160006800F0020009900998FFE706
:104CD0000D9820F0030040F20841C5F6000140584D
:104CE0000B900D9800F0030080000F2101FA00F0F6
:104CF0000B9921EA00000B900F980021C5F60201E4
:104D0000884203D1FFE7002008907AE00F9840F234
:104D10000041C5F60201884203D1FFE70120079058
:104D20006CE00F9840F60001C5F60201884203D1FD
:104D3000FFE7022006905EE00F9840F60041C5F6BE
:104D40000201884203D1FFE70320059050E00F984D
:104D500041F20001C5F60201884203D1FFE70420B9
:104D6000049042E00F9841F20041C5F602018842EA
:104D700003D1FFE70520039034E00F9841F60001CE
:104D8000C5F60201884203D1FFE70620029026E023
:104D90000F9841F60041C5F60201884203D1FFE7B2
:104DA0000720019018E00F9842F20001C5F60201B9
:104DB000884203D1FFE7082000900AE00F9842F2F2
:104DC0000041C5F602010A22884208BF092200926A
:104DD000FFE700980190FFE701980290FFE7029833
:104DE0000390FFE703980490FFE704980590FFE71E
:104DF00005980690FFE706980790FFE70798089048
:104E0000FFE708980D9901F00301890088400B998C
:104E100008430B900B980D9921F0030140F20842D2
:104E2000C5F6000288500A9800680B900C980B9900
:104E300021EA00000B900E988079C007002805D069
:104E4000FFE70C980B9908430B90FFE70B980A9922
:104E500008600A9840680B900C980B9921EA0000B2
:104E60000B900E9880798007002805D5FFE70C98F5
:104E70000B9908430B90FFE70B980A9948604FF095
:104E8000B04000680B900C980B9921EA00000B9041
:104E90000E988079C006002805D5FFE70C980B997D
:104EA00008430B90FFE70B984FF0B04108600420D7
:104EB000C5F6000000680B900C980B9921EA0000E1
:104EC0000B900E9880798006002805D5FFE70C9896
:104ED0000B9908430B90FFE70B980421C5F60001DE
:104EE0000860FFE7FFE70D9801300D9022E610B053
:104EF000704700000000000082B00A460190ADF843
:104F0000021001980069BDF80210084204D0FFE7C2
:104F100001208DF8010003E000208DF80100FFE77B
:104F20009DF8010002B0704783B00A460290ADF8C8
:104F300006100298406900900098BDF8061000EA3B
:104F4000010321EA000040EA03400299886103B0AE
:104F5000704700000000000082B013468C460190AC
:104F6000ADF802108DF801209DF80100002805D051
:104F7000FFE7BDF802000199886105E0BDF8020075
:104F8000000401998861FFE702B07047000000004B
:104F900041F20000C5F600400068000C70470000B8
:104FA00040F60400C2F200400068704700000000B4
:104FB00083B001900091019890F8410020283BD1E6
:104FC000FFE7FFE7019890F84000012804D1FFE7D0
:104FD00002208DF80B0033E00198012180F8401089
:104FE000FFE7FFE70198242180F84110019800684D
:104FF000016821F00101016001980068016821F455
:10500000805101600098019909680A68104308609E
:1050100001980068016841F00101016001982021B8
:1050200080F84110FFE70198002180F84010FFE769
:1050300000208DF80B0003E002208DF80B00FFE745
:105040009DF80B0003B0704784B002900191029864
:1050500090F84100202840D1FFE7FFE7029890F840
:105060004000012804D1FFE702208DF80F0038E04E
:105070000298012180F84010FFE7FFE70298242101
:1050800080F8411002980068016821F00101016078
:105090000298006800680090009820F4706000900A
:1050A0000198009941EA002000900098029909684F
:1050B000086002980068016841F0010101600298EF
:1050C000202180F84110FFE70298002180F840106D
:1050D000FFE700208DF80F0003E002208DF80F009D
:1050E000FFE79DF80F0004B07047000000000000CB
:1050F00080B582B000900098002804D1FFE701201D
:105100008DF8070074E0009890F84100002808D15D
:10511000FFE70098002180F84010009800F09CFA0A
:10512000FFE70098242180F841100098006801688A
:1051300021F00101016000980168406820F0706072
:10514000086100980068816821F40041816000983E
:10515000C068012807D1FFE700980168806840F423
:105160000040886006E000980168806840F40440D0
:105170008860FFE70098C068022806D1FFE7009822
:1051800000684FF400614160FFE7009800684168E3
:1051900048F20002C0F2002211434160009800680A
:1051A000C16821F40041C160009801680269436947
:1051B00080691A4342EA0020C86000980168C26909
:1051C000006A1043086000980068016841F001011E
:1051D00001600098002141640098202280F841205D
:1051E00000980163009880F842108DF80710FFE7DF
:1051F0009DF8070002B080BD10B588B0DDF828C06A
:105200009E460C460690ADF816100492ADF80E308E
:10521000069890F84100202840F0FE80FFE7FFE765
:10522000069890F84000012804D1FFE702208DF88D
:105230001F00F5E00698012180F84010FFE7FFE726
:10524000FFF7AEFE0290069802996A4611604FF48D
:1052500000410122192305F00FF9002804D0FFE7CF
:1052600001208DF81F00DBE00698222180F8411014
:105270000698102180F84210069800214164049895
:10528000069A5062BDF80E00069A50850698416352
:105290000698408DB0F5807F14D3FFE70698FF2174
:1052A00001850698BDF8161090F828206B4642F24A
:1052B000004CC8F2000CC3F800C04FF0807305F03A
:1052C000B3F814E00698408D069908850698BDF855
:1052D000161090F828206B4642F2004CC8F2000CE1
:1052E000C3F800C04FF0007305F09EF8FFE7FFE73A
:1052F0000698408D002865D0FFE706980A99029A23
:1053000005F006F9002804D0FFE701208DF81F0002
:1053100086E006980068406A0699496A087006980F
:10532000416A013141620698018D01390185069873
:10533000418D013941850698408D002841D0FFE715
:105340000698008D00283CD1FFE706980A9B029939
:105350006A4611608021002205F08EF8002804D0F2
:10536000FFE701208DF81F005AE00698408DB0F548
:10537000807F12D3FFE70698FF2101850698BDF8CC
:10538000161090F828206B464FF0000CC3F800C0B0
:105390004FF0807305F048F812E00698408D0699AA
:1053A00008850698BDF8161090F828206B464FF037
:1053B000000CC3F800C04FF0007305F035F8FFE7AC
:1053C000FFE795E706980A99029A05F025F9002863
:1053D00004D0FFE701208DF81F0021E00698006847
:1053E0002021C1610698006842684EF60003CFF69E
:1053F00000631A404260069880F841100698002128
:1054000080F84210FFE70698002180F84010FFE77F
:1054100000208DF81F0003E002208DF81F00FFE739
:105420009DF81F0008B010BD10B588B0DDF828C089
:105430009E460C460690ADF816100492ADF80E305C
:10544000069890F84100202840F0FD80FFE7FFE734
:10545000069890F84000012804D1FFE702208DF85B
:105460001F00F4E00698012180F84010FFE7FFE7F5
:10547000FFF796FD0290069802996A4611604FF474
:1054800000410122192304F0F7FF002804D0FFE7B0
:1054900001208DF81F00DAE00698212180F84110E4
:1054A0000698102180F84210069800214164049863
:1054B000069A5062BDF80E00069A50850698416320
:1054C0000698408DB0F5807F14D3FFE70698FF2142
:1054D00001850698BDF8161090F828206B4642F218
:1054E000000CC8F2000CC3F800C04FF0807304F049
:1054F0009BFF14E00698408D069908850698BDF834
:10550000161090F828206B4642F2000CC8F2000CEE
:10551000C3F800C04FF0007304F086FFFFE7FFE719
:105520000698408D002864D0FFE706980A99029AF1
:1055300005F0BAF8002804D0FFE701208DF81F001D
:1055400085E006980168406A007888620698416A9A
:10555000013141620698418D013941850698018DDE
:10556000013901850698408D002841D0FFE7069853
:10557000008D00283CD1FFE706980A9B02996A46F5
:1055800011608021002204F077FF002804D0FFE79B
:1055900001208DF81F005AE00698408DB0F5807FFD
:1055A00012D3FFE70698FF2101850698BDF8161073
:1055B00090F828206B464FF0000CC3F800C04FF065
:1055C000807304F031FF12E00698408D069908853B
:1055D0000698BDF8161090F828206B464FF0000C86
:1055E000C3F800C04FF0007304F01EFFFFE7FFE7B1
:1055F00096E706980A99029A05F00EF8002804D05A
:10560000FFE701208DF81F0021E0069800682021A7
:10561000C1610698006842684EF60003CFF6006349
:105620001A404260069880F841100698002180F8E0
:105630004210FFE70698002180F84010FFE70020A5
:105640008DF81F0003E002208DF81F00FFE79DF892
:105650001F0008B010BD000080B5BEB03D90002016
:105660003C903B903A903990389009A8BC21FAF7C9
:105670007DFE3D98006845F60041C4F20001884275
:1056800067D1FFE7082009900020299009A800F0C1
:105690006BFC002803D0FFE7FBF706FFFFE7FFE7FF
:1056A00044F2E040C5F60200016841F004010160E7
:1056B000006800F0040008900898FFE7FFE744F254
:1056C000E040C5F60200016841F001010160006898
:1056D00000F0010007900798FFE74FF40070389042
:1056E0001220399001213A9103223B9204233C93EA
:1056F00040F6000CC5F6020C0DF1E00E0590604678
:105700000491714603920293CDF804E0FFF708FA82
:105710004FF4807038900598399004993A91039A23
:105720003B92029B3C930020C5F602000199FFF7D3
:10573000F7F9FFE744F2E840C5F60200016841F4DA
:1057400000010160006800F4000006900698FFE781
:10575000FFE73EB080BD000040F2D020C2F2004022
:10576000007840F60401C2F200410A681044086063
:10577000704700000000000080B582B0032000F0F8
:10578000D3F801F091FE44F21841C5F602010A680F
:10579000C2F3032242F63253C0F601039A5C02F0D0
:1057A0001F02D04000900098096801F00F01595C79
:1057B00001F01F01C84040F2BC21C2F20041086064
:1057C000009840F2B821C2F200410860002000F0C9
:1057D00013F8002804D0FFE701208DF8070005E04A
:1057E00000F052F800208DF80700FFE79DF8070051
:1057F00002B080BD0000000080B582B0009040F291
:10580000D020C2F200400078002804D1FFE7012038
:105810008DF8070031E040F2B820C2F20040006885
:1058200040F2D021C2F2004109784FF47A72B2FB03
:10583000F1F1B0FBF1F002F02FFD002804D0FFE7FA
:1058400001208DF8070018E000980F280DD8FFE719
:1058500000994FF0FF30002200F046F8009840F227
:10586000D421C2F20041086003E001208DF8070056
:1058700003E000208DF80700FFE79DF8070002B065
:1058800080BD00000000000080B582B0FFE744F258
:10589000F440C5F60200016841F0020101600068B1
:1058A00000F0020001900198FFE7052000F03CF8AD
:1058B00002B080BD0000000080B582B00146ADF8A6
:1058C0000600BDF9060000910CF0FAF802B080BDA8
:1058D00080B582B00146ADF80600BDF90600009122
:1058E0000CF00EF902B080BD80B588B00346ADF86B
:1058F0001E000691059203930CF01EF90490BDF969
:105900001E000499069A059B0290084611461A4605
:1059100005F0F6FA02990190084601990CF014F985
:1059200008B080BD0000000080B582B001900198F1
:105930000CF02EF902B080BD80B584B0029044F620
:105940000C00C5F60200006800F004000021B1EB75
:10595000900F13D1FFE744F60C00C5F60200006873
:1059600000F007000299884204D0FFE701208DF87B
:105970000F002EE000208DF80F002AE044F60C0006
:10598000C5F60200016821F00701029A1143016087
:10599000FFF706FB0190FFE744F60400C5F602009E
:1059A000006800F400500021B1EB503F0DD1FFE73B
:1059B000FFF7F6FA0199401AB0F57A7F04D9FFE7AC
:1059C00001208DF80F0004E0E6E700208DF80F00BD
:1059D000FFE79DF80F0004B080BD0000000000004C
:1059E00080B501F00DFD44F22041C5F602010968C1
:1059F000C1F3021142F63252C0F60102515C01F0CD
:105A00001F01C84080BD000088B0079044F22840C4
:105A1000C5F60200016801F0030106910068C0F3B9
:105A20000530059044F22C40C5F602000068C0F332
:105A300000100490049844F23C41C5F60201096844
:105A400089B2C908484300EE100AB8EE400A8DED4D
:105A5000020A0598002800F01D81FFE7069800283B
:105A6000009009D0FFE7009801286AD0FFE700986E
:105A7000022800F08A80ACE044F20040C5F6020043
:105A8000006800F020000021B1EB501F34D0FFE788
:105A900044F20040C5F602000068C0F3C10049F2BC
:105AA0000001C0F2D03121FA00F003909DED030A0D
:105AB000B8EE400A9DED051AB8EE411A80EE010AD3
:105AC00044F23840C5F6020000686FF35F2001EE33
:105AD000100AB8EE411A9DED022A9FED743A82EE4B
