:020000040800F2
:10000000680C002439030008353A000869330008F9
:10001000313A00083D060008B14500080000000024
:100020000000000000000000000000004B3C000841
:100030003F060008000000003B3A00084D3C000865
:100040005303000853030008530300085303000838
:100050005303000853030008530300085303000828
:100060005303000853030008530300085303000818
:100070005303000853030008530300085303000808
:1000800053030008530300085303000853030008F8
:1000900053030008530300085303000853030008E8
:1000A00053030008530300085303000853030008D8
:1000B00053030008530300085303000853030008C8
:1000C00053030008530300085303000853030008B8
:1000D00053030008530300085303000853030008A8
:1000E00053030008530300080000000053030008F6
:1000F0005303000853030008530300085303000888
:100100005303000853030008530300085303000877
:100110005303000853030008530300085303000867
:100120005303000853030008530300085303000857
:100130005303000853030008530300085303000847
:1001400000000000000000000000000000000000AF
:100150005303000853030008530300085303000827
:100160005303000853030008530300085303000817
:100170005303000853030008530300080000000065
:1001800053030008530300085303000853030008F7
:1001900053030008530300085303000853030008E7
:1001A00053030008530300085303000853030008D7
:1001B00053030008530300085303000853030008C7
:1001C00053030008530300085303000853030008B7
:1001D00053030008530300085303000853030008A7
:1001E0005303000853030008530300085303000897
:1001F0005303000853030008530300085303000887
:100200005303000853030008530300085303000876
:100210005303000853030008530300085303000866
:1002200053030008530300085303000800000000B4
:1002300053030008530300080000000053030008A4
:100240005303000853030008530300085303000836
:100250005303000853030008530300085303000826
:100260005303000853030008530300085303000816
:100270005303000853030008530300080000000064
:100280005303000853030008530300080000000054
:10029000000000005303000800F002F800F03CF8F2
:1002A0000AA090E8000C82448344AAF10107DA45D1
:1002B00001D100F031F8AFF2090EBAE80F0013F0E7
:1002C000010F18BFFB1A43F00103184798430000C1
:1002D000B8430000103A24BF78C878C1FAD8520752
:1002E00024BF30C830C144BF04680C6070470000B0
:1002F0000023002400250026103A28BF78C1FBD82F
:10030000520728BF30C148BF0B6070471FB504F0CB
:100310007FF91FBD10B510BD00F0D0F81146FFF7F2
:10032000F5FF04F047F900F0EEF803B4FFF7F2FF31
:1003300003BC00F0F5F80000094880470948004771
:10034000FEE7FEE7FEE7FEE7FEE7FEE7FEE7FEE785
:10035000FEE7FEE704480549054A064B70470000E2
:100360006F3D00089902000868060024680C00240C
:10037000680800246808002453EA020C00F0698031
:100380002DE9F04B4FF00006002B1FBFB3FA83F5A9
:1003900003FA05F424FA05F65E4012BF1643B2FADA
:1003A00082F502FA05F4C5F120051EBF22FA05FC0C
:1003B00044EA0C04203556EA044C4FEA144418BFB2
:1003C000641C4FF000084FF00009904271EB030CE1
:1003D00039D3002919BFB1FA81F701FA07F6B0FA4B
:1003E00080F700FA07F6C7F120071EBF20FA07FCC6
:1003F00046EA0C062037B6FBF4FCA7EB0507103FD6
:1004000007F01F0BCBF120062CFA06F60CFA0BFBBB
:1004100044BFB3460026202FA4BF5E464FF0000B1A
:100420005BEA060C08BF4FF0010B19EB0B0948EB18
:100430000608ABFB027C06FB02CC0BFB03CCC01B0B
:1004400071EB0C01C1E70B46024641464846BDE848
:10045000F08B13B5084318BF4FF0FF300146AFF3E0
:100460000080BDE81C4070474FF0000200B5134605
:1004700094469646203922BFA0E80C50A0E80C50C4
:10048000B1F12001BFF4F7AF090728BFA0E80C5075
:1004900048BF0CC05DF804EB890028BF40F8042B6E
:1004A00008BF704748BF20F8022B11F0804F18BFDB
:1004B00000F8012B7047704770477047754600F091
:1004C0002BF8AE4605006946534620F007008546E6
:1004D00018B020B5FFF73EFFBDE820404FF0000602
:1004E0004FF000074FF000084FF0000BAC46ACE8AF
:1004F000C009ACE8C009ACE8C009ACE8C00921F00B
:1005000007018D46704710B50446AFF300802046C2
:10051000BDE81040FFF709BF0048704710000024F5
:1005200001491820ABBEFEE726000200704700001C
:10053000B0B50446006842F2001140F48070C4F285
:100540000201884204D142F20830C4F2020003E002
:1005500046F20830C5F60200006810F4403F0ED0A5
:1005600001F0D8FF61680546B1F5803F05D0B1F5CF
:10057000403F1FD0B1F5003F1DD1080C17E04FF4EC
:10058000002001F04FF961680546A1F580224FEA8D
:10059000B2420A2A0FD8DFE802F00606060606066F
:1005A00047494B4D4F006FF0010000EA5140B5FB49
:1005B000F0F500E0AD0800F096FD41F2030188423D
:1005C0000AD8206842F60151C0F231118D4281688B
:1005D0000DD341F4807125E04BF62140C0F2BE00FE
:1005E000854207D82068816821F440711AE021F41F
:1005F000807117E047F64100C0F27D10854203D8B4
:1006000020680122816808E020684FF28101C0F271
:10061000FA218D42816803D8022262F3092101E0A8
:1006200041F440718160B0BD2D09C4E76D09C2E796
:10063000AD09C0E7ED09BEE72D0ABCE7FEE770474C
:10064000EFF3108072B600BFFEE780B5426D012A5D
:1006500001D1022135E042F2000E0368C4F2020E1D
:1006600073454FF00103436524D1DEF80831DEF80D
:1006700008201A4352071DD4D1F800C0DEF8082321
:10068000BCF1000F22F440431DD04A681A43CEF853
:100690000823DEF80820DEF808311A43D20722D1F9
:1006A000DEF8082340F61F7389689A4341EA0C017B
:1006B000114316E0816D41F0200181650121002286
:1006C0004265084680BDCEF80833DEF80810DEF833
:1006D00008211143C90706D1DEF8081340F61F723E
:1006E0009143CEF808130021E9E7F0B581B000226C
:1006F0000092426D012A01D1022160E107680123C5
:100700004365BC68640700F153810C68250394FAC3
:10071000A4F2B2FA82F208BFA20EC4F384644D6858
:1007200002F01F02C5F3012603FA02F2FB691A4325
:10073000FA6107EB860205F01F031F26156B9E402A
:1007400025EA060604FA03F333431363BA68BB6869
:10075000DB0843EA9202D20740F088800A68072546
:100760008E68C2F34063C2F3045207EB83039540E3
:100770005C6906FA02F224EA05052A435A6141F24D
:100780000002C5F60042126802F07042B2F1805FCA
:1007900006D1D1F814C0FA680E2303EA52040CE023
:1007A000FA68D1F814C0FB68D2064FEA530302D4AA
:1007B00003F00E0401E003F008040B69042B28D1B8
:1007C0003A6E0B6802F0F842B2EB836F4FEA836334
:1007D00003D13A6E22F000423A667A6E02F0F84295
:1007E0009A4203D17A6E22F000427A66BA6E02F023
:1007F000F8429A4203D1BA6E22F00042BA66FA6E0B
:1008000002F0F8429A4231D1FA6E22F00042FA66C2
:100810002CE007F160060D680CFA04F205F0F845CB
:10082000D1E906CE56F823402A4304F00044BEF135
:10083000010F42EA040246F823200A69ACF10105DF
:10084000B5FA85F556F8223023F0004308BF03F1CE
:10085000004346F822306A090B69D2023E6903F070
:100860001F0326F4F0469A4032433A61BA68D20731
:100870004DD14FF6FF7CCE68C0F20F0C0B6806F02E
:10088000180203EA0C042CFA02F240F2000CD7F82A
:10089000C050C4F2FF7CA5431A40664542EA0502F7
:1008A000C7F8C02030D193FAA3F2002CB2FA82F23A
:1008B0004FF0010608BFC3F38462013202F01F0348
:1008C00002F01E020A2A03EB430506FA03F340F284
:1008D0000006CFF6206606EB055646EA030646F00C
:1008E000007638BF43EA055607258B68C6F3406299
:1008F000C6F3045607EB8202B5405469B34024EABC
:1009000005052B4353610B68B3F1FF3F01DD002167
:1009100053E042F2000146F2000CC4F20201C5F6B7
:10092000020C01F5807242F200159742624604BF44
:1009300042F20002C4F202028F4247F4807608BFFE
:100940003A46C4F2020542F44272AE42D2F800E0E6
:1009500004D18A68D1F80811114301E0DCF80810CD
:10096000C90725D100210EF0E074CCF684318B420A
:1009700008BF1EF4000125D00021CCF252718B4239
:1009800008BF1EF0807146D067454FF0000114D1BA
:100990000022CCF6B872934208BF1EF480020CD13C
:1009A000DCF8081321F0E071214341F480013CE0C0
:1009B000816D41F0200181650121002242650846D8
:1009C00001B0F0BD6745A2D1DCF8081342F66352CE
:1009D00021F0E071C0F23E52214341F40001CCF815
:1009E000081340F20001C2F2004109688909A1FB25
:1009F00002126FF0010101EA5211009100990029E1
:100A00003FF485AF009901390091009900294FF01A
:100A10000001F7D1D1E767457FF479AFDCF808131F
:100A200021F0E071214341F08071CCF808136EE7AA
:100A3000B0B582B0044600284FF00000019040D0CD
:100A4000A06D28B9204600F004F90020E06560653B
:100A500020688168890006D54FF6C0728168C5F6A6
:100A6000FF72114081608168C9001DD44FF6C071CA
:100A70008268C5F6FF7101F18051114042F6635260
:100A800001F18051816040F20001C0F23E52C2F299
:100A9000004109688909A1FB02129109019101999C
:100AA00011B101990139F9E78168C9000BD4A16D31
:100AB000012541F01001A165E16D41F00101E16501
:100AC00002E00125C2E000258168A26D02F010025B
:100AD000C1F380018918A16D03D041F010000125F8
:100AE000B3E021F481710231A1658168C9072DD17C
:100AF00042F2001240F48071C4F20202914242F2CA
:100B00000001C4F2020104D18A68D1F808311A4305
:100B100004E046F20802C5F602021268D20715D1B7
:100B200001F5807201F5427346F2080C9042C5F659
:100B3000020C1A4618BF0CF54072884208BF1A46CC
:100B40006068116821F47C110843106000F0CBFA52
:100B500041F20402A369A1689042626B4FEA4333F9
:100B600009D3102907D1206A42EA030141EA004172
:100B700041F01C0104E01A43206A114341EA00419C
:100B8000012806D1606A0022CFF6FE7202EB4040D7
:100B90000143A06A28B100F47870E26A084340EA91
:100BA000020120684CF20303CFF6F073C2681A40CA
:100BB0001143C16081688268D20842EA9101C90785
:100BC00034D16169226BD4F83CC0C36844F2030E8F
:100BD00042EA813123EA0E02BCF1010F41EA02012F
:100BE000C160016916D14FF61E02CFF6004201EA3C
:100BF000020C0021D4E91023CFF6FF7101EB024172
:100C00004CEA0302A36C1143E26C1943114341F017
:100C1000010101E021F0010101610169A26B21F0F4
:100C20007041114301612046FFF782FC2068E168B2
:100C30000129026B22F00F0102D1E269013A11434E
:100C400001630121A06D61F30100A065284602B097
:100C5000B0BDF0B587B0044602A81421FFF704FC2C
:100C600046F200012068C5F6020188426CD042F2CB
:100C70000011C4F20201884200F0BB8042F2000180
:100C8000C4F20201884240F01A8140F2700144F23D
:100C9000E040C2F20041C5F602000A68002A02F1F3
:100CA00001020A600BD150F8081C41F0200140F805
:100CB000081C50F8081C01F02001019101990168FD
:100CC000002541F0010101600168C5F6020501F04F
:100CD000010101910199016841F00401016001687D
:100CE00002AC01F0040101910199016841F0020197
:100CF00001600168032601F0020101910199016878
:100D000041F0200101600068214600F020000190C0
:100D10000198C0200290284603960027049700F00F
:100D2000E5F802A93020C1C105F50060214600F0B8
:100D3000DDF805F580602146CDE90266049700F0F4
:100D4000D5F84FF4C050B2E044F2E0400027C5F6B9
:100D50000200C5F6020702AC03250168002641F037
:100D600080710160016801F0807101910199016851
:100D700041F020010160016801F020010191019919
:100D8000016841F004010160016801F00401019172
:100D90000199016841F0800101600068214600F07E
:100DA0008000019001984FF4FF60029007F5A05079
:100DB0000395049600F09AF807F500602146CDE906
:100DC0000255049600F092F802A90C2061C107F5C3
:100DD000E050214600F08AF84FF080604FF08061CB
:100DE00001F0FCFF4FF000604FF0006101F0F6FFF2
:100DF00065E040F2700144F2E040C2F20041C5F605
:100E000002000A68002A02F101020A600BD150F8C0
:100E1000081C41F0200140F8081C50F8081C01F0A3
:100E20002001019101990168002541F00101016053
:100E30000168C5F6020501F00101019101990168FF
:100E400041F004010160016802AC01F0040101916C
:100E50000199016841F0020101600168032601F077
:100E6000020101910199016841F0200101600068CF
:100E7000214600F0200001900198C02002902846F1
:100E800003960027049700F031F802A93020C1C171
:100E900005F50060214600F029F805F5806021463F
:100EA000CDE90266049700F021F84FF4C0400290AB
:100EB00005F5A05021460396049700F017F807B0F7
:100EC000F0BD0000B0B5044600F014F940F208018E
:100ED0000546C2F20041621C096818BF0C4400BFFD
:100EE00000F008F9401BA042FAD3B0BD2DE9F04F45
:100EF00086B00F680290002F00F0E68002988C46C2
:100F000000F126420A2102F1FF7342F20042C5F6C7
:100F100002024FF0000990424FEAB32208BF0921B4
:100F2000092A4FF0010238BF4FEAB32101264FF0E2
:100F3000000A4FF000080091CDF804C0701E02FABC
:100F400000FE17EA0E0100F0A980DCF804B004915D
:100F5000BBF1120F00F2B18002FA0BF717F0061F77
:100F600000F0AB80029C032101FA0AF2A368DCF8CE
:100F70000C709343D14307FA0AF21A43A2606268E5
:100F80004FEA1B134FEA480522EA0E0283401A4338
:100F900062604BF01003E268122BDCF8083002EAC2
:100FA000010203FA05F3039142EA0302E26014D15D
:100FB0006FF0030109F01C0701EA50020F212244DF
:100FC000B940D2F820E0DCF810302EEA0101BB4035
:100FD000029C19431162DCF804B00BF00301226893
:100FE000039BA9401A405FEACB0341EA020121605A
:100FF000DDF804C04FF00102049C4FD544F2F442E6
:1010000040F2084EC5F60202C5F6000E0F27116821
:1010100041F002011160116801F00201059120F018
:101020000301059A09F00C024FF0B04051F80E3060
:101030009740BB43009F07FA02F21A4341F80E2083
:1010400040F2040EC5F6000EDEF87C10DCF8042039
:1010500041EA0403D70358BF21EA04039703CEF8FB
:101060007C30DEF8801041EA040358BF21EA040313
:10107000D702CEF88030016841EA040358BF21EA64
:10108000040392024FF001020360DEF8001041EA0F
:10109000040358BF21EA0403CEF80030DCF80070E6
:1010A00008F1010837FA06F10AF1020A06F1010611
:1010B00009F104097FF442AF06E00321554601FA25
:1010C0000AF7029CF94364E706B0BDE8F08F426975
:1010D0000A408A4208BF090481617047002A08BF9C
:1010E00009048161704741F20000C5F600400068C4
:1010F000000C704740F26060C2F200400068704728
:10110000426C202A02D1026C012A01D1022115E091
:10111000242242640268136823F0010313601368F9
:1011200023F480531360136819431160116841F070
:1011300001011160202141640021016408467047CB
:10114000426C202A02D1026C012A01D1022114E052
:10115000242242640268136823F0010313601368B9
:1011600023F4706343EA01211160116841F0010129
:101170001160202141640021016408467047F0B1EC
:1011800010B50446406C20B900202064204600F0D1
:1011900041F82420606494E80910E2680168012A9B
:1011A00021F00101016023F070610161816821F487
:1011B0000041816005D14CF40041816009E00120CB
:1011C0007047022A4CF40441816002D14FF400615F
:1011D0004160416804F1100C41F0007141F400419C
:1011E0004160C16821F40041C1609CE80E101143C8
:1011F00041EA0321C160216A41EA0C0101600168F2
:1012000041F0010101600020E0642021616420635D
:10121000A06410BD10B586B0044601A81421FFF7E4
:1012200023F945F600012068C4F2000188422AD063
:1012300045F20041C4F2000188424CD144F2E0443E
:1012400001A9C5F60204206840F002002060206871
:1012500000F0020000900098C0200190122002903F
:101260000020CDE903000420059040F20040C5F6BF
:101270000200FFF73BFEA06840F40010A060A068E9
:1012800000F4001025E044F2E04440F20041C5F6CD
:101290000204C5F60201206840F0200020602068AA
:1012A00000F020000090009803200190122002908E
:1012B0000020CDE903000420059001F5805001A92C
:1012C000FFF714FEA06840F48000A060A06800F45E
:1012D00080000090009806B010BD40F2080040F277
:1012E0006061C2F20040C2F2004100680A68104426
:1012F0000860704780B5032000F096F801F056F9B9
:1013000044F2184144F22A63C5F60201C0F6000314
:101310000A68096801F00F01C2F30322595C9A5C64
:1013200001F01F0102F01F02D04040F20402C2F29D
:10133000004220FA01F1116040F20001C2F20041C6
:101340000860002000F007F808B1012080BD00F01F
:101350002CF8002080BDB0B540F20801C2F2004177
:101360000968F9B1044640F20000C2F200404FF4AF
:101370007A72B2FBF1F10068B0FBF1F001F038FDD8
:101380000F2C4FF001050ED868B94FF0FF30002246
:101390002146002500F019F840F20C00C2F200408E
:1013A000046000E001252846B0BD81B044F2F4405D
:1013B000C5F60200016841F002010160006800F01A
:1013C00002000090009801B0704770B54EF60C5CBA
:1013D0004FF0FF36CEF2000C00F16045DCF8003033
:1013E000C3F3022E8EF00703042B28BF0423BEF1A3
:1013F000030406FA03F321EA030100F00F0338BFE8
:101400000024043BB0F1FF3F634406FA04F003F10B
:101410000C0301FA04F1C8BF05F5644322EA000099
:1014200008430001187070BD4EF60C514FF6FF03D3
:10143000CEF200010A681A4060F30A2242F080608E
:1014400040F0FD7008607047B0B544F60C05C5F675
:10145000020529684907296805D401F00701081A1F
:1014600018BF0120B0BD21F0070108432860FFF735
:1014700041FE044655F8080C800407D4FFF73AFEF5
:10148000001BB0F57A7FF5D90120B0BD0020B0BDBA
:1014900080B501F03FF844F2204144F22A62C5F6DB
:1014A0000201C0F600020968C1F30211515C01F0AB
:1014B0001F01C84080BD000080B544F2004EC5F653
:1014C000020EDEF82830DEF82810C1F3051CDEF825
:1014D0002C10BCF1000FDEF8342014D0C2F3CC0283
:1014E00001F00101514300EE101A03F0030102293B
:1014F000B8EE400A0BD069B9DEF8001089060CD4AA
:101500009FED341A17E00021C0E900115BE09FED68
:10151000301A10E09FED2D1A0DE0DEF8001049F2B0
:101520000002C0F2D032C1F3C10122FA01F101EE92
:10153000101AB8EE411ADEF830109FED273A6FF31B
:101540005F2102EE101ADEF83010C1F34621B8EE2A
:10155000422A00EE032A00EE10CAB7EE003AB8EEB7
:10156000400A81EE000A32EE031A02EE101AB8EEBB
:10157000422A20EE010A32EE031A80EE011ABCEE76
:10158000C11A80ED001ADEF83010C1F3064101EEF9
:10159000101AB8EE411A31EE031A80EE011ABCEEB1
:1015A000C11A80ED011ADEF83010C1F3066101EEB8
:1015B000101AB8EE411A31EE031A80EE010ABCEEA1
:1015C000C00A10EE101A816080BD00BF0024744A6A
:1015D00020BCBE4B0024744C0000003980B544F29E
:1015E000004EC5F6020EDEF82830DEF82810C1F3F2
:1015F000053CDEF82C10BCF1000FDEF83C2014D0C6
:10160000C1F30011C2F3CC02514300EE101A03F0F3
:1016100003010229B8EE400A0BD069B9DEF80010C8
:1016200089060CD49FED341A17E00021C0E900119F
:101630005BE09FED301A10E09FED2D1A0DE0DEF813
:10164000001049F20002C0F2D032C1F3C10122FA07
:1016500001F101EE101AB8EE411ADEF838109FEDD4
:10166000273A6FF35F2102EE101ADEF83810C1F34B
:101670004621B8EE422A00EE032A00EE10CAB7EE69
:10168000003AB8EE400A81EE000A32EE031A02EE8A
:10169000101AB8EE422A20EE010A32EE031A80EE4A
:1016A000011ABCEEC11A80ED001ADEF83810C1F341
:1016B000064101EE101AB8EE411A31EE031A80EE1F
:1016C000011ABCEEC11A80ED011ADEF83810C1F320
:1016D000066101EE101AB8EE411A31EE031A80EEDF
:1016E000010ABCEEC00A10EE101A816080BD00BF76
:1016F0000024744A20BCBE4B0024744C0000003906
:1017000080B544F2004EC5F6020EDEF82830DEF851
:101710002810C1F3055CDEF82C10BCF1000FDEF8D8
:10172000442014D0C1F30021C2F3CC02514300EE97
:10173000101A03F003010229B8EE400A0BD069B970
:10174000DEF8001089060CD49FED341A17E0002152
:10175000C0E900115BE09FED301A10E09FED2D1AFB
:101760000DE0DEF8001049F20002C0F2D032C1F301
:10177000C10122FA01F101EE101AB8EE411ADEF8A9
:1017800040109FED273A6FF35F2102EE101ADEF84A
:101790004010C1F34621B8EE422A00EE032A00EEC3
:1017A00010CAB7EE003AB8EE400A81EE000A32EEF7
:1017B000031A02EE101AB8EE422A20EE010A32EEA7
:1017C000031A80EE011ABCEEC11A80ED001ADEF891
:1017D0004010C1F3064101EE101AB8EE411A31EE85
:1017E000031A80EE011ABCEEC11A80ED011ADEF870
:1017F0004010C1F3066101EE101AB8EE411A31EE45
:10180000031A80EE010ABCEEC00A10EE101A8160C5
:1018100080BD00BF0024744A20BCBE4B0024744C21
:101820000000003910B584B00146B0F5805F4FF07C
:1018300000001FDAB1F5806F49DAB1F5807F00F062
:101840007580B1F5007F40F0DF8044F24C41C5F671
:1018500002014868C0F38212042A00F2B08048F204
:101860000000C0F2BB00DFE812F0B3009700B80040
:10187000CF009B00B1F5803F41DAB1F5805F00F009
:101880006780B1F5804F40F0BF8044F24C44C5F60C
:101890000204E068C0F30271052900F2908049F269
:1018A0000000C0F2D030DFE801F003B1B5AF85A190
:1018B00000F030FE54F82C1C44F22A62C0F60002FC
:1018C000C1F30211515C01F01F01C8409CE051D0EE
:1018D000B1F5006F40F0988044F24C41C5F602012A
:1018E000C868C0F30262042A00F2698048F200006E
:1018F000C0F2BB00DFE802F06C507188540000F0C9
:101900006080B1F5002F40F07F8044F24C41C5F675
:101910000201C86800F44030B0F5003F40D0B0F597
:10192000803F00F06D80002849D135E044F24C4101
:10193000C5F60201486800F00702042A3FD848F2C1
:101940000000C0F2BB00DFE802F04327485F2B0035
:1019500044F24C41C5F602014868C0F30232042A41
:101960002DD848F20000C0F2BB00DFE802F03115CC
:10197000364D190044F24C41C5F60201C868C0F367
:101980004252042A1BD848F20000C0F2BB00DFE834
:1019900002F01F03243B070001A8FFF71FFE1FE012
:1019A000086810F0405026D0B0F1005F1ED0B0F1B2
:1019B000805F04D140F60010C0F23D0024E000201A
:1019C00022E044F24C40C5F602000068C00309D48E
:1019D00001A8FFF771FD029816E001A8FFF790FE3D
:1019E000019811E001A8FFF7F9FD0CE047F640006F
:1019F000C0F27D1008E049F20000C0F2D03003E0F0
:101A000001A8FFF77DFE039804B010BD01A8FFF701
:101A1000E5FDE0E701A8FFF773FEDCE72DE9F047FD
:101A20000446C07844F210480007C5F6020825D5E0
:101A3000606E4FEA305103290AD8DFE801F0020B4B
:101A40001018D8F81C1041F40031C8F81C100EE032
:101A5000012614E0201D022101F0F0FF04E004F152
:101A60002400022102F06EF8064640B9606ED8F8F4
:101A7000401021F440110843C8F840000026607867
:101A8000C00701D1354629E0606D04280DD83546E0
:101A9000DFE800F0030E13191900D8F81C003546D2
:101AA00040F40030C8F81C000DE00125012716E0C5
:101AB000201D002101F0C2FF04E004F124000021F8
:101AC00002F040F805462F464DB9D8F84000616D48
:101AD00020F0070000250843C8F84000374660782A
:101AE000800729D5A06D4FEAB01004280BD8DFE895
:101AF00000F0030D12181800D8F81C0040F4003054
:101B0000C8F81C000DE00125012616E0201D00216B
:101B100001F094FF04E004F12400002102F012F827
:101B200005462E464DB9D8F84000A16D20F4E0706E
:101B300000250843C8F840003E46607840072CD591
:101B4000D4F8A4004FEA705004280BD8DFE800F066
:101B5000030E13191900D8F81C0040F40030C8F81F
:101B60001C000EE001254FF0010917E0201D0021A7
:101B700001F064FF04E004F12400002101F0E2FF21
:101B80000546A94655B9D8F84800D4F8A41020F461
:101B9000600000250843C8F84800B1466078000797
:101BA0002BD5D4F8A8004FEA306004280BD8DFE822
:101BB00000F0030D12181800D8F81C0040F4003093
:101BC000C8F81C000DE00125012717E0201D0021A9
:101BD00001F034FF04E004F12400002101F0B2FF21
:101BE00005462F4655B9D8F84800D4F8A81020F07B
:101BF000E06000250843C8F848004F46E0788007B9
:101C000022D5A06C4FEA301003280AD8DFE800F094
:101C100011020C11D8F81C0040F40030C8F81C0068
:101C200007E00125012610E0201D022101F006FF3A
:101C300005462E464DB9D8F83C00A16C20F0300086
:101C400000250843C8F83C003E466078C00629D508
:101C5000E06D4FEA303004280BD8DFE800F0030DC8
:101C600012181800D8F81C0040F40030C8F81C0006
:101C70000DE00125012716E0201D002101F0DEFE08
:101C800004E004F12400002101F05CFF05462F462A
:101C90004DB9D8F84000E16D20F4E040002508433C
:101CA000C8F8400037466078800622D5206E4FEA9B
:101CB0003040052809D8DFE800F011030B1111119D
:101CC000201D012101F0BAFE07E00125012611E0E7
:101CD00004F12400012101F035FF05462E464DB9DF
:101CE000D8F84000216E20F4E02000250843C8F811
:101CF00040003E466078400624D5D4F8AC004FEA58
:101D00003070052809D8DFE800F011030B1111111C
:101D1000201D012101F092FE07E00125012712E0BC
:101D200004F12400012101F00DFF05462F4655B9AD
:101D3000D8F84800D4F8AC1020F0E0400025084363
:101D4000C8F848003746607800061ED5E06E88B1B6
:101D5000B0F1005F09D0B0F1805F28D1D8F81C0045
:101D600040F40030C8F81C0004E0201D012101F0FF
:101D700065FE05462E464DB9D8F84000E16E20F0CC
:101D8000405000250843C8F840003E46E078C007B0
:101D900024D0606C03280DD8DFE800F01502101580
:101DA000D8F81C0040F40030C8F81C000BE00125F6
:101DB0000126EBE701254FF0010910E0201D02216B
:101DC00001F03CFE0546A9464DB9D8F83C00616CCF
:101DD00020F0030000250843C8F83C00B146A07875
:101DE000400601D44F4617E0D8F8F00340F4807065
:101DF000C8F8F003FFF77EF9064600BFD8F8F003F5
:101E0000C00507D4FFF776F9801B6428F6D90325AF
:101E1000032701E02F468DB12078C00753D0A06F73
:101E20004FEAF00005283AD8DFE800F042033C42D0
:101E30004242201D012101F001FE38E0D8F8601077
:101E4000D4F8B000414011F4407F11D0D8F86010B0
:101E5000D8F8602042F48032C8F86020D8F86020BA
:101E600021F4407122F48032C8F86020C8F8601074
:101E7000B0F5807F40F00382FFF73CF9064641F25F
:101E8000883A0325032700BFD8F86000800700F1D7
:101E9000F481FFF72FF9801B5045F5D9BCE70125E8
:101EA000012611E004F12400012101F04BFE05465A
:101EB0002E464DB9D8F84400A16F20F03800002517
:101EC0000843C8F844003E462078800720D5606F5C
:101ED000052809D8DFE800F011030B111111201DAE
:101EE000012101F0ABFD07E00125012711E004F11C
:101EF0002400012101F026FE05462F464DB9D8F8F1
:101F00004400616F20F0070000250843C8F8440032
:101F100037462078400722D5D4F89000052809D804
:101F2000DFE800F011030B111111201D012101F058
:101F300085FD07E00126012512E004F124000121BE
:101F400001F000FE05462E4655B9D8F84800D4F8F1
:101F5000901020F0070000250843C8F848003E46CE
:101F60002078800624D5D4F88C004FEA30700528FC
:101F700009D8DFE800F011030B111111201D002119
:101F800001F05CFD07E00127012512E004F12400C7
:101F9000022101F0D7FD05462F4655B9D8F8440077
:101FA000D4F88C1020F0E04000250843C8F8440025
:101FB00037462078400624D5D4F898004FEAB02060
:101FC000052809D8DFE800F011030B111111201DBD
:101FD000002101F033FD07E00126012512E004F1A4
:101FE0002400022101F0AEFD05462E4655B9D8F871
:101FF0004800D4F8981020F4E05000250843C8F8B1
:1020000048003E462078000624D5D4F89C004FEACC
:102010007030052809D8DFE800F011030B11111109
:10202000201D002101F00AFD07E00127012512E033
:1020300004F12400022101F085FD05462F4655B923
:10204000D8F84800D4F89C1020F4604000250843DC
:10205000C8F8480037462068010716D5D4F8801024
:10206000B1F5805F0AD104F12400022101F06AFD7C
:10207000002818BF01272068D4F88010D8F8442021
:1020800022F440521143C8F84410C10616D5D4F8C2
:102090009410B1F5807F0AD104F12400022101F0EF
:1020A00051FD002818BF01272068D4F89410D8F8F3
:1020B000482022F440721143C8F8481000031FD58D
:1020C000D4F8A000B0F5003F0ED0B0F5803F05D0A9
:1020D00068BB201D002101F0B1FC04E004F12400E4
:1020E000022101F02FFD05462E4655B9D8F84800CB
:1020F000D4F8A01020F4403000250843C8F8480068
:102100003E46A078400727D5D4F88400B0F5401F9C
:1021100016D0B0F5001F0DD0B0F5801F40F0AA809A
:10212000D8F81C0040F40030C8F81C0008E0012674
:102130000125E6E704F12400012101F003FD054635
:102140002F4655B9D8F84400D4F8841020F4401034
:1021500000250843C8F844003746A078C00701D1DD
:102160003E461EE0E06CB0F5803F07D0B8B9D8F825
:102170001C0040F40030C8F81C0004E0201D0221BF
:1021800001F05CFC05462E465DB9D8F83C00E16CD8
:1021900020F4803000250843C8F83C00E0E7012621
:1021A00001252068810008D504F12400022101F0F6
:1021B000C9FC002818BF0126206881031BD5E16FE8
:1021C0006FF0010202EB3122022A0AD34FEA3122D8
:1021D0003AB1012A06D1D8F81C2042F40032C8F8DE
:1021E0001C200DB1012606E0D8F8442022F44072EC
:1021F0001143C8F84410C10207D5D8F84010226F27
:1022000021F000411143C8F84010C10008D5D8F8AA
:102210000010D4F8B42021F480411143C8F8001014
:10222000810207D5D8F84010A26E21F080711143C9
:10223000C8F8401041000CD5D8F8001021F4004136
:10224000C8F80010D4F8B810D8F800201143C8F826
:102250000010B0F1FF3F07DCD8F83C00216D20F002
:1022600040500843C8F83C00002E18BF01263046F5
:10227000BDE8F087012701256FE7D4F8B0004FF6DD
:10228000CF73D8F80020C0F2FF0300F4407122F4AD
:102290007C5203EA10136FF31F30B1F5407F08BF83
:1022A0001A430025C8F80020D8F860100843C8F881
:1022B000600097E5704700002DE9F04381B00028E9
:1022C00000F01B8142F200080446C5F2002889464E
:1022D000D8F8000000F00F0088420ED2D8F80000B5
:1022E00020F00F0040EA0900C8F80000D8F800000C
:1022F00000F00F00484540F00081206844F200479C
:102300004107C5F602070AD52169BA6902F07002D1
:10231000914204D9BA6922F070021143B9610107F0
:102320000AD56169FA6902F07002914204D9FA692A
:1023300022F070021143F961C1060AD5A169FA6958
:1023400002F4E062914204D9FA6922F4E062114396
:10235000F96181060AD5E1693A6A02F07002914298
:1023600004D93A6A22F070021143396210F0020176
:102370000AD0E268BB6903F00F039A4204D9BB6933
:1023800023F00F031A43BA61C20738D0B86920F4AA
:102390007061D4E90102012841EA0201B96107D064
:1023A000032809D002280BD1396889030CD4A4E092
:1023B0003968C90508D4A0E03968890104D49CE0D3
:1023C0003968490740F19980396921F007010843CC
:1023D0003861FEF78FFE064641F28835386961683C
:1023E00000F03800B0EBC10F06D0FEF783FE801B73
:1023F000A842F3D9032081E0206800F0020151B126
:10240000E168BA6902F00F02914204D2BA6922F07F
:102410000F021143B961D8F8001001F00F014945CE
:102420000DD9D8F8001021F00F0141EA0901C8F8D0
:102430000010D8F8001001F00F0149455DD14107A7
:102440000AD52169BA6902F07002914204D2BA69D0
:1024500022F070021143B96101070AD56169FA6976
:1024600002F07002914204D2FA6922F07002114324
:10247000F961C1060AD5A169FA6902F4E0629142E4
:1024800004D2FA6922F4E0621143F96180060AD5A8
:10249000E069396A01F07001884204D2396A21F09A
:1024A00070010843386200F081F8B96944F22A6388
:1024B000BA69C0F60003C1F3032102F00F02595CB0
:1024C0009A5C01F01F0120FA01F102F01F0040F2B6
:1024D000040221FA00F0C2F20042106040F20C0047
:1024E00040F20002C2F20040C2F2004200681160F5
:1024F00001B0BDE8F043FEF72EBF012001B0BDE8FA
:10250000F08344F20040C5F60200016841F4002166
:102510000160704780B500F049F844F2184144F278
:102520002A63C5F60201C0F600030A68096801F0D3
:102530000F01C2F30322595C9A5C02F01F0220FAD9
:1025400002F201F01F0040F2040122FA00F0C2F290
:102550000041086040F20001C2F200410A6080BD03
:1025600080B5FFF7D7FF44F21C4144F22A62C5F65A
:102570000201C0F600020968C1F30211515C01F0CA
:102580001F01C84080BD80B5FFF7C4FF44F21C4165
:1025900044F22A62C5F60201C0F600020968C1F3DE
:1025A0000221515C01F01F01C84080BD44F200418E
:1025B000C5F602010869C0F3C20003280FD0022843
:1025C0002AD070BB0868800649F20000C0F2D03003
:1025D00058BF70470968C1F3C101C84070478A6A93
:1025E000886AC0F3051CC86ABCF1000F4B6B1DD094
:1025F000C3F3CC0300F00100584302F00302022AA7
:1026000000EE100AB8EE400A12D0A2B9086880069F
:1026100014D49FED261A1EE047F64000C0F27D104C
:10262000704740F60010C0F23D0070470020704730
:102630009FED1D1A0FE09FED1B1A0CE0086849F290
:102640000002C0F2D032C0F3C10022FA00F001EE65
:10265000100AB8EE411A086B9FED153A6FF35F2030
:1026600002EE100A086BC0F34620B8EE422A013091
:1026700000EE032A00EE10CAB7EE003AB8EE400AA8
:1026800081EE000A32EE031A20EE010A01EE100A72
:10269000B8EE411A80EE010ABCEEC00A10EE100A34
:1026A000704700BF0024744A20BCBE4B0024744C09
:1026B0000000003910B544F26444C5F602042068F5
:1026C000400558BF10BDFFF7F5FD4FF48060606016
:1026D00010BD0000F0B581B0002800F0398104463B
:1026E000007844F20046C007C5F6020612D03069F1
:1026F00000F03801B06A102905D018292BD100F05C
:102700000300022827D13068800303D560680028C1
:1027100000F01E812078800740F18B80306910F036
:102720003801B06A27D0182908BF5FEA807022D02C
:10273000E0683168E0B321F0190108433060FEF72A
:10274000D9FC0546306840071CD4FEF7D3FC401B7B
:102750000228F7D947E16068D8B3B0F5A02F4FD071
:10276000B0F5803F50D0306820F480303060306861
:1027700020F480204BE03068400703D5E068002853
:1027800000F0E680FEF7AFFC41F20301884208D872
:1027900020697168402821F47C3147D141F4003030
:1027A00046E07068216920F0FE4040EA01603FE0A9
:1027B00021F001003060FEF79DFC054630684007BF
:1027C00037D5FEF797FC401B02284FF00300F5D9E0
:1027D0000AE1306820F480303060306820F48020D6
:1027E0003060FEF787FC0546306880037FF592AFC6
:1027F000FEF780FC401B64284FF00300F4D9F3E09F
:10280000306840F480203060306840F480303060C0
:10281000FEF770FC054600BF306880033FF57AAFD5
:10282000FEF768FC401B6428F6D9DCE041EA003082
:1028300070602078C00651D5306900F03801B06A68
:10284000082905D0182918D100F00300012814D157
:102850003068C00502D5E069802879D1FEF743FCD5
:1028600041F2030188421CD8206A7168202821F0B7
:10287000F84130D141F080402FE0E0690028306815
:1028800017D040F080003060FEF734FC054600BFF2
:102890003068C005E2D4FEF72DFC401B0228F7D9B2
:1028A000A1E0F068216A20F07C5040EA0160F0600D
:1028B00014E020F080003060FEF71CFC054600BFED
:1028C0003068C0050AD5FEF715FC401B02284FF002
:1028D0000300F5D988E041EA806070602078000745
:1028E00038D42078800648D42078400759D4656AC7
:1028F00065B3306900F03800182840F09980012D48
:10290000B16A306B24D001F00302A36A9A421FD14E
:10291000C1F30511E26A91421AD10146226B6FF3AD
:102920005F21013A914213D1C0F34622616B013914
:102930008A420DD1C0F30642A16B01398A4207D108
:10294000C0F30660E16B0139884201D100204BE001
:10295000012049E060690028706F35D040F0010027
:102960007067FEF7C7FB0546706F8007B9D4FEF7A6
:10297000C1FB401B0228F7D935E0A0690028306868
:1029800043D040F480503060FEF7B4FB054600BFF2
:1029900030688004A8D4FEF7ADFB401B0228F7D9AD
:1029A00021E0D6F8000440F48070C6F80004FEF779
:1029B000A1FB0546D6F80004C00517D4FEF79AFB24
:1029C000401B6428F6D90EE020F001007067FEF786
:1029D00091FB0546706F80077FF583AFFEF78AFB9A
:1029E000401B0228F6D9032001B0F0BDA0680028E2
:1029F00040D0052858D001285AD0306F20F001006F
:102A00003067306F20F0040055E020F480503060D3
:102A1000FEF770FB054600BF306880047FF564AFA9
:102A2000FEF768FB401B02284FF00300F4D9DBE7F8
:102A3000306820F080703060FEF75CFB022D0546A8
:102A40000CD100BF3068800148D5FEF753FB401B16
:102A500002284FF00300F5D9C6E700BF30688001B7
:102A60007FF574AFFEF746FB401B02284FF00300D2
:102A7000F4D9B9E7306F20F001003067306F20F0F3
:102A800004003067FEF736FB054641F2883700BF89
:102A9000306F80077FF52BAFFEF72CFB401BB84251
:102AA0004FF00300F4D99FE7306F40F00400306727
:102AB000306F40F001003067FEF71CFB054641F225
:102AC000883700BF306F80073FF511AFFEF712FB6C
:102AD000401BB8424FF00300F4D985E704F1280702
:102AE000B06A40F2F33188438ECF0843591E40EA62
:102AF00002104FF47E426FF35F21B06202EB472079
:102B00004FF4FE0280B2E36B0844A16B02EB01417B
:102B10004FF0FE4201F4FE0102EB0362084402F0B2
:102B2000FE4108443063F06A4FF6F87120F001006E
:102B3000F062706BA26C884340EAC2007063F06A76
:102B4000216C20F00C000843F062F06A616C20F008
:102B500002000843F062F06A40F48030F062F06AEC
:102B600040F40030F062F06A40F48020F062F06AD5
:102B700040F00100F062306840F080703060FEF795
:102B8000B9FA0446306880013FF5E0AEFEF7B2FACC
:102B9000001B02284FF00300F4D925E7F0B581B0FF
:102BA000002800F08F8043F6000304460068C4F25A
:102BB000000343F2000E43F6004C9842C4F2010EAB
:102BC000C4F2000C4FF00001A16203D0604518BFB1
:102BD000704573D1E16B0125E268984202F1080269
:102BE00005EB51114FEAD20202FB01F118BF70450B
:102BF0005BD1102966D8D4F8841031B90020C4F80C
:102C00008000204600F076F820680221C4F8841085
:102C1000016821F001010160D4F818C06168BCF1BD
:102C2000806F08BFB1F5800F07D1A16B19B901689A
:102C300041F4805101604FF48001E369A56A2B43A0
:102C4000E56B2B43D4E902E2D4E9047642EA0302BD
:102C50008260626BA56B636A42EA0C0242EA03027D
:102C6000236A42EA050242EA0702A76C42EA060228
:102C700042EA0302E36C42EA010242EA0302A36D64
:102C800042EA0E0242EA070242EA0302C260D9B1F6
:102C9000026D490222F00101016523D5C168626D10
:102CA00021F000411143C1601CE0604518BF0829B4
:102CB00008D8704518BF60459BD09CE7E1680F2994
:102CC0007FF688AF012013E08168012262F3CC21F6
:102CD00081608168022262F34A218160016D21F0E6
:102CE000010101650020C4F888000121C4F88410A6
:102CF00001B0F0BD70B586B0044601A81421FDF7FF
:102D0000B3FB41F200412068C5F60001884228D09B
:102D100043F20041C4F2010188425DD144F2E04037
:102D2000C5F60200016941F400510161016901F435
:102D3000005100910099016841F0100101600068A4
:102D4000002100F010000090C5F6020100986420F8
:102D500001900220029000200390049001F5805021
:102D600035E044F2E0400024C5F60200C5F6020456
:102D700002250026416941F020014161416901F0CD
:102D8000200100910099016841F001010160016892
:102D900001F0010100910099016841F040010160DA
:102DA000006801A900F040000090009820200190E8
:102DB00008200295CDE9036605902046FEF796F8B7
:102DC00001A94FF4A04061C104F5C050049605214B
:102DD000059101A9FEF78AF806B070BD40F20442E1
:102DE000C5F60002136823EA00000843106070472C
:102DF000411E0020B0EB116F01D0012070474EF250
:102E00001002F023CEF2000251604EF62351CEF2B2
:102E100000010B700721906011607047B0B5C26B64
:102E2000012A4FF002024BD00123C363026440F237
:102E3000004C0268C4F2010C42F48063634553689D
:102E4000D2F808E002BF23F470034C68234340F635
:102E5000FF340D68C4F2000423F07003A24243EA79
:102E6000050353600EDD4FF6FF73C4F200039A4270
:102E700016DC40F60043C4F200039A4217D041F634
:102E800000030AE0B2F1804F11D040F20043C4F2D7
:102E900000039A420BD040F60003C4F2000304E0A2
:102EA000624504D00023C4F201039A4204D12EF0FB
:102EB0008003896819439160002201210164C26383
:102EC0001046B0BDE8B110B50446006C20B9002032
:102ED000E063204600F017F8022020642068211DDE
:102EE00000F0B2FF0120E0666064A064E064206549
:102EF0006065A065E06520666066A06620640020CD
:102F000010BD0120704783B00068B0F1804F18D029
:102F100040F20041C4F20001884220D00021C4F2F6
:102F20000101884228D144F2E840C5F602008168D8
:102F300041F001018160806800F001000290029878
:102F40001AE044F2E840C5F60200016841F00101D0
:102F50000160006800F00100019001980CE044F26B
:102F6000E840C5F60200016841F002010160006816
:102F700000F002000090009803B0704780B5C26B6B
:102F8000012A4FF0020200F096800123C36302641D
:102F90008822D0F800C0CFF6CE72DCF808301A4094
:102FA000CCF808200B686F2B29DC2F2B34DD4F2B3E
:102FB00041DC302B6FD0402B79D1D1F804E0C968C7
:102FC000DCF82030DCF8202022F00102CCF82020B0
:102FD000DCF8182022F0F00242EA011123F00A0284
:102FE000CCF8181042EA0E01CCF820104FF6887287
:102FF000DCF80810CFF6CF721140473155E0B3F13D
:10300000101F0FDB2F21C0F210018B4239DCB3F10E
:10301000101F40D020213AE0EBB3102B3BD0202BE7
:1030200039D044E0702B48D0B3F5005F58D0B3F5E9
:10303000801F30D03BE0502B65D0602B37D1D1F8CA
:1030400004E0C968DCF8203023F01003CCF820300D
:10305000DCF81830DCF8202023F4704322F0A002C2
:1030600043EA0131CCF8181042EA0E11CCF82010D6
:103070004FF68872DCF80810CFF6CF721140673136
:1030800013E03021C0F210018B4204D04021C0F285
:1030900010018B420BD14FF68872DCF80810CFF686
:1030A000CF721140194341F00701CCF808100022FB
:1030B00001210164C263104680BDD1E901E3C96802
:1030C000DCF8082043EA0E0322F47F4243EA0121A0
:1030D0001143CCF80810DCF8081041F07701E4E760
:1030E000D1E901E3C968DCF8082043EA0E0322F4C1
:1030F0007F4243EA01211143CCF80810DCF80810A4
:1031000041F48041D1E7D1F804E0C968DCF820300F
:10311000DCF8202022F00102CCF82020DCF8182076
:1031200022F0F00242EA011123F00A02CCF8181052
:1031300042EA0E01CCF820104FF68872DCF8081035
:10314000CFF6CF7211405731AFE7C16F012901D1DE
:10315000022111E02421C0F8801002681368116870
:1031600023F0005321F0010111600021416613603A
:103170002022C0F88020C16708467047B0B50446D9
:10318000C06F012801D10220B0BD0120E0672420DA
:10319000C4F8800020680568026822F0010202601D
:1031A000826822F0606211438160204600F0E5FEF3
:1031B000206805602020C4F880000020E067B0BDD2
:1031C000B0B50446C06F012801D10220B0BD012076
:1031D000E0672420C4F8800020680568026822F0B7
:1031E00001020260826822F0604211438160204641
:1031F00000F0C3FE206805602020C4F88000002095
:10320000E067B0BD10B5A8B10446D0F8800020B981
:103210000020E067204600F026F82420C4F8800053
:103220002068016821F001010160204600F062FF82
:10323000012801D1012010BDA06A10B1204600F084
:10324000C3FE2068416821F490414160816821F00B
:103250002A018160016841F0010101602046BDE85A
:10326000104000F014BF10B586B0044601A8142128
:10327000FDF7FAF844F200412068C4F200018842E8
:1032800026D044F60001C4F20001884241D041F248
:103290000001C4F20101884263D144F2E0400322FC
:1032A000C5F60200016941F010010161016901F0F8
:1032B000100100910099016841F00201016000686D
:1032C000042100F00200009000984FF440403AE0E2
:1032D00044F2E0400022C5F60200816841F400316A
:1032E0008160816801F4003100910099016841F02A
:1032F00001010160006840F2004100F0010000900F
:10330000C5F6020100980C200190A1F5806007210C
:103310001EE044F2E0400022C5F60200816841F45C
:1033200080218160816801F4802100910099016809
:1033300041F0020101600068072100F002000090E6
:1033400000984FF44060019040F20040C5F6020042
:10335000022302930023CDE90332059101A9FDF771
:10336000C5FD06B010BD0000FEE7B0B58CB001A8E9
:10337000202100250B95CDE90955FDF775F840F2A0
:10338000740442F20000C2F20044C4F202001821A8
:1033900020604FF40020C4E90105E5600420C4E981
:1033A0000405A5610120C4E9070504F12800FDF723
:1033B0005BF82046FDF73CFB08B1FDF741F940F210
:1033C000740009A9C2F200400995FDF73EF908B161
:1033D000FDF736F9042001A9C0F66000019006202F
:1033E00002900320039040F2FF70049004200590A7
:1033F00000200690089040F27400C2F20040FDF7F1
:1034000074F908B1FDF71CF90CB0B0BD70B588B007
:1034100068462021FDF728F840F2DC0442F2001053
:10342000C2F20044C4F202000025042620604FF4DA
:10343000002060600120C4E90255C4E90465A5616B
:103440001821C4E9070504F12800FDF70DF820460E
:10345000FDF7EEFA08B1FDF7F3F808206946C0F66B
:1034600090400090062001900320029040F2FF70EF
:10347000CDE9030640F2DC000595C2F20040079555
:10348000FDF733F908B1FDF7DBF808B070BDF0B512
:1034900089B001A82021FCF7E7FF40F2441446F26E
:1034A0000000C2F20044C5F6020018210025206089
:1034B0004FF40020606004F12800C4E9025504269E
:1034C0000127C4E90465A561C4E90775FCF7CCFFD1
:1034D0002046FDF7ADFA08B1FDF7B2F801970620D6
:1034E00002900320039040F2FF70CDE9040640F201
:1034F000441001A9C2F2004006950895FDF7F5F8C1
:1035000008B1FDF79DF809B0F0BD70B586B044F282
:10351000E0400025C5F60200059542F200040022B5
:103520000168C5F6020441F01001016001684FF422
:10353000807601F0100100910099016841F48071DA
:103540000160016801F4807100910099016841F007
:1035500020010160016801F02001009100990168DB
:1035600041F080010160016801F080010091009943
:10357000016841F004010160016801F0040100915B
:103580000099016841F001010160016801F0010149
:1035900000910099016841F002010160016801F0A9
:1035A000020100910099016841F04001016000684A
:1035B0004FF4807100F04000009000982046FDF725
:1035C0008DFD01960120CDE9020501A92046049553
:1035D000FDF78CFC06B070BD10B540F2AC1445F29E
:1035E0000040C2F2004447F2B151C4F20000C3F2FD
:1035F0007001C4E900010020A0600120E06004F136
:1036000010001421FCF730FF2046FDF7B8FD08B18B
:10361000FDF716F840F2AC100021C2F20040FDF7B1
:103620006FFD08B1FDF70CF840F2AC100021C2F2BA
:103630000040FDF785FD18B1BDE81040FDF700B86A
:1036400010BD10B540F2002445F60000C2F200445F
:1036500047F2B151C4F20000C3F27001C4E90001A5
:103660000020A0600120E06004F110001421FCF7AC
:10367000FBFE2046FDF783FD08B1FCF7E1FF40F2B9
:1036800000200021C2F20040FDF73AFD08B1FCF72E
:10369000D7FF40F200200021C2F20040FDF750FDAC
:1036A00018B1BDE81040FCF7CBBF10BD10B540F21B
:1036B000542443F20040C2F20044C4F2010003214A
:1036C00020604FF4800060600020A060C4E9031017
:1036D00060614FF08060A06104F11C001421FCF7D0
:1036E000C3FE4FF08040606304F138002421FCF7F2
:1036F000BBFE2046FFF752FA18B1BDE81040FCF7B8
:103700009FBF10BD10B540F2E02441F20040C2F26C
:103710000044C5F60000032120604FF48000606083
:103720000020A060C4E9031060614FF08060A061D8
:1037300004F11C001421FCF797FE4FF080406063F9
:1037400004F138002421FCF78FFE2046FFF726FA0B
:1037500018B1BDE81040FCF773BF10BD80B588B04C
:1037600040F26C300022C2F2004000210791C4F206
:103770000102CDE90511CDE90311CDE90111C0E93F
:10378000002181604FF6FF72C0E90321C0E90511F5
:10379000FFF798FB08B1FCF753FF4FF480500490FB
:1037A00040F26C3004A9C2F20040FFF7E7FB08B119
:1037B000FCF746FF002001A9CDE90100039040F28B
:1037C0006C30C2F20040FFF729FB08B1FCF738FF6C
:1037D00008B080BD80B588B040F2DC300021C2F274
:1037E00000400791CDE90511CDE90311CDE90111A3
:1037F0004FF08042C0E9002181604FF0FF32C0E904
:1038000003218161FFF75EFB08B1FCF719FF4FF45C
:103810008050049040F2DC3004A9C2F20040FFF76F
:10382000ADFB08B1FCF70CFF00200190039040F2C3
:10383000DC30C2F2004001A9FFF7F0FA08B1FCF752
:10384000FFFE08B080BD80B588B040F24C4040F229
:103850000042C2F2004000210791C4F20002CDE90B
:103860000511CDE90311CDE90111C0E90021816005
:103870004FF6FF72C0E903218161FFF723FB08B116
:10388000FCF7DEFE4FF48050049040F24C4004A957
:10389000C2F20040FFF772FB08B1FCF7D1FE002036
:1038A0000190039040F24C40C2F2004001A9FFF7A2
:1038B000B5FA08B1FCF7C4FE08B080BD10B540F2FF
:1038C000BC4441F20000C2F20044C4F201001421E1
:1038D00020604FF4E13060600020C4E90200206104
:1038E0000C20606104F11800FCF7BEFD2046FFF7D4
:1038F00089FC08B1FCF7A4FE40F2BC400021C2F2F2
:103900000040FFF75DFC08B1FCF79AFE40F2BC40B6
:103910000021C2F20040FFF731FC08B1FCF790FE35
:1039200040F2BC40C2F20040FFF70FFC18B1BDE806
:103930001040FCF785BE10BD10B540F2485444F26B
:103940000040C2F20044C4F20000142120604FF491
:10395000E13060600020C4E9020020610C20606159
:1039600004F11800FCF780FD2046FFF74BFC08B17E
:10397000FCF766FE40F248500021C2F20040FFF71B
:103980001FFC08B1FCF75CFE40F248500021C2F277
:103990000040FFF7F3FB08B1FCF752FE40F248503D
:1039A000C2F20040FFF7D1FB18B1BDE81040FCF7B0
:1039B00047BE10BD10B540F2D45444F60000C2F228
:1039C0000044C4F20000142120604FF4E130606034
:1039D0000020C4E9020020610C20606104F118009D
:1039E000FCF742FD2046FFF70DFC08B1FCF728FE6E
:1039F00040F2D4500021C2F20040FFF7E1FB08B1D1
:103A0000FCF71EFE40F2D4500021C2F20040FFF746
:103A1000B5FB08B1FCF714FE40F2D450C2F20040EE
:103A2000FFF793FB18B1BDE81040FCF709BE10BDCD
:103A3000FEE70000FEF73EFEFEE77047F0B581B0FE
:103A400044F20047C5F60207BA6A02F00302032AED
:103A500001D1012073E0054638680C4620F08060F3
:103A60003860FDF747FB06463868000105D5FDF7CD
:103A700041FB801B0228F7D95EE0B86AEE6895E842
:103A80000E0020F47C30012C40EA0130A2F101014B
:103A90006FF35F214FF47E4202EB4322B86292B291
:103AA0004FF0FE4302EB01004FF4FE012A6901EBE7
:103AB000064101F4FE0103EB0262084402F0FE41FC
:103AC0000844B863F86A696920F0C00040EA010060
:103AD000F862F86AA96920F0200040EA0100F86263
:103AE000F86A4FF6F87120F01000F862F86BEA6996
:103AF00020EA01004FF4001140EAC200F863F86ABE
:103B000008BF4FF4801140F01000002CF86208BF8D
:103B10004FF40021F86A0843F862386840F080608A
:103B20003860FDF7E7FA04463868000106D4FDF76F
:103B3000E1FA001B0328F7D3032000E0002001B0C6
:103B4000F0BD0000F0B581B044F20047C5F60207B1
:103B5000BA6A02F00302032A01D1012073E005468C
:103B600038680C4620F080503860FDF7C3FA0646EE
:103B70003868800005D5FDF7BDFA801B0228F7D90B
:103B80005EE0B86AEE6895E80E0020F07C70012CCB
:103B900040EA0150A2F101016FF35F214FF47E4230
:103BA00002EB4322B86292B24FF0FE4302EB0100F7
:103BB0004FF4FE012A6901EB064101F4FE0103EB1B
:103BC0000262084402F0FE4108443864F86A6969F8
:103BD00020F4406040EA0100F862F86AA96920F424
:103BE000007040EA0100F862F86A4FF6F87120F4BC
:103BF0008070F862786CEA6920EA01004FF0807109
:103C000040EAC2007864F86A08BF4FF4000140F44B
:103C10008070002CF86208BF4FF48001F86A0843F6
:103C2000F862386840F080503860FDF763FA044667
:103C30003868800006D4FDF75DFA001B0328F7D32F
:103C4000032000E0002001B0F0BD7047FDF745BB48
:103C5000B0B5CCB044F6180439A84C21C5F602041E
:103C6000FCF702FC31A82021FCF7FEFB02A8BC21D6
:103C7000FCF7FAFB0220FDF7E7FB0020019020682B
:103C800040F440402060206800F44040019040F241
:103C90002C40C5F60000016841F001010160006898
:103CA00000F001000190019820688004FCD54FF6D7
:103CB00010400222CFF6FF700025215862F3010167
:103CC0002150012039904FF480303A90CDE94222C2
:103CD00005204490C0200824CDE9450239A8CDE94B
:103CE00047224994CDE94A55FEF7F4FC18B1EFF3A9
:103CF000108072B6FEE73F20319003204FF48061C0
:103D0000CDE9320534944020CDE93500CDE93710B6
:103D100031A80421FEF7D0FA18B1EFF3108072B683
:103D2000FEE746F20B000C21C0F2080002900220D0
:103D3000039004910521CDE905100790C02008905B
:103D40002020099000200A901A90CDE91F002290AF
:103D50002A902D9002A8FDF761FE20B1EFF31080AC
:103D600072B600BFFEE7FEF7CCFB4CB0B0BD80B52D
:103D70004EF6085C42F2000ECEF2000CC5F2002EA8
:103D8000DCF8801041F47001CCF88010DEF80010EF
:103D900001F00F01062906D8DEF80010072262F3B1
:103DA0000301CEF8001044F200414EF67F53C5F6F1
:103DB0000201CEF6F6230A6842F001020A600022F0
:103DC0000A61086818400860DEF80000000706D5A0
:103DD000DEF80000072363F30300CEF8000040F292
:103DE00000208A61CA61C0F202200A628862002053
:103DF000C0F2FF10C86240F28020C0F201100863D8
:103E00004A638863CA6308644A64086820F48020AF
:103E1000086041F200000A66C5F600400068B2EB97
:103E2000507F05D148F208100121C5F20010016051
:103E300044F2000043F2D201C5F2002001604FF0CD
:103E40000060CCF8000080BD10B540F6FF32C4F22F
:103E50000002904202680DDCB0F1804F1BD040F2AE
:103E60000043C4F20003984215D040F60003C4F2A8
:103E700000030EE040F60043C4F2000398420AD06B
:103E800040F20043C4F20103984204D00023C4F27C
:103E90000103984203D122F070024B681A434FF697
:103EA000FF7343F6FF7CC4F20003C4F2010C984296
:103EB00010DD60451ADD44F20003C4F201039842AC
:103EC0002AD044F60003C4F20103984224D044F2FD
:103ED000004312E040F2FF73C4F2000398420FDC8B
:103EE000B0F1804F18D040F2004311E00023C4F23B
:103EF0000103984210D040F20043C4F2010309E0EC
:103F000040F60003C4F20003984205D040F6004397
:103F1000C4F20003984203D122F44072CB681A43E2
:103F200022F080024C696045D1F800E08B6842EADB
:103F300004020260C362C0F828E00EDD44F2000211
:103F4000C4F20102904213D044F60002C4F201020E
:103F500090420DD044F2004206E00022C4F2010279
:103F6000904205D040F20042C4F20102904201D1D9
:103F7000096901630121416110BD80B5416EE1B164
:103F8000016844F2526CC0F6000C44F25A6E8A6822
:103F9000C0F6000E8968490FC2F342621CF8013076
:103FA0001EF801101B01B3FBF1F11CF802301EF8E2
:103FB00002201B01B3FBF2F201E001210122A0F873
:103FC0006A10A0F8682080BD816ACA0708D002681C
:103FD000D0F82CC0536823F4003343EA0C03536039
:103FE0008A0708D50268D0F830C0536823F48033BC
:103FF00043EA0C0353604A0708D50268D0F834C07E
:10400000536823F4802343EA0C0353600A0708D55E
:104010000268D0F838C0536823F4004343EA0C0325
:104020005360CA0608D50268D0F83CC0936823F4F0
:10403000805343EA0C0393608A0608D50268D0F8DF
:1040400040C0936823F4005343EA0C0393604A068C
:1040500012D50268D0F844C0BCF5801F536823F421
:10406000801343EA0C03536006D1536823F4C00C59
:10407000836C43EA0C035360090658BF704701681C
:10408000C06C4A6822F40022104348607047B0B503
:1040900082B004460020C4F88800FDF72BF82168A0
:1040A00005460A6812070BD54FF4001100226FF085
:1040B0007E40009020462B4600F022FA70B921681D
:1040C000086840070CD54FF4800100226FF07E4055
:1040D000009020462B4600F013FA08B1032006E0BA
:1040E0002020C4F88000C4F884000020E06702B0FB
:1040F000B0BD0000F0B583B00446006804F10803C9
:1041000046F6F316E769CCF6FF760ECB19436369E2
:104110000B43656E3B4301682B43314019430160FB
:10412000416840F6004E21F44051C5F6000E11439F
:104130004160A2694FF2FF437045C1F2FF131CBFFB
:10414000216A0A43816844F2004C194047F2FF7328
:1041500011438160C16AC4F20003C5F6020C21F06C
:104160000F01626A98424FF0800341EA0201C16286
:1041700026DD40F6FF71C4F20101884241DD704541
:1041800000F0758041F20041C4F20101884200F064
:104190007A8041F20001C4F20101884240F0AE8011
:1041A000DCF85410C1F3C205052D00F29E800123F6
:1041B000DFE815F0A40099009D009F00A100A30076
:1041C00044F6FF31C4F20001884235DC44F200417C
:1041D000C4F20001884200F0628044F60001C4F29B
:1041E0000001884240F08A80DCF8541001F0070595
:1041F000052D00F27A800023DFE805F08075797BD9
:104200007D7F47F60001C4F20001884200F0538030
:1042100047F60041C4F20001884240F06F80DCF8AC
:10422000541001F00705052D00F25F800023DFE840
:1042300005F0655A5E60626444F60041C4F2000114
:10424000884200F0448045F20001C4F20001884237
:1042500040F05480DCF8541001F00705052D00F201
:1042600044800023DFE805F04A3F43454749DCF836
:10427000581001F00705052D37D80223DFE805F0B7
:104280003E3337393B3DDCF85410C1F3C205052DF0
:104290002BD80123DFE805F032272B2D2F31DCF856
:1042A000541001F00705052D1FD80023DFE805F0A5
:1042B000261B1F212325DCF8541001F00705052DCE
:1042C00013D80023DFE805F01A0F13151719DCF8CF
:1042D000541001F00705052D07D80023DFE805F08D
:1042E0000E0307090B0D042308E0802306E00823D2
:1042F00004E0102302E0202300E04023704540F654
:104300000010C0F23D0013D0B7F5004F1FD10F2BA6
:104310004FF0010136DC082B00F2CD80DFE803F01E
:104320000584CBCB87CBCBCB8B00FEF719F986E08E
:104330000F2B4FF001011BDC022B39D0042B3AD09C
:10434000082B40F0B8806846FDF7DAF936E00F2B0D
:104350004FF0010121DC082B00F2AD80DFE803F013
:104360000589ABAB8CABABAB9000FEF7F9F88BE0FB
:10437000102B4BD0202B25D0402B40F09C804FF4AD
:1043800000401FE0102B00F09F80202B59D0402BC5
:1043900040F091804FF4004053E0102B00F0A280D9
:1043A000202B73D0402B40F086804FF400406DE00E
:1043B000FDF76EF803E06846FDF710F90198002854
:1043C00076D0626A44F23A61C0F6000131F8121008
:1043D0006268B0FBF1F002EB420188424FF001014C
:1043E00069D31303984266D8010E0023000210EB34
:1043F000520041F10001FBF7BFFF4FF6FF42A0F56D
:104400004071C0F20F02914250D953E0DCF8000035
:10441000800649F20000C0F2D030D3D5DCF800109D
:10442000C1F3C101C840CDE7FEF7ADF807E068462B
:10443000FDF7D4F802E06846FDF762F90198B8B3D9
:10444000626A44F23A61C0F6000131F81210B0FB22
:10445000F1F061684A0802EB4000B0FBF1F14FF661
:10446000F070084026D0C1F3420122680843D060B2
:104470001EE0FEF788F807E06846FDF7AFF802E0B7
:104480006846FDF73DF9019890B1626A44F23A61DD
:10449000C0F6000131F812106268B0FBF1F000EBD9
:1044A0005200B0FBF2F080B2102803D32168C8603C
:1044B000002100E001214FF00110A0660020C4E9B6
:1044C0001B00084603B0F0BDDCF80000800649F28E
:1044D0000000C0F2D030B4D5DCF80010C1F3C10147
:1044E000C840AEE7DCF80000800649F20000C0F2E8
:1044F000D030CBD5DCF80010C1F3C101C840C5E70E
:104500002DE9F04704688046E0690840401AB0FA97
:1045100080F04009904222D1DDF820900D461646E9
:104520009A4609F1010700BF8FB1FCF7E3FDD8F807
:104530000040B9F1000F216814D0A0EB0A004845F3
:1045400010D8480744BFE0695FEA005017D4E0691B
:104550002840401BB0FA80F04009B042E4D000206F
:10456000BDE8F08721F4D0702060A06820F0010041
:10457000A0602020C8F88000C8F8840011E04FF443
:1045800000602062206820F4D0702060A06820F0D5
:104590000100A0602020C8F88000C8F88400C8F896
:1045A00088000020C8F87C000320BDE8F0870000E8
:1045B000FEE70000FCF79EFEFFF74AFBFEF7A5FFB3
:1045C000FFF77CF9FEF7D1FEFEF720FFFEF75FFF55
:1045D000FFF702F8FFF735F8FFF768F8FFF792F8F2
:1045E000FFF7BCF8FFF7F6F8FFF72DF9FFF7A4F98E
:1045F000FFF7E0F942F20004C5F602044FF48071BF
:104600002046FCF764FD4FF47A70FCF75BFCF5E79D
:10461000F1EE100A4FF6FF71C0F2C03120EA01003E
:1046200040F04070E1EE100A704700000000010207
:104630000304010203040607080901000200040044
:10464000060008000A000C00100020004000800056
:104650000001010101030701000008040204080130
:10466000010100008846000800000024100000003E
:10467000D40200089846000810000024580C0000DE
:10468000F0020008000000000090D0030090D0036A
:08469000010000001000000011
:040000050800029954
:00000001FF
