:020000040800F2
:1000000000070024390300081F1B00082D1A0008F0
:100010001D1B00082F050008A9250008000000008E
:10002000000000000000000000000000F51E0008B5
:100030003105000800000000731D0008F71E0008CD
:100040005303000853030008530300085303000838
:100050005303000853030008530300085303000828
:100060005303000853030008530300085303000818
:100070005303000853030008530300085303000808
:1000800053030008530300085303000853030008F8
:1000900053030008530300085303000853030008E8
:1000A00053030008530300085303000853030008D8
:1000B00053030008530300085303000853030008C8
:1000C00053030008530300085303000853030008B8
:1000D00053030008530300085303000853030008A8
:1000E00053030008530300080000000053030008F6
:1000F0005303000853030008530300085303000888
:100100005303000853030008530300085303000877
:100110005303000853030008530300085303000867
:100120005303000853030008530300085303000857
:100130005303000853030008530300085303000847
:1001400000000000000000000000000000000000AF
:100150005303000853030008530300085303000827
:100160005303000853030008530300085303000817
:100170005303000853030008530300080000000065
:1001800053030008530300085303000853030008F7
:1001900053030008530300085303000853030008E7
:1001A00053030008530300085303000853030008D7
:1001B00053030008530300085303000853030008C7
:1001C00053030008530300085303000853030008B7
:1001D00053030008530300085303000853030008A7
:1001E0005303000853030008530300085303000897
:1001F0005303000853030008530300085303000887
:100200005303000853030008530300085303000876
:100210005303000853030008530300085303000866
:1002200053030008530300085303000800000000B4
:1002300053030008530300080000000053030008A4
:100240005303000853030008530300085303000836
:100250005303000853030008530300085303000826
:100260005303000853030008530300085303000816
:100270005303000853030008530300080000000064
:100280005303000853030008530300080000000054
:10029000000000005303000800F002F800F03CF8F2
:1002A0000AA090E8000C82448344AAF10107DA45D1
:1002B00001D100F031F8AFF2090EBAE80F0013F0E7
:1002C000010F18BFFB1A43F0010318476023000019
:1002D00080230000103A24BF78C878C1FAD85207AA
:1002E00024BF30C830C144BF04680C6070470000B0
:1002F0000023002400250026103A28BF78C1FBD82F
:10030000520728BF30C148BF0B6070471FB502F0CD
:1003100063F91FBD10B510BD00F0D0F81146FFF70E
:10032000F5FF02F043F900F0EEF803B4FFF7F2FF37
:1003300003BC00F0F5F80000094880470948004771
:10034000FEE7FEE7FEE7FEE7FEE7FEE7FEE7FEE785
:10035000FEE7FEE704480549054A064B70470000E2
:10036000DD1F000899020008000100240007002496
:10037000000300240003002453EA020C00F069800B
:100380002DE9F04B4FF00006002B1FBFB3FA83F5A9
:1003900003FA05F424FA05F65E4012BF1643B2FADA
:1003A00082F502FA05F4C5F120051EBF22FA05FC0C
:1003B00044EA0C04203556EA044C4FEA144418BFB2
:1003C000641C4FF000084FF00009904271EB030CE1
:1003D00039D3002919BFB1FA81F701FA07F6B0FA4B
:1003E00080F700FA07F6C7F120071EBF20FA07FCC6
:1003F00046EA0C062037B6FBF4FCA7EB0507103FD6
:1004000007F01F0BCBF120062CFA06F60CFA0BFBBB
:1004100044BFB3460026202FA4BF5E464FF0000B1A
:100420005BEA060C08BF4FF0010B19EB0B0948EB18
:100430000608ABFB027C06FB02CC0BFB03CCC01B0B
:1004400071EB0C01C1E70B46024641464846BDE848
:10045000F08B13B5084318BF4FF0FF300146AFF3E0
:100460000080BDE81C4070474FF0000200B5134605
:1004700094469646203922BFA0E80C50A0E80C50C4
:10048000B1F12001BFF4F7AF090728BFA0E80C5075
:1004900048BF0CC05DF804EB890028BF40F8042B6E
:1004A00008BF704748BF20F8022B11F0804F18BFDB
:1004B00000F8012B7047704770477047754600F091
:1004C0002BF8AE4605006946534620F007008546E6
:1004D00018B020B5FFF73EFFBDE820404FF0000602
:1004E0004FF000074FF000084FF0000BAC46ACE8AF
:1004F000C009ACE8C009ACE8C009ACE8C00921F00B
:1005000007018D46704710B50446AFF300802046C2
:10051000BDE81040FFF709BF0048704710000024F5
:1005200001491820ABBEFEE7260002007047FEE737
:100530007047EFF3108072B6FEE70000B0B50446D6
:1005400000F0DCF805469848611C406818BF044478
:1005500000F0D4F8401BA042FAD3B0BD2DE9F84F0B
:10056000594A4FF00A0A4FF000084FF0010B4FF0C4
:10057000000C9042554A08BF4FF0090A02444FEA66
:10058000B223092B38BF4FEAB22A00220D6835FA90
:1005900002F600F097800BFA02F715EA070900F05F
:1005A00084804E68122E00F286800BFA06F414F056
:1005B000061F00F08080032303FA0CF48368CD68E3
:1005C000A34305FA0CF56FEA040E2B43836033094D
:1005D0004568BD43934057002B434360C3688C6814
:1005E00003EA0E03BC402343C36046F01003122B02
:1005F00011D16FF0030508F01C030F2405EA520522
:100600009C4005442E6A26EA04040E6906FA03F3A8
:1006100023432B624E68036806F0030403EA0E03CB
:10062000BC4023430360F3003FD5684C294F4FF093
:10063000B04E236843F00203236023680F2403F0C5
:1006400002030093009D08F00C0322F003059C4078
:100650000AFA03F3EE5926EA04042343EB511C4F34
:10066000FB6F4D6843EA0904EE0358BF23EA09040F
:10067000FC67AE03D7F8803043EA090458BF23EA89
:100680000904C7F88040EE02DEF8003043EA0904AE
:1006900058BF23EA0904CEF80040AD023B6843EAA4
:1006A000090458BF23EA09043C6008F104080CF16E
:1006B000020C01326AE70323674603FA0CF46FEA7F
:1006C000040E8BE7BDE8F88F002402580000FEA757
:1006D000040000580804005842690A408A4208BFD2
:1006E000090481617047002A08BF090481617047CD
:1006F00001480068000C70470010005C0548006865
:10070000704700BF2848034940680A6810440860E1
:10071000704700BFFC00002480B5032000F07EF885
:1007200000F032FE0E495B4B0A68096801F00F01C8
:10073000C2F30322595C9A5C01F01F0102F01F0210
:10074000D0401A4A1060C84006490860002000F0F6
:100750000BF808B1012080BD00F02AF8002080BD10
:10076000184402580400002470B50F4E0446706807
:10077000B0B14FF47A71B1FBF0F00C490968B1FBEC
:10078000F0F001F0B9F801250F2C0AD848B94FF064
:10079000FF3021460022002500F01AF8346000E006
:1007A0000125284670BD00BF080000240000002479
:1007B00081B00648016841F002010160006800F064
:1007C00002000090009801B0704700BFF444025846
:1007D000F0B5184B4FF0FF361C68C4F30224E51E39
:1007E00084F0070438BF002506FA05F7BA43042C45
:1007F00028BF042406FA04F4A14300F00F04A94022
:10080000043C11432344044A09010C33B0F1FF3F77
:10081000C8BF83181970F0BD00E400E005494FF629
:10082000FF030A681A4060F30A2203481043086075
:10083000704700BF0CED00E00000FA05B0B50F4DA9
:100840002A682968520705D401F00701081A18BF61
:100850000120B0BD21F00701084301F0A9F90446C9
:1008600055F8080C800406D4FFF748FF01F074F92E
:10087000F6D90120B0BD0020B0BD00BF0C48025821
:1008800080B500F04BFD0249024A01F0C0B900BF3B
:1008900020440258F2250008B0B51C498B6A8A6AC8
:1008A000CC6ACD6BC2F30532B2B1C4F3001401F0CF
:1008B00055FA15D0BBB90B689B0651BF9FED161AB0
:1008C0000B68C3F3C103154C42BF24FA03F301EED6
:1008D000103AB8EE411A08E00021C0E9001112E018
:1008E0009FED0C1A01E09FED0A1A8B6B9FED0C3AFD
:1008F00001F018FA8A6B01F018F98A6B01F0D7F948
:10090000896B01F0A9F98160B0BD00BF00440258B5
:100910000024744A20BCBE4B0024744C0090D003C9
:1009200000000039B0B51C498B6A8A6ACC6A4D6CEC
:10093000C2F30552B2B1C4F3002401F00FFA15D08E
:10094000BBB90B689B0651BF9FED161A0B68C3F32A
:10095000C103154C42BF24FA03F301EE103AB8EE7E
:10096000411A08E00021C0E9001112E09FED0C1AC5
:1009700001E09FED0A1A0B6C9FED0C3A01F0D2F9E1
:100980000A6C01F0D2F80A6C01F091F9096C01F0DF
:1009900063F98160B0BD00BF004402580024744A6E
:1009A00020BCBE4B0024744C0090D00300000039E2
:1009B0002DE9F0470446C078A74F00071CD5606EAC
:1009C0004FEA3051032908D8DFE801F002090C1181
:1009D000F96941F40031F96109E001260DE001F007
:1009E0001EF901E001F076F9064630B9606E396C07
:1009F00021F440110843386400266078BA46C007E5
:100A000001D1354620E0606D04280BD83546DFE87B
:100A100000F0030C0F121200F869354640F4003064
:100A2000F86108E0012501270FE001F088F901E0F5
:100A300001F0CFF805462F463DB9606D01F0E2F8B0
:100A400021F0070101F01CF93746607880071ED5B8
:100A5000A06D4FEAB010042807D8DFE800F00309C2
:100A60000C0F0F0001F09CF808E0012501260FE0B3
:100A700001F065F901E001F0ACF805462E463DB9FC
:100A8000A06D01F0BFF821F4E07101F0F9F83E46E5
:100A90006078400702D4B046574623E0D4F8A4005B
:100AA00057464FEA7050042807D8DFE800F0030AE1
:100AB0000D10100001F0C3F809E001254FF0010806
:100AC00010E001F03CF901E001F083F80546A8468A
:100AD00045B9D4F8A400B96C0025B04621F46001F2
:100AE0000843B8646078000720D5D4F8A8004FEA1E
:100AF0003060042807D8DFE800F003090C0F0F006E
:100B000001F09DF808E00125012710E001F017F938
:100B100001E001F05EF805462F4645B9D4F8A8007B
:100B200001F06BF821F0E06101F082F84746E078CF
:100B300080071DD5A06C4FEA3010032806D8DFE8E7
:100B400000F00B02080B01F02BF805E0012501264F
:100B50000FE001F064F805462E4655B9A06CDAF8AE
:100B60003C100025524621F030010843CAF83C00F1
:100B70003E466078C0061ED5E06D4FEA303004284E
:100B800007D8DFE800F003090C0F0F0001F008F8A8
:100B900008E0012501270FE001F0D1F801E001F0A4
:100BA00018F805462F463DB9E06D01F02BF821F409
:100BB000E04101F065F83746607880061BD5206E6D
:100BC0004FEA3040052807D8DFE800F00C03090C95
:100BD0000C0C01F003F804E0012501260CE001F003
:100BE000B8F805462E463DB9206E01F00BF821F409
:100BF000E02101F045F83E46607840061DD5D4F866
:100C0000AC004FEA3070052807D8DFE800F00C038D
:100C1000090C0C0C00F0E2FF04E0012501270DE0B7
:100C200001F097F805462F4645B9D4F8AC0000F01E
:100C3000E4FF21F0E04100F0FBFF3746607800065A
:100C400018D5E06E68B1B0F1005F07D0B0F1805FF9
:100C500022D100F0A5FF04E01044025800F0BEFFCE
:100C600005462E463DB9E06E00F0CCFF21F0405124
:100C700001F006F83E46E078C00702D1B04657467C
:100C80001EE0606C5746032809D8DFE800F00F0229
:100C90000C0F00F0D4FF09E001250126EBE7012548
:100CA0004FF001080CE000F0BAFF0546A8463DB938
:100CB000606CF96B0025B04621F003010843F8632E
:100CC000A078400601D4474616E0D7F8F00340F478
:100CD0008070C7F8F003FFF711FD0646D7F8F00360
:100CE000C00507D4FFF70AFD801B6428F6D9032549
:100CF000032701E02F467DB12078C00747D0A06FC1
:100D00004FEAF000052832D8DFE800F03703343727
:100D1000373700F063FF2FE0DAF86010D4F8B00046
:100D20005546414011F4407F0BD0296E2A6E42F4A3
:100D300080322A6621F440712A6E22F480322A66BB
:100D40002966B0F5807F40F0C381FFF7D7FC0646E7
:100D500041F288390327DAF86000800700F1B58195
:100D6000FFF7CCFC801B03254845F4D9C4E70125D7
:100D700001260DE000F0EDFF05462E4645B9A06FB7
:100D800000F051FF21F038010843CAF844003E4604
:100D9000207880071AD5606F052807D8DFE800F0B3
:100DA0000C03090C0C0C00F019FF04E001250127CD
:100DB0000DE000F0CEFF05462F4645B9606F00F00C
:100DC00032FF21F007010843CAF844003746207873
:100DD00040071BD5D4F89000052807D8DFE800F0BD
:100DE0000C03090C0C0C00F0F9FE04E001250126AF
:100DF0000DE000F0AEFF05462E4645B9D4F8900050
:100E000000F0FBFE21F0070100F012FF3E462078C3
:100E100080061ED5D4F88C004FEA3070052807D81C
:100E2000DFE800F00C03090C0C0C00F088FF04E074
:100E3000012501270EE000F04DFF05462F464DB974
:100E4000D4F88C0000F0EFFE21F0E0410843CAF82E
:100E500044003746207840061DD5D4F898004FEA64
:100E6000B020052807D8DFE800F00C03090C0C0CB3
:100E700000F065FF04E0012501260DE000F02AFFE7
:100E800005462E4645B9D4F8980000F0B6FE21F488
:100E9000E05100F0CDFE3E46207800061DD5D4F886
:100EA0009C004FEA7030052807D8DFE800F00C03FB
:100EB000090C0C0C00F043FF04E0012501270DE0B4
:100EC00000F008FF05462F4645B9D4F89C0000F015
:100ED00094FE21F4604100F0ABFE37462068010724
:100EE00014D5D4F88010B1F5805F07D100F0F2FE80
:100EF000002818BF01272068D4F88010DAF84420B1
:100F0000534622F440521143CAF84410C10614D586
:100F1000D4F89410B1F5807F07D100F0DBFE0028F3
:100F200018BF01272068D4F89410DAF848205346F7
:100F300022F440721143CAF84810000318D5D4F8BF
:100F4000A000B0F5003F09D0B0F5803F03D010BB42
:100F500000F0F5FE01E000F0BDFE05462E4645B965
:100F6000D4F8A00000F049FE21F4403100F060FE0A
:100F70003E46A07840071FD5D4F88400B0F5401F46
:100F80000FD0B0F5001F09D0B0F5801F40F09A8057
:100F900000F006FE05E001250126EAE700F0D9FE93
:100FA00005462F464DB9D4F8840000F03CFE21F4EC
:100FB00040110843CAF844003746A078C00701D161
:100FC0003E4619E0E06CB0F5803F03D090B900F0E8
:100FD000E7FD02E000F023FE05462E4665B9E06C11
:100FE000DAF83C100025524621F480310843CAF853
:100FF0003C00E5E7012501262068810005D500F0C9
:1010000069FE002818BF0126206881031BD5E16F07
:101010006FF0010202EB3122022A0AD34FEA312299
:101020003AB1012A06D1DAF81C2042F40032CAF89B
:101030001C200DB1012606E0DAF8442022F44072AB
:101040001143CAF84410C10207D5216FDAF84020D5
:1010500022F000421143CAF84010C10008D5D4F86C
:10106000B410DAF8002022F480421143CAF80010CC
:10107000810207D5A16EDAF8402022F08072114378
:10108000CAF8401041000CD5DAF8001021F40041F4
:10109000CAF80010D4F8B810DAF800201143CAF8E2
:1010A0000010B0F1FF3F07DC206DDAF83C1021F0B2
:1010B00040510843CAF83C00002E18BF01263046B4
:1010C000BDE8F0870125012777E75546D4F8B00041
:1010D0002A68094900F4407322F47C5201EA101195
:1010E000B3F5407F6FF31F3008BF0A432A60296EB3
:1010F000084328660025E6E5CFFFFF0070470000A3
:101100002DE9F843002800F0FB807F4D0446884617
:10111000286800F00F0088420BD2286820F00F00EA
:1011200040EA08002860286800F00F00404540F0C1
:10113000E7802068C94F410709D52169BA6900F0E5
:10114000C5FD04D9BA6922F070021143B9610107E3
:1011500009D56169FA6900F0B9FD04D9FA6922F08C
:1011600070021143F961C1060AD5A169FA6902F456
:10117000E062914204D9FA6922F4E0621143F96114
:10118000810609D5E1693A6A00F0A0FD04D93A6AFE
:1011900022F070021143396210F002010AD0E268B5
:1011A000BB6903F00F039A4204D9BB6923F00F0314
:1011B0001A43BA61C2073AD0D4E90101BA6922F4EC
:1011C00070621143B961012807D0032809D00228B1
:1011D0000BD1396889030CD492E03968C90508D469
:1011E0008EE03968890104D48AE03968490740F102
:1011F00087803969A94621F0070108433861FFF764
:101200007DFA064641F288356068396901F0380197
:10121000B1EBC00F07D0FFF771FA801BA842F3D9DA
:101220000320BDE8F88320684D4600F0020151B16B
:10123000E168BA6902F00F02914204D2BA6922F061
:101240000F021143B961296801F00F0141450AD924
:10125000296821F00F0141EA08012960296801F09D
:101260000F0141454CD1410709D52169BA6900F008
:101270002DFD04D2BA6922F070021143B961010751
:1012800009D56169FA6900F021FD04D2FA6922F0FA
:1012900070021143F961C1060AD5A169FA6902F425
:1012A000E062914204D2FA6922F4E0621143F961EA
:1012B00080060AD5E069396A01F07001884204D2DB
:1012C000396A21F070010843386200F05DF8B969AD
:1012D0002C4A1F4BC1F30321515C01F01F01C84090
:1012E000B969186001F00F01515C01F01F01C8409D
:1012F0001849086005480068BDE8F843FFF734BAAC
:101300000120BDE8F88300BF00200052080000243F
:101310005248016841F400210160704780B500F037
:1013200033F80A49174B0A68096801F00F01C2F344
:101330000322595C9A5C01F01F0102F01F02D040A9
:10134000034A1060C8400349086080BD1844025831
:10135000000000240400002480B5FFF7DFFF0849E7
:10136000084A0968C1F3021100F0BEBC80B5FFF75E
:10137000D5FF0349034A0968C1F3022100F0B4BC58
:101380001C440258F225000810B534490869C0F31E
:10139000C20003280FD0022804BF324810BD40B954
:1013A00008688006334858D50968C1F3C101C840B0
:1013B00010BD2B4810BD8A6A886ACB6A4C6BC0F39B
:1013C0000510F0B103F00103C4F3CC0402F00302F2
:1013D0006343022A00EE103AB8EE400A13D0AAB9CD
:1013E0000A68920651BF9FED221A0A68C2F3C10231
:1013F000204B42BF23FA02F201EE102AB8EE411A46
:1014000006E0002010BD9FED191A01E09FED161AAD
:101410000A6B9FED193A6FF35F2202EE102AB8EEC5
:10142000422A00EE032AB7EE000A32EE000A02EE6C
:10143000100A086BC0F34620B8EE422A013081EE54
:10144000021A21EE000A01EE100AB8EE411A80EEEF
:10145000010ABCEEC00A10EE100A10BD004402588A
:1014600000093D0040787D010024744A20BCBE4B39
:101470000024744C0090D0030000003910B5054CD6
:101480002068400504D5FFF739FE4FF480606060A6
:1014900010BD00BF64440258F8B5002800F0E18098
:1014A00004460078D84EC00712D0306900F03801E9
:1014B000B06A102905D018292AD100F003000228AB
:1014C00026D13068800303D56068002800F0C98009
:1014D000207880074AD5306910F03801B06A26D0EC
:1014E000182901D1800722D03068E168002900F076
:1014F000018120F01900084300F014FB0546306814
:1015000040071BD4FFF7FAF8401B0228F7D94BE13C
:101510006068002800F02581B0F5A02F00F031812F
:10152000B0F5803F00F0318100F032FB30E13068EF
:10153000400703D5E068002800F09380FFF7D8F853
:1015400041F2030188420AD82069716821F47C3194
:10155000402814BF41EA003041F4003005E0206922
:10156000716821F0FE4141EA006070602078C00699
:101570003DD5306900F03801B06A082905D0182936
:101580001BD100F00300012817D13068C00502D537
:10159000E069802865D1FFF7ABF841F2030188428A
:1015A0001ED8206A716821F0F841202814BF41EA52
:1015B000806041F08040706019E03068E169002986
:1015C00000F0C08040F0800000F0ACFA05463068C2
:1015D000C005E0D4FFF792F8401B0228F7D9E3E0FA
:1015E000206AF16821F07C5141EA0060F0602078C7
:1015F000000738D42078800647D42078400756D496
:10160000676A67B3306900F03800182840F0CE8070
:10161000B16A306B012F24D0A26A01F00303934218
:101620001FD1E26AC1F3051191421AD10146226B22
:101630006FF35F21013A914213D1626BC0F34621EF
:10164000013A91420DD1A26BC0F30641013A914299
:1016500007D1E16BC0F306600139884201D1002057
:1016600049E10120F8BD706F616999B340F0010054
:101670007067FFF743F80546706F8007BAD4FFF72D
:101680003DF8401B0228F7D98EE03068A169002997
:1016900049D040F4805000F045FA05463068800497
:1016A000ABD4FFF72BF8401B0228F7D97CE0D6F823
:1016B000000440F48070C6F80004FFF71FF80546E8
:1016C000D6F80004C00524D4FFF718F8401B64289E
:1016D000F6D969E020F001007067FFF70FF80546C2
:1016E000706F80077FF586AFFFF708F8401B022870
:1016F000F6D959E020F0010000F014FA05463068F0
:1017000040077FF533AFFEF7F9FF00F0CCFAF6D9CA
:10171000F1E0A068002864D0052877D0012879D0AE
:1017200000F092FA79E020F4805000F0FBF90546D1
:10173000306880047FF561AFFEF7E0FF00F0B3FA98
:10174000F6D9D8E020F0800000F0ECF905463068CA
:10175000C0057FF54CAFFEF7D1FF00F0A4FAF6D933
:10176000C9E000F015FA00F0DDF9054630688003A5
:101770007FF5AEAEFEF7C2FF411B03206429F5D909
:10178000B9E0306840F480203060306840F4803048
:1017900000F0C8F90546306880033FF599AEFEF7C2
:1017A000ADFF401B6428F6D90320F8BD306820F057
:1017B000807000F0B7F90546022F08D1306880012B
:1017C0003CD5FEF79BFF00F06EFAF7D993E0306846
:1017D00080017FF544AFFEF791FF00F064FAF6D97F
:1017E00089E000F031FA3067FEF788FF054641F2E4
:1017F0008837306F80077FF503AFFEF77FFF411B0F
:101800000320B942F5D976E000440258306F40F029
:1018100004003067306F40F001003067FEF76EFF64
:10182000054641F28837306F80073FF5E9AEFEF795
:1018300065FF411B0320B942F5D95CE004F128059E
:10184000B06A40F2F33188432ECD0843591E40EA76
:101850000210B0626FF35F214FF4FE024FF47E403E
:1018600000EB452080B20844A16B02EB01414FF030
:10187000FE4201F4FE010844E16B02EB016101F05C
:10188000FE41084430634FF6F871F06A20F0010021
:10189000F062706B8843A16C40EAC1007063206CF9
:1018A000F16A21F00C010843F062F06A616C20F0EB
:1018B00002000843F062F06A40F48030F062F06A9F
:1018C00040F40030F062F06A40F48020F062F06A88
:1018D00040F00100F062306840F0807000F022F9C2
:1018E0000446306880013FF5BAAEFEF707FF011BE2
:1018F00003200229F5D9F8BD411E0020B0EB116F7D
:1019000001D001207047044AF023516003490B7055
:10191000906007211160704710E000E023ED00E0C7
:10192000C16F012901D1022111E02421C0F88010EA
:1019300001680A680B6823F001030B6022F0005273
:101940000A6000214166C1672022C0F88020084655
:101950007047B0B50446C06F012801D10220B0BD68
:1019600000F009F922F0606200F085F900F029B971
:10197000B0B50446C06F012801D10220B0BD00F00F
:10198000FAF822F0604200F076F900F01AB910B5CA
:1019900048B10446D0F8800008B900F0A0F900F082
:1019A000DFF8012801D1012010BDA06A08B100F0C4
:1019B00077F900F06EF921F02A01816000F0C3F997
:1019C000BDE8104000F0DEBB10B586B0044601A8AB
:1019D0001421FEF749FD20684F49884221D1334840
:1019E000016941F010010161016901F010010091EC
:1019F0000099016841F002010160006800F00200F6
:101A00000090042005900320049000200390022001
:101A100002904FF440400190009801A90248FEF75F
:101A20009DFD06B010BD00BF00040258FEE7000097
:101A300070B586B01D48002505951D4C00224FF459
:101A40008076016841F480710160016801F4807161
:101A500000910099016841F080010160016801F086
:101A6000800100910099016841F002010160016864
:101A700001F0020100910099016841F0010101604B
:101A800000684FF4807100F001000090009820463B
:101A9000FEF729FE0120CDE90355CDE9016001A93A
:101AA0002046FEF75BFD06B070BD00BFE044025863
:101AB0000020025810B5174C0C2000214FF4E132E1
:101AC000154BC4E90032C4E90211C4E9041004F161
:101AD00018001421FEF7C8FC2046FFF758FF08B194
:101AE000FEF727FD0B480021FFF742FF08B1FEF784
:101AF00020FD08480021FFF72CFF08B1FEF719FD73
:101B00000448FFF70DFF18B1BDE81040FEF711BD06
:101B100010BD00BF7000002400100140FEE7FFF779
:101B2000ADFCFEE73060FEF7E9BDC2F34622B8EE39
:101B3000433A32EE002A81EE031A21EE021A02EE37
:101B4000102AB8EE422A32EE002A81EE022ABCEEBA
:101B5000C22A80ED002A7047001BB0F57A7F7047DB
:101B60002420C4F880002068016821F00101016090
:101B7000204600F031BB2420C4F8800020680568AE
:101B8000026822F0010202600122E2678268704767
:101B9000306820F480303060306820F48020704756
:101BA000DAF81C00514640F40030CAF81C007047B7
:101BB0002860FEF7A3BD586D9C4600F0070005287D
:101BC00070472068202105600020E067C4F880107D
:101BD000B0BD04F12400002100F02CB9201D01212A
:101BE00000F0C8B821F4D0710160816821F00101D2
:101BF00081602020C4F880007047DAF84810002582
:101C000052467047DAF8401000255246704709687E
:101C1000C1F30211515C01F01F01C84080BD201DBD
:101C2000022100F0A7B8DAF84410002552467047A8
:101C30000843CAF8480070473860FEF75FBDF8698E
:101C400040F40030F8617047306F20F001003067D9
:101C5000306F20F004007047C1F3066102EE101AE5
:101C6000B8EE422A32EE000A81EE000ABCEEC00A4B
:101C700010EE101A704711438160204600F00CBA34
:101C80000843CAF84000704700222B46204600F067
:101C90004DBC2068416821F49041416081687047E3
:101CA000204600F01BBA411B032002297047C2F3F3
:101CB000064202EE102AB8EE422A32EE002A81EEE7
:101CC000022ABCEEC22A80ED012A704702F070029F
:101CD0009142704704F12400022100F0ABB80020CB
:101CE000E0672046FFF770BE515C01F01F01C8405D
:101CF00080BDB8626FF35F214FF47E4000EB42205D
:101D00004FF0FE4280B208444FF4FE0101EB034164
:101D100001F4FE010844296902EB016101F0FE4172
:101D2000084470476FF35F2302EE103AB8EE422A80
:101D300000EE032A03EE102AB7EE000A7047201DBA
:101D4000002100F017B8016841F001010160204650
:101D5000704704F12400012100F06CB8C5F3CC05F4
:101D600003F003036C43022B00EE104AB8EE400A66
:101D700070477047F8B5C04F0546B86A00F00300D9
:101D8000032801D10120F8BD38680C4620F080609E
:101D9000FFF752FF06463868000105D5FEF7AEFC96
:101DA000801B0228F7D941E095E80F00BE6A26F4AF
:101DB0007C36013946EA0030FFF79BFFB86368695B
:101DC000F96A21F0C0010843F862A869F96A21F0B4
:101DD00020010843F8624FF6F871F86A20F010000D
:101DE000F862F86B8843E969012C40EAC100F863A6
:101DF000F86A40F01000F8624FF4001008BF4FF48A
:101E00008010002C08BF4FF40020F96A0843F862E4
:101E1000386840F08060FFF70FFF04463868000123
:101E200006D4FEF76BFC001B0328F7D30320F8BD94
:101E30000020F8BDF8B5904F0546B86A00F00300E1
:101E4000032801D10120F8BD38680C4620F08050ED
:101E5000FFF7F2FE06463868800005D5FEF74EFC17
:101E6000801B0228F7D941E095E80F00BE6A26F0F2
:101E70007C76013946EA0050FFF73BFF3864686919
:101E8000F96A21F440610843F862A869F96A21F40B
:101E900000710843F8624FF6F871F86A20F4807018
:101EA000F862786C8843E969012C40EAC1007864E3
:101EB000F86A40F48070F8624FF0807008BF4FF409
:101EC0000000002C08BF4FF48000F96A0843F86254
:101ED000386840F08050FFF7AFFE04463868800055
:101EE00006D4FEF70BFC001B0328F7D30320F8BD34
:101EF0000020F8BD7047FEF705BC0000B0B5CCB0BF
:101F000039A84C21FEF7B0FA31A82021FEF7ACFA2F
:101F100002A8BC21FEF7A8FA0220FEF78FFC0020E1
:101F200001902C48016841F440410160016801F4CE
:101F30004041019128490A6842F001020A6009689B
:101F400001F001010191019901688904FCD5022089
:101F5000C0210024CDE94A44082549954890CDE99F
:101F60004600459105214491CDE942004FF480306F
:101F70003A900120399039A8FFF78EFA18B1EFF3A3
:101F8000108072B6FEE740204FF4806137913890A0
:101F9000CDE93500CDE933450320329004213F20BF
:101FA000319031A8FFF7ACF818B1EFF3108072B69A
:101FB000FEE7002020900120029002A8FEF7F8FC26
:101FC00018B1EFF3108072B6FEE7FFF7A1F94CB03D
:101FD000B0BD00BF184802582C040058B0B52448C2
:101FE000244BD0F8801041F47001C0F880101968BB
:101FF00001F00F01062904D81968072262F30301D2
:1020000019601D491D4D0A6842F001020A60002254
:102010000A610C682C400C601C68240704D51C68FD
:10202000072565F303041C60154B8A61CA610A62C7
:102030008B62144BCB62144B0B634A638B63CA6392
:102040000B644A640B6823F480230B600A660F4913
:102050000968B2EB517F02D10D4901220A600D4996
:1020600043F2D2020A604FF000610160B0BD00BFD0
:1020700008ED00E000200052004402587FEDF6EA2F
:10208000000202020000FF01800201010010005C5A
:102090000881005100400052B0B5416E91B1026814
:1020A0000C4B0D4D91689268520FC1F342615C5C1C
:1020B000695C9B5CAA5C09011201B1FBF4F1B2FB03
:1020C000F3F201E001220121A0F86810A0F86A20D3
:1020D000B0BD00BF222600081A26000810B5816A8C
:1020E000CA0706D00268C36A546824F40034234344
:1020F00053608A0706D50268036B546824F4803461
:10210000234353604A0706D50268436B546824F49E
:102110008024234353600A0706D50268836B546802
:1021200024F4004423435360CA0606D50268C36BF7
:10213000946824F48054234393608A0606D5026889
:10214000036C946824F40054234393604A060FD52B
:102150000268436C546824F480141C435460B3F543
:10216000801F05D1836C546824F4C004234353605A
:10217000090606D50168C06C4A6822F400221043A3
:10218000486010BDBCB504460020C4F88800FEF7C6
:10219000B5FA054620680168090708D56FF07E404A
:1021A00000904FF40011FFF76FFD58B920680068E8
:1021B000400709D56FF07E4000904FF48001FFF793
:1021C00063FD08B10320BCBD00202021C4F88010AD
:1021D000E067C4F88410BCBDFEB5044601688068A1
:1021E000974ED4E903230D682E4018436569636E4A
:1021F0002843E56928431843924B30430860924EC8
:10220000486820F4405010434860A069B1421CBFA8
:10221000226A10438A681A408C4B10438860626AB5
:10222000C86A20F00F001043C8628948814228D054
:10223000884881422FD08848814236D087488142E1
:102240003DD08748814200F043808648814200F0BB
:102250004880B14200F04E808348814200F05680B1
:102260008248814240F06880586D9C46C0F3C200AD
:10227000052800F262800127DFE800F0605456581C
:102280005A5CFFF798FC00F258800027DFE800F066
:10229000564A4C4E5052FFF78EFC00F24E800027FB
:1022A000DFE800F04C4042444648FFF784FC00F26F
:1022B00044800027DFE800F04236383A3C3EFFF722
:1022C0007AFC3AD80027DFE800F0392D2F3133357A
:1022D000FFF771FC31D80027DFE800F03024262812
:1022E0002A2CFFF768FC28D80027DFE800F0271B1E
:1022F0001D1F2123986D9C4600F0070005281CD85F
:102300000227DFE800F01B0F11131517586D9C46CC
:10231000C0F3C200052810D80127DFE800F00F0342
:102320000507090B042709E0082707E0102705E047
:10233000202703E0402701E09C4680277748B142F0
:102340000FD00121B5F5004F1BD1082F25D8DFE8AC
:1023500007F00570C7C773C7C7C78F00FEF7FCFF3C
:102360008AE0402F30D0042F31D0082F33D0102FE7
:1023700039D0202F41D0022F40F0B180FEF780FAF3
:102380002DE0082F14D8DFE807F0058CABAB8FAB3E
:10239000ABAB9300FEF7E0FF8EE0102F00F0A880BB
:1023A000202F6BD0402F40F09B804FF4004065E021
:1023B000102F00F0A880202F00F08080402F40F0E8
:1023C0008F804FF4004079E04FF4004015E06846FC
:1023D000FEF762FA02E06846FEF7A4FA01980028C8
:1023E0007BD0626A09E0DCF8000080064C4804D526
:1023F000DCF80010C1F3C101C8404A4931F812109D
:102400006268B0FBF1F002EB4201884267D3B0EBA7
:10241000023F64D8010E000210EB520041F10001AE
:102420000023FDF7A9FFA0F540713F4A914252D920
:1024300055E0FEF79BFF1FE06846FEF72DFA1AE015
:10244000F369FFCFFFF4FF11000C0058004402585D
:102450000044004000480040004C00400050004054
:1024600000780040007C0040001401400010014052
:102470006846FEF757FA019878B3626A294931F83D
:102480001210B0FBF1F061684A0802EB4000B0FBAB
:10249000F1F04FF6F071014021D0C0F34200084343
:1024A00019E0FEF763FF07E06846FEF7F5F902E082
:1024B0006846FEF737FA019878B1626A194931F82F
:1024C0001210B0FBF1F0616800EB5100B0FBF1F0CD
:1024D00080B2102803D32168C860002100E00121E8
:1024E00000204FF00112C4E91A2020670846FEBD03
:1024F000DCF8000080060A48C0D5DCF80010C1F303
:10250000C101C840BAE7DCF8000080060448D5D510
:10251000DCF80010C1F3C101C840CFE700093D005D
:102520000090D00302260008FFFC0F002DE9F843BD
:10253000DDF820900446984616460F46006809F1DB
:102540000105C1693940C91BB1FA81F14909B1429C
:102550001CD1002DF5D0FEF7D1F8A0EB08022068C1
:1025600001684A4515D8B9F1000F12D04907E8D5DE
:10257000C1690905E5D54FF4006101620168FFF703
:1025800031FBC4F8840004F1880006E00020BDE8B7
:10259000F883FFF727FB04F184000021E167202185
:1025A00001600320BDE8F883FEE70000FEF7B4F801
:1025B000FFF7A4FCFFF73CFAFFF77CFA054C204636
:1025C0004FF48071FEF788F84FF47A70FDF7B6FF8C
:1025D000F5E700BF00200258F1EE100A4FF6FF7138
:1025E000C0F2C03120EA010040F04070E1EE100A74
:1025F0007047000000000102030401020304060703
:102600000809010002000400060008000A000C008E
:1026100010002000400080000001010101030701BB
:10262000000008040204080101010000502600080F
:102630000000002410000000D402000860260008FA
:1026400010000024F0060000F00200080000000066
:102650000090D0030090D0031000000001000000A3
:040000050800029954
:00000001FF
