:020000040800F2
:10000000680C002439030008C72F0008712A000873
:10001000C52F00082D060008013D00080000000063
:100020000000000000000000000000000D35000886
:100030002F06000800000000893300080F35000873
:100040005303000853030008530300085303000838
:100050005303000853030008530300085303000828
:100060005303000853030008530300085303000818
:100070005303000853030008530300085303000808
:1000800053030008530300085303000853030008F8
:1000900053030008530300085303000853030008E8
:1000A00053030008530300085303000853030008D8
:1000B00053030008530300085303000853030008C8
:1000C00053030008530300085303000853030008B8
:1000D00053030008530300085303000853030008A8
:1000E00053030008530300080000000053030008F6
:1000F0005303000853030008530300085303000888
:100100005303000853030008530300085303000877
:100110005303000853030008530300085303000867
:100120005303000853030008530300085303000857
:100130005303000853030008530300085303000847
:1001400000000000000000000000000000000000AF
:100150005303000853030008530300085303000827
:100160005303000853030008530300085303000817
:100170005303000853030008530300080000000065
:1001800053030008530300085303000853030008F7
:1001900053030008530300085303000853030008E7
:1001A00053030008530300085303000853030008D7
:1001B00053030008530300085303000853030008C7
:1001C00053030008530300085303000853030008B7
:1001D00053030008530300085303000853030008A7
:1001E0005303000853030008530300085303000897
:1001F0005303000853030008530300085303000887
:100200005303000853030008530300085303000876
:100210005303000853030008530300085303000866
:1002200053030008530300085303000800000000B4
:1002300053030008530300080000000053030008A4
:100240005303000853030008530300085303000836
:100250005303000853030008530300085303000826
:100260005303000853030008530300085303000816
:100270005303000853030008530300080000000064
:100280005303000853030008530300080000000054
:10029000000000005303000800F002F800F03CF8F2
:1002A0000AA090E8000C82448344AAF10107DA45D1
:1002B00001D100F031F8AFF2090EBAE80F0013F0E7
:1002C000010F18BFFB1A43F001031847D83A00008A
:1002D000F83A0000103A24BF78C878C1FAD852071B
:1002E00024BF30C830C144BF04680C6070470000B0
:1002F0000023002400250026103A28BF78C1FBD82F
:10030000520728BF30C148BF0B6070471FB503F0CC
:100310001FFD1FBD10B510BD00F0D0F81146FFF74E
:10032000F5FF03F0F0FC00F0EEF803B4FFF7F2FF86
:1003300003BC00F0F5F80000094880470948004771
:10034000FEE7FEE7FEE7FEE7FEE7FEE7FEE7FEE785
:10035000FEE7FEE704480549054A064B70470000E2
:10036000293600089902000868060024680C002459
:10037000680800246808002453EA020C00F0698031
:100380002DE9F04B4FF00006002B1FBFB3FA83F5A9
:1003900003FA05F424FA05F65E4012BF1643B2FADA
:1003A00082F502FA05F4C5F120051EBF22FA05FC0C
:1003B00044EA0C04203556EA044C4FEA144418BFB2
:1003C000641C4FF000084FF00009904271EB030CE1
:1003D00039D3002919BFB1FA81F701FA07F6B0FA4B
:1003E00080F700FA07F6C7F120071EBF20FA07FCC6
:1003F00046EA0C062037B6FBF4FCA7EB0507103FD6
:1004000007F01F0BCBF120062CFA06F60CFA0BFBBB
:1004100044BFB3460026202FA4BF5E464FF0000B1A
:100420005BEA060C08BF4FF0010B19EB0B0948EB18
:100430000608ABFB027C06FB02CC0BFB03CCC01B0B
:1004400071EB0C01C1E70B46024641464846BDE848
:10045000F08B13B5084318BF4FF0FF300146AFF3E0
:100460000080BDE81C4070474FF0000200B5134605
:1004700094469646203922BFA0E80C50A0E80C50C4
:10048000B1F12001BFF4F7AF090728BFA0E80C5075
:1004900048BF0CC05DF804EB890028BF40F8042B6E
:1004A00008BF704748BF20F8022B11F0804F18BFDB
:1004B00000F8012B7047704770477047754600F091
:1004C0002BF8AE4605006946534620F007008546E6
:1004D00018B020B5FFF73EFFBDE820404FF0000602
:1004E0004FF000074FF000084FF0000BAC46ACE8AF
:1004F000C009ACE8C009ACE8C009ACE8C00921F00B
:1005000007018D46704710B50446AFF300802046C2
:10051000BDE81040FFF709BF0048704710000024F5
:1005200001491820ABBEFEE726000200704700001C
:10053000B0B504460068364940F48070884214BF64
:1005400035483448006810F4403F0ED001F0DAFC22
:1005500005466068B0F5803F05D0B0F5403F1FD03C
:10056000B0F5003F1DD1000C17E04FF4002000F063
:100570005BFF05466068A0F580214FEAB1410A297A
:100580000FD8DFE801F00606060606063A3C3E40B4
:1005900042006FF0010101EA5040B5FBF0F500E0C8
:1005A000AD0800F09DFC41F20301884209D82068A3
:1005B0001D4A9542816834BF21F4807141F48071F5
:1005C00019E01648854204D82068816821F44071FA
:1005D00011E01348854203D820680122816805E0B4
:1005E0002068104A9542816803D8022262F30921EB
:1005F00001E041F440718160B0BD2D09D1E76D0982
:10060000CFE7AD09CDE7ED09CBE72D0AC9E700BF7C
:1006100000210240082302400863025821BCBE00AA
:1006200041787D0181F0FA02012D3101FEE770472A
:10063000EFF3108072B6FEE7B0B5426D012A01D12A
:1006400002212BE0012242650368CD4A93421ED16C
:10065000D2F80831946823435B0718D40B68D2F8AA
:10066000084324F44044DBB14D682C43C2F80843EE
:100670009468D2F808512C43E40720D1D2F80843FB
:10068000896840F61F75AC431943214315E0816D1D
:1006900041F0200181650121002242650846B0BD7C
:1006A000C2F808439168D2F808311943C90706D146
:1006B000D2F8081340F61F739943C2F808130021BB
:1006C000EAE700BFF8B5044600200090606D0128FD
:1006D00001D10220F8BD20680D46012161658268C4
:1006E000520700F11881D5E90023160392FAA2F609
:1006F000B6FA86F608BF960EC2F3846206F01F06AD
:10070000B140C6693143C1611F2603F01F01C3F325
:1007100001238E4002FA01F100EB83031F6B27EAED
:1007200006063143196302F0FAFC71D12968AA6800
:1007300002F09FF98F48006800F07040B0F1805FD0
:1007400006D120680E22C16802EA510269690AE0F6
:1007500020686969C368C2685208DB064CBF02F0B2
:10076000080202F00E022B69042B27D12A68036EBF
:10077000910603F0F843B3EB826F03D1026E22F0CF
:1007800000420266426E02F0F8428A4203D1426E93
:1007900022F000424266826E02F0F8428A4203D1A1
:1007A000826E22F000428266C26E02F0F8428A42F5
:1007B0002ED1C16E21F00041C16629E091402A6826
:1007C000D5E906C702F0F842114300F1600252F881
:1007D000236006F00046314342F823102969012FB7
:1007E00052F8213023F0004308BF03F1004342F8E0
:1007F0002130ACF10101B1FA81F12A69490902F015
:100800001F02C9029140026922F4F04211430161C2
:100810008168C90740D1564B2968EE68D0F8C0708E
:1008200001EA03029C4606F018032CFA03F39743EF
:100830000B403B43C0F8C0304F4B9E4229D191FA48
:10084000A1F3002A4FF08067B3FA83F308BFC1F326
:1008500084635E1C012206F01F0107EB836306F030
:100860001E068A4003F0F843092E05D801EB41012A
:100870001A4342EA015108E01A4301EB41013F4BA0
:1008800003EB0151114341F00071AA6802F0F1F845
:100890002968B1F1FF3F01DD002041E0B048236845
:1008A000384AB04F00F5807543F48076AB42154668
:1008B00004BF42F20005C4F20205834208BF1D4690
:1008C000BE4245F442752D6811BF90688668D0F825
:1008D00008013043C0071ED12B4805F0E076814265
:1008E00008BF15F400001ED02848814208BF15F04B
:1008F000807030D00020934212D1254B994208BF1E
:1009000015F480010CD1D2F8080320F0E0703043D8
:1009100040F4800028E0A06D40F02000A065012098
:1009200000216165F8BD9342B6D1D2F808038B4926
:1009300020F0E070304340F40000C2F8080386481D
:100940000068B0FBF1F04000009000980028A3D0B0
:1009500000980138F8E793429ED1D2F8080320F0BE
:10096000E070304340F08070C2F8080394E700BFA5
:10097000FFFF0F000010005C0000FF47000020FE9A
:100980000020024000600258000084CB000052C7E3
:100990000000B8CFF8B504460020009094B3A06DD5
:1009A00028B9204600F0EAF800206065E06520687C
:1009B0008168890003D58168664A11408160816839
:1009C000C90012D46349826801F180511140634A21
:1009D00001F18051816060490968B1FBF2F1009139
:1009E000009911B100990139F9E78168C9000BD468
:1009F000A16D012541F01001A165E16D41F00101FA
:100A0000E16502E00125A3E000258168A26D02F006
:100A10001002C1F380018918A16D03D041F01000CC
:100A2000012594E021F481710231A1658168C90733
:100A300021D140F48072C24BC2499A4204D18A68E3
:100A4000D1F808311A4301E0474A1268D20712D19F
:100A500001F5807201F54273434E90421A4618BF69
:100A600006F54072884208BF1A461068616820F493
:100A70007C100843106000F033FAA36941F20406C9
:100A8000A168626B5B03B04209D3102907D1206AC9
:100A900042EA030141EA004141F01C0105E043EA5A
:100AA00002000143206A41EA0041012804D1606A42
:100AB0002E4A02EB40400143A06A20B100F4787056
:100AC0000843E16A01432068294BC2681A40114378
:100AD000C16002F024FB2BD1C16844F20302236BF6
:100AE000E66B9143626943EA82321143C160016956
:100AF000012E11D104F1400C1E4EE76C9CE80C1045
:100B000006EB02421C4E31401943114341EA0C01ED
:100B1000394341F0010101E021F001010161A16BC4
:100B2000026922F07042114301612046FFF700FD87
:100B30002068E268012A016B21F00F0102D1E2690D
:100B4000013A114301630121A06D61F30100A06529
:100B50002846F8BDC0FFFF5F00000024400D0300E1
:100B60000020024000210240086002580000FEFF01
:100B700003C0F0FF0000FFFF1EF800FC2DE9F0416C
:100B800086B0044601A81421FFF76EFC20686B496B
:100B9000884243D06A49884200F08D806949884282
:100BA00040F0C9806B4801684A1C0260664809B978
:100BB00002F00CFA01684FF000080327634D644E01
:100BC00002F086FB0091009902F06BFA0091009907
:100BD00002F064FB0091009902F036FB009000984F
:100BE000CDF80C800297C020019001AC2846214628
:100BF000B0473020CDE902780190214605F500602C
:100C0000B04705F580602146CDF80C80CDE901772D
:100C1000B0474FF4C050CDE9027887E04A484FF022
:100C200000080327494D4A4E016841F08071016078
:100C3000016801F0807100910099016841F0200184
:100C40000160016801F020010091009902F029FA89
:100C500000910099016841F080010160006800F096
:100C6000800000900098CDF80C8002974FF4FF6050
:100C7000019001AC05F5A0502146B04705F5006094
:100C80002146CDF80C80CDE90177B0470C20CDE9A5
:100C900002780190214605F5E050B0474FF08060A2
:100CA0004FF0806101F01AFD4FF000604FF00061DD
:100CB00001F014FD3FE0274801684A1C0260224809
:100CC00009B902F083F901684FF0000803271F4DAE
:100CD0001F4E02F0FDFA0091009902F0E2F9009136
:100CE000009902F0DBFA0091009902F0ADFA009051
:100CF0000098CDF80C800297C020019001AC2846E6
:100D00002146B0473020CDE902780190214605F513
:100D10000060B04705F580602146CDF80C80CDE934
:100D20000177B047CDE902784FF4C040019005F556
:100D3000A0502146B04706B0BDE8F08100600258DF
:100D40000021024000200240E04402580000025806
:100D5000590D0008700000242DE9F84F594A4FF052
:100D60000A0A4FF000084FF0010B4FF0000C9042C0
:100D7000554A08BF4FF0090A02444FEAB223092B33
:100D800038BF4FEAB22A00220D6835FA02F600F0A9
:100D900097800BFA02F715EA070900F084804E6885
:100DA000122E00F286800BFA06F414F0061F00F0F3
:100DB0008080032303FA0CF48368CD68A34305FA0B
:100DC0000CF56FEA040E2B43836033094568BD437D
:100DD000934057002B434360C3688C6803EA0E03BB
:100DE000BC402343C36046F01003122B11D16FF0B7
:100DF000030508F01C030F2405EA52059C40054436
:100E00002E6A26EA04040E6906FA03F323432B62D2
:100E10004E68036806F0030403EA0E03BC40234354
:100E20000360F3003FD5E44C294F4FF0B04E2368E8
:100E300043F00203236023680F2403F002030093AE
:100E4000009D08F00C0322F003059C400AFA03F30E
:100E5000EE5926EA04042343EB511C4FFB6F4D6807
:100E600043EA0904EE0358BF23EA0904FC67AE0312
:100E7000D7F8803043EA090458BF23EA0904C7F8C9
:100E80008040EE02DEF8003043EA090458BF23EA4E
:100E90000904CEF80040AD023B6843EA090458BF9C
:100EA00023EA09043C6008F104080CF1020C013249
:100EB0006AE70323674603FA0CF46FEA040E8BE734
:100EC000BDE8F88F002402580000FEA70400005877
:100ED00008040058002A08BF090481617047000017
:100EE00001480068000C70470010005C84480068EE
:100EF000704700BF426C202A02D1026C012A01D146
:100F0000022115E0242242640268136823F00103E1
:100F10001360136823F4805313601368194311603E
:100F2000116841F001011160202200210164426436
:100F300008467047426C202A02D1026C012A01D176
:100F4000022114E0242242640268136823F00103A2
:100F50001360136823F4706343EA01211160116880
:100F600041F0010111602022002101644264084621
:100F70007047000081B090490A6842F002020A609E
:100F8000096801F002010091009903490A681043C1
:100F9000086001B0704700BF04040058F8B1B0B554
:100FA0000446406C20B900202064204600F040F840
:100FB00024206064D4E90003D4E9021223F07063B2
:100FC000012A056825F0010505600361836823F4A3
:100FD0000043836005D141F40041816009E00120B4
:100FE0007047022A41F40441816002D14FF400614C
:100FF000416041680D4A04F1100511434160C16828
:1010000021F40041C1602ECD114341EA0321C160AA
:10101000216A29430160016841F00101016000205B
:10102000E064202161642063A064B0BD0080000200
:1010300010B586B0044601A81421FFF715FA206800
:101040002749884228D02749884247D1264C206822
:1010500040F002002060206800F0020000900420B0
:101060000590032004900020039012200290C020DD
:101070000190009801A91D48FFF76EFE1020FFF7B0
:1010800079FF2020FFF776FFA06840F40010A060F1
:10109000A06800F400101FE0134C0021206840F00D
:1010A00020002060206800F02000009003911221B1
:1010B0000420059003200490CDE90101009801A9C6
:1010C0000A4800F58050FFF747FEA06840F4800012
:1010D000A060A06800F480000090009806B010BDE9
:1010E0000058004000540040E044025800040258F8
:1010F0002848034940680A6810440860704700BFE8
:101100006006002480B5032000F07EF800F030FF78
:101110000E495B4B0A68096801F00F01C2F3032214
:10112000595C9A5C01F01F0102F01F02D0401A4A7C
:101130001060C84006490860002000F00BF808B1B4
:10114000012080BD00F02AF8002080BD184402581C
:101150000400002470B50F4E04467068B0B14FF41F
:101160007A71B1FBF0F00C490968B1FBF0F001F0C5
:10117000BFFA01250F2C0AD848B94FF0FF3021469D
:101180000022002500F01AF8346000E0012528460E
:1011900070BD00BF080000240000002481B0064894
:1011A000016841F002010160006800F00200009057
:1011B000009801B0704700BFF4440258F0B5184BD6
:1011C0004FF0FF361C68C4F30224E51E84F00704C8
:1011D00038BF002506FA05F7BA43042C28BF0424BB
:1011E00006FA04F4A14300F00F04A940043C1143A3
:1011F0002344044A09010C33B0F1FF3FC8BF8318F0
:101200001970F0BD00E400E005494FF6FF030A68DD
:101210001A4060F30A22034810430860704700BF79
:101220000CED00E00000FA05B0B50F4D2A68296802
:10123000520705D401F00701081A18BF0120B0BDFC
:1012400021F00701084301F054FF044655F8080C4B
:10125000800406D4FFF74AFE01F007FFF6D901200B
:10126000B0BD0020B0BD00BF0C48025880B500F0F2
:1012700049FE0249024A01F072BF00BF20440258F1
:101280006A3D0008B0B51C498B6A8A6ACC6A4D6B0E
:10129000C2F30512B2B104F0010402F064F815D0F3
:1012A000BBB90B689B0651BF9FED161A0B68C3F3C1
:1012B000C103154C42BF24FA03F301EE103AB8EE15
:1012C000411A08E00021C0E9001112E09FED0C1A5C
:1012D00001E09FED0A1A0B6B9FED0C3A02F022F829
:1012E0000A6B01F0ABFE0A6B01F0BAFF096B01F06B
:1012F0007BFF8160B0BD00BF004402580024744AE7
:1013000020BCBE4B0024744C0090D0030000003978
:10131000B0B51C498B6A8A6ACC6ACD6BC2F30532C0
:10132000B2B1C4F3001402F01EF815D0BBB90B68BB
:101330009B0651BF9FED161A0B68C3F3C103154CF2
:1013400042BF24FA03F301EE103AB8EE411A08E066
:101350000021C0E9001112E09FED0C1A01E09FEDA1
:101360000A1A8B6B9FED0C3A01F0DCFF8A6B01F0DF
:1013700065FE8A6B01F074FF896B01F035FF8160B7
:10138000B0BD00BF004402580024744A20BCBE4BCC
:101390000024744C0090D00300000039B0B51C4903
:1013A0008B6A8A6ACC6A4D6CC2F30552B2B1C4F33F
:1013B000002401F0D8FF15D0BBB90B689B0651BFC4
:1013C0009FED161A0B68C3F3C103154C42BF24FAF4
:1013D00003F301EE103AB8EE411A08E00021C0E92B
:1013E000001112E09FED0C1A01E09FED0A1A0B6C40
:1013F0009FED0C3A01F096FF0A6C01F01FFE0A6C9B
:1014000001F02EFF096C01F0EFFE8160B0BD00BF5E
:10141000004402580024744A20BCBE4B0024744C83
:101420000090D00300000039F8B5B0F5002F00F0AF
:101430005680B0F5007F21D0B0F5806F00F05C8061
:10144000B0F5006F00F06480B0F5805F23D0B0F598
:10145000804F2DD0B0F5803F39D0B0F5807F40F07F
:1014600078804849486800F00702042A00F2718039
:101470004848DFE802F0595E707D620041494868E3
:10148000C0F38212042A00F264804248DFE802F0CE
:101490004C51637055003B494868C0F30232042A3E
:1014A00000F257803B48DFE802F03F4456634800B3
:1014B0003448C068C0F3027105294AD83248DFE8D1
:1014C00001F003595D57464FFFF7D0FE50E02D481D
:1014D0000068C00328D501A8FFF71AFF47E0294993
:1014E000C86800F44030B0F5003F26D0B0F5803F2A
:1014F0003AD000282DD11CE02249C868C0F34252DE
:10150000042A26D82348DFE802F00F1426331800F7
:101510001C49C868C0F30262042A1AD81D48DFE8D3
:1015200002F003081A270C0001A8FFF7ABFE02988F
:101530001EE001A8FFF7ECFE10E0086810F0405034
:1015400010D0B0F1005F0BD0B0F1805F01D1104836
:101550000EE000200CE001A8FFF720FF019807E053
:101560000A4805E0084803E001A8FFF717FF0398C1
:1015700004B080BD01A8FFF7CBFED8E701A8FFF7B4
:101580000DFFD4E74C4402580090D00340787D0111
:1015900000093D000080BB002DE9F0470446C078FB
:1015A000A74F00071CD5606E4FEA3051032908D8B9
:1015B000DFE801F002090C11F96941F40031F96129
:1015C00009E001260DE001F0D2FD01E001F072FE1C
:1015D000064630B9606E396C21F440110843386416
:1015E00000266078BA46C00701D1354620E0606D1C
:1015F00004280BD83546DFE800F0030C0F12120068
:10160000F869354640F40030F86108E0012501270B
:101610000FE001F099FE01E001F07CFD05462F4648
:101620003DB9606D01F096FD21F0070101F0F0FD7C
:101630003746607880071ED5A06D4FEAB0100428A9
:1016400007D8DFE800F003090C0F0F0001F049FD97
:1016500008E0012501260FE001F076FE01E001F02F
:1016600059FD05462E463DB9A06D01F073FD21F4EC
:10167000E07101F0CDFD3E466078400702D4B046EF
:10168000574623E0D4F8A40057464FEA7050042888
:1016900007D8DFE800F0030A0D10100001F084FD08
:1016A00009E001254FF0010810E001F04DFE01E0D6
:1016B00001F030FD0546A84645B9D4F8A400B96C40
:1016C0000025B04621F460010843B8646078000743
:1016D00020D5D4F8A8004FEA3060042807D8DFE806
:1016E00000F003090C0F0F0001F05EFD08E001257A
:1016F000012710E001F028FE01E001F00BFD054696
:101700002F4645B9D4F8A80001F01FFD21F0E06193
:1017100001F036FD4746E07880071DD5A06C4FEA02
:101720003010032806D8DFE800F00B02080B01F0A8
:10173000D8FC05E0012501260FE001F018FD054663
:101740002E4655B9A06CDAF83C100025524621F01F
:1017500030010843CAF83C003E466078C0061ED5FA
:10176000E06D4FEA3030042807D8DFE800F00309C5
:101770000C0F0F0001F0B5FC08E0012501270FE078
:1017800001F0E2FD01E001F0C5FC05462F463DB940
:10179000E06D01F0DFFC21F4E04101F039FD374656
:1017A000607880061BD5206E4FEA3040052807D8A8
:1017B000DFE800F00C03090C0C0C01F0B7FC04E0AE
:1017C000012501260CE001F0C9FD05462E463DB974
:1017D000206E01F0BFFC21F4E02101F019FD3E462E
:1017E000607840061DD5D4F8AC004FEA307005286B
:1017F00007D8DFE800F00C03090C0C0C01F096FC94
:1018000004E0012501270DE001F0A8FD05462F4663
:1018100045B9D4F8AC0001F098FC21F0E04101F0AA
:10182000AFFC37466078000618D5E06E68B1B0F1BD
:10183000005F07D0B0F1805F22D101F052FC04E0DC
:101840001044025801F072FC05462E463DB9E06E88
:1018500001F080FC21F0405101F0DAFC3E46E078D6
:10186000C00702D1B04657461EE0606C57460328B9
:1018700009D8DFE800F00F020C0F01F095FC09E039
:1018800001250126EBE701254FF001080CE001F0EE
:101890006EFC0546A8463DB9606CF96B0025B04664
:1018A00021F003010843F863A078400601D44746BD
:1018B00016E0D7F8F00340F48070C7F8F003FFF7A4
:1018C00015FB0646D7F8F003C00507D4FFF70EFB5B
:1018D000801B6428F6D90325032701E02F467DB13C
:1018E0002078C00747D0A06F4FEAF000052832D813
:1018F000DFE800F037033437373701F017FC2FE00B
:10190000DAF86010D4F8B0005546414011F4407F39
:101910000BD0296E2A6E42F480322A6621F440717F
:101920002A6E22F480322A662966B0F5807F40F064
:10193000C381FFF7DBFA064641F288390327DAF85C
:101940006000800700F1B581FFF7D0FA801B032506
:101950004845F4D9C4E7012501260DE001F0FEFC5D
:1019600005462E4645B9A06F01F005FC21F038016F
:101970000843CAF844003E46207880071AD5606FB5
:10198000052807D8DFE800F00C03090C0C0C01F067
:10199000CDFB04E0012501270DE001F0DFFC054649
:1019A0002F4645B9606F01F0E6FB21F007010843BF
:1019B000CAF844003746207840071BD5D4F8900079
:1019C000052807D8DFE800F00C03090C0C0C01F027
:1019D000ADFB04E0012501260DE001F0BFFC05464A
:1019E0002E4645B9D4F8900001F0AFFB21F0070175
:1019F00001F0C6FB3E46207880061ED5D4F88C0048
:101A00004FEA3070052807D8DFE800F00C03090C16
:101A10000C0C01F099FC04E0012501270EE001F017
:101A200049FC05462F464DB9D4F88C0001F0A3FBC4
:101A300021F0E0410843CAF84400374620784006C8
:101A40001DD5D4F898004FEAB020052807D8DFE864
:101A500000F00C03090C0C0C01F076FC04E00125ED
:101A600001260DE001F026FC05462E4645B9D4F8C6
:101A7000980001F06AFB21F4E05101F081FB3E4641
:101A8000207800061DD5D4F89C004FEA7030052858
:101A900007D8DFE800F00C03090C0C0C01F054FC33
:101AA00004E0012501270DE001F004FC05462F4666
:101AB00045B9D4F89C0001F048FB21F4604101F0E5
:101AC0005FFB37462068010714D5D4F88010B1F5C4
:101AD000805F07D101F0EEFB002818BF01272068C6
:101AE000D4F88010DAF84420534622F440521143CF
:101AF000CAF84410C10614D5D4F89410B1F5807F0B
:101B000007D101F0D7FB002818BF01272068D4F8BF
:101B10009410DAF84820534622F440721143CAF870
:101B20004810000318D5D4F8A000B0F5003F09D044
:101B3000B0F5803F03D010BB01F006FC01E001F0DE
:101B4000B9FB05462E4645B9D4F8A00001F0FDFAD0
:101B500021F4403101F014FB3E46A07840071FD528
:101B6000D4F88400B0F5401F0FD0B0F5001F09D0A5
:101B7000B0F5801F40F09A8001F0B3FA05E001252E
:101B80000126EAE701F0EAFB05462F464DB9D4F8F5
:101B9000840001F0F0FA21F440110843CAF844002F
:101BA0003746A078C00701D13E4619E0E06CB0F599
:101BB000803F03D090B901F094FA02E001F0D7FA27
:101BC00005462E4665B9E06CDAF83C100025524611
:101BD00021F480310843CAF83C00E5E701250126DD
:101BE0002068810005D501F065FB002818BF01269B
:101BF000206881031BD5E16F6FF0010202EB3122F7
:101C0000022A0AD34FEA31223AB1012A06D1DAF880
:101C10001C2042F40032CAF81C200DB1012606E057
:101C2000DAF8442022F440721143CAF84410C10289
:101C300007D5216FDAF8402022F000421143CAF89C
:101C40004010C10008D5D4F8B410DAF8002022F40E
:101C500080421143CAF80010810207D5A16EDAF85C
:101C6000402022F080721143CAF8401041000CD588
:101C7000DAF8001021F40041CAF80010D4F8B810C6
:101C8000DAF800201143CAF80010B0F1FF3F07DC7A
:101C9000206DDAF83C1021F040510843CAF83C00AE
:101CA000002E18BF01263046BDE8F0870125012728
:101CB00077E75546D4F8B0002A68094900F4407324
:101CC00022F47C5201EA1011B3F5407F6FF31F300C
:101CD00008BF0A432A60296E084328660025E6E506
:101CE000CFFFFF00704700002DE9F843002800F007
:101CF000FB807F4D04468846286800F00F0088422C
:101D00000BD2286820F00F0040EA080028602868FD
:101D100000F00F00404540F0E7802068C94F4107C0
:101D200009D52169BA6901F0C1FA04D9BA6922F06A
:101D300070021143B961010709D56169FA6901F0BF
:101D4000B5FA04D9FA6922F070021143F961C106AB
:101D50000AD5A169FA6902F4E062914204D9FA69EC
:101D600022F4E0621143F961810609D5E1693A6A1A
:101D700001F09CFA04D93A6A22F0700211433962E8
:101D800010F002010AD0E268BB6903F00F039A4227
:101D900004D9BB6923F00F031A43BA61C2073AD0D2
:101DA000D4E90101BA6922F470621143B9610128D2
:101DB00007D0032809D002280BD1396889030CD435
:101DC00092E03968C90508D48EE03968890104D4E5
:101DD0008AE03968490740F187803969A94621F0CE
:101DE000070108433861FFF781F8064641F288355C
:101DF0006068396901F03801B1EBC00F07D0FFF717
:101E000075F8801BA842F3D90320BDE8F883206849
:101E10004D4600F0020151B1E168BA6902F00F02CB
:101E2000914204D2BA6922F00F021143B9612968C4
:101E300001F00F0141450AD9296821F00F0141EA5B
:101E400008012960296801F00F0141454CD1410783
:101E500009D52169BA6901F029FA04D2BA6922F0D8
:101E600070021143B961010709D56169FA6901F08E
:101E70001DFA04D2FA6922F070021143F961C10619
:101E80000AD5A169FA6902F4E062914204D2FA69C2
:101E900022F4E0621143F96180060AD5E069396AEB
:101EA00001F07001884204D2396A21F070010843C0
:101EB000386200F05DF8B9692C4A1F4BC1F3032169
:101EC000515C01F01F01C840B969186001F00F01B1
:101ED000515C01F01F01C8401849086005480068BE
:101EE000BDE8F843FFF736B90120BDE8F88300BF2D
:101EF00000200052080000245248016841F40021EB
:101F00000160704780B500F033F80A49174B0A6842
:101F1000096801F00F01C2F30322595C9A5C01F0D9
:101F20001F0102F01F02D040034A1060C84003495D
:101F3000086080BD184402580000002404000024FA
:101F400080B5FFF7DFFF0849084A0968C1F30211AD
:101F500001F0C5B980B5FFF7D5FF0349034A096809
:101F6000C1F3022101F0BBB91C4402586A3D0008CC
:101F700010B534490869C0F3C20003280FD0022805
:101F800004BF324810BD40B908688006334858D5B0
:101F90000968C1F3C101C84010BD2B4810BD8A6A51
:101FA000886ACB6A4C6BC0F30510F0B103F00103F3
:101FB000C4F3CC0402F003026343022A00EE103A99
:101FC000B8EE400A13D0AAB90A68920651BF9FED35
:101FD000221A0A68C2F3C102204B42BF23FA02F25E
:101FE00001EE102AB8EE411A06E0002010BD9FED68
:101FF000191A01E09FED161A0A6B9FED193A6FF35B
:102000005F2202EE102AB8EE422A00EE032AB7EE53
:10201000000A32EE000A02EE100A086BC0F34620F6
:10202000B8EE422A013081EE021A21EE000A01EEDA
:10203000100AB8EE411A80EE010ABCEEC00A10EE9A
:10204000100A10BD0044025800093D0040787D018F
:102050000024744A20BCBE4B0024744C0090D00372
:102060000000003910B5054C2068400504D5FFF785
:1020700039FE4FF48060606010BD00BF64440258B8
:10208000F8B5002800F0E18004460078D84EC0077B
:1020900012D0306900F03801B06A102905D0182933
:1020A0002AD100F00300022826D13068800303D52E
:1020B0006068002800F0C980207880074AD5306920
:1020C00010F03801B06A26D0182901D1800722D03B
:1020D0003068E168002900F0018120F01900084310
:1020E00000F0A9FF0546306840071BD4FEF7FEFE4E
:1020F000401B0228F7D94BE16068002800F02581D9
:10210000B0F5A02F00F03181B0F5803F00F03181B3
:1021100000F0DFFF30E13068400703D5E0680028B9
:1021200000F09380FEF7DCFE41F2030188420AD8FA
:102130002069716821F47C31402814BF41EA0030E5
:1021400041F4003005E02069716821F0FE4141EA68
:10215000006070602078C0063DD5306900F038011D
:10216000B06A082905D018291BD100F00300012806
:1021700017D13068C00502D5E069802865D1FEF727
:10218000AFFE41F2030188421ED8206A716821F037
:10219000F841202814BF41EA806041F0804070601F
:1021A00019E03068E169002900F0C08040F080004B
:1021B00000F041FF05463068C005E0D4FEF796FE0A
:1021C000401B0228F7D9E3E0206AF16821F07C5136
:1021D00041EA0060F0602078000738D4207880065B
:1021E00047D42078400756D4676A67B3306900F057
:1021F0003800182840F0CE80B16A306B012F24D00F
:10220000A26A01F0030393421FD1E26AC1F30511F0
:1022100091421AD10146226B6FF35F21013A91423C
:1022200013D1626BC0F34621013A91420DD1A26BEA
:10223000C0F30641013A914207D1E16BC0F3066059
:102240000139884201D1002049E10120F8BD706FB9
:10225000616999B340F001007067FEF747FE0546DB
:10226000706F8007BAD4FEF741FE401B0228F7D9F1
:102270008EE03068A169002949D040F4805000F018
:10228000DAFE054630688004ABD4FEF72FFE401B13
:102290000228F7D97CE0D6F8000440F48070C6F834
:1022A0000004FEF723FE0546D6F80004C00524D43A
:1022B000FEF71CFE401B6428F6D969E020F00100FF
:1022C0007067FEF713FE0546706F80077FF586AFD7
:1022D000FEF70CFE401B0228F6D959E020F0010061
:1022E00000F0A9FE0546306840077FF533AFFEF7E2
:1022F000FDFD00F0B1FFF6D9F1E0A068002864D040
:10230000052877D0012879D000F066FF79E020F425
:10231000805000F090FE0546306880047FF561AF84
:10232000FEF7E4FD00F098FFF6D9D8E020F0800039
:1023300000F081FE05463068C0057FF54CAFFEF722
:10234000D5FD00F089FFF6D9C9E000F0C2FE00F02B
:1023500072FE0546306880037FF5AEAEFEF7C6FD1F
:10236000411B03206429F5D9B9E0306840F480208E
:102370003060306840F4803000F05DFE0546306823
:1023800080033FF599AEFEF7B1FD401B6428F6D9F6
:102390000320F8BD306820F0807000F04CFE054648
:1023A000022F08D1306880013CD5FEF79FFD00F078
:1023B00053FFF7D993E0306880017FF544AFFEF713
:1023C00095FD00F049FFF6D989E000F005FF306780
:1023D000FEF78CFD054641F28837306F80077FF5A8
:1023E00003AFFEF783FD411B0320B942F5D976E028
:1023F00000440258306F40F004003067306F40F006
:1024000001003067FEF772FD054641F28837306FF4
:1024100080073FF5E9AEFEF769FD411B0320B94295
:10242000F5D95CE004F12805B06A40F2F331884345
:102430002ECD0843591E40EA0210B0626FF35F21AF
:102440004FF4FE024FF47E4000EB452080B208447A
:10245000A16B02EB01414FF0FE4201F4FE01084482
:10246000E16B02EB016101F0FE41084430634FF67D
:10247000F871F06A20F00100F062706B8843A16C83
:1024800040EAC1007063206CF16A21F00C0108433E
:10249000F062F06A616C20F002000843F062F06ABA
:1024A00040F48030F062F06A40F40030F062F06A8C
:1024B00040F48020F062F06A40F00100F062306881
:1024C00040F0807000F0B7FD0446306880013FF5B1
:1024D000BAAEFEF70BFD011B03200229F5D9F8BDAA
:1024E000F8B538B3044600204149A062206888420C
:1024F00008D0404A904205D03F4A904202D0E2685C
:102500000F2A17D8E268E36B0125083205EB531355
:10251000D2085A4388420BD03749884208D0354BFD
:10252000984218BF082A05D8884218BF984203D19C
:10253000102A01D90120F8BDD4F8841029B900F07F
:102540006BFE204600F05AF820680221C4F884107F
:1025500000F06BFEA2696168B2F1806F08BFB1F54F
:10256000800F07D1A16B19B9016841F48051016056
:102570004FF48001E369A56AD4E902C62B43E56BF9
:102580002B43D4E9047533438360636B1A43636A56
:102590001A43A36B1A43236A3A432A431A43D4E9E2
:1025A00012350A432A4342EA0C021A43A36D1A4326
:1025B000C26049B98268012363F3CC22826002239E
:1025C000826863F34A228260026D490222F00102AE
:1025D000026505D5616DC26822F000421143C160F9
:1025E0000020C4F888000121C4F88410F8BD00BFA1
:1025F00000380040003C004000300140F0B587B09A
:10260000044602A81421FDF72FFF20682F498842B5
:1026100021D02F49884256D12E48016941F40051FA
:102620000161016901F4005101910199016841F0D2
:1026300010010160006800F0100001900320059077
:102640000020049002200390642002900198224808
:1026500000F5805032E01F481F4C0325002602275A
:10266000416941F020014161416901F0200101917E
:102670000199016841F001010160016801F0010167
:1026800001910199016841F040010160006800F08A
:102690004000019001980595049603970820069044
:1026A0002020029002A92046FEF756FB4FF4A040DE
:1026B0000595CDE90376029004F5C05005210691F9
:1026C00002A9FEF749FB07B0F0BD00BF0014005897
:1026D00000340140E044025800000258034A1368E5
:1026E00023EA000008431060704700BF040400584C
:1026F000411E0020B0EB116F01D001207047044A49
:10270000F023516003490B709060072111607047FE
:1027100010E000E023ED00E070B5C36B0222012B56
:102720002DD002640122C263184C026842F4806614
:1027300055689368A64202BF25F470054E6835437C
:102740000E6825F0700535435560B2F1804F1CBF0F
:10275000314DAA420AD00E4DAA421CBF0D4DAA42CD
:1027600004D00D4DAA4218BFA2420AD123F0800323
:102770008968194391600022C263012101641046F7
:1027800070BD264CA242F1D0F5E700BF0004014025
:1027900000080040000C00400018004058B110B57F
:1027A0000446006C18B900F08FFD00F007F800F047
:1027B000E5FD00F064BD01207047000083B00068B3
:1027C000B0F1804F10D01449884218D01349884284
:1027D0001FD11348816841F001018160806800F0D9
:1027E00001000290029814E00D48016841F00101D7
:1027F0000160006800F001000190019809E00848BC
:10280000016841F002010160006800F002000090E0
:10281000009803B0704700BF000400400000014072
:10282000E8440258B0B500F08AFD2ED020640120A3
:10283000E0632E4D2068024652F8083F2B4013609B
:102840000B68BBB1102B15D0202B18BF302B11D02B
:10285000402B28D0502B2FD0602B36D024488342D9
:1028600008D0B3F5005F3CD0B3F5801F18BFB3F1BB
:10287000101F0BD1106821490840184340F0070091
:1028800010600020E06301212164B0BD194883423B
:10289000F0D019488342EDD0702BF2D100F077FCD4
:1028A00040F07700ECE700F038FD2268134952F859
:1028B000080F08404730E3E700F02FFD22680F497A
:1028C00052F8080F08405730DAE74B68CA681946D3
:1028D00000F07DFF2268094952F8080F0840673070
:1028E000CEE700F054FC40F48040C9E78800CEFFFA
:1028F00040001000200010003000100088FFCFFFC3
:10290000C16F012901D1022111E02421C0F88010FA
:1029100001680A680B6823F001030B6022F0005283
:102920000A6000214166C1672022C0F88020084665
:102930007047B0B50446C06F012801D10220B0BD78
:1029400000F0A2FB22F0606200F05DFC00F0DABB58
:10295000B0B50446C06F012801D10220B0BD00F01F
:1029600093FB22F0604200F04EFC00F0CBBB10B5B0
:1029700048B10446D0F8800008B900F0A0FC00F08F
:1029800078FB012801D1012010BDA06A08B100F038
:1029900058FC00F04FFC21F02A01816000F0D8FCC7
:1029A000BDE8104000F09ABF10B586B0044601A8FB
:1029B0001421FDF759FD20682949884216D029497C
:1029C00088422DD02849884247D1BD48016941F04D
:1029D00010010161016901F0100100F072FB042196
:1029E00000F0020000904FF4404029E0B4488168B4
:1029F00041F400318160816801F400310091009957
:102A0000016841F0010101600068072100F0010048
:102A100000900C20019000981448A0F5806012E00E
:102A2000A748816841F480218160816801F4802198
:102A300000F047FB072100F0020000904FF44060D7
:102A40000190009809480591032104910021039108
:102A50000221029101A9FEF77FF906B010BD00BF67
:102A600000440040004800400010014000040258AB
:102A7000FEE710B5C1F30453C1F3406107249C4045
:102A80009A4000EB81004169A1431143416110BDAF
:102A9000B0B58CB000250B95CDE9095501A82021D2
:102AA000FDF7E2FC194C012004214FF40022184BE1
:102AB0002562C4E90032C4E90255C4E9041500F0F6
:102AC00078FB2046FDF766FF08B1FDF7B1FD0995DB
:102AD0000E4809A9FDF7B0FD08B1FDF7A9FD0020DA
:102AE000089006900420059040F2FF7004900320A7
:102AF0000390062002900748019001A90348FDF7C2
:102B0000E1FD08B1FDF794FD0CB0B0BD74000024E8
:102B1000002002400400600870B588B0684620219B
:102B2000FDF7A2FC154C01204FF4002100250426DE
:102B3000134A2562C4E90021C4E90255C4E90465C9
:102B400000F037FB2046FDF725FF08B1FDF770FDCB
:102B500040F2FF700795CDE90465039069460320B4
:102B6000029006200190074800900448FDF7AAFD56
:102B700008B1FDF75DFD08B070BD00BFDC000024AA
:102B8000002102400800900CF0B589B001A8202176
:102B9000FDF76AFC174C4FF4002017490026012569
:102BA00004272662C4E9001004F128001821C4E9B2
:102BB0000266C4E90476C4E90665FDF755FC2046C3
:102BC000FDF7E8FE08B1FDF733FD40F2FF7008960F
:102BD000CDE905760490032003900620CDE901504D
:102BE00001A90448FDF76EFD08B1FDF721FD09B00C
:102BF000F0BD00BF440100240060025870B586B0EB
:102C00002F48002505952F4C00224FF4807601684F
:102C100041F010010160016801F01001009100997C
:102C2000016841F480710160016801F480710091D4
:102C30000099016841F020010160016801F0200164
:102C400000910099016841F080010160016801F084
:102C5000800100910099016841F004010160016860
:102C600001F0040100910099016841F00101016047
:102C7000016801F0010100910099016841F0020131
:102C80000160016801F0020100910099016841F0C2
:102C90004001016000684FF4807100F04000009036
:102CA00000982046FEF716F90120CDE90355CDE93D
:102CB000016001A92046FEF74FF806B070BD00BFC5
:102CC000E04402580020025810B50F4C01200021AA
:102CD000204A0E4B00F087F92046FEF75FF908B155
:102CE000FDF7A6FC08480021FEF704F908B1FDF73E
:102CF0009FFC05480021FEF71DF918B1BDE8104002
:102D0000FDF796BC10BD00BFAC010024005400408C
:102D100010B50F4C012000210E4A0F4B00F063F953
:102D20002046FEF73BF908B1FDF782FC0848002178
:102D3000FEF7E0F808B1FDF77BFC05480021FEF73F
:102D4000F9F818B1BDE81040FDF772BC10BD00BF26
:102D500000020024DB3FB00000580040B0B5084C32
:102D600000F02EFA074D00F047F900F0A2F92046D6
:102D7000FFF7B6FB18B1BDE8B040FDF759BCB0BDD8
:102D80005402002400340140B0B5084C00F018FA99
:102D9000074D00F031F900F08CF92046FFF7A0FB59
:102DA00018B1BDE8B040FDF743BCB0BDE00200245F
:102DB0000014005880B588B017480021174B0791C0
:102DC000CDE90511CDE903114FF6FF72CDE90111EF
:102DD000C0E90031C0E90212C0E904118161FFF7C6
:102DE000DDFC08B1FDF724FC4FF48050049004A9E9
:102DF0000948FFF717FD08B1FDF71AFC0020039002
:102E0000CDE9010001A90448FFF786FC08B1FDF7F0
:102E10000FFC08B080BD00BF6C030024000001401F
:102E200080B588B0134800210791CDE90511CDE99F
:102E300003114FF0FF324FF08043CDE9011100F054
:102E4000E7F808B1FDF7F4FB4FF48050049004A9B3
:102E50000848FFF7E7FC08B1FDF7EAFB0020039004
:102E6000019001A90348FFF757FC08B1FDF7E0FB0B
:102E700008B080BDDC03002480B588B01348002171
:102E80000791CDE90511CDE903114FF6FF72104B03
:102E9000CDE9011100F0BCF808B1FDF7C9FB4FF412
:102EA0008050049004A90948FFF7BCFC08B1FDF765
:102EB000BFFB00200390019001A90448FFF72CFC00
:102EC00008B1FDF7B5FB08B080BD00BF4C0400247D
:102ED0000004004010B5114C00F079F9104B00F0DF
:102EE0009FF82046FFF743FD08B1FDF7A1FB0B4813
:102EF0000021FFF72DFD08B1FDF79AFB07480021DF
:102F0000FFF717FD08B1FDF793FB0448FFF7F8FC46
:102F100018B1BDE81040FDF78BBB10BDBC04002408
:102F20000010014010B5114C00F051F9104B00F0A9
:102F300077F82046FFF71BFD08B1FDF779FB0B483A
:102F40000021FFF705FD08B1FDF772FB07480021DE
:102F5000FFF7EFFC08B1FDF76BFB0448FFF7D0FC6F
:102F600018B1BDE81040FDF763BB10BD4805002453
:102F70000044004010B5114C00F029F9104B00F04E
:102F80004FF82046FFF7F3FC08B1FDF751FB0B4863
:102F90000021FFF7DDFC08B1FDF74AFB07480021DF
:102FA000FFF7C7FC08B1FDF743FB0448FFF7A8FC97
:102FB00018B1BDE81040FDF73BBB10BDD40500249F
:102FC00000480040FEE7FFF74DF8FEE750F8081C08
:102FD00041F0200140F8081C50F8081C01F02001C5
:102FE000009100997047C4E90032C4E9021004F16D
:102FF00010001421FDF738BAC4E90053C4E90212E5
:10300000C4E90411A06104F11C001421FDF72CBADD
:103010008161C0E90031C0E902120161FFF7BEBB66
:10302000C4E90032C4E90211C4E9041004F1180033
:103030001421FDF719BA3060FDF758BFC2F34622DC
:10304000B8EE433A32EE002A81EE031A21EE021A5C
:1030500002EE102AB8EE422A32EE002A81EE022A4F
:10306000BCEEC22A80ED002A7047001BB0F57A7FC3
:1030700070472420C4F880002068016821F0010115
:103080000160204600F054BC2420C4F88000206871
:103090000568026822F0010202600122E26782688C
:1030A0007047016841F004010160016801F004010A
:1030B00070474FF080406063242104F13800FDF731
:1030C000D3B900910099016841F0020101600068E4
:1030D0007047306820F480303060306820F4802001
:1030E0007047DAF81C00514640F40030CAF81C0062
:1030F00070472860FDF7FABE586D9C4600F0070047
:10310000052870472068202105600020E067C4F88A
:103110008010B0BD04F12400002100F097B981684F
:103120008268D20842EA9101C9077047201D012137
:1031300000F02CB921F4D0710160816821F0010107
:1031400081602020C4F880007047DAF8481000251C
:1031500052467047DAF84010002552467047096819
:10316000C1F30211515C01F01F01C84080BD201D58
:10317000022100F00BB9DAF84410002552467047DE
:103180000843CAF8480070473860FDF7AFBED1E980
:103190000103C968184340EA0120116821F47F4106
:1031A0000843106010687047F86940F40030F86117
:1031B0007047C4E9065004F128001821FDF754B9FE
:1031C0004FF08060002103224FF4800370470C20F1
:1031D00000214FF4E1327047306F20F0010030677A
:1031E000306F20F004007047C1F3066102EE101A40
:1031F000B8EE422A32EE000A81EE000ABCEEC00AA6
:1032000010EE101A704711438160204600F0F0BAAA
:103210000843CAF8400070470020C4F88000704797
:1032200000222B46204600F02DBD016821F001014F
:10323000016070472068416821F4904141608168D5
:103240007047204600F0F6BA016841F020010160A5
:10325000006800F020007047411B032002297047DE
:10326000C2F3064202EE102AB8EE422A32EE002ADB
:1032700081EE022ABCEEC22A80ED012A70470120AD
:10328000E0666064A064E06420656065A065E06558
:1032900020666066A0662064002010BD016841F0D1
:1032A00002010160016801F00201704702F0700242
:1032B0009142704704F12400022100F0C7B80020B9
:1032C000E0672046FFF770BB0020E06320467047B0
:1032D00041F001010160016801F001017047515C9A
:1032E00001F01F01C84080BDB8626FF35F214FF449
:1032F0007E4000EB42204FF0FE4280B208444FF483
:10330000FE0101EB034101F4FE010844296902EBCF
:10331000016101F0FE41084470474B68CA681946D4
:1033200000F044BA6FF35F2302EE103AB8EE422A7F
:1033300000EE032A03EE102AB7EE000A7047044697
:10334000C26B0220012A7047201D002100F01EB828
:10335000016841F0010101602046704704F124003A
:10336000012100F073B8C5F3CC0503F003036C43EF
:10337000022B00EE104AB8EE400A7047022020648B
:10338000211D206800F0AEB970470000F8B5CD4FA0
:103390000546B86A00F00300032801D10120F8BDFA
:1033A00038680C4620F08060FFF7EEFE064638686D
:1033B000000105D5FDF79AFD801B0228F7D941E0F1
:1033C00095E80F00BE6A26F47C36013946EA0030E3
:1033D000FFF78AFFB8636869F96A21F0C001084302
:1033E000F862A869F96A21F020010843F8624FF6F3
:1033F000F871F86A20F01000F862F86B8843E96908
:10340000012C40EAC100F863F86A40F01000F8624D
:103410004FF4001008BF4FF48010002C08BF4FF489
:103420000020F96A0843F862386840F08060FFF7CE
:10343000ABFE04463868000106D4FDF757FD001BBB
:103440000328F7D30320F8BD0020F8BDF8B59D4F41
:103450000546B86A00F00300032801D10120F8BD39
:1034600038680C4620F08050FFF78EFE064638681C
:10347000800005D5FDF73AFD801B0228F7D941E011
:1034800095E80F00BE6A26F07C76013946EA0050C6
:10349000FFF72AFF38646869F96A21F4406108433C
:1034A000F862A869F96A21F400710843F8624FF6DE
:1034B000F871F86A20F48070F862786C8843E969E2
:1034C000012C40EAC1007864F86A40F48070F86228
:1034D0004FF0807008BF4FF40000002C08BF4FF47D
:1034E0008000F96A0843F862386840F08050FFF7BE
:1034F0004BFE04463868800006D4FDF7F7FC001B3D
:103500000328F7D30320F8BD0020F8BD7047FDF76E
:10351000EFBD0000B0B5CCB039A84C21FCF7A4FF3A
:1035200031A82021FCF7A0FF02A8BC21FCF79CFFDA
:103530000220FDF779FE002001903748016841F430
:1035400040410160016801F44041019133490A683A
:1035500042F001020A60096801F00101019101993C
:1035600001688904FCD52E4902230024082542580D
:1035700063F301024250C020CDE94A44CDE9483509
:10358000CDE94633459005204490CDE942334FF4D0
:1035900080303A900120399039A8FEF771FD18B1BA
:1035A000EFF3108072B6FEE740204FF48061379150
:1035B0003890CDE93500CDE9334503203290042120
:1035C0003F20319031A8FEF78FFB18B1EFF3108048
:1035D00072B6FEE700202D902A902290CDE91F00C0
:1035E0001A900A90052120200990C02008900220FE
:1035F000CDE9060005910C21CDE9030109480290AF
:1036000002A8FDF7C9FF18B1EFF3108072B6FEE70C
:10361000FEF772FC4CB0B0BD184802582C0400589C
:1036200010FCFFFF0B600800B0B52448244BD0F815
:10363000801041F47001C0F88010196801F00F018A
:10364000062904D81968072262F3030119601D498D
:103650001D4D0A6842F001020A6000220A610C68EE
:103660002C400C601C68240704D51C68072565F3F2
:1036700003041C60154B8A61CA610A628B62144B99
:10368000CB62144B0B634A638B63CA630B644A645B
:103690000B6823F480230B600A660F490968B2EBBC
:1036A000517F02D10D4901220A600D4943F2D20235
:1036B0000A604FF000610160B0BD00BF08ED00E09E
:1036C00000200052004402587FEDF6EA0002020298
:1036D0000000FF01800201010010005C0881005120
:1036E0000040005270B5294A0368904205D0B0F1FD
:1036F000804F1CBF264CA04234D123F070034C688D
:10370000234390420ED0B0F1804F0BD0204CA0420A
:103710001CBF204CA04205D0204CA0421CBF1E4C18
:10372000A04229D1CC6823F4407323434E6923F08F
:1037300080030C688D6833430360C56284629042E5
:103740000BD0154A904208D0154A904205D0154A30
:10375000904202D0144A904201D1096901630121CB
:10376000416170BD0B4CA042C7D00B4CA042C4D0ED
:103770000A4CA042C1D0C6E7094CA042D2D0094CA5
:10378000A042CFD0084CA042CCD0CFE700000140EF
:10379000000400400008004000040140000C00400C
:1037A00000400140004801400044014010B5036A58
:1037B000046A24F001040462846924F0F00444EAF9
:1037C0000212826123F00A021143016210BD036AF2
:1037D00023F010030362836923F4704343EA023247
:1037E000036A826123F0A00242EA0111016270477C
:1037F000B0B5416E91B102680C4B0D4D9168926865
:10380000520FC1F342615C5C695C9B5CAA5C09017C
:103810001201B1FBF4F1B2FBF3F201E0012201214C
:10382000A0F86810A0F86A20B0BD00BF9A3D00085B
:10383000923D000810B5816ACA0706D00268C36AC3
:10384000546824F40034234353608A0706D5026881
:10385000036B546824F48034234353604A0706D52D
:103860000268436B546824F48024234353600A079E
:1038700006D50268836B546824F4004423435360E4
:10388000CA0606D50268C36B946824F480542343A7
:1038900093608A0606D50268036C946824F4005489
:1038A000234393604A060FD50268436C546824F49E
:1038B00080141C435460B3F5801F05D1836C546899
:1038C00024F4C00423435360090606D50168C06C84
:1038D0004A6822F400221043486010BDBCB504467B
:1038E0000020C4F88800FDF701FB05462068016848
:1038F000090708D56FF07E4000904FF40011FFF7E4
:103900008FFC58B920680068400709D56FF07E40E9
:1039100000904FF48001FFF783FC08B10320BCBD89
:1039200000202021C4F88010E067C4F88410BCBDDA
:10393000FEB5044601688068974ED4E903230D68FC
:103940002E4018436569636E2843E5692843184390
:10395000924B30430860924E486820F44050104328
:103960004860A069B1421CBF226A10438A681A40AD
:103970008C4B10438860626AC86A20F00F001043C5
:10398000C8628948814228D0884881422FD088481F
:10399000814236D0874881423DD08748814200F03D
:1039A00043808648814200F04880B14200F04E805A
:1039B0008348814200F056808248814240F068800E
:1039C000586D9C46C0F3C200052800F262800127B2
:1039D000DFE800F0605456585A5CFFF78DFB00F2A8
:1039E00058800027DFE800F0564A4C4E5052FFF74F
:1039F00083FB00F24E800027DFE800F04C40424499
:103A00004648FFF779FB00F244800027DFE800F02A
:103A10004236383A3C3EFFF76FFB3AD80027DFE8E2
:103A200000F0392D2F313335FFF766FB31D80027F1
:103A3000DFE800F0302426282A2CFFF75DFB28D889
:103A40000027DFE800F0271B1D1F2123986D9C46EF
:103A500000F0070005281CD80227DFE800F01B0F44
:103A600011131517586D9C46C0F3C200052810D8D5
:103A70000127DFE800F00F030507090B042709E021
:103A8000082707E0102705E0202703E0402701E092
:103A90009C4680277748B1420FD00121B5F5004FF1
:103AA0001BD1082F25D8DFE807F00570C7C773C7FB
:103AB000C7C78F00FEF744FA8AE0402F30D0042FAA
:103AC00031D0082F33D0102F39D0202F41D0022FE2
:103AD00040F0B180FDF7CAFB2DE0082F14D8DFE8D5
:103AE00007F0058CABAB8FABABAB9300FEF728FABE
:103AF0008EE0102F00F0A880202F6BD0402F40F0D8
:103B00009B804FF4004065E0102F00F0A880202F2C
:103B100000F08080402F40F08F804FF4004079E02B
:103B20004FF4004015E06846FDF7F2FB02E06846FE
:103B3000FDF734FC019800287BD0626A09E0DCF8CC
:103B4000000080064C4804D5DCF80010C1F3C10128
:103B5000C8404A4931F812106268B0FBF1F002EB3C
:103B60004201884267D3B0EB023F64D8010E0002E5
:103B700010EB520041F100010023FCF7FDFBA0F522
:103B800040713F4A914252D955E0FEF7E3F91FE0F8
:103B90006846FDF7BDFB1AE0F369FFCFFFF4FF11A4
:103BA000000C005800440258004400400048004007
:103BB000004C00400050004000780040007C004075
:103BC00000140140001001406846FDF7E7FB019832
:103BD00078B3626A294931F81210B0FBF1F06168DC
:103BE0004A0802EB4000B0FBF1F04FF6F0710140E3
:103BF00021D0C0F34200084319E0FEF7ABF907E01B
:103C00006846FDF785FB02E06846FDF7C7FB0198B3
:103C100078B1626A194931F81210B0FBF1F06168AD
:103C200000EB5100B0FBF1F080B2102803D3216803
:103C3000C860002100E0012100204FF00112C4E91A
:103C40001A2020670846FEBDDCF8000080060A48FE
:103C5000C0D5DCF80010C1F3C101C840BAE7DCF8F8
:103C6000000080060448D5D5DCF80010C1F3C1017E
:103C7000C840CFE700093D000090D0037A3D00081E
:103C8000FFFC0F002DE9F843DDF82090044698462C
:103C900016460F46006809F10105C1693940C91B84
:103CA000B1FA81F14909B1421CD1002DF5D0FDF7DF
:103CB0001DF9A0EB0802206801684A4515D8B9F142
:103CC000000F12D04907E8D5C1690905E5D54FF4C1
:103CD000006101620168FFF72DFAC4F8840004F165
:103CE000880006E00020BDE8F883FFF723FA04F11E
:103CF00084000021E167202101600320BDE8F883F2
:103D0000FEE770477047FDF7FDF9FFF703FCFEF78C
:103D100075FFFFF7DFF8FEF7BBFEFEF7FDFEFEF7CF
:103D200033FFFEF7D1FFFEF7F3FFFFF717F8FFF7BA
:103D30002BF8FFF73FF8FFF773F8FFF79DF8FFF751
:103D4000F1F8FFF717F9FFF7DCFFFFF7DBFFFCE700
:103D5000F1EE100A4FF6FF71C0F2C03120EA010007
:103D600040F04070E1EE100A7047000000000102D0
:103D7000030401020304060708090100020004000D
:103D8000060008000A000C0010002000400080001F
:103D900000010101010307010000080402040801F9
:103DA00001010000C83D00080000002410000000D0
:103DB000D4020008D83D000810000024580C000070
:103DC000F0020008000000000090D0030090D00333
:083DD0001000000001000000DA
:040000050800029954
:00000001FF
