:020000040800F2
:10000000E8070024AD02000891510008094E0008DD
:1000100089510008E903000891640008000000000D
:100020000000000000000000000000001154000863
:10003000190A000800000000C951000849540008CE
:10004000C7020008C7020008C7020008C70200086C
:10005000C7020008C7020008C7020008C70200085C
:10006000C7020008C7020008C7020008F903000819
:1000700009040008C7020008C7020008C7020008F8
:10008000C7020008C7020008C7020008C70200082C
:10009000C7020008C7020008C7020008C70200081C
:1000A000C7020008C7020008C7020008C70200080C
:1000B000C7020008C7020008C7020008C7020008FC
:1000C000C7020008C7020008C7020008C7020008EC
:1000D000C7020008C7020008C7020008C7020008DC
:1000E000C7020008C702000800000000C70200089D
:1000F000C7020008C7020008C7020008C7020008BC
:10010000C7020008C7020008C7020008C7020008AB
:10011000F155000801560008C7020008C702000890
:10012000C7020008C7020008C7020008C70200088B
:10013000C7020008C7020008C7020008C70200087B
:1001400000000000000000000000000000000000AF
:10015000C7020008C7020008C7020008C70200085B
:10016000C7020008C7020008C7020008C70200084B
:10017000C7020008C7020008C7020008000000000C
:10018000C7020008C7020008C7020008C70200082B
:10019000C7020008C7020008C7020008C70200081B
:1001A000C7020008C7020008C7020008C70200080B
:1001B000C7020008C7020008C7020008C7020008FB
:1001C000C7020008C7020008C7020008C7020008EB
:1001D000C7020008C7020008C7020008C7020008DB
:1001E000C7020008C7020008C7020008C7020008CB
:1001F000C7020008C7020008C7020008C7020008BB
:10020000C7020008C7020008C7020008C7020008AA
:10021000C7020008C7020008C7020008C70200089A
:10022000C7020008C7020008C7020008000000005B
:10023000C7020008C702000800000000C70200084B
:10024000C7020008C7020008C7020008C70200086A
:10025000C7020008C7020008C7020008C70200085A
:10026000C7020008C7020008C7020008C70200084A
:10027000C7020008C7020008C7020008000000000B
:10028000C7020008C7020008C702000800000000FB
:1002900000000000C7020008DFF80CD000F090F862
:1002A0000048004771650008E807002406488047B9
:1002B00006480047FEE7FEE7FEE7FEE7FEE7FEE74B
:1002C000FEE7FEE7FEE7FEE7115500089902000889
:1002D0002DE9F05F0546002092469B46884606467B
:1002E000814640241BE0284641464746224600F00E
:1002F00057F853465A46C01A914110D31146184632
:10030000224600F03EF82D1A67EB01084F462246C0
:100310000120002100F035F817EB00094E41201EA6
:10032000A4F10104DFDC484631462A464346BDE8D5
:10033000F09FD2B201E000F8012B491EFBD27047BA
:100340000022F6E710B513460A4604461946FFF7A1
:10035000F0FF204610BD30B50B460146002020229C
:10036000012409E021FA02F59D4205D303FA02F5C2
:10037000491B04FA02F52844151EA2F10102F1DC22
:1003800030BD202A04DB203A00FA02F10020704739
:100390009140C2F1200320FA03F3194390407047C3
:1003A000202A04DB203A21FA02F00021704721FACA
:1003B00002F3D040C2F12002914008431946704731
:1003C000064C074D06E0E06840F0010394E80700A2
:1003D00098471034AC42F6D3FFF762FF7867000805
:1003E0009867000800000000FEE700000000000021
:1003F000B0F900007047000080B540F2D400C2F2AE
:10040000004001F005F880BD80B540F25800C2F20E
:10041000004000F0FDFF80BD40F20F420168C4F2D1
:100420000202914210DC6F22C4F20202914220DCEF
:100430003F22C4F20202914236DC1022C4F20202D0
:10044000914254D028224EE040F26F42C4F20202A0
:1004500091421ADC40F23F42C4F2020291422ADC8D
:1004600040F21042C4F20202914240D040F22842CF
:1004700039E09F22C4F20202914225DC7022C4F2CC
:100480000202914233D088222DE040F29F42C4F212
:10049000020291421FDC40F27042C4F20202914219
:1004A00025D040F288421EE04022C4F2020291426E
:1004B0001DD0582217E040F24042C4F2020291429D
:1004C00015D040F258420EE0A022C4F2020291423E
:1004D0000DD0B82207E040F2B842C4F202029142C5
:1004E00005D040F2A042C4F2020291421AD1D0F8E3
:1004F00000C06FF00F024AF6AB2352FA8CF2CAF634
:10050000AA23A2FB033109A35F2AC1F302115B5C9A
:1005100040F2FF312CEA0101036688BF0431C16556
:1005200008467047016821F0FF01F8E70006101641
:10053000000610160000000010B545F25742016891
:10054000C5F6020291420EDC45F22F42C5F60202C8
:10055000914217DC45F20842C5F60202914226D0CC
:1005600045F21C421FE045F27F42C5F6020291426D
:1005700011DC45F25842C5F60202914217D045F20D
:100580006C4210E045F23042C5F6020291420ED0B4
:1005900045F2444207E045F29442C5F60202914218
:1005A00005D045F28042C5F60202914219D1017888
:1005B0004CF6CD42CCF6CC4245F600030839C5F6E0
:1005C0000203A1FB021203F18001120903EB820373
:1005D00002F01F0243660123816603FA02F1C1663D
:1005E00010BD02784AF6AB23CAF6AA234FF0080ED4
:1005F000103AA2FB032340F20F42C4F202024FEA78
:10060000131C914202F1AA04624688BF0EEB13123A
:1006100040F60003A142C4F2020303F1800128BFA7
:100620006246D3E70000000010B50279511E072989
:1006300088BF10BD45F2574C45F6FC0E0368C5F661
:10064000020CC5F6020E63450EF1440C0EDC45F2B9
:100650002F44C5F60204A34217DC45F20844C5F650
:100660000204A34226D045F21C441FE045F27F4419
:10067000C5F60204A34211DC45F25844C5F6020453
:10068000A34217D045F26C4410E045F23044C5F661
:100690000204A3420ED045F2444407E045F28044F0
:1006A000C5F60204A34205D045F29444C5F60204FF
:1006B000A34209D10EEB820202670122C0F874C086
:1006C00002FA01F1816710BD40F6FC0EC4F2020E81
:1006D0000EF1440CEEE700008169B1F5005F07D030
:1006E00079B9816A022912D0012916D079B112E0B4
:1006F000816A03290FD8DFE801F0020A0210012005
:100700007047816A03293CBF0120704703D1C06A4A
:10071000C0F30060704700207047C06AA0F1C0704D
:10072000B0FA80F04009704770B540F26F44D0F8DD
:1007300000E0C4F20204D0F85CC0A64519DC9F2595
:10074000C4F20205AE4531DC5725C4F20205AE45C0
:1007500056DC1025C4F20205AE4500F09280282533
:10076000C4F20205AE4500F08C804025C4F20205BB
:1007700084E045F22F45C5F60205AE452BDC40F27C
:10078000B745C4F20205AE4548DC40F27045C4F2FC
:100790000205AE4575D040F28845C4F20205AE456B
:1007A0006FD040F2A045C4F2020567E040F2274551
:1007B000C4F20205AE4540DCA025C4F20205AE45F8
:1007C0005FD0B825C4F20205AE455AD040F21045BC
:1007D000C4F2020552E045F26B45C5F60205AE458E
:1007E0003CDC45F23045C5F60205AE4549D045F240
:1007F0004445C5F60205AE4543D045F258453BE0B9
:100800005825C4F20205AE453BD07025C4F202055E
:10081000AE4536D08825C4F202052FE040F2B84537
:10082000C4F20205AE452CD045F20845C5F60205D6
:10083000AE4526D045F21C451EE040F22845C4F2E4
:100840000205AE451DD040F24045C4F20205AE455A
:1008500017D040F25845C4F202050FE045F26C454E
:10086000C5F60205AE450CD045F29445C5F6020525
:10087000AE4506D045F28045C5F60205AE4540F0CE
:10088000C980856E066F002EC66E6E601CBFD0E9F3
:100890001D566E60A64515DC9F24C4F20204A645D1
:1008A0002BDC5724C4F20204A6454EDC1024C4F20B
:1008B0000204A64576D02824C4F20204A64571D0CD
:1008C00040246BE045F22F44C5F60204A64527DC20
:1008D00040F2B744C4F20204A64542DC40F2704440
:1008E000C4F20204A6455DD040F28844C4F202047A
:1008F000A64557D040F2A04450E040F22744C4F24D
:100900000204A6453CDCA024C4F20204A64549D05A
:10091000B824C4F20204A64544D040F210443DE09D
:1009200045F26B44C5F60204A6454FDC45F230445F
:10093000C5F60204A6455BD045F24444C5F6020460
:10094000A64555D045F258444EE05824C4F202045E
:10095000A64527D07024C4F20204A64522D08824DC
:100960001CE040F2B844C4F20204A6451AD045F295
:100970000844C5F60204A6453AD045F21C4433E0CB
:1009800040F22844C4F20204A6450BD040F2404491
:10099000C4F20204A64505D040F25844C4F2020451
:1009A000A64537D104683F258668006E402E00F0CA
:1009B0001F0005FA00F0CCF80800206820F4802021
:1009C0002060636021D0A160E26070BD45F26C449C
:1009D000C5F60204A6450BD045F28044C5F60204D4
:1009E000A64505D045F29444C5F60204A64511D1AA
:1009F00004680125066E806806F01F06402805FA87
:100A000006F6CCF80460636002D1A260E16070BDBC
:100A1000A160E26070BD00007047000000000000AF
:100A2000EFF3108072B600BFFEE700000000000088
:100A300040F21B00C2F2004003307047000000008B
:100A400010B540F21A0040F2A414C2F200400A218C
:100A5000C2F200440222017040F20401C2F20041DD
:100A6000204604F079F900BF204603F03DFD202820
:100A7000FAD140F2A41440F21B01C2F20044C2F2C7
:100A800000411222204604F05BF800BF204603F02C
:100A90002BFD2028FAD110BD10B582B040F21A010A
:100AA00040F2A414C2F20041C2F2004404228DF8C4
:100AB00007000A704FF44641ADF805100DF105012D
:100AC0000322204604F048F9204603F00DFD2028BB
:100AD000FAD140F2A41440F21801C2F20044C2F26A
:100AE00000410222204604F02BF800BF204603F00C
:100AF000FBFC2028FAD102B010BD0000000000006D
:100B000040F22E0C0022C2F2004C0A23ACF101018B
:100B100011F8010F013B1044C2B2F9D19CF80A0050
:100B2000801AB0FA80F04009704700000000000011
:100B300080B5FFF75DFC00EE100A9FED051BB8EED7
:100B4000C00B20EE010B9FED041B20EE010B80BDBE
:100B5000000000000000003F000000000080664030
:100B600010B540F22E04C2F20044A01CFFF7E0FFD3
:100B700040F24000C2F2004080ED000B201DFFF764
:100B8000D7FF40F24800C2F2004080ED000BA01DEC
:100B9000FFF7CEFF40F25000C2F2004080ED000BA4
:100BA00010BD0000000000002DE9F041044601F0F6
:100BB000BFFFFCB10546A06B02281ED140F20F47D3
:100BC0002068C4F2020740F26F48B842C4F202083B
:100BD0001ADC6F21C4F20201884226DC3F21C4F2F4
:100BE000020188423CDC1021C4F2020188425BD041
:100BF000282154E00120BDE8F0818020A06500207C
:100C000060630120BDE8F08140451ADC40F23F41BD
:100C1000C4F2020188422ADC40F21041C4F202010F
:100C2000884241D040F2284139E09F21C4F20201BC
:100C3000884225DC7021C4F20201884234D0882128
:100C40002DE040F29F41C4F2020188421FDC40F2D5
:100C50007041C4F20201884226D040F288411EE071
:100C60004021C4F2020188421ED0582117E040F210
:100C70004041C4F20201884216D040F258410EE0D1
:100C8000A021C4F2020188420ED0B82107E040F250
:100C9000B841C4F20201884206D040F2A041C4F239
:100CA0000201884240F0EC812668316821F01E0282
:100CB000314641F8142B6FF080020B68404502EA80
:100CC00003020A6019DC9F21C4F20201884231DC70
:100CD0005721C4F20201884256DC1021C4F20201FD
:100CE000884200F091802821C4F20201884200F07D
:100CF0008B804021C4F2020184E045F22F41C5F609
:100D0000020188422BDC40F2B741C4F20201884262
:100D100048DC40F27041C4F20201884274D040F2D3
:100D20008841C4F2020188426ED040F2A041C4F270
:100D3000020167E040F22741C4F20201884240DC30
:100D4000A021C4F2020188425ED0B821C4F202019F
:100D5000884259D040F21041C4F2020152E045F2FB
:100D60006B41C5F6020188423CDC45F23041C5F6D4
:100D70000201884248D045F24441C5F6020188424A
:100D800042D045F258413BE05821C4F2020188426A
:100D90003AD07021C4F20201884235D08821C4F2D1
:100DA00002012FE040F2B841C4F2020188422BD088
:100DB00045F20841C5F60201884225D045F21C41A2
:100DC0001EE040F22841C4F2020188421CD040F2E9
:100DD0004041C4F20201884216D040F25841C4F2A8
:100DE00002010FE045F26C41C5F6020188420BD0CA
:100DF00045F29441C5F60201884205D045F2804192
:100E0000C5F60201884269D1616EB8420A6822F4CF
:100E100080720A6010DC6F21C4F2020188421CDC7F
:100E20003F21C4F20201884232DC1021C4F20201E7
:100E3000884252D028214AE040451ADC40F23F4126
:100E4000C4F2020188422ADC40F21041C4F20201DD
:100E5000884242D040F2284139E09F21C4F2020189
:100E6000884225DC7021C4F20201884235D08821F5
:100E70002DE040F29F41C4F2020188421FDC40F2A3
:100E80007041C4F20201884227D040F288411EE03E
:100E90004021C4F2020188421FD0582117E040F2DD
:100EA0004041C4F20201884217D040F258410EE09E
:100EB000A021C4F2020188420FD0B82107E040F21D
:100EC000B841C4F20201884207D040F2A041C4F206
:100ED0000201884208BF206800E02068016821F014
:100EE000010101603068C0070DD001F021FE401BF8
:100EF0000628F7D32020A065002060630320A063AC
:100F00000120BDE8F0812068B84210DC6F21C4F2F6
:100F1000020188421CDC3F21C4F20201884232DC1B
:100F20001021C4F20201884250D028214AE04045F5
:100F30001ADC40F23F41C4F2020188422ADC40F24E
:100F40001041C4F20201884240D040F2284139E009
:100F50009F21C4F20201884225DC7021C4F2020103
:100F6000884233D088212DE040F29F41C4F2020133
:100F700088421FDC40F27041C4F20201884225D051
:100F800040F288411EE04021C4F2020188421DD097
:100F9000582117E040F24041C4F20201884215D0C6
:100FA00040F258410EE0A021C4F2020188420DD067
:100FB000B82107E040F2B841C4F20201884205D0EE
:100FC00040F2A041C4F2020188425ED1D4E9171276
:100FD00002F01F023F2303FA02F28A6040455EDC02
:100FE0009F21C4F20201884214DC5721C4F202019D
:100FF000884226DC1021C4F20201884200F0A2805F
:101000002821C4F20201884200F09C804021C4F2F1
:10101000020195E040F22741C4F2020188421EDC41
:10102000A021C4F20201884200F08C80B821C4F2F1
:101030000201884200F0868040F21041C4F20201B1
:101040007EE05821C4F2020188427BD07021C4F2B4
:101050000201884276D08821C4F2020170E040F299
:101060002841C4F2020188426CD040F24041C4F2EF
:101070000201884266D040F25841C4F202015FE0AA
:1010800021686FF00E020E4617E6D4E9171202F03F
:101090001F02012303FA02F24A604045A0DD45F237
:1010A0002F41C5F60201884216DC40F2B741C4F276
:1010B0000201884225DC40F27041C4F202018842FC
:1010C00040D040F28841C4F2020188423AD040F256
:1010D000A041C4F2020133E045F26B41C5F60201C2
:1010E00088421DDC45F23041C5F60201884229D014
:1010F00045F24441C5F60201884223D045F25841E9
:101100001CE040F2B841C4F2020188421AD045F214
:101110000841C5F60201884214D045F21C410DE099
:1011200045F26C41C5F6020188420BD045F294416C
:10113000C5F60201884205D045F28041C5F602019C
:1011400088420BD1A16EE26E206F4A6030B1016817
:1011500021F480710160D4E91D01416000206063C9
:101160000121A163BDE8F08180B5D0B1816B022976
:1011700019D140F20F420168C4F20202914216DC1A
:101180006F23C4F20203994226DC3F23C4F2020318
:1011900099423CDC1023C4F2020399425AD028231E
:1011A00054E0012080BD80218165012080BD40F296
:1011B0006F43C4F2020399421ADC40F23F43C4F287
:1011C000020399422ADC40F21043C4F2020399421E
:1011D00040D040F2284339E09F23C4F202039942F1
:1011E00025DC7023C4F20203994233D088232DE01A
:1011F00040F29F43C4F2020399421FDC40F2704365
:10120000C4F20203994225D040F288431EE04023F5
:10121000C4F2020399421DD0582317E040F2404324
:10122000C4F20203994215D040F258430EE0A023C5
:10123000C4F2020399420DD0B82307E040F2B8434C
:10124000C4F20203994205D040F2A043C4F2020363
:1012500099426FD191424FF00402826310DC6F22F9
:10126000C4F20202914220DC3F22C4F20202914207
:1012700036DC1022C4F20202914254D028224EE001
:1012800040F26F42C4F2020291421ADC40F23F4245
:10129000C4F2020291422ADC40F21042C4F202027D
:1012A000914240D040F2284239E09F22C4F202022B
:1012B000914225DC7022C4F20202914233D088228E
:1012C0002DE040F29F42C4F2020291421FDC40F244
:1012D0007042C4F20202914225D040F288421EE0E0
:1012E0004022C4F2020291421DD0582217E040F27F
:1012F0004042C4F20202914215D040F258420EE040
:10130000A022C4F2020291420DD0B82207E040F2BE
:10131000B842C4F20202914205D040F2A042C4F2A7
:101320000202914224D10068016821F001010160AC
:10133000002080BD0268136823F00E03136045F29D
:101340005742C5F6020291420A6822F001020A6081
:1013500014DC45F22F42C5F6020291421DDC45F233
:101360000842C5F6020291422CD045F21C4225E00B
:10137000086820F001000860002080BD45F27F422F
:10138000C5F60202914211DC45F25842C5F602024E
:10139000914217D045F26C4210E045F23042C5F65A
:1013A000020291420ED045F2444207E045F29442D7
:1013B000C5F60202914205D045F28042C5F602020E
:1013C00091421AD1D0E9191CD0E917E30A6822F436
:1013D00080720A6003F01F01012202FA01F1CEF8C7
:1013E0000410C16ECCF80410016F31B10A6822F408
:1013F00080720A60D0E91D124A6000214163012217
:101400008263426D0AB190470021084680BD00000A
:101410002DE9F04381B00021009140F2080104461B
:10142000C2F2004140F26F49E56D2668086848F253
:10143000B511C1F64E31C4F20209A0FB01084E45B8
:101440002F682A6815DC9F20C4F2020086422BDC3C
:101450005720C4F2020086424FDC1020C4F2020082
:10146000864278D02820C4F20200864273D0402001
:101470006CE045F22F40C5F60200864227DC40F2C0
:10148000B740C4F20200864243DC40F27040C4F22E
:10149000020086425FD040F28840C4F202008642D9
:1014A00059D040F2A04051E040F22740C4F202007F
:1014B00086423DDCA020C4F2020086424BD0B82018
:1014C000C4F20200864246D040F210403EE045F2AF
:1014D0006B40C5F60200864274DC45F23040C5F62A
:1014E0000200864200F0818045F24440C5F60200C9
:1014F00086427AD045F2584072E05820C4F2020089
:10150000864228D07020C4F20200864223D0882070
:101510001CE040F2B840C4F2020086421BD045F203
:101520000840C5F6020086425FD045F21C4057E0F5
:1015300040F22840C4F2020086420CD040F2404003
:10154000C4F20200864206D040F25840C4F20200C3
:10155000864240F0E384206E00F01F01082000FA6C
:1015600001F23A4200F0138140F20F40C4F202004F
:10157000864213DC6F20C4F20200864200F38E80A4
:101580003F20C4F20200864200F3CE801020C4F255
:101590000200864200F0EC802820E4E04E4500F393
:1015A000898040F23F40C4F20200864200F3C380CB
:1015B00040F21040C4F20200864200F0D98040F2AE
:1015C0002840D0E045F26C40C5F6020086420CD0BF
:1015D00045F28040C5F60200864206D045F29440AE
:1015E000C5F60200864240F099842068216E0368A7
:1015F00001F01F01580727D50420884010EA020790
:1016000022D01904686000F18780980600F1828476
:1016100040F20F40C4F20200864200F3A3836F2021
:10162000C4F20200864200F3DE833F20C4F20200CF
:10163000864200F346841020C4F20200864200F085
:101640006384282000F05CBC980742D502208840C3
:1016500010EA02073DD01904686000F1078398067C
:1016600000F18C8440F20F40C4F20200864200F385
:10167000A7836F20C4F20200864200F307843F2054
:10168000C4F20200864200F34C841020C4F202002F
:10169000864200F06984282000F062BC9F20C4F2DA
:1016A0000200864250DC7020C4F2020086425FD005
:1016B000882058E040F29F40C4F2020086424ADC93
:1016C00040F27040C4F20200864251D040F288409D
:1016D00049E0180740F1228408208840104000F0BB
:1016E0001D8440F20F40C4F20200864200F32483BE
:1016F0006F20C4F20200864200F347833F20C4F209
:101700000200864200F38B831020C4F2020086425E
:1017100000F0A9832820A1E3D80300F1AD82E16C99
:10172000002940F00483F9E34020C4F2020086421D
:101730001ED0582017E040F24040C4F2020086421A
:1017400016D040F258400EE0A020C4F202008642BB
:101750000ED0B82007E040F2B840C4F20200864242
:1017600006D040F2A040C4F20200864240F08882D7
:10177000206804230068184209D02068036823F019
:1017800004030360AA60A06D40F00100A065012081
:1017900000FA01F23A4270D040F20F40C4F2020067
:1017A000864210DC6F20C4F2020086421CDC3F201F
:1017B000C4F20200864232DC1020C4F202008642EB
:1017C00051D028204AE04E451ADC40F23F40C4F296
:1017D000020086422ADC40F21040C4F20200864237
:1017E00041D040F2284039E09F20C4F202008642F6
:1017F00025DC7020C4F20200864234D088202DE01F
:1018000040F29F40C4F2020086421FDC40F270406A
:10181000C4F20200864226D040F288401EE04020FA
:10182000C4F2020086421ED0582017E040F2404029
:10183000C4F20200864216D040F258400EE0A020CA
:10184000C4F2020086420ED0B82007E040F2B84051
:10185000C4F20200864206D040F2A040C4F2020068
:10186000864240F010822068406900F0800020B17C
:10187000AA60A06D40F00200A065042000FA01F209
:101880003A4270D040F20F40C4F20200864210DCAF
:101890006F20C4F2020086421CDC3F20C4F202002A
:1018A000864232DC1020C4F20200864251D0282049
:1018B0004AE04E451ADC40F23F40C4F20200864244
:1018C0002ADC40F21040C4F20200864241D040F2CD
:1018D000284039E09F20C4F20200864225DC7020B7
:1018E000C4F20200864234D088202DE040F29F40AE
:1018F000C4F2020086421FDC40F27040C4F20200D3
:10190000864226D040F288401EE04020C4F2020009
:1019100086421ED0582017E040F24040C4F2020038
:10192000864216D040F258400EE0A020C4F20200D9
:1019300086420ED0B82007E040F2B840C4F2020060
:10194000864206D040F2A040C4F20200864240F037
:10195000A0812068006800F0020020B1AA60A06D9C
:1019600040F00400A065102000FA01F139427ED059
:1019700040F20F40C4F20200864210DC6F20C4F235
:10198000020086421CDC3F20C4F20200864232DCA8
:101990001020C4F20200864251D028204AE04E4571
:1019A0001ADC40F23F40C4F2020086422ADC40F2D8
:1019B0001040C4F20200864241D040F2284039E093
:1019C0009F20C4F20200864225DC7020C4F202008F
:1019D000864234D088202DE040F29F40C4F20200BD
:1019E00086421FDC40F27040C4F20200864226D0DC
:1019F00040F288401EE04020C4F2020086421ED021
:101A0000582017E040F24040C4F20200864216D04F
:101A100040F258400EE0A020C4F2020086420ED0F0
:101A2000B82007E040F2B840C4F20200864206D077
:101A300040F2A040C4F20200864240F030812668A5
:101A400008223068104212D0A9602068016849035A
:101A5000016806D4C90506D4016821F008010160B7
:101A600001E008034FD4616C09B120468847206E1D
:101A7000202100F01F008140394200F0A98040F28F
:101A80000F432268C4F202039A4210DC6F23C4F2AF
:101A900002039A421CDC3F23C4F202039A4236DC62
:101AA0001023C4F202039A4255D028234EE04A453F
:101AB0001ADC40F23F43C4F202039A422EDC40F2A9
:101AC0001043C4F202039A4245D040F228433DE05D
:101AD0009F23C4F202039A4229DC7023C4F202035A
:101AE0009A4238D0882331E040F29F43C4F2020387
:101AF0009A4223DC40F27043C4F202039A422AD095
:101B000040F2884322E0E16C0029AED1AFE74023E8
:101B1000C4F202039A421ED0582317E040F2404319
:101B2000C4F202039A4216D040F258430EE0A023BA
:101B3000C4F202039A420ED0B82307E040F2B84341
:101B4000C4F202039A4206D040F2A043C4F2020358
:101B50009A4240F0A6802268102312681A4237D0B9
:101B6000A960A26B2168042A0A681BD122F0160220
:101B70000A604A6922F080024A61626C0AB9E26C2A
:101B80001AB10A6822F008020A603F2101FA00F047
:101B9000A860002060630120A063616D002940F00F
:101BA000C680BBE1500308680AD4C0050CD408689D
:101BB00020F010000860002060630120A06303E0B3
:101BC000000301D4A16C00E0216C09B120468847D4
:101BD000A06D002800F0A281A06DC00700F0A380D6
:101BE0000420A06340F20F412068C4F20201884241
:101BF00010DC6F21C4F2020188421CDC3F21C4F2D8
:101C0000020188424FDC1021C4F2020188426FD0E9
:101C1000282167E048451ADC40F23F41C4F2020146
:101C2000884247DC40F21041C4F2020188425FD092
:101C300040F2284156E09F21C4F20201884242DC72
:101C40007021C4F20201884252D088214AE040F259
:101C50009F41C4F2020188423CDC40F27041C4F270
:101C60000201884244D040F288413BE0D80375D459
:101C7000A16C00295BD151E1616C002957D14DE184
:101C80000823304676E53068002000287FF4F0AD68
:101C9000F3E53068002000287FF460AE63E604229C
:101CA000CFE6022359E74021C4F2020188421FD047
:101CB000582117E040F24041C4F20201884217D097
:101CC00040F258410EE0A021C4F2020188420FD038
:101CD000B82107E040F2B841C4F20201884207D0BF
:101CE00040F2A041C4F20201884208BF206800E02F
:101CF00020684FEA9821026822F00102026000BFCA
:101D0000009801300090884203D820680068C0071E
:101D1000F6D12068002161630068C0074FF003001E
:101D200008BF0120A063216D002900F0F780204644
:101D3000884701B0BDE8F0834E4532DC40F23F40B9
:101D4000C4F20200864271DC40F21040C4F202008C
:101D5000864200F0888040F228407FE0216C002914
:101D6000E5D1DBE04E454BDC40F23F40C4F20200DF
:101D7000864200F3AD8040F21040C4F20200864279
:101D800000F0C28040F22840BAE09F20C4F2020076
:101D9000864254DC7020C4F20200864263D0882060
:101DA0005CE040F29F40C4F2020086424EDC40F20A
:101DB0007040C4F20200864255D040F288404DE0A7
:101DC0004E456FDC40F23F40C4F20200864200F311
:101DD000AF8040F21040C4F20200864200F0C4809E
:101DE00040F22840BCE09F20C4F20200864278DC2A
:101DF0007020C4F20200864200F0868088207FE0D6
:101E000040F29F40C4F20200864271DC40F2704012
:101E1000C4F20200864277D040F2884070E0402051
:101E2000C4F2020086421ED0582017E040F2404023
:101E3000C4F20200864216D040F258400EE0A020C4
:101E4000C4F2020086420ED0B82007E040F2B8404B
:101E5000C4F20200864206D040F2A040C4F2020062
:101E6000864240F0908026686FF01C023068104077
:101E70003060012000FA01F16960A0650021616312
:101E8000A063216D00297FF452AF47E09F20C4F288
:101E90000200864255DC7020C4F20200864263D004
:101EA00088205DE040F29F40C4F2020086424FDC91
:101EB00040F27040C4F20200864255D040F28840A1
:101EC0004EE04020C4F2020086421DD0582017E0A8
:101ED00040F24040C4F20200864215D040F2584021
:101EE0000EE0A020C4F2020086420DD0B82007E028
:101EF00040F2B840C4F20200864205D040F2A04051
:101F0000C4F20200864241D126686FF008013068B1
:101F100008403060616C00297FF409AF01B0BDE872
:101F2000F0834020C4F2020086421DD0582017E002
:101F300040F24040C4F20200864215D040F25840C0
:101F40000EE0A020C4F2020086420DD0B82007E0C7
:101F500040F2B840C4F20200864205D040F2A040F0
:101F6000C4F20200864214D126686FF01401306872
:101F700008403060002060630120A063216C0029CC
:101F80007FF4D5AECAE76FF00E026FE76FF0040181
:101F9000BDE76FF00A01EAE72DE9F04381B004469E
:101FA00000F0C6FD002C00F06E8140F26F4805463F
:101FB0002068C4F20208404515DC9F21C4F20201EA
:101FC00088422BDC5721C4F20201884251DC1021E7
:101FD000C4F2020188427AD02821C4F20201884268
:101FE00075D040216EE045F22F41C5F602018842CE
:101FF00027DC40F2B741C4F20201884245DC40F2DE
:102000007041C4F20201884261D040F28841C4F2BA
:10201000020188425BD040F2A04153E040F22741E8
:10202000C4F2020188423FDCA021C4F202018842CE
:102030004DD0B821C4F20201884248D040F210418C
:1020400040E045F26B41C5F60201884200F38C8006
:1020500045F23041C5F60201884200F0988045F211
:102060004441C5F60201884200F0918045F2584192
:1020700088E05821C4F20201884228D07021C4F2BD
:102080000201884223D088211CE040F2B841C4F20A
:10209000020188421BD045F20841C5F60201884280
:1020A00075D045F21C416DE040F22841C4F20201B6
:1020B00088420CD040F24041C4F20201884206D06E
:1020C00040F25841C4F20201884240F00A8240F2D4
:1020D0000F420021C4F20202616390424FF00201FC
:1020E000A16312DC6F21C4F20201884220DC3F218F
:1020F000C4F20201884200F38E801021C4F2020172
:10210000884200F0AD802821A4E040451DDC40F26B
:102110003F41C4F20201884200F3848040F2104142
:10212000C4F20201884200F09B8040F2284191E015
:102130009F21C4F2020188427DDC7021C4F20201B9
:10214000884200F08D80882184E040F29F41C4F2F3
:102150000201884276DC40F27041C4F202018842FA
:102160007ED040F2884175E045F26C41C5F602012F
:1021700088420CD045F28041C5F60201884206D063
:1021800045F29441C5F60201884240F0AA8104F16B
:10219000080E002060630220A0639EE80640A1F1C3
:1021A00080032068B3FA83F340294FEA5313D4E93C
:1021B0000579D4E9076C05684FEA83336FF310158E
:1021C00008BF102345EAD2014AF6F8321943CAF291
:1021D000FD7241EADE014CF6CD4341EAD7010244EB
:1021E00041EAD901CCF6CC4341EAD601A2FB032354
:1021F00041EA1C1101606FF0030000EA93002066C1
:102200002046FEF709F9216E012201F01F0102FAB2
:1022100001F141609AE04021C4F2020188421FD0DE
:10222000582117E040F24041C4F20201884217D021
:1022300040F258410EE0A021C4F2020188420FD0C2
:10224000B82107E040F2B841C4F20201884207D049
:1022500040F2A041C4F20201884208BF206800E0B9
:102260002068016821F00101016000BF276838681B
:10227000C0070CD000F05CFC401B0628F6D32020E1
:10228000A0650320A063012001B0BDE8F08348F2FF
:102290003F0104F108053868CFF6106108402ECDE3
:1022A0000843A1691043E2691843236A0543606A41
:1022B0002943042841EA020141EA030103D1D4E998
:1022C0000B231143194341F20002C5F60042126884
:1022D000B2F1005F17D36268A2F12903202B06D266
:1022E0003F25CCF2C03525FA03F3DB0706D1A2F176
:1022F0004F030022042B38BF012200E00122002AF4
:1023000018BF41F4801139600428796921F0070170
:1023100041EA00050FD1D4E90A1045EA010550B1A0
:102320002046FEF7D9F930B14020A0650120A06316
:1023300001B0BDE8F08320467D61FEF76DF8216EA7
:102340003F2201F01F0102FA01F18160206840453F
:1023500019DC9F21C4F20201884231DC5721C4F20A
:102360000201884256DC1021C4F20201884200F0CA
:1023700091802821C4F20201884200F08B80402124
:10238000C4F2020184E045F22F41C5F60201884201
:102390002BDC40F2B741C4F20201884248DC40F233
:1023A0007041C4F20201884274D040F28841C4F204
:1023B000020188426ED040F2A041C4F2020167E0FF
:1023C00040F22741C4F20201884240DCA021C4F25D
:1023D000020188425ED0B821C4F20201884259D07D
:1023E00040F21041C4F2020152E045F26B41C5F6E1
:1023F000020188423CDC45F23041C5F602018842C8
:1024000048D045F24441C5F60201884242D045F227
:1024100058413BE05821C4F2020188423AD0702171
:10242000C4F20201884235D08821C4F202012FE0B3
:1024300040F2B841C4F2020188422BD045F2084173
:10244000C5F60201884225D045F21C411EE040F24B
:102450002841C4F2020188421CD040F24041C4F23B
:102460000201884216D040F25841C4F202010FE046
:1024700045F26C41C5F6020188420BD045F2944109
:10248000C5F60201884205D045F28041C5F6020139
:1024900088421FD12046FEF74FF8A068802801D15E
:1024A0000020606004F164036068C7B201380ECB9D
:1024B00007280F60536009D82046FEF7B5F804F1ED
:1024C0007002002307CA03604A6003E00020C4E9E9
:1024D0001C00A0670020A0650121A16301B0BDE838
:1024E000F0834020CCE60000F0B581B080B3044614
:1024F000406B012802D1022001B0F0BD01206063D1
:10250000A06B01281FD10220A0630020A06540F22B
:102510000F462068C4F2020640F26F47B042C4F290
:10252000020718DC6F25C4F20205A84224DC3F250F
:10253000C4F20205A8423ADC1025C4F20205A84202
:102540005AD0282552E0002060634FF40060A06557
:10255000012001B0F0BDB8421ADC40F23F45C4F2A0
:102560000205A8422ADC40F21045C4F20205A84246
:1025700042D040F2284539E09F25C4F20205A84226
:1025800025DC7025C4F20205A84235D088252DE04F
:1025900040F29F45C4F20205A8421FDC40F270459C
:1025A000C4F20205A84227D040F288451EE040252B
:1025B000C4F20205A8421FD0582517E040F240455A
:1025C000C4F20205A84217D040F258450EE0A025FB
:1025D000C4F20205A8420FD0B82507E040F2B84582
:1025E000C4F20205A84207D040F2A045C4F2020599
:1025F000A84208BF206800E02068056825F00105B2
:1026000005602046FEF790F82068B04210DC6F218C
:10261000C4F2020188421CDC3F21C4F2020188425C
:1026200032DC1021C4F20201884251D028214AE054
:10263000B8421ADC40F23F41C4F2020188422ADC6F
:1026400040F21041C4F20201884241D040F22841D8
:1026500039E09F21C4F20201884225DC7021C4F2D6
:102660000201884234D088212DE040F29F41C4F21B
:10267000020188421FDC40F27041C4F2020188422C
:1026800026D040F288411EE04021C4F20201884277
:102690001ED0582117E040F24041C4F202018842A6
:1026A00016D040F258410EE0A021C4F20201884247
:1026B0000ED0B82107E040F2B841C4F202018842CE
:1026C00006D040F2A041C4F20201884240F02981C4
:1026D0002168626C0B250B6865F344030B601AB12B
:1026E0000A6842F008020A60B84219DC9F21C4F26D
:1026F0000201884231DC5721C4F20201884256DCD3
:102700001021C4F20201884200F091802821C4F215
:102710000201884200F08B804021C4F2020184E073
:1027200045F22F41C5F6020188422BDC40F2B74149
:10273000C4F20201884248DC40F27041C4F2020156
:10274000884274D040F28841C4F2020188426ED0BF
:1027500040F2A041C4F2020167E040F22741C4F216
:102760000201884240DCA021C4F2020188425ED00E
:10277000B821C4F20201884259D040F21041C4F29B
:10278000020152E045F26B41C5F6020188423CDC91
:1027900045F23041C5F60201884248D045F2444135
:1027A000C5F60201884242D045F258413BE058212B
:1027B000C4F2020188423AD07021C4F20201884278
:1027C00035D08821C4F202012FE040F2B841C4F2B2
:1027D000020188422BD045F20841C5F60201884229
:1027E00025D045F21C411EE040F22841C4F202010E
:1027F00088421CD040F24041C4F20201884216D007
:1028000040F25841C4F202010FE045F26C41C5F6B6
:10281000020188420BD045F29441C5F6020188427C
:1028200005D045F28041C5F60201884272D1616E41
:102830000A68D20303D50A6842F480720A60216FE5
:1028400019B10A6842F480720A60B04210DC6F214C
:10285000C4F2020188421CDC3F21C4F2020188421A
:1028600032DC1021C4F20201884252D028214AE011
:10287000B8421ADC40F23F41C4F2020188422ADC2D
:1028800040F21041C4F20201884242D040F2284195
:1028900039E09F21C4F20201884225DC7021C4F294
:1028A0000201884235D088212DE040F29F41C4F2D8
:1028B000020188421FDC40F27041C4F202018842EA
:1028C00027D040F288411EE04021C4F20201884234
:1028D0001FD0582117E040F24041C4F20201884263
:1028E00017D040F258410EE0A021C4F20201884204
:1028F0000FD0B82107E040F2B841C4F2020188428B
:1029000007D040F2A041C4F20201884208BF20680B
:1029100000E02068016841F001010160002001B081
:10292000F0BD2168626C0525002A0B6865F343033E
:102930000B603FF4D9AE0A6842F00402D3E600000F
:10294000B0B5044600F0F4F840F210010546C2F2BA
:102950000041621C096818BF0C4400BF00F0E8F891
:10296000401BA042FAD3B0BD2DE9F04F83B00E68F2
:10297000002E00F0C98000F126420A2302F1FF7206
:1029800040F2040C4FEAB222019242F20042C5F634
:10299000000CC5F602024FF0010B90424FF000050B
:1029A00008BF092300274FF0010800930AE000BF89
:1029B0000E68043736FA08F208F1010805F102053D
:1029C00000F0A280A8F1010A0BFA0AF216EA020945
:1029D000EED04E68122E17D80BFA06F414F0061F2C
:1029E00012D00323D0F808E0AB40CC682EEA0303F2
:1029F000AC4023438360C6F30014436823EA020219
:102A000004FA0AF31A4342600323C268AB4046F05B
:102A100010046FEA030E9A438B68122C03FA05F335
:102A200042EA0302C26012D16FF0030207F01C04F5
:102A300002EA5A020F260244A640136AD1F810B0E7
:102A4000B3430BFA04F44FF0010B23431362026803
:102A50004B6803F0030402EA0E02AC40DB0042EADA
:102A600004020260A4D544F2F443C5F602031A68D6
:102A700042F002021A601A6807F00C0302F0020228
:102A80000292029A2AF0030240F2084A019C009E38
:102A9000C5F6000A092C38BF26460F2452F80AE072
:102AA0009C402EEA040406FA03F3234342F80A305A
:102AB000DCF87C204B6842EA0906DC0358BF22EAB6
:102AC00009069C034FF0B04ECCF87C60DCF8802007
:102AD00042EA090658BF22EA0906DC02CCF8806007
:102AE000DEF8002042EA090658BF22EA09069B02E6
:102AF000CEF80060DCF8002042EA090658BF22EA5E
:102B00000906CCF8006053E703B0BDE8F08F000081
:102B1000002A08BF0904816170470000000000001E
:102B200041F20000C5F600400068000C704700004C
:102B300040F2E430C2F2004000687047000000003C
:102B4000426C202A02D1026C012A01D10220704776
:102B5000242242640268136823F00103136013689F
:102B600023F480531360136819431160116841F016
:102B70000101116020214164002101640846704771
:102B8000426C202A02D1026C012A01D10220704736
:102B9000242242640268136823F00103136013685F
:102BA00023F4706343EA01211160116841F00101CF
:102BB0001160202141640021016408467047000033
:102BC000002847D010B50446406C20B9002020648E
:102BD000204600F041F82420606494E80310E36884
:102BE00021F070610268012B22F001020260016194
:102BF0004FF40442816808BF4FF40042022B21F4D5
:102C0000004181604CEA0201816002D14FF4006111
:102C10004160416804F1100C41F0007141F4004141
:102C20004160C16821F40041C1609CE80E1011436D
:102C300041EA0321C160216A41EA0C010160016897
:102C400041F0010101600020E06420216164206303
:102C5000A06410BD0120704770B5B6B0044641F6BF
:102C6000004502A8BC2100263596CDE93366329690
:102C7000C5F600053196FDF763FB2068A84201D038
:102C800036B070BD1020029002A8279600F028FAF6
:102C900008B1FDF7C5FE44F2E04431A9C5F60204CF
:102CA000206840F008002060206800F008000190D3
:102CB00001984FF440503190122032900020339010
:102CC000032034900420359005F5F830FFF74CFED2
:102CD000606940F080006061606900F080000190F0
:102CE000019836B070BD000040F2100040F2E431AF
:102CF000C2F20040C2F2004100680A681044086055
:102D0000704700000000000080B5032000F084F848
:102D100000F0DAFF44F2184146F24073C5F60201B2
:102D2000C0F600030A68096801F00F01C2F303222C
:102D3000595C9A5C01F01F0102F01F02D04040F282
:102D40000C02C2F2004220FA01F1116040F20801C7
:102D5000C2F200410860002000F00AF800281CBF01
:102D6000012080BD00F030F8002080BD0000000090
:102D7000B0B540F21001C2F20041096801B3044647
:102D800040F20800C2F200404FF47A72B2FBF1F157
:102D90000068B0FBF1F001F023FB0F2C4FF00105B0
:102DA0000CD858B94FF0FF3000222146002500F022
:102DB00023F840F21400C2F2004004602846B0BD7F
:102DC0000120B0BD0000000080B582B044F2F440A4
:102DD000C5F60200016841F002010160006800F0E0
:102DE000020001900198052000F016F802B080BDA5
:102DF00080B503F071FB80BD70B514460D460646E4
:102E000003F07AFB2946224602F0C6F90146304615
:102E100003F07AFB70BD000080B503F089FB80BD34
:102E2000B0B544F60C05C5F60205296849072968BE
:102E300005D401F00701081A18BF0120B0BD21F028
:102E4000070108432860FFF773FE044655F8080C95
:102E5000800407D4FFF76CFE001BB0F57A7FF5D92C
:102E60000120B0BD0020B0BD80B500F0DDFE44F211
:102E7000204146F24072C5F60201C0F60002096820
:102E8000C1F30211515C01F01F01C84080BD000078
:102E900080B544F2384EC5F6020E5EF8103C5EF87E
:102EA000101CC1F3053C5EF80C1CBCF1000FDEF8F1
:102EB000042014D0C1F30011C2F3CC02514300EE40
:102EC000101A03F003010229B8EE400A0CD071B9C0
:102ED0005EF8381C89060DD49FED341A18E00021E5
:102EE000C0E90011816080BD9FED2F1A10E09FEDB9
:102EF0002D1A0DE05EF8381C49F20002C0F2D03203
:102F0000C1F3C10122FA01F101EE101AB8EE411A23
:102F1000DEF800109FED263A6FF35F2102EE101AE3
:102F2000DEF80010C1F34621B8EE422A00EE032A73
:102F300000EE10CAB7EE003AB8EE400A81EE000A81
:102F400032EE031A02EE101AB8EE422A20EE010AFF
:102F500032EE031A80EE011ABCEEC11A80ED001A9F
:102F6000DEF80010C1F3064101EE101AB8EE411A66
:102F700031EE031A80EE011ABCEEC11A80ED011A7F
:102F8000DEF80010C1F3066101EE101AB8EE411A26
:102F900031EE031A80EE010ABCEEC00A10EE101AE0
:102FA000816080BD0024744A20BCBE4B0024744C58
:102FB000000000390000000080B544F2404EC5F624
:102FC000020E5EF8183C5EF8181CC1F3055C5EF852
:102FD000141CBCF1000FDEF8042014D0C1F3002152
:102FE000C2F3CC02514300EE101A03F00301022990
:102FF000B8EE400A0CD071B95EF8401C89060DD4B9
:103000009FED341A18E00021C0E90011816080BDF5
:103010009FED2F1A10E09FED2D1A0DE05EF8401C79
:1030200049F20002C0F2D032C1F3C10122FA01F12B
:1030300001EE101AB8EE411ADEF800109FED263AA4
:103040006FF35F2102EE101ADEF80010C1F3462183
:10305000B8EE422A00EE032A00EE10CAB7EE003A9C
:10306000B8EE400A81EE000A32EE031A02EE101AA0
:10307000B8EE422A20EE010A32EE031A80EE011A5F
:10308000BCEEC11A80ED001ADEF80010C1F3064153
:1030900001EE101AB8EE411A31EE031A80EE011A51
:1030A000BCEEC11A80ED011ADEF80010C1F3066112
:1030B00001EE101AB8EE411A31EE031A80EE010A41
:1030C000BCEEC00A10EE101A816080BD0024744A64
:1030D00020BCBE4B0024744C0000003900000000EE
:1030E0002DE9F04381B00446C07844F22C48000733
:1030F000C5F6020823D5606E4FEA305003280DD87C
:103100000026DFE800F0020E3313D8F80000002696
:1031100040F40030C8F8000096B908E001267EB9F6
:1031200005E0201D022102F053F8064646B9D8F802
:103130002400616E20F440100843C8F824000026E3
:103140006078C00701D1354631E0606D042816D89B
:103150003546DFE800F003161B212100D8F80000F7
:10316000354640F40030C8F8000015E004F12400B2
:10317000022102F0BDF80646002EE1D1D7E7012575
:103180000AE0201D002102F023F804E004F12400ED
:10319000002102F0ADF805462F464DB9D8F82400BD
:1031A000616D20F0070000250843C8F82400374669
:1031B0006078800728D5A06D4FEAB01004280BD89E
:1031C000DFE800F0030C11171700D8F8000040F4F6
:1031D0000030C8F800000CE001250AE0201D0021A5
:1031E00001F0F6FF04E004F12400002102F080F871
:1031F00005462E464DB9D8F82400A16D20F4E070A4
:1032000000250843C8F824003E46607840072AD5C8
:10321000D4F8A4004FEA705004280BD8DFE800F07F
:10322000030C11171700D8F8000040F40030C8F85C
:1032300000000CE001250AE0201D002101F0C8FF7C
:1032400004E004F12400002102F052F80546A946EA
:1032500055B9D8F82C00D4F8A41020F4600000254B
:103260000843C8F82C00B146607800072AD5D4F886
:10327000A8004FEA306004280BD8DFE800F0030C08
:1032800011171700D8F8000040F40030C8F800000B
:103290000CE001250AE0201D002101F099FF04E067
:1032A00004F12400002102F023F805462F4655B909
:1032B000D8F82C00D4F8A81020F0E06000250843CE
:1032C000C8F82C004F46E078800721D5A06C4FEA63
:1032D000301003280AD8DFE800F010020B10D8F8ED
:1032E000000040F40030C8F8000006E0012504E0CA
:1032F000201D022101F06CFF05462E464DB9D8F87D
:103300002000A16C20F0300000250843C8F8200000
:103310003E466078C00628D5E06D4FEA303004287C
:103320000BD8DFE800F0030C11171700D8F80000E5
:1033300040F40030C8F800000CE001250AE0201D30
:10334000002101F045FF04E004F12400002101F018
:10335000CFFF05462F464DB9D8F82400E16D20F483
:10336000E04000250843C8F824003746607880060E
:1033700021D5206E4FEA3040052809D8DFE800F05B
:1033800010030A101010201D012101F021FF06E09A
:10339000012505E004F12400012101F0A9FF054603
:1033A0002E464DB9D8F82400216E20F4E0200025E7
:1033B0000843C8F824003E466078400623D5D4F878
:1033C000AC004FEA3070052809D8DFE800F01003A0
:1033D0000A101010201D012101F0FAFE06E001255F
:1033E00005E004F12400012101F082FF05462F468B
:1033F00055B9D8F82C00D4F8AC1020F0E0400025E6
:103400000843C8F82C0037466078000620D5E06EE7
:1034100098B1B0F1005F09D0B0F1805F0CD1D8F85D
:10342000000040F40030C8F8000006E0201D012133
:1034300001F0CEFE054600E001252E464DB9D8F834
:103440002400E16E20F0405000250843C8F8240015
:103450003E46E078C0071FD0606C03280AD8DFE83A
:1034600000F010020B10D8F8000040F40030C8F84B
:10347000000006E0012504E0201D022101F0A8FE65
:103480000546A9464DB9D8F82000616C20F003002C
:1034900000250843C8F82000B146A078400601D4B2
:1034A0004E466CE0D8F8D40340F48070C8F8D403DA
:1034B000FFF73EFB064600BFD8F8D403C00505D48D
:1034C000FFF736FB801B6528F6D30325002D2E461B
:1034D00055D1D8F84410D4F8B000414011F4407FE1
:1034E00011D0D8F84410D8F8442042F48032C8F8FB
:1034F0004420D8F8442021F4407122F48032C8F8E6
:103500004420C8F84410B0F5807F11D1FFF710FBBC
:10351000054641F2893700BFD8F8440010F0020692
:1035200009D1FFF705FB401BB842F5D3032503E0A3
:103530000025012603E00025002E18BF0126002EDD
:103540002E461CD04FF6CF73D4F8B00058F81C2C80
:10355000C0F2FF0300F4407122F47C5203EA10131E
:10356000B1F5407F08BF1A436FF31F30002548F8BC
:103570001C2CD8F844100843C8F8440090E7207881
:10358000C00721D0A06F4FEAF000052809D8DFE876
:1035900000F010030A101010201D012101F018FE88
:1035A00006E0012505E004F12400012101F0A0FE60
:1035B00005462F464DB9D8F82800A16F20F03800F5
:1035C00000250843C8F828003746207880071FD513
:1035D000606F052809D8DFE800F010030A1010100A
:1035E000201D012101F0F4FD06E0012505E004F1B4
:1035F0002400012101F07CFE05462E464DB9D8F885
:103600002800616F20F0070000250843C8F8280053
:103610003E462078400721D5D4F89000052809D8E7
:10362000DFE800F010030A101010201D012101F046
:10363000CFFD06E0012505E004F12400012101F0A1
:1036400057FE0546A94655B9D8F82C00D4F8901075
:1036500020F0070000250843C8F82C00B146207868
:10366000800623D5D4F88C004FEA3070052809D89D
:10367000DFE800F010030A101010201D002101F0F7
:10368000A7FD06E0012505E004F12400022101F078
:103690002FFE05462F4655B9D8F82800D4F88C10CF
:1036A00020F0E04000250843C8F828004F46207865
:1036B000400623D5D4F898004FEAB020052809D851
:1036C000DFE800F010030A101010201D002101F0A7
:1036D0007FFD06E0012505E004F12400022101F050
:1036E00007FE05462E4655B9D8F82C00D4F8981098
:1036F00020F4E05000250843C8F82C003E4620780E
:10370000000623D5D4F89C004FEA7030052809D86C
:10371000DFE800F010030A101010201D002101F056
:1037200057FD06E0012505E004F12400022101F027
:10373000DFFD05462F4655B9D8F82C00D4F89C106B
:1037400020F4604000250843C8F82C003746207854
:10375000000715D5D4F88000B0F5805F07D104F1DB
:103760002400022101F0C4FD002818BF0127D8F869
:103770002800D4F8801020F440500843C8F82800EE
:103780002078C00615D5D4F89400B0F5807F07D115
:1037900004F12400022101F0ABFD002818BF01272D
:1037A000D8F82C00D4F8941020F440700843C8F8DE
:1037B0002C00A078000722D5D4F8A000B0F5003F77
:1037C00011D0B0F5803F06D060B9201D002101F076
:1037D000FFFC054607E004F12400022101F088FD0A
:1037E000054600E001252E4655B9D8F82C00D4F83E
:1037F000A01020F4403000250843C8F82C003E46B5
:10380000A078400725D5D4F88400B0F5401F14D027
:10381000B0F5001F09D0B0F5801F0DD1D8F8000019
:1038200040F40030C8F8000007E004F12400012152
:1038300001F05EFD054600E001252F4655B9D8F898
:103840002800D4F8841020F4401000250843C8F85C
:1038500028003746A078C0071DD0E06CB0F5803F47
:1038600007D060B9D8F8000040F40030C8F8000074
:1038700006E0201D022101F0ABFC054600E0012519
:103880002E464DB9D8F82000E16C20F48030002598
:103890000843C8F820003E46E078800607D504F1CA
:1038A0002400022101F024FD002818BF0126206811
:1038B00081031CD4C10231D4C10039D4810242D465
:1038C00041004AD4B0F1FF3F57DD000208D5D8F8D7
:1038D0002800D4F8881020F440000843C8F82800D5
:1038E000002E18BF0126304601B0BDE8F083E16F1D
:1038F0006FF0010202EB3122022A0AD34FEA312291
:103900003AB1012A44D1D8F8002042F40032C8F874
:103910000020002D3FD00126C102CDD5D8F82410BB
:10392000226F21F000411143C8F82410C100C5D511
:1039300058F81C1CD4F8B42021F48041114348F8F5
:103940001C1C8102BCD5D8F82410A26E21F0807115
:103950001143C8F824104100B4D558F81C1C21F4B8
:10396000004148F81C1CD4F8B81058F81C2C11431E
:1039700048F81C1CB0F1FF3FA7DCD8F82010226DDE
:1039800021F040511143C8F820100002A8D59EE74D
:103990000125002DBFD1D8F8282022F44072114310
:1039A000C8F82810C1027FF587AFB7E70000000014
:1039B00070470000000000002DE9F04381B00028AE
:1039C00000F0F48042F200080446C5F2002889465F
:1039D000D8F8000000F00F0088420ED2D8F800009E
:1039E00020F00F0040EA0900C8F80000D8F80000F5
:1039F00000F00F00484540F0D980206844F2184795
:103A00004107C5F602070AD521693A6802F070023B
:103A1000914204D93A6822F07002114339600107DB
:103A20000AD561697A6802F07002914204D97A6815
:103A300022F0700211437960C1060AD5A1697A6843
:103A400002F4E062914204D97A6822F4E062114300
:103A5000796081060AD5E169BA6802F07002914284
:103A600004D9BA6822F070021143B96081070AD5FF
:103A7000E1683A6802F00F02914204D93A6822F0F4
:103A80000F0211433960C0077ED1206881070AD533
:103A9000E1683A6802F00F02914204D23A6822F0DB
:103AA0000F0211433960D8F8001001F00F014945A9
:103AB0000DD9D8F8001021F00F0141EA0901C8F82A
:103AC0000010D8F8001001F00F0149456ED14107F0
:103AD0000AD521693A6802F07002914204D23A682C
:103AE00022F070021143396001070AD561697A68D2
:103AF00002F07002914204D27A6822F070021143FF
:103B00007960C1060AD5A1697A6802F4E06291423F
:103B100004D27A6822F4E0621143796080060AD503
:103B2000E069B96801F07001884204D2B96821F0F7
:103B300070010843B86000F0C7F8396846F2407277
:103B4000C0F600023B68C1F3032103F00F03515C90
:103B5000D25C01F01F01C84002F01F0140F20C02CC
:103B600020FA01F1C2F20042116040F2080140F275
:103B70001402C2F20041C2F2004208601068FFF76E
:103B8000F7F801B0BDE8F083386820F47061D4E93B
:103B90000102012841EA020139600BD003282BD031
:103BA00002282ED157F8181C890307D4012001B030
:103BB000BDE8F08357F8181CC905F7D557F8081C5D
:103BC00021F00701084347F8080CFEF7B1FF06464D
:103BD00041F2883557F8080C616800F03800B0EB06
:103BE000C10F3FF452AFFEF7A3FF801BA842F1D9EB
:103BF000032001B0BDE8F08357F8181C8901D5D522
:103C0000DCE757F8181C4907D0D5D7E700000000BB
:103C100044F20040C5F60200016841F40021016051
:103C2000704700000000000080B500F04DF844F23D
:103C3000184146F24073C5F60201C0F600030A6857
:103C4000096801F00F01C2F30322595C9A5C02F08B
:103C50001F0220FA02F201F01F0040F20C0122FACA
:103C600000F0C2F20041086040F20801C2F20041D7
:103C70000A6080BD0000000080B5FFF7D5FF44F268
:103C80001C4146F24072C5F60201C0F60002096806
:103C9000C1F30211515C01F01F01C84080BD00005A
:103CA00080B5FFF7C1FF44F21C4146F24072C5F6F1
:103CB0000201C0F600020968C1F30221515C01F063
:103CC0001F01C84080BD000044F20041C5F602015A
:103CD0000869C0F3C20003280FD002282AD070BBA5
:103CE0000868800649F20000C0F2D03058BF704723
:103CF0000968C1F3C101C84070478A6A886AC0F385
:103D0000051CC86ABCF1000F4B6B1DD0C3F3CC037C
:103D100000F00100584302F00302022A00EE100AEC
:103D2000B8EE400A12D0A2B90868800614D49FEDFC
:103D3000261A1EE047F64000C0F27D10704740F69C
:103D40000010C0F23D007047002070479FED1D1A23
:103D50000FE09FED1B1A0CE0086849F20002C0F268
:103D6000D032C0F3C10022FA00F001EE100AB8EE22
:103D7000411A086B9FED153A6FF35F2002EE100AAF
:103D8000086BC0F34620B8EE422A013000EE032A49
:103D900000EE10CAB7EE003AB8EE400A81EE000A13
:103DA00032EE031A20EE010A01EE100AB8EE411AB3
:103DB00080EE010ABCEEC00A10EE100A704700BF88
:103DC0000024744A20BCBE4B0024744C000000390F
:103DD00010B544F26444C5F602042068400558BF9B
:103DE00010BDFFF7E5FD4FF48060606010BD00007E
:103DF0002DE9F04381B0F8B18046007844F20049E3
:103E0000C007C5F602095AD0D9F8100000F03801F1
:103E1000D9F82800102905D018290FD100F0030087
:103E200002280BD1D9F80000800344D5D8F804004B
:103E3000002840D101252FE001251BE2D8F80440DD
:103E40002CB1B4F5A02F0DD0B4F5803F10D0D9F827
:103E5000000020F48030C9F80000D9F8000020F4F8
:103E6000802009E0D9F8000040F48020C9F8000063
:103E7000D9F8000040F48030C9F80000FEF758FE81
:103E80000546A4B1D9F80000800314D4FEF750FE13
:103E9000401B6428F6D903250020002800F0EA81A1
:103EA0000DE000BFFEF744FE401B6428F3D8D9F8AC
:103EB00000008003F6D40120002800F0DB8198F890
:103EC000000080076BD5D9F8100010F03801D9F840
:103ED00028001CD0182908BF5FEA807017D0D8F8D6
:103EE0000C00D9F8001098B321F019010843C9F863
:103EF0000000FEF71DFE0646D9F8000040070DD46D
:103F0000FEF716FE801B0228F6D9032543E0D9F8F8
:103F10000000400702D5D8F80C00D8B3FEF700FE29
:103F200041F2030188420AD8D8F81000D9F80410E9
:103F3000402821F47C3124D141F4003023E0D9F829
:103F40000400D8F8101020F0FE4040EA01601AE0AA
:103F500021F00100C9F80000FEF7EAFD064601273E
:103F6000D9F8000010F0040087EA90040ED0FEF7A4
:103F7000DFFD801B0328F3D30325002C00F07A819A
:103F80000DE041EA0030C9F804000124002C00F0E3
:103F9000718104E001250024002C00F06B8198F869
:103FA0000000C00675D5D9F8100000F03801D9F826
:103FB0002800082905D018291CD100F00300012889
:103FC00018D1D9F80000C00503D5D8F81C00802806
:103FD0005AD1FEF7A5FD41F20301884223D8D8F853
:103FE0002000D9F80410202821F0F84143D141F0F5
:103FF000804042E0D8F81C000028D9F8000021D009
:1040000040F08000C9F80000FEF792FD064600BFB0
:10401000D9F80000C005DCD4FEF78AFD801B022819
:10402000F6D9032531E0D9F80C00D8F8201020F09B
:104030007C50012440EA0160C9F80C00002C00F01B
:10404000198126E020F08000C9F80000FEF770FD1D
:1040500006460127D9F8000010F4807087EA102482
:104060000ED0FEF765FD801B0328F3D30325002C3B
:1040700000F000810DE041EA8060C9F804000124ED
:10408000002C00F0F78004E001250024002C00F053
:10409000F18098F8000000071CD498F80000800612
:1040A00031D498F80000400745D4D8F82440002CBB
:1040B00000F0DF80D9F8100000F03800182840F038
:1040C0008880012CD9F82810D9F8300040F0A2805F
:1040D0000125CFE0D8F814000028D9F874003ED0AC
:1040E00040F00100C9F87400FEF722FD054600BF4C
:1040F000D9F874008007D0D4FEF71AFD401B0228BF
:10410000F6D90325B6E0D8F818000028D9F8000041
:104110004BD040F48050C9F80000FEF709FD054679
:10412000D9F800008004BCD4FEF702FD401B022831
:10413000F6D903259EE0D9F8000440F48070C9F850
:104140000004FEF7F5FC0546D9F80004C0051AD4B2
:10415000FEF7EEFC401B6428F6D903258AE020F028
:104160000100C9F87400FEF7E3FC0646032500BF12
:10417000D9F8740080077FF590AFFEF7D9FC801B5B
:104180000228F5D976E0D8F808401CB1052C75D086
:10419000012C79D0D9F8700020F00100C9F8700026
:1041A000D9F8700020F0040072E020F48050C9F8C3
:1041B0000000FEF7BDFC0646032500BFD9F800004D
:1041C00080047FF56EAFFEF7B3FC801B0228F5D9A3
:1041D00050E0D9F8000020F08070C9F80000FEF728
:1041E000A7FC022C06464FF0030509D1D9F80000C0
:1041F00080016FD5FEF79CFC801B0228F6D939E0C0
:10420000D9F80000800134D5FEF792FC801B02280B
:10421000F6D92FE001F00302D8F828309A4240F096
:10422000D380C1F30511D8F82C20914240F0CE8004
:104230000146D8F830206FF35F21013A914240F0F7
:10424000C780C0F34622D8F8341001398A4240F0C2
:10425000C180C0F30642D8F8381001398A4240F0D4
:10426000BB80C0F30660D8F83C100139884240F0AA
:10427000B5800025284601B0BDE8F083D9F870006C
:1042800040F00400C9F87000D9F8700040F0010057
:10429000C9F87000FEF74CFC002C064641F2883449
:1042A0004FF0030511D000BFD9F8700080073FF52B
:1042B000FCAEFEF73DFC801BA042F5D9DAE700BF5B
:1042C000FEF736FC801BA042D4D8D9F870008007D6
:1042D000F6D4EAE608F12807D9F8280040F2F331CD
:1042E00088438ECF0843591E40EA02104FF47E42A5
:1042F0006FF35F21C9F8280002EB47204FF4FE025C
:1043000080B2D8F83C300844D8F8381002EB0141AC
:104310004FF0FE4201F4FE0102EB0362084402F09A
:10432000FE410844C9F83000D9F82C004FF6F87166
:1043300020F00100C9F82C00D9F83400D8F8482042
:10434000884340EAC200C9F83400D9F82C00D8F8F4
:10435000401020F00C000843C9F82C00D9F82C00BC
:10436000D8F8441020F002000843C9F82C00D9F80E
:104370002C0040F48030C9F82C00D9F82C0040F40F
:104380000030C9F82C00D9F82C0040F48020C9F87E
:104390002C00D9F82C0040F00100C9F82C00D9F805
:1043A000000040F08070C9F80000FEF7C1FB044631
:1043B0000325D9F8000080013FF55BAFFEF7B8FB9D
:1043C000001B0228F5D955E7012553E7012551E7E0
:1043D00001254FE701254DE701254BE7012549E779
:1043E00080B501F019F880BDD0F88010012901D105
:1043F000022070472421C0F88410026813681168F5
:1044000023F0005321F00101116000214166136087
:104410002022C0F88420C0F88010084670470000B1
:10442000704700000000000070470000000000001E
:10443000B0B50446D0F88000012801D10220B0BDFB
:104440000120C4F880002420C4F884002068056896
:10445000026822F001020260826822F06062114369
:104460008160204601F0D4F8206805602020C4F85F
:1044700084000020C4F88000B0BD000000000000EF
:10448000B0B50446D0F88000012801D10220B0BDAB
:104490000120C4F880002420C4F884002068056846
:1044A000026822F001020260826822F06042114339
:1044B0008160204601F0ACF8206805602020C4F837
:1044C00084000020C4F88000B0BD0000000000009F
:1044D000704700000000000070470000000000006E
:1044E0007047000000000000D0F88410D0F8880069
:1044F000084370470000000070B50168064640F6AA
:104500002F00CA691040202808688B680CD100F081
:10451000200503F080542D1906D0316F002900F0DA
:10452000A5803046884770BD40F60F05154000F065
:104530008580012540F22014C1F20005C0F200443C
:1045400003EA050C00EA040515EB0C0576D0D50747
:1045500018BF10F4807507D001250D62D6F88C5075
:1045600045F00105C6F88C50950703F0010408D505
:104570003CB102250D62D6F88C5045F00405C6F812
:104580008C50550708D53CB104250D62D6F88C50E7
:1045900045F00205C6F88C5015070CD500F0200533
:1045A00055EA0C0507D008250D62D6F88C5045F069
:1045B0000805C6F88C5015050BD510F0806508D09D
:1045C0004FF400650D62D6F88C1041F02001C6F85A
:1045D0008C10D6F88C10002948D012F0200109D098
:1045E00000F0200003F08051401803D0316F09B172
:1045F000304688473068D6F88C1001F02801806872
:1046000000F04000401875D0304601F069F930687C
:10461000816849065FD5816821F040018160F06FB3
:10462000002858D045F2B971C0F600014165FCF789
:104630009BFDD8B1F06F416D884770BD00EA020460
:10464000E506F56E13D5012D11D11020086288689A
:10465000400618D4B6F85C00B6F85E20B6F85E30B6
:10466000002B1CBF801A5FEA004263D170BDD502E7
:1046700024D513F4800521D04FF480100862304611
:10468000FFF72AFF70BDF06F40F20F43C4F2020340
:1046900002689A4235DC6F23C4F202039A425FDC5F
:1046A0003F23C4F202039A4200F380801023C4F235
:1046B00002039A4200F09D80282396E011060ED551
:1046C00000F0800103F40003C91808D0716F0029BD
:1046D0007FF427AFCAE73046FFF702FF70BD6106DF
:1046E00024D4110257D510F0804154D03046FFF742
:1046F000EFFE70BD3046FFF7F3FE0020C6F88C00D9
:1047000070BD40F26F43C4F202039A4234DC40F2BF
:104710003F43C4F202039A424FDC40F21043C4F21A
:1047200002039A4265D040F228435EE0304601F031
:10473000F3F870BD0A684FF6FE7322F490720A60B7
:104740008A68CEF6FF731A408A602022C6F8882055
:104750000022F26632670A6822F010020A6077E0EF
:104760009F23C4F202039A4230DC7023C4F2020396
:104770009A423ED0882338E040F29F43C4F20203BD
:104780009A422ADC40F27043C4F202039A4230D0CB
:1047900040F2884329E0D1017FF568AFB0F1FF3FD7
:1047A000C8BF70BD3046FFF73FFE70BD4023C4F266
:1047B00002039A421DD0582317E040F24043C4F24E
:1047C00002039A4215D040F258430EE0A023C4F2EF
:1047D00002039A420DD0B82307E040F2B843C4F276
:1047E00002039A4205D040F2A043C4F202039A4267
:1047F00001D1F26F12680432126893B2002B3FF4B9
:1048000035AFB6F85C50AB42BFF430AFA6F85E20CF
:10481000C269B2F5807F16D00A6822F480720A60FD
:104820008A6822F001028A608A6822F040028A6067
:104830002022C6F888200022F2660A6822F01002C0
:104840000A60FCF7B1F9B6F85C00B6F85E10401AE1
:1048500081B23046FFF7E4FD70BD000000000000AB
:1048600010B5B0B10446D0F8840028B90020C4F8CF
:104870008000204600F028F82420C4F88400206836
:10488000016821F001010160204601F03DFA012894
:1048900001D1012010BDA06A10B1204600F0E4FE55
:1048A0002068416821F490414160816821F02A012B
:1048B0008160016841F001010160204600F044FF81
:1048C00010BD0000000000002DE9F041B6B000214D
:1048D0000446CDE93411CDE93211319102A8BC2151
:1048E000FBF72EFD47F2FF712068C4F200018842F9
:1048F00042DC44F60041C4F2000188427BD045F21C
:104900000001C4F20001884240F0158102A802248F
:10491000029400251F95FEF7E3FB08B1FCF780F831
:1049200044F2E040C5F60200816841F480118160E4
:10493000816801F4801101910199016841F002013F
:104940000160006831A900F0020001900198602028
:1049500031C100210320C5F6020134900E203590AC
:1049600001F5806031A9FDF7FFFF3520012101220B
:10497000FEF742FA3520AAE047F60001C4F2000132
:10498000884200F0A98047F60041C4F20001884245
:1049900040F0D18002A80224029400251F95FEF762
:1049A0009FFB08B1FCF73CF844F2E040C5F602007A
:1049B000816841F000418160816801F0004101910E
:1049C0000199016841F010010160006831A900F00F
:1049D000100001900198032031C100213490C5F6E8
:1049E00002010820359001F5805031A9FDF7BCFF88
:1049F00036B0BDE8F08102A80225029500261F9678
:104A0000FEF76EFB08B1FCF70BF844F2E04040F211
:104A10001008C5F60200C4F20208816841F40021C2
:104A20008160816801F4002101910199016841F0E0
:104A300001010160006831A900F0010001900198B6
:104A4000032061C13490082035900020C5F6020093
:104A500031A9FDF789FF40F2D4054020C2F200459C
:104A60004FF48067C5F80080C5E90100EE604FF49F
:104A70000030C5E90476C5E90666C5E9080628469A
:104A8000FDF78AFA08B1FBF7CBFFA56708F118001C
:104A9000EC6340F25805C2F2004528603F20686090
:104AA0000020C5E90200C5E90470C5E90600C5E9B2
:104AB00008002846FDF770FA08B1FBF7B1FF342073
:104AC00000210022E567EC63FEF796F93420FEF73B
:104AD0008FF936B0BDE8F08102A8022402940025C7
:104AE0001F95FEF7FDFA08B1FBF79AFF44F2E0408C
:104AF000C5F60200816841F080418160816801F063
:104B0000804101910199016841F020010160006834
:104B100031A900F0200001900198C02031C100218E
:104B20000320C5F6020134900720359001F5A0500E
:104B300031A9FDF719FF36B0BDE8F0810000000093
:104B400080B5D0F88830202B0AD10123002918BF66
:104B5000002A01D1184680BDD0F88030012B01D148
:104B6000022080BD0123C0F880300023C36640F6D8
:104B70000043D0F800C0C5F600039C4509D0DCF81E
:104B800004301B0205D5DCF8003043F08063CCF81C
:104B9000003001F071FB0346184680BD00000000A4
:104BA00080B5D0F88830202B0AD10123002918BF06
:104BB000002A01D1184680BDD0F88030012B01D1E8
:104BC000022080BD0123C0F880300023C36640F678
:104BD0000043D0F800C0C5F600039C4509D0DCF8BE
:104BE00004301B0205D5DCF8003043F08063CCF8BC
:104BF000003001F081FB0023184680BD000000005A
:104C0000B0B540F23421C2F2004188422BD140F2CB
:104C10002D00C2F200400078002808BFB0BD40F26D
:104C2000390440F22E05C2F20044C2F20045207859
:104C300010B9297855290BD1012802D16978532957
:104C400006D10A2810D1FBF75BFF08B1FBF788FFFC
:104C5000002055FA80F1207040F234200122C2F287
:104C60000040FFF79DFFB0BD0130F2E700000000FB
:104C700070470000000000002DE9F04381B00446B9
:104C8000D0F8840020280BD10E4600294FF00100F7
:104C90005CD01746002A59D0D4F88000012803D1EF
:104CA000022001B0BDE8F0831D460120C4F8800059
:104CB0004FF00009C4F88C902120C4F88400FDF75F
:104CC00037FFA4F85470A4F856700746A168B1F5F0
:104CD000805F07D1206900281CBF30464E46B04691
:104CE000064601E04FF00008C4F8809009E000BFDC
:104CF000206816F8011B8162B4F856000138A4F848
:104D00005600B4F8560088B18021002220463B4668
:104D1000009501F061FB88B9002EE9D138F8020B4B
:104D2000216800266FF35F208862E5E740210022BA
:104D300020463B46009501F04FFB18B1032001B01F
:104D4000BDE8F0832020C4F88400002001B0BDE855
:104D5000F083000000000000B0B50546D0F88400E4
:104D6000202806D139B113462AB1D5F88000012890
:104D700003D10220B0BD0120B0BD0120C5F88000E4
:104D800029650024A5F854302120A5F85630C5F82F
:104D90008C40C5F88400A86F00B345F6A10145F624
:104DA000D102C0F60001C0F60002C0E9101245F2BF
:104DB000D171C0F60001C0E914142A68296D2832A7
:104DC000FDF792FB50B11020C5F88C000020C5F80B
:104DD00080002020C5F884000120B0BD2868402153
:104DE0000162C5F88040816841F080018160204601
:104DF000B0BD00000000000070470000000000008F
:104E00007047000000000000FEE700000000000006
:104E100080B582B044F2D8400022C5F60200016895
:104E200041F0010101600068002100F001000190E3
:104E300001980B20FDF7E0FF0B20FDF7D9FF0C20B8
:104E400000210022FDF7D8FF0C20FDF7D1FF02B0B2
:104E500080BD00000000000070B586B044F2E04064
:104E60000025C5F602000595CDE90355CDE90155AC
:104E7000016842F2000441F4807101600168C5F6E6
:104E8000020401F4807100910099016841F0200151
:104E900001600168002201F0200100910099016881
:104EA00041F08001016001684FF4807601F08001DB
:104EB00000910099016841F001010160016801F071
:104EC000010100910099016841F008010160016849
:104ED00001F0080100910099016841F002010160B0
:104EE000016801F0020100910099016841F0100190
:104EF000016000684FF4807100F01000009000988D
:104F00002046FDF705FE01960120CDE9020501A925
:104F100020460495FDF728FD06B070BD0000000096
:104F200080B540F2501041F60041C2F2004047F215
:104F3000B152C5F60001C3F27002C0E900120021AF
:104F400081600122C0E90321C0E90511C0E9071110
:104F5000FDF736FE08B1FBF763FD40F2501000216B
:104F6000C2F20040FDF7ECFD08B1FBF759FD40F23D
:104F700050100021C2F20040FDF702FE002808BFD9
:104F800080BDFBF74DFD80BD80B540F2A41044F616
:104F90000041C2F20040C4F200010C2201604FF453
:104FA000E13141600021C0E902110161C0E9052140
:104FB000C0E90711C0E90911FFF752FC08B1FBF77E
:104FC0002FFD40F2A4100021C2F20040FFF758FA72
:104FD00008B1FBF725FD40F2A4100021C2F2004009
:104FE000FFF726FA08B1FBF71BFD40F2A410C2F24E
:104FF0000040FFF7F9F9002808BF80BDFBF710FD5E
:1050000080BD00000000000080B540F2342045F271
:105010000001C2F20040C4F200010C2201604FF412
:10502000E13141600021C0E902110161C0E90521BF
:10503000C0E90711C0E90911FFF712FC08B1FBF73D
:10504000EFFC40F234200021C2F20040FFF718FAD2
:1050500008B1FBF7E5FC40F234200021C2F2004029
:10506000FFF7E6F908B1FBF7DBFC40F23420C2F2AF
:105070000040FFF7B9F9002808BF80BDFBF7D0FC5E
:1050800080BD00000000000080B540F2C42047F65B
:105090000001C2F20040C4F200010C2201604FF492
:1050A000E13141600021C0E902110161C0E905213F
:1050B000C0E90711C0E90911FFF7D2FB08B1FBF7FE
:1050C000AFFC40F2C4200021C2F20040FFF7D8F943
:1050D00008B1FBF7A5FC40F2C4200021C2F2004059
:1050E000FFF7A6F908B1FBF79BFC40F2C420C2F21F
:1050F0000040FFF779F9002808BF80BDFBF790FC5E
:1051000080BD00000000000080B540F2543047F63A
:105110000041C2F20040C4F200010C2201604FF4D1
:10512000E13141600021C0E902110161C0E90521BE
:10513000C0E90711C0E90911FFF792FB08B1FBF7BD
:105140006FFC40F254300021C2F20040FFF798F9A2
:1051500008B1FBF765FC40F254300021C2F2004078
:10516000FFF766F908B1FBF75BFC40F25430C2F27E
:105170000040FFF739F9002808BF80BDFBF750FC5D
:1051800080BD000000000000FEE7000000000000FD
:10519000FEF71EFEFEE7000000F007004FF0FF3CA8
:1051A00080F00703042B28BF0423033838BF0020F6
:1051B0000CFA03F399430CFA00F301FA00F022EA27
:1051C0000301084370470000704700000000000022
:1051D000F0B581B044F22C47C5F6020757F8042C0D
:1051E00002F00302032A02D1012001B0F0BD0546FE
:1051F00057F82C0C0C4620F0806047F82C0CFDF77B
:1052000097FC064657F82C0C000105D5FDF790FCDD
:10521000801B0228F6D964E057F8040CEE6895E884
:105220000E0020F47C30012C40EA0130A2F1010193
:105230006FF35F214FF47E4202EB432247F8040CE8
:1052400092B24FF0FE4302EB01004FF4FE012A69D7
:1052500001EB064101F4FE0103EB0262084402F097
:10526000FE410844F8603868696920F0C00040EAEF
:10527000010038603868A96920F0200040EA010088
:10528000386038684FF6F87120F0100038603869DF
:10529000EA6920EA01004FF4001140EAC2003861D7
:1052A000386808BF4FF4801140F01000002C3860BF
:1052B00008BF4FF4002138680843386057F82C0CB9
:1052C00040F0806047F82C0CFDF732FC044600BF2C
:1052D00057F82C0C000107D4FDF72AFC001B03280B
:1052E000F6D3032001B0F0BD002001B0F0BD0000F6
:1052F000F0B581B044F22C47C5F6020757F8042CEC
:1053000002F00302032A02D1012001B0F0BD0546DC
:1053100057F82C0C0C4620F0805047F82C0CFDF769
:1053200007FC064657F82C0C800005D5FDF700FC5D
:10533000801B0228F6D964E057F8040CEE6895E863
:105340000E0020F07C70012C40EA0150A2F1010116
:105350006FF35F214FF47E4202EB432247F8040CC7
:1053600092B24FF0FE4302EB01004FF4FE012A69B6
:1053700001EB064101F4FE0103EB0262084402F076
:10538000FE41084478613868696920F4406040EA69
:10539000010038603868A96920F4007040EA010013
:1053A000386038684FF6F87120F480703860B8695A
:1053B000EA6920EA01004FF0807140EAC200B8615A
:1053C000386808BF4FF4000140F48070002C38604A
:1053D00008BF4FF4800138680843386057F82C0C38
:1053E00040F0805047F82C0CFDF7A2FB044600BFAC
:1053F00057F82C0C800007D4FDF79AFB001B0328FC
:10540000F6D3032001B0F0BD002001B0F0BD0000D4
:105410007047000000000000B0B501380024B4EB74
:10542000106F01D00120B0BD4EF210050F21CEF259
:10543000000568604FF0FF3001F066F8AC600720AF
:1054400028602046B0BD000080B5FDF74DFC80BD52
:10545000B0B59CB044F6180409A84C21C5F6020466
:10546000FAF76EFF02200025CDE90755CDE9055575
:10547000CDE90355CDE90155FDF7D2FC0095206833
:1054800040F440402060206800F44040009040F22A
:105490002C40C5F60000016841F001010160006880
:1054A00000F001000090009820688004FCD50120E5
:1054B00009904FF480300A9002200521CDE91200B6
:1054C0001491C021CDE91510CDE9170009A80824D1
:1054D00019940025CDE91A55FEF78AFCA8B93F209A
:1054E000019003204FF48061CDE90205049440202F
:1054F000CDE90500CDE9071001A80421FEF75CFA0B
:1055000018B9FEF785FB1CB0B0BDFBF789FA0000A7
:1055100080B54EF6885C42F2000ECEF2000CC5F269
:10552000002EDCF8001041F47001CCF80010DEF819
:10553000001001F00F01062906D8DEF8001007223E
:1055400062F30301CEF8001044F200414EF67F539F
:10555000C5F60201CEF6F6230A6842F001020A609F
:1055600000220A61086818400860DEF800000007A1
:1055700006D5DEF80000072363F30300CEF8000031
:1055800040F200208A61CA61C0F202200A62886289
:105590000020C0F2FF10C86240F28020C0F201106B
:1055A00008634A638863CA6308644A64086820F42D
:1055B0008020086041F200000A66C5F600400068DD
:1055C000B2EB507F05D148F208100121C5F200105E
:1055D000016044F2000043F2D201C5F200200160F4
:1055E0004FF000604CF8800C80BD0000000000000F
:1055F00080B540F2A410C2F20040FEF77DFF80BDEE
:1056000080B540F23420C2F20040FEF775FF80BD45
:1056100010B5416E01B3016846F2687CC0F6000C1B
:1056200046F2707E8A68C0F6000E8968C2F3426254
:105630004C0F1CF802301EF802101A011EF804303C
:10564000B2FBF1F11CF80420A0F868101201B2FBC3
:10565000F3F2A0F86A2010BD0121A0F86A10A0F8AA
:10566000681010BD00000000816ACA070CD18A07CB
:1056700015D44A071ED40A0727D4CA0630D48A068E
:1056800039D44A0655D541E00268D0F82CC0536899
:1056900023F4003343EA0C0353608A07E9D5026818
:1056A000D0F830C0536823F4803343EA0C035360CE
:1056B0004A07E0D50268D0F834C0536823F4802349
:1056C00043EA0C0353600A07D7D50268D0F838C004
:1056D000536823F4004343EA0C035360CA06CED553
:1056E0000268D0F83CC0936823F4805343EA0C036B
:1056F00093608A06C5D50268D0F840C0936823F449
:10570000005343EA0C0393604A0612D50268D0F8AE
:1057100044C0BCF5801F536823F4801343EA0C0394
:10572000536006D1536823F4C00C836C43EA0C0326
:105730005360090658BF70470168C06C4A6822F47C
:105740000022104348607047B0B582B00446002084
:10575000C4F88C00FDF7ECF92168054609680907D3
:105760000AD54FF4001100226FF07E4000902046D1
:105770002B4600F031FE70B92068006840070DD557
:105780004FF4800100226FF07E40009020462B46AF
:1057900000F022FE10B1032002B0B0BD2020C4F8FA
:1057A0008400C4F888000020E066C4F8800002B0DD
:1057B000B0BD00000000000080B5C06B0021A0F863
:1057C0005E10A0F85610FEF78BFE80BD00000000B2
:1057D000B0B5C46B2068D4F884102129D4F888505F
:1057E000806808D110F0800005D00020A4F8560091
:1057F000204600F0A1F82068222D806808D110F022
:10580000400005D00020A4F85E00204600F068F8B3
:10581000D4F88C0040F01000C4F88C002046FEF74D
:105820005FFEB0BD0000000080B5C169B1F5807FAA
:10583000C06B19D00021A0F85E1001680A6822F43C
:1058400080720A608A6822F001028A608A6822F007
:1058500040028A602022C0F88820C26E012A03D14B
:105860000A6822F010020A60C16E012904D1B0F862
:105870005C10FEF7D5FD80BDFFF7C2F980BD0000CA
:1058800080B5C06BC16E012905D1B0F85C10490824
:10589000FEF7C6FD80BDFFF7EBF980BD00000000FC
:1058A00080B5C169B1F5807FC06B02D1FFF7A4FA62
:1058B00080BD0021A0F856100068816821F08001A9
:1058C0008160016841F04001016080BD000000007E
:1058D00080B5C06BFFF794FA80BD000000000000A7
:1058E00001684FF6FE73CEF6FF730A6822F49072D9
:1058F0000A608A681A408A60C26E012A03D10A6867
:1059000022F010020A602021C0F888100021C16630
:10591000016770470000000080B501680A6822F046
:1059200040020A602021C0F8841000214167FFF77F
:1059300063FA80BD0000000001680A6822F0C0021E
:105940000A608A6822F400028A602021C0F884106C
:10595000704700000000000010B50446B0F8601069
:105960000068D4F88820222A29D1426AA36D114008
:1059700023F8021BA365B4F85E100139A4F85E1089
:10598000B4F85E10002918BF10BD016821F49071B1
:105990000160816821F0010181602021C4F8881034
:1059A00000212167E16E01290ED1016821F010016B
:1059B0000160B4F85C102046FEF732FD07E0816913
:1059C00041F00801816110BD2046FFF719F9002060
:1059D000E06610BD000000002DE9F04F81B00446E4
:1059E0000368B0F86050DA6918689968D4F888706C
:1059F000222F1ED1B4F86860002E18BF12F02002CA
:105A00001ED1B4F85E00C0B1B4F86810884214D258
:105A10002068816821F08051816045F65911C0F6F7
:105A200000012167016841F02001016001B0BDE87B
:105A3000F08F986940F00800986101B0BDE8F08FE0
:105A400000F4807801F001074FF0200A4FF0000BBE
:105A500009E02046FFF7D4F8C4F86CB0002E18BF58
:105A600019F02000CDD02068A16D426A2A4021F8AB
:105A7000022BA165B4F85E100139A4F85E10D0F8CD
:105A80001C905FEA49712FD0B8F1000F18BF19F0D0
:105A9000010107D001210162D4F88C1041F001010D
:105AA000C4F88C10002F18BF19F0020107D0022192
:105AB0000162D4F88C1041F00401C4F88C10002F5E
:105AC00018BF19F0040107D004210162D4F88C003A
:105AD00040F00200C4F88C00D4F88C0020B12046BD
